{
  "contractName": "AuctionHouse",
  "abi": [
    {
      "anonymous": false,
      "inputs": [
        {
          "indexed": true,
          "internalType": "uint256",
          "name": "auctionId",
          "type": "uint256"
        }
      ],
      "name": "AuctionCancelled",
      "type": "event"
    },
    {
      "anonymous": false,
      "inputs": [
        {
          "indexed": true,
          "internalType": "uint256",
          "name": "auctionId",
          "type": "uint256"
        },
        {
          "components": [
            {
              "components": [
                {
                  "components": [
                    {
                      "internalType": "bytes4",
                      "name": "assetClass",
                      "type": "bytes4"
                    },
                    {
                      "internalType": "bytes",
                      "name": "data",
                      "type": "bytes"
                    }
                  ],
                  "internalType": "struct LibAsset.AssetType",
                  "name": "assetType",
                  "type": "tuple"
                },
                {
                  "internalType": "uint256",
                  "name": "value",
                  "type": "uint256"
                }
              ],
              "internalType": "struct LibAsset.Asset",
              "name": "sellAsset",
              "type": "tuple"
            },
            {
              "components": [
                {
                  "internalType": "bytes4",
                  "name": "assetClass",
                  "type": "bytes4"
                },
                {
                  "internalType": "bytes",
                  "name": "data",
                  "type": "bytes"
                }
              ],
              "internalType": "struct LibAsset.AssetType",
              "name": "buyAsset",
              "type": "tuple"
            },
            {
              "components": [
                {
                  "internalType": "uint256",
                  "name": "amount",
                  "type": "uint256"
                },
                {
                  "internalType": "bytes4",
                  "name": "dataType",
                  "type": "bytes4"
                },
                {
                  "internalType": "bytes",
                  "name": "data",
                  "type": "bytes"
                }
              ],
              "internalType": "struct AuctionHouseBase.Bid",
              "name": "lastBid",
              "type": "tuple"
            },
            {
              "internalType": "address payable",
              "name": "seller",
              "type": "address"
            },
            {
              "internalType": "address payable",
              "name": "buyer",
              "type": "address"
            },
            {
              "internalType": "uint256",
              "name": "endTime",
              "type": "uint256"
            },
            {
              "internalType": "uint256",
              "name": "minimalStep",
              "type": "uint256"
            },
            {
              "internalType": "uint256",
              "name": "minimalPrice",
              "type": "uint256"
            },
            {
              "internalType": "uint256",
              "name": "protocolFee",
              "type": "uint256"
            },
            {
              "internalType": "bytes4",
              "name": "dataType",
              "type": "bytes4"
            },
            {
              "internalType": "bytes",
              "name": "data",
              "type": "bytes"
            }
          ],
          "indexed": false,
          "internalType": "struct AuctionHouseBase.Auction",
          "name": "auction",
          "type": "tuple"
        }
      ],
      "name": "AuctionCreated",
      "type": "event"
    },
    {
      "anonymous": false,
      "inputs": [
        {
          "indexed": true,
          "internalType": "uint256",
          "name": "auctionId",
          "type": "uint256"
        },
        {
          "components": [
            {
              "components": [
                {
                  "components": [
                    {
                      "internalType": "bytes4",
                      "name": "assetClass",
                      "type": "bytes4"
                    },
                    {
                      "internalType": "bytes",
                      "name": "data",
                      "type": "bytes"
                    }
                  ],
                  "internalType": "struct LibAsset.AssetType",
                  "name": "assetType",
                  "type": "tuple"
                },
                {
                  "internalType": "uint256",
                  "name": "value",
                  "type": "uint256"
                }
              ],
              "internalType": "struct LibAsset.Asset",
              "name": "sellAsset",
              "type": "tuple"
            },
            {
              "components": [
                {
                  "internalType": "bytes4",
                  "name": "assetClass",
                  "type": "bytes4"
                },
                {
                  "internalType": "bytes",
                  "name": "data",
                  "type": "bytes"
                }
              ],
              "internalType": "struct LibAsset.AssetType",
              "name": "buyAsset",
              "type": "tuple"
            },
            {
              "components": [
                {
                  "internalType": "uint256",
                  "name": "amount",
                  "type": "uint256"
                },
                {
                  "internalType": "bytes4",
                  "name": "dataType",
                  "type": "bytes4"
                },
                {
                  "internalType": "bytes",
                  "name": "data",
                  "type": "bytes"
                }
              ],
              "internalType": "struct AuctionHouseBase.Bid",
              "name": "lastBid",
              "type": "tuple"
            },
            {
              "internalType": "address payable",
              "name": "seller",
              "type": "address"
            },
            {
              "internalType": "address payable",
              "name": "buyer",
              "type": "address"
            },
            {
              "internalType": "uint256",
              "name": "endTime",
              "type": "uint256"
            },
            {
              "internalType": "uint256",
              "name": "minimalStep",
              "type": "uint256"
            },
            {
              "internalType": "uint256",
              "name": "minimalPrice",
              "type": "uint256"
            },
            {
              "internalType": "uint256",
              "name": "protocolFee",
              "type": "uint256"
            },
            {
              "internalType": "bytes4",
              "name": "dataType",
              "type": "bytes4"
            },
            {
              "internalType": "bytes",
              "name": "data",
              "type": "bytes"
            }
          ],
          "indexed": false,
          "internalType": "struct AuctionHouseBase.Auction",
          "name": "auction",
          "type": "tuple"
        }
      ],
      "name": "AuctionFinished",
      "type": "event"
    },
    {
      "anonymous": false,
      "inputs": [
        {
          "indexed": true,
          "internalType": "uint256",
          "name": "auctionId",
          "type": "uint256"
        },
        {
          "components": [
            {
              "internalType": "uint256",
              "name": "amount",
              "type": "uint256"
            },
            {
              "internalType": "bytes4",
              "name": "dataType",
              "type": "bytes4"
            },
            {
              "internalType": "bytes",
              "name": "data",
              "type": "bytes"
            }
          ],
          "indexed": false,
          "internalType": "struct AuctionHouseBase.Bid",
          "name": "bid",
          "type": "tuple"
        },
        {
          "indexed": false,
          "internalType": "uint256",
          "name": "endTime",
          "type": "uint256"
        }
      ],
      "name": "BidPlaced",
      "type": "event"
    },
    {
      "anonymous": false,
      "inputs": [
        {
          "indexed": true,
          "internalType": "address",
          "name": "previousOwner",
          "type": "address"
        },
        {
          "indexed": true,
          "internalType": "address",
          "name": "newOwner",
          "type": "address"
        }
      ],
      "name": "OwnershipTransferred",
      "type": "event"
    },
    {
      "anonymous": false,
      "inputs": [
        {
          "indexed": true,
          "internalType": "bytes4",
          "name": "assetType",
          "type": "bytes4"
        },
        {
          "indexed": false,
          "internalType": "address",
          "name": "proxy",
          "type": "address"
        }
      ],
      "name": "ProxyChange",
      "type": "event"
    },
    {
      "anonymous": false,
      "inputs": [
        {
          "components": [
            {
              "components": [
                {
                  "internalType": "bytes4",
                  "name": "assetClass",
                  "type": "bytes4"
                },
                {
                  "internalType": "bytes",
                  "name": "data",
                  "type": "bytes"
                }
              ],
              "internalType": "struct LibAsset.AssetType",
              "name": "assetType",
              "type": "tuple"
            },
            {
              "internalType": "uint256",
              "name": "value",
              "type": "uint256"
            }
          ],
          "indexed": false,
          "internalType": "struct LibAsset.Asset",
          "name": "asset",
          "type": "tuple"
        },
        {
          "indexed": false,
          "internalType": "address",
          "name": "from",
          "type": "address"
        },
        {
          "indexed": false,
          "internalType": "address",
          "name": "to",
          "type": "address"
        },
        {
          "indexed": false,
          "internalType": "bytes4",
          "name": "transferDirection",
          "type": "bytes4"
        },
        {
          "indexed": false,
          "internalType": "bytes4",
          "name": "transferType",
          "type": "bytes4"
        }
      ],
      "name": "Transfer",
      "type": "event"
    },
    {
      "inputs": [],
      "name": "defaultFeeReceiver",
      "outputs": [
        {
          "internalType": "address",
          "name": "",
          "type": "address"
        }
      ],
      "stateMutability": "view",
      "type": "function"
    },
    {
      "inputs": [
        {
          "internalType": "address",
          "name": "",
          "type": "address"
        }
      ],
      "name": "feeReceivers",
      "outputs": [
        {
          "internalType": "address",
          "name": "",
          "type": "address"
        }
      ],
      "stateMutability": "view",
      "type": "function"
    },
    {
      "inputs": [
        {
          "internalType": "address",
          "name": "_collection",
          "type": "address"
        },
        {
          "internalType": "uint256",
          "name": "tokenId",
          "type": "uint256"
        }
      ],
      "name": "getAuctionByToken",
      "outputs": [
        {
          "internalType": "uint256",
          "name": "",
          "type": "uint256"
        }
      ],
      "stateMutability": "view",
      "type": "function"
    },
    {
      "inputs": [
        {
          "internalType": "address",
          "name": "",
          "type": "address"
        },
        {
          "internalType": "address",
          "name": "",
          "type": "address"
        },
        {
          "internalType": "uint256[]",
          "name": "",
          "type": "uint256[]"
        },
        {
          "internalType": "uint256[]",
          "name": "",
          "type": "uint256[]"
        },
        {
          "internalType": "bytes",
          "name": "",
          "type": "bytes"
        }
      ],
      "name": "onERC1155BatchReceived",
      "outputs": [
        {
          "internalType": "bytes4",
          "name": "",
          "type": "bytes4"
        }
      ],
      "stateMutability": "nonpayable",
      "type": "function"
    },
    {
      "inputs": [
        {
          "internalType": "address",
          "name": "",
          "type": "address"
        },
        {
          "internalType": "address",
          "name": "",
          "type": "address"
        },
        {
          "internalType": "uint256",
          "name": "",
          "type": "uint256"
        },
        {
          "internalType": "uint256",
          "name": "",
          "type": "uint256"
        },
        {
          "internalType": "bytes",
          "name": "",
          "type": "bytes"
        }
      ],
      "name": "onERC1155Received",
      "outputs": [
        {
          "internalType": "bytes4",
          "name": "",
          "type": "bytes4"
        }
      ],
      "stateMutability": "nonpayable",
      "type": "function"
    },
    {
      "inputs": [
        {
          "internalType": "address",
          "name": "",
          "type": "address"
        },
        {
          "internalType": "address",
          "name": "",
          "type": "address"
        },
        {
          "internalType": "uint256",
          "name": "",
          "type": "uint256"
        },
        {
          "internalType": "bytes",
          "name": "",
          "type": "bytes"
        }
      ],
      "name": "onERC721Received",
      "outputs": [
        {
          "internalType": "bytes4",
          "name": "",
          "type": "bytes4"
        }
      ],
      "stateMutability": "nonpayable",
      "type": "function"
    },
    {
      "inputs": [],
      "name": "owner",
      "outputs": [
        {
          "internalType": "address",
          "name": "",
          "type": "address"
        }
      ],
      "stateMutability": "view",
      "type": "function"
    },
    {
      "inputs": [],
      "name": "protocolFee",
      "outputs": [
        {
          "internalType": "uint256",
          "name": "",
          "type": "uint256"
        }
      ],
      "stateMutability": "view",
      "type": "function"
    },
    {
      "inputs": [],
      "name": "renounceOwnership",
      "outputs": [],
      "stateMutability": "nonpayable",
      "type": "function"
    },
    {
      "inputs": [],
      "name": "royaltiesRegistry",
      "outputs": [
        {
          "internalType": "contract IRoyaltiesProvider",
          "name": "",
          "type": "address"
        }
      ],
      "stateMutability": "view",
      "type": "function"
    },
    {
      "inputs": [
        {
          "internalType": "address payable",
          "name": "newDefaultFeeReceiver",
          "type": "address"
        }
      ],
      "name": "setDefaultFeeReceiver",
      "outputs": [],
      "stateMutability": "nonpayable",
      "type": "function"
    },
    {
      "inputs": [
        {
          "internalType": "address",
          "name": "token",
          "type": "address"
        },
        {
          "internalType": "address",
          "name": "wallet",
          "type": "address"
        }
      ],
      "name": "setFeeReceiver",
      "outputs": [],
      "stateMutability": "nonpayable",
      "type": "function"
    },
    {
      "inputs": [
        {
          "internalType": "uint256",
          "name": "newProtocolFee",
          "type": "uint256"
        }
      ],
      "name": "setProtocolFee",
      "outputs": [],
      "stateMutability": "nonpayable",
      "type": "function"
    },
    {
      "inputs": [
        {
          "internalType": "contract IRoyaltiesProvider",
          "name": "newRoyaltiesRegistry",
          "type": "address"
        }
      ],
      "name": "setRoyaltiesRegistry",
      "outputs": [],
      "stateMutability": "nonpayable",
      "type": "function"
    },
    {
      "inputs": [
        {
          "internalType": "bytes4",
          "name": "assetType",
          "type": "bytes4"
        },
        {
          "internalType": "address",
          "name": "proxy",
          "type": "address"
        }
      ],
      "name": "setTransferProxy",
      "outputs": [],
      "stateMutability": "nonpayable",
      "type": "function"
    },
    {
      "inputs": [
        {
          "internalType": "bytes4",
          "name": "interfaceId",
          "type": "bytes4"
        }
      ],
      "name": "supportsInterface",
      "outputs": [
        {
          "internalType": "bool",
          "name": "",
          "type": "bool"
        }
      ],
      "stateMutability": "view",
      "type": "function"
    },
    {
      "inputs": [
        {
          "internalType": "address",
          "name": "newOwner",
          "type": "address"
        }
      ],
      "name": "transferOwnership",
      "outputs": [],
      "stateMutability": "nonpayable",
      "type": "function"
    },
    {
      "inputs": [
        {
          "internalType": "contract INftTransferProxy",
          "name": "_transferProxy",
          "type": "address"
        },
        {
          "internalType": "contract IERC20TransferProxy",
          "name": "_erc20TransferProxy",
          "type": "address"
        },
        {
          "internalType": "uint256",
          "name": "newProtocolFee",
          "type": "uint256"
        },
        {
          "internalType": "address",
          "name": "newDefaultFeeReceiver",
          "type": "address"
        },
        {
          "internalType": "contract IRoyaltiesProvider",
          "name": "newRoyaltiesProvider",
          "type": "address"
        }
      ],
      "name": "__AuctionHouse_init",
      "outputs": [],
      "stateMutability": "nonpayable",
      "type": "function"
    },
    {
      "inputs": [
        {
          "components": [
            {
              "components": [
                {
                  "internalType": "bytes4",
                  "name": "assetClass",
                  "type": "bytes4"
                },
                {
                  "internalType": "bytes",
                  "name": "data",
                  "type": "bytes"
                }
              ],
              "internalType": "struct LibAsset.AssetType",
              "name": "assetType",
              "type": "tuple"
            },
            {
              "internalType": "uint256",
              "name": "value",
              "type": "uint256"
            }
          ],
          "internalType": "struct LibAsset.Asset",
          "name": "_sellAsset",
          "type": "tuple"
        },
        {
          "components": [
            {
              "internalType": "bytes4",
              "name": "assetClass",
              "type": "bytes4"
            },
            {
              "internalType": "bytes",
              "name": "data",
              "type": "bytes"
            }
          ],
          "internalType": "struct LibAsset.AssetType",
          "name": "_buyAsset",
          "type": "tuple"
        },
        {
          "internalType": "uint256",
          "name": "minimalStep",
          "type": "uint256"
        },
        {
          "internalType": "uint256",
          "name": "minimalPrice",
          "type": "uint256"
        },
        {
          "internalType": "bytes4",
          "name": "dataType",
          "type": "bytes4"
        },
        {
          "internalType": "bytes",
          "name": "data",
          "type": "bytes"
        }
      ],
      "name": "startAuction",
      "outputs": [],
      "stateMutability": "nonpayable",
      "type": "function"
    },
    {
      "inputs": [
        {
          "internalType": "uint256",
          "name": "_auctionId",
          "type": "uint256"
        },
        {
          "components": [
            {
              "internalType": "uint256",
              "name": "amount",
              "type": "uint256"
            },
            {
              "internalType": "bytes4",
              "name": "dataType",
              "type": "bytes4"
            },
            {
              "internalType": "bytes",
              "name": "data",
              "type": "bytes"
            }
          ],
          "internalType": "struct AuctionHouseBase.Bid",
          "name": "bid",
          "type": "tuple"
        }
      ],
      "name": "putBid",
      "outputs": [],
      "stateMutability": "payable",
      "type": "function"
    },
    {
      "inputs": [
        {
          "internalType": "uint256",
          "name": "_auctionId",
          "type": "uint256"
        }
      ],
      "name": "getMinimalNextBid",
      "outputs": [
        {
          "internalType": "uint256",
          "name": "minBid",
          "type": "uint256"
        }
      ],
      "stateMutability": "view",
      "type": "function"
    },
    {
      "inputs": [
        {
          "internalType": "uint256",
          "name": "_auctionId",
          "type": "uint256"
        }
      ],
      "name": "checkAuctionExistence",
      "outputs": [
        {
          "internalType": "bool",
          "name": "",
          "type": "bool"
        }
      ],
      "stateMutability": "view",
      "type": "function"
    },
    {
      "inputs": [
        {
          "internalType": "uint256",
          "name": "_auctionId",
          "type": "uint256"
        }
      ],
      "name": "finishAuction",
      "outputs": [],
      "stateMutability": "nonpayable",
      "type": "function"
    },
    {
      "inputs": [
        {
          "internalType": "uint256",
          "name": "_auctionId",
          "type": "uint256"
        }
      ],
      "name": "checkAuctionRangeTime",
      "outputs": [
        {
          "internalType": "bool",
          "name": "",
          "type": "bool"
        }
      ],
      "stateMutability": "view",
      "type": "function"
    },
    {
      "inputs": [
        {
          "internalType": "uint256",
          "name": "_auctionId",
          "type": "uint256"
        }
      ],
      "name": "cancel",
      "outputs": [],
      "stateMutability": "nonpayable",
      "type": "function"
    },
    {
      "inputs": [
        {
          "internalType": "uint256",
          "name": "_auctionId",
          "type": "uint256"
        },
        {
          "components": [
            {
              "internalType": "uint256",
              "name": "amount",
              "type": "uint256"
            },
            {
              "internalType": "bytes4",
              "name": "dataType",
              "type": "bytes4"
            },
            {
              "internalType": "bytes",
              "name": "data",
              "type": "bytes"
            }
          ],
          "internalType": "struct AuctionHouseBase.Bid",
          "name": "bid",
          "type": "tuple"
        }
      ],
      "name": "buyOut",
      "outputs": [],
      "stateMutability": "payable",
      "type": "function"
    },
    {
      "inputs": [
        {
          "internalType": "uint256",
          "name": "_auctionId",
          "type": "uint256"
        }
      ],
      "name": "getCurrentBuyer",
      "outputs": [
        {
          "internalType": "address",
          "name": "",
          "type": "address"
        }
      ],
      "stateMutability": "view",
      "type": "function"
    },
    {
      "inputs": [
        {
          "internalType": "uint256",
          "name": "_auctionId",
          "type": "uint256"
        }
      ],
      "name": "isFinalized",
      "outputs": [
        {
          "internalType": "bool",
          "name": "",
          "type": "bool"
        }
      ],
      "stateMutability": "view",
      "type": "function"
    },
    {
      "inputs": [
        {
          "internalType": "uint256",
          "name": "_auctionId",
          "type": "uint256"
        }
      ],
      "name": "putBidWrapper",
      "outputs": [],
      "stateMutability": "payable",
      "type": "function"
    }
  ],
  "bytecode": "0x608060405234801561001057600080fd5b50615468806100206000396000f3fe6080604052600436106101c25760003560e01c80636d8f0694116100f7578063b0e21e8a11610095578063e66db25e11610064578063e66db25e146104c8578063ec578348146104e8578063f23a6e6114610508578063f2fde38b14610528576101c2565b8063b0e21e8a14610453578063bc197c8114610468578063c719cce614610488578063cf266ed0146104a8576101c2565b8063787dce3d116100d1578063787dce3d146103eb5780638da5cb5b1461040b578063a2a106b814610420578063a6f4a3e014610440576101c2565b80636d8f0694146103a15780636eeb69db146103b6578063715018a6146103d6576101c2565b806330c642f1116101645780633abf6fd41161013e5780633abf6fd4146103395780633be899221461034e57806340e58ee51461036e578063506a90e71461038e576101c2565b806330c642f1146102d957806332132487146102f957806333727c4d14610319576101c2565b8063150b7a02116101a0578063150b7a0214610257578063152b2c0a146102845780631cdfe3d8146102a45780632a6bf6a8146102c6576101c2565b806301ffc9a7146101c757806302097ab1146101fd5780630d6079641461022a575b600080fd5b3480156101d357600080fd5b506101e76101e23660046147ad565b610548565b6040516101f49190614d1d565b60405180910390f35b34801561020957600080fd5b5061021d610218366004614323565b6105c6565b6040516101f49190614cd5565b34801561023657600080fd5b5061024a610245366004614a8a565b6105e2565b6040516101f491906152d4565b34801561026357600080fd5b50610277610272366004614659565b610623565b6040516101f49190614d28565b34801561029057600080fd5b5061024a61029f366004614728565b610633565b3480156102b057600080fd5b506102c46102bf366004614323565b61065e565b005b6102c46102d4366004614a8a565b6106e3565b3480156102e557600080fd5b506102c46102f43660046147c7565b610734565b34801561030557600080fd5b506102c46103143660046147e2565b610805565b34801561032557600080fd5b506101e7610334366004614a8a565b6108e1565b34801561034557600080fd5b5061021d610903565b34801561035a57600080fd5b506102c4610369366004614323565b610913565b34801561037a57600080fd5b506102c4610389366004614a8a565b610998565b6102c461039c366004614aa2565b610b90565b3480156103ad57600080fd5b5061021d61116e565b3480156103c257600080fd5b5061021d6103d1366004614a8a565b61117e565b3480156103e257600080fd5b506102c461119d565b3480156103f757600080fd5b506102c4610406366004614a8a565b61124b565b34801561041757600080fd5b5061021d6112b3565b34801561042c57600080fd5b506101e761043b366004614a8a565b6112c3565b6102c461044e366004614aa2565b6112f3565b34801561045f57600080fd5b5061024a61135f565b34801561047457600080fd5b506102776104833660046145b0565b611366565b34801561049457600080fd5b506102c46104a3366004614849565b611377565b3480156104b457600080fd5b506102c46104c3366004614a8a565b611738565b3480156104d457600080fd5b506102c46104e3366004614578565b6117bb565b3480156104f457600080fd5b506101e7610503366004614a8a565b61184c565b34801561051457600080fd5b506102776105233660046146c2565b61195f565b34801561053457600080fd5b506102c4610543366004614323565b611970565b6040516301ffc9a760e01b815260009030906301ffc9a79061056e908590600401614d28565b60206040518083038186803b15801561058657600080fd5b505afa15801561059a573d6000803e3d6000fd5b505050506040513d601f19601f820116820180604052508101906105be919061478d565b90505b919050565b6101c7602052600090815260409020546001600160a01b031681565b60008181526101f66020526040812060098101546001600160a01b031661060f5780600c0154915061061d565b600b81015460058201540191505b50919050565b630a85bd0160e11b949350505050565b6001600160a01b038216600090815260c9602090815260408083208484529091529020545b92915050565b610666611a75565b6001600160a01b03166106776112b3565b6001600160a01b0316146106c0576040805162461bcd60e51b81526020600482018190526024820152600080516020615413833981519152604482015290519081900360640190fd5b6101c680546001600160a01b0319166001600160a01b0392909216919091179055565b60008181526101f6602052604090206003015460e01b6001600160e01b0319166355575f5d60e11b146107315760405162461bcd60e51b815260040161072890614de1565b60405180910390fd5b50565b61073c611a75565b6001600160a01b031661074d6112b3565b6001600160a01b031614610796576040805162461bcd60e51b81526020600482018190526024820152600080516020615413833981519152604482015290519081900360640190fd5b6001600160e01b03198216600081815261019260205260409081902080546001600160a01b0319166001600160a01b038516179055517f4b5aced933c0c9a88aeac3f0b3b72c5aaf75df8ebaf53225773248c4c3153593906107f9908490614cd5565b60405180910390a25050565b600054610100900460ff168061081e575061081e611a79565b8061082c575060005460ff16155b6108675760405162461bcd60e51b815260040180806020018281038252602e8152602001806153c4602e913960400191505060405180910390fd5b600054610100900460ff16158015610892576000805460ff1961ff0019909116610100171660011790555b61089a611a8a565b6108a2611b2b565b6108ac8686611c25565b6108b7848484611cd0565b6108bf611dad565b6108c7611e4a565b80156108d9576000805461ff00191690555b505050505050565b60006108ec826112c3565b15806105be57506108fc8261184c565b1592915050565b6101c6546001600160a01b031681565b61091b611a75565b6001600160a01b031661092c6112b3565b6001600160a01b031614610975576040805162461bcd60e51b81526020600482018190526024820152600080516020615413833981519152604482015290519081900360640190fd5b6101c580546001600160a01b0319166001600160a01b0392909216919091179055565b6109a1816112c3565b6109bd5760405162461bcd60e51b815260040161072890614e8d565b60008181526101f66020526040902060088101546001600160a01b03166109e2611a75565b6001600160a01b0316816001600160a01b031614610a125760405162461bcd60e51b815260040161072890614f25565b60098201546001600160a01b03168015610a3e5760405162461bcd60e51b815260040161072890615026565b60408051608081018252845460e01b6001600160e01b0319168183019081526001808701805485516020600261010095841615959095026000190190921693909304601f8101829004820284018201909652858352610b56958994869490938693606087019390830182828015610af65780601f10610acb57610100808354040283529160200191610af6565b820191906000526020600020905b815481529060010190602001808311610ad957829003601f168201915b505050505081525050815260200160028201548152505030847f5a735e2bd379ffdaef126b56348f3853c7cd579726fb036c31f45b3b2a9d22c47f12755a21b06621963f5494677d2471a10330ef7ad5d571bc17b92582968032d0611ef1565b610b5f8461227c565b60405184907f2809c7e17bf978fbc7194c0a694b638c4215e9140cacc6c38ca36010b45697df90600090a250505050565b610b99826108e1565b15610bb65760405162461bcd60e51b815260040161072890614e47565b6000610bc0611a75565b8251909150610bcf848261248d565b15610bf757610bde848461257f565b610be7846127b3565b610bf08461227c565b505061116a565b60008481526101f66020908152604080832081516101e081018352815460e01b6001600160e01b0319166101a08201908152600180840180548651600261010094831615949094026000190190911692909204601f810188900488028301880190965285825292959394869461016086019487948694909386936101c08a01939190830182828015610cca5780601f10610c9f57610100808354040283529160200191610cca565b820191906000526020600020905b815481529060010190602001808311610cad57829003601f168201915b50505091909252505050815260029182015460209182015291835260408051808201825260038601805460e01b6001600160e01b031916825260048701805484516101006001831615026000190190911695909504601f8101879004870286018701909452838552958501959194909385820193909291830182828015610d925780601f10610d6757610100808354040283529160200191610d92565b820191906000526020600020905b815481529060010190602001808311610d7557829003601f168201915b505050919092525050508152604080516060810182526005840180548252600685015460e01b6001600160e01b031916602080840191909152600786018054855160026101006001841615026000190190921691909104601f810184900484028201840187528082529683019694959394938601939092830182828015610e5a5780601f10610e2f57610100808354040283529160200191610e5a565b820191906000526020600020905b815481529060010190602001808311610e3d57829003601f168201915b50505091909252505050815260088201546001600160a01b039081166020808401919091526009840154909116604080840191909152600a8401546060840152600b8401546080840152600c84015460a0840152600d84015460c0840152600e84015460e090811b6001600160e01b03191690840152600f8401805482516002610100600184161581026000190190931604601f810186900486028201860190945283815294019392909190830182828015610f575780601f10610f2c57610100808354040283529160200191610f57565b820191906000526020600020905b815481529060010190602001808311610f3a57829003601f168201915b50505050508152505090506000610f78826101400151836101200151612d99565b608083015190915042906001600160a01b0316610fe05760a0830151610fb75760408083015160008981526101f660205291909120908201600a909101555b8260e00151841015610fdb5760405162461bcd60e51b815260040161072890614fe2565b611045565b846001600160a01b031683608001516001600160a01b031614156110165760405162461bcd60e51b815260040161072890614daa565b6000611021886105e2565b9050808510156110435760405162461bcd60e51b815260040161072890614f5c565b505b61107a83602001518460800151876110668760400151886101000151612dd5565b6110758b896101000151612dd5565b612df7565b60008781526101f660209081526040918290208851600582019081558983015160068301805463ffffffff191660e09290921c9190911790559289015180518a94936110cb93600701920190613ef4565b50505060008781526101f66020526040902060090180546001600160a01b0319166001600160a01b03871617905560a08301516103849082900310156111265760008781526101f6602052604090206103848201600a909101555b867f9d89b26c88af0666e0502f71246ce92ea5ee513d508840b43aeb2eb22fac3ed1878560a0015160405161115c92919061528b565b60405180910390a250505050505b5050565b6101c5546001600160a01b031681565b60009081526101f660205260409020600901546001600160a01b031690565b6111a5611a75565b6001600160a01b03166111b66112b3565b6001600160a01b0316146111ff576040805162461bcd60e51b81526020600482018190526024820152600080516020615413833981519152604482015290519081900360640190fd5b610160546040516000916001600160a01b0316907f8be0079c531659141344cd1fd0a4f28419497f9722a3daafe3b4186f6b6457e0908390a361016080546001600160a01b0319169055565b611253611a75565b6001600160a01b03166112646112b3565b6001600160a01b0316146112ad576040805162461bcd60e51b81526020600482018190526024820152600080516020615413833981519152604482015290519081900360640190fd5b6101c455565b610160546001600160a01b031690565b60008181526101f660205260408120600801546001600160a01b03166112eb575060006105c1565b5060016105c1565b6112fc826108e1565b156113195760405162461bcd60e51b815260040161072890614e47565b61132782826000015161248d565b6113435760405162461bcd60e51b815260040161072890614eee565b61134d828261257f565b611356826127b3565b61116a8261227c565b6101c45481565b63bc197c8160e01b95945050505050565b6000611381612f1a565b8751519091506001600160e01b0319166355575f5d60e11b148015906113ba57508651516001600160e01b0319166322ba176160e21b14155b6113d65760405162461bcd60e51b81526004016107289061505d565b60006113e28385612d99565b905061038481604001511015801561140257506305265c00816040015111155b61141e5760405162461bcd60e51b815260040161072890614ec2565b60608101516000901561145c57428260600151101561144f5760405162461bcd60e51b815260040161072890614f88565b5060408101516060820151015b6040518061016001604052808a815260200189815260200160405180606001604052806000815260200160006001600160e01b03191681526020016040518060200160405280600081525081525081526020016114b7611a75565b6001600160a01b03168152600060208083018290526040808401869052606084018c9052608084018b90526101c45460a08501526001600160e01b03198a1660c085015260e09384018990528783526101f68252909120835180518051835463ffffffff1916951c9490941782558383015180519294919385938492611544926001850192910190613ef4565b5050506020918201516002919091015582810151805160038401805463ffffffff191660e09290921c9190911781558183015180519293919261158d9260048701920190613ef4565b50505060408281015180516005840190815560208083015160068601805463ffffffff191660e09290921c919091179055928201518051929391926115d89260078701920190613ef4565b50505060608201516008820180546001600160a01b039283166001600160a01b031991821617909155608084015160098401805491909316911617905560a0820151600a82015560c0820151600b82015560e080830151600c830155610100830151600d830155610120830151600e830180549190921c63ffffffff19909116179055610140820151805161167791600f840191602090910190613ef4565b509050506116cf89611687611a75565b307f8e9742dda957f51c3e385ce6ed07f0b7acc2bf98484e3acc9bd1a8c7c2a918f37ffc530b24510b924664e4cc98bd27ba37fd804f8cb2b1743b1bc15525a944ae93611ef1565b6116d889612f29565b6116e289846131f1565b827f18f98bd854a0ed0d17c428b7f2c828ef9ddfc640f1e2d17d4150d03d54f76c9e6101f66000868152602001908152602001600020604051611725919061519f565b60405180910390a2505050505050505050565b611741816112c3565b61175d5760405162461bcd60e51b815260040161072890614e8d565b6117668161184c565b15801561178d575060008181526101f660205260409020600901546001600160a01b031615155b6117a95760405162461bcd60e51b8152600401610728906150d6565b6117b2816127b3565b6107318161227c565b6117c3611a75565b6001600160a01b03166117d46112b3565b6001600160a01b03161461181d576040805162461bcd60e51b81526020600482018190526024820152600080516020615413833981519152604482015290519081900360640190fd5b6001600160a01b0391821660009081526101c76020526040902080546001600160a01b03191691909216179055565b60008181526101f660209081526040808320600a810154600f820180548451601f6002600019610100600186161502019093169290920491820187900487028101870190955280855292949193429387936119079391908301828280156118f45780601f106118c9576101008083540402835291602001916118f4565b820191906000526020600020905b8154815290600101906020018083116118d757829003601f168201915b50505050600e87015460e01b9050612d99565b9050600081606001511180156119205750818160600151115b156119325760009450505050506105c1565b60008311801561194157508183105b156119535760009450505050506105c1565b50600195945050505050565b63f23a6e6160e01b95945050505050565b611978611a75565b6001600160a01b03166119896112b3565b6001600160a01b0316146119d2576040805162461bcd60e51b81526020600482018190526024820152600080516020615413833981519152604482015290519081900360640190fd5b6001600160a01b038116611a175760405162461bcd60e51b815260040180806020018281038252602681526020018061539e6026913960400191505060405180910390fd5b610160546040516001600160a01b038084169216907f8be0079c531659141344cd1fd0a4f28419497f9722a3daafe3b4186f6b6457e090600090a361016080546001600160a01b0319166001600160a01b0392909216919091179055565b3390565b6000611a8430613245565b15905090565b600054610100900460ff1680611aa35750611aa3611a79565b80611ab1575060005460ff16155b611aec5760405162461bcd60e51b815260040180806020018281038252602e8152602001806153c4602e913960400191505060405180910390fd5b600054610100900460ff16158015611b17576000805460ff1961ff0019909116610100171660011790555b8015610731576000805461ff001916905550565b600054610100900460ff1680611b445750611b44611a79565b80611b52575060005460ff16155b611b8d5760405162461bcd60e51b815260040180806020018281038252602e8152602001806153c4602e913960400191505060405180910390fd5b600054610100900460ff16158015611bb8576000805460ff1961ff0019909116610100171660011790555b6000611bc2611a75565b61016080546001600160a01b0319166001600160a01b038316908117909155604051919250906000907f8be0079c531659141344cd1fd0a4f28419497f9722a3daafe3b4186f6b6457e0908290a3508015610731576000805461ff001916905550565b6101926020527f551ff5675f39168e2a165b54276aae4c0faf005af2dfc0606d1112578aadd0e780546001600160a01b039283166001600160a01b0319918216179091557fcdd41cf0bb58dd675d3c1245b870efe9c432ad282b6da2aa7bab041a4ecd4618805493909216928116831790915563025ceed960e61b6000527fbb681386d4bceb8ecabad454f6bd7e959192b5d8d06a2acafebcd3e3bf325ac980549091169091179055565b600054610100900460ff1680611ce95750611ce9611a79565b80611cf7575060005460ff16155b611d325760405162461bcd60e51b815260040180806020018281038252602e8152602001806153c4602e913960400191505060405180910390fd5b600054610100900460ff16158015611d5d576000805460ff1961ff0019909116610100171660011790555b6101c48490556101c680546001600160a01b038086166001600160a01b0319928316179092556101c58054928516929091169190911790558015611da7576000805461ff00191690555b50505050565b600054610100900460ff1680611dc65750611dc6611a79565b80611dd4575060005460ff16155b611e0f5760405162461bcd60e51b815260040180806020018281038252602e8152602001806153c4602e913960400191505060405180910390fd5b600054610100900460ff16158015611e3a576000805460ff1961ff0019909116610100171660011790555b611e4261324b565b611b17611a8a565b600054610100900460ff1680611e635750611e63611a79565b80611e71575060005460ff16155b611eac5760405162461bcd60e51b815260040180806020018281038252602e8152602001806153c4602e913960400191505060405180910390fd5b600054610100900460ff16158015611ed7576000805460ff1961ff0019909116610100171660011790555b60016101f7558015610731576000805461ff001916905550565b8451516001600160e01b0319166355575f5d60e11b1415611f2a576020850151611f25906001600160a01b038516906132e8565b612236565b8451516001600160e01b0319166322ba176160e21b1415612009576000856000015160200151806020019051810190611f63919061433f565b6322ba176160e21b60005261019260209081527f551ff5675f39168e2a165b54276aae4c0faf005af2dfc0606d1112578aadd0e7549088015160405163776062c360e01b81529293506001600160a01b039091169163776062c391611fd19185918a918a9190600401614d80565b600060405180830381600087803b158015611feb57600080fd5b505af1158015611fff573d6000803e3d6000fd5b5050505050612236565b8451516001600160e01b0319166339d690a360e11b141561210a57600080866000015160200151806020019051810190612043919061454b565b91509150866020015160011461206b5760405162461bcd60e51b815260040161072890614fb6565b6339d690a360e11b6000526101926020527fcdd41cf0bb58dd675d3c1245b870efe9c432ad282b6da2aa7bab041a4ecd461854604051637b84dc8360e11b81526001600160a01b039091169063f709b906906120d19085908a908a908790600401614d80565b600060405180830381600087803b1580156120eb57600080fd5b505af11580156120ff573d6000803e3d6000fd5b505050505050612236565b8451516001600160e01b03191663025ceed960e61b14156121b457600080866000015160200151806020019051810190612144919061454b565b63025ceed960e61b60005261019260209081527fbb681386d4bceb8ecabad454f6bd7e959192b5d8d06a2acafebcd3e3bf325ac954908a0151604051639c1c2ee960e01b81529395509193506001600160a01b031691639c1c2ee9916120d19186918b918b918891600401614d3d565b8451516001600160e01b03191660009081526101926020526040908190205490516354bc0cf160e01b81526001600160a01b03909116906354bc0cf19061220390889088908890600401615121565b600060405180830381600087803b15801561221d57600080fd5b505af1158015612231573d6000803e3d6000fd5b505050505b7fcae9d16f553e92058883de29cb3135dbc0c1e31fd7eace79fef1d80577fe482e858585858560405161226d959493929190615154565b60405180910390a15050505050565b807f35536caf6898f5cfbe09a980e5374d10f7ef130ad8366a9fc9a0e7b8c6c6649d6101f660008481526020019081526020016000206040516122bf919061519f565b60405180910390a260008181526101f660209081526040918290208251608081018452815460e01b6001600160e01b031916818501908152600180840180548751600261010094831615949094026000190190911692909204601f81018790048702830187019097528682526123ac96939586948693606087019390929091908301828280156123905780601f1061236557610100808354040283529160200191612390565b820191906000526020600020905b81548152906001019060200180831161237357829003601f168201915b5050505050815250508152602001600282015481525050613380565b60008181526101f660205260408120805463ffffffff1916815590818181816123d86001830182613f80565b505060006002929092018290555060038301805463ffffffff19168155906124036004850182613f80565b505060006005830181815560068401805463ffffffff191690559061242b6007850182613f80565b50506008820180546001600160a01b031990811690915560098301805490911690556000600a8301819055600b8301819055600c8301819055600d8301819055600e8301805463ffffffff1916905561248890600f840190613f80565b505050565b60008281526101f660209081526040808320600f0180548251601f60026000196101006001861615020190931692909204918201859004850281018501909352808352849361254c9392919083018282801561252a5780601f106124ff5761010080835404028352916020019161252a565b820191906000526020600020905b81548152906001019060200180831161250d57829003601f168201915b50505060008881526101f660205260409020600e015460e01b9150612d999050565b905060008160800151118015612566575082816080015111155b15612575576001915050610658565b5060009392505050565b6000612589611a75565b60008481526101f660209081526040918290208251808401845260038201805460e01b6001600160e01b0319168252600483018054865160026101006001841615026000190190921691909104601f8101879004870282018701909752868152969750929561274895929491938583019391929091908301828280156126505780601f1061262557610100808354040283529160200191612650565b820191906000526020600020905b81548152906001019060200180831161263357829003601f168201915b505050919092525050506009830154604080516060810182526005860180548252600687015460e01b6001600160e01b031916602080840191909152600788018054855160026101006001841615026000190190921691909104601f810184900484028201840187528082526001600160a01b03909716968b9661273a9695949086019391908301828280156127275780601f106126fc57610100808354040283529160200191612727565b820191906000526020600020905b81548152906001019060200180831161270a57829003601f168201915b50505050508152505086600d0154612dd5565b6110758887600d0154612dd5565b82516005820190815560208085015160068401805463ffffffff191660e09290921c9190911790556040850151805186939261278b926007870192910190613ef4565b50505060090180546001600160a01b0319166001600160a01b03929092169190911790555050565b60008181526101f66020908152604080832081516101e081018352815460e01b6001600160e01b0319166101a08201908152600180840180548651600261010094831615949094026000190190911692909204601f810188900488028301880190965285825292959394869461016086019487948694909386936101c08a019391908301828280156128865780601f1061285b57610100808354040283529160200191612886565b820191906000526020600020905b81548152906001019060200180831161286957829003601f168201915b50505091909252505050815260029182015460209182015291835260408051808201825260038601805460e01b6001600160e01b031916825260048701805484516101006001831615026000190190911695909504601f810187900487028601870190945283855295850195919490938582019390929183018282801561294e5780601f106129235761010080835404028352916020019161294e565b820191906000526020600020905b81548152906001019060200180831161293157829003601f168201915b505050919092525050508152604080516060810182526005840180548252600685015460e01b6001600160e01b031916602080840191909152600786018054855160026101006001841615026000190190921691909104601f810184900484028201840187528082529683019694959394938601939092830182828015612a165780601f106129eb57610100808354040283529160200191612a16565b820191906000526020600020905b8154815290600101906020018083116129f957829003601f168201915b50505091909252505050815260088201546001600160a01b039081166020808401919091526009840154909116604080840191909152600a8401546060840152600b8401546080840152600c84015460a0840152600d84015460c0840152600e84015460e090811b6001600160e01b03191690840152600f8401805482516002610100600184161581026000190190931604601f810186900486028201860190945283815294019392909190830182828015612b135780601f10612ae857610100808354040283529160200191612b13565b820191906000526020600020905b815481529060010190602001808311612af657829003601f168201915b5050509190925250505060608101516080820151919250906001600160a01b03811615612d4a576000612b568460400151604001518560400151602001516133d1565b805151909150612bf357604080516001808252818301909252600091816020015b612b7f613fc4565b815260200190600190039081612b775790505090508281600081518110612ba257fe5b6020026020010151600001906001600160a01b031690816001600160a01b03168152505061271081600081518110612bd657fe5b6020908102919091018101516001600160601b0390921691015281525b6000612c0985610140015186610120015161342b565b805151909150612ca657604080516001808252818301909252600091816020015b612c32613fc4565b815260200190600190039081612c2a5790505090508481600081518110612c5557fe5b6020026020010151600001906001600160a01b031690816001600160a01b03168152505061271081600081518110612c8957fe5b6020908102919091018101516001600160601b0390921691015281525b612d08856040015160000151306040518060400160405280896101000151815260200189610100015181525085858a602001518b60000151600001517fb45a3ba14423c8f1b71cc094845ab56b5294dbe8d8e3ba53f3cdb63d59a4044b613462565b50845180516020909101518351612d4392919030907f1a0388dd7519a093630516a672419a2562e0e74deb98af068657dc265f0164c9613529565b5050611da7565b8251611da79030847f5a735e2bd379ffdaef126b56348f3853c7cd579726fb036c31f45b3b2a9d22c47f12755a21b06621963f5494677d2471a10330ef7ad5d571bc17b92582968032d0611ef1565b612da1613fdb565b6001600160e01b03198216632611a13360e11b14156106585782806020019051810190612dce9190614933565b9392505050565b6000612dce836000015183612df2866040015187602001516136ce565b613708565b612dff61400a565b6001600160a01b03851615612e72576040518060400160405280878152602001848152509050612e728130877f8e9742dda957f51c3e385ce6ed07f0b7acc2bf98484e3acc9bd1a8c7c2a918f37f12755a21b06621963f5494677d2471a10330ef7ad5d571bc17b92582968032d0611ef1565b50604080518082019091528581526020810182905285516001600160e01b0319166355575f5d60e11b1415612ec45781341115612ebf57612ebf6001600160a01b038516348490036132e8565b6108d9565b612f118185307f8e9742dda957f51c3e385ce6ed07f0b7acc2bf98484e3acc9bd1a8c7c2a918f37ffc530b24510b924664e4cc98bd27ba37fd804f8cb2b1743b1bc15525a944ae93611ef1565b6108d981612f29565b6101f780546001810190915590565b8051516001600160e01b0319166322ba176160e21b1415613026576000816000015160200151806020019051810190612f62919061433f565b6322ba176160e21b60005261019260209081527f551ff5675f39168e2a165b54276aae4c0faf005af2dfc0606d1112578aadd0e7549084015160405163095ea7b360e01b81529293506001600160a01b038085169363095ea7b393612fcd9392169190600401614d04565b602060405180830381600087803b158015612fe757600080fd5b505af1158015612ffb573d6000803e3d6000fd5b505050506040513d601f19601f8201168201806040525081019061301f919061478d565b5050610731565b8051516001600160e01b0319166339d690a360e11b141561312357600081600001516020015180602001905181019061305f919061454b565b50905081602001516001146130865760405162461bcd60e51b815260040161072890614fb6565b6339d690a360e11b6000526101926020527fcdd41cf0bb58dd675d3c1245b870efe9c432ad282b6da2aa7bab041a4ecd46185460405163a22cb46560e01b81526001600160a01b038381169263a22cb465926130eb9290911690600190600401614ce9565b600060405180830381600087803b15801561310557600080fd5b505af1158015613119573d6000803e3d6000fd5b5050505050610731565b8051516001600160e01b03191663025ceed960e61b141561073157600081600001516020015180602001905181019061315c919061454b565b5063025ceed960e61b6000526101926020527fbb681386d4bceb8ecabad454f6bd7e959192b5d8d06a2acafebcd3e3bf325ac95460405163a22cb46560e01b81529192506001600160a01b038084169263a22cb465926131c3921690600190600401614ce9565b600060405180830381600087803b1580156131dd57600080fd5b505af11580156108d9573d6000803e3d6000fd5b600080836000015160200151806020019051604081101561321157600080fd5b5080516020918201516001600160a01b03909116600090815260c98352604080822092825291909252902092909255505050565b3b151590565b600054610100900460ff16806132645750613264611a79565b80613272575060005460ff16155b6132ad5760405162461bcd60e51b815260040180806020018281038252602e8152602001806153c4602e913960400191505060405180910390fd5b600054610100900460ff161580156132d8576000805460ff1961ff0019909116610100171660011790555b6132e061377b565b611e42613818565b6040516000906001600160a01b0384169083908381818185875af1925050503d8060008114613333576040519150601f19603f3d011682016040523d82523d6000602084013e613338565b606091505b5050905080612488576040805162461bcd60e51b815260206004820152600f60248201526e1d1c985b9cd9995c8819985a5b1959608a1b604482015290519081900360640190fd5b60008082600001516020015180602001905160408110156133a057600080fd5b5080516020918201516001600160a01b03909116600090815260c98352604080822092825291909252812055505050565b6133d961402a565b6001600160e01b03198216632611a13360e11b14156106585760008380602001905181019061340891906149ef565b604080518082019091528151815260209182015191810191909152949350505050565b61343361402a565b6001600160e01b03198216632611a13360e11b1415610658576000838060200190518101906134089190614933565b60006134778988600001518860200151613708565b90506000613489828b8b8b89886138b5565b90506134998585838d8d886139a6565b90506134ce85828c8a602001518d887fdfdfdaf4cc275341b6776a7ee23b953990b8d991717449077287da70f32cf955613a0c565b508091505061350685828c89602001518d887fdfdfdaf4cc275341b6776a7ee23b953990b8d991717449077287da70f32cf955613a0c565b508091505061351c85828b896000015187613529565b5098975050505050505050565b600084815b600185510381101561361957600061356f86838151811061354b57fe5b6020026020010151602001516001600160601b031689613ada90919063ffffffff16565b90506135a486838151811061358057fe5b6020026020010151602001516001600160601b031685613af290919063ffffffff16565b93508015613610576135b68382613b4c565b925061361060405180604001604052808b815260200183815250888885815181106135dd57fe5b602002602001015160000151887fa10bb5b2060a412d05113732875a5431ca23453eb93f797e0ffcb5b40e5f2c3e611ef1565b5060010161352e565b5060008460018651038151811061362c57fe5b6020026020010151905061365681602001516001600160601b031684613af290919063ffffffff16565b925082612710146136795760405162461bcd60e51b81526004016107289061509f565b81156136c4576136c460405180604001604052808a815260200184815250878360000151877fa10bb5b2060a412d05113732875a5431ca23453eb93f797e0ffcb5b40e5f2c3e611ef1565b5050505050505050565b60606001600160e01b03198216632611a13360e11b141561065857828060200190518101906136fd91906149ef565b602001519392505050565b600061371e6137178585613ada565b8590613af2565b905060005b82518110156137735761376961376284838151811061373e57fe5b6020026020010151602001516001600160601b031687613ada90919063ffffffff16565b8390613af2565b9150600101613723565b509392505050565b600054610100900460ff16806137945750613794611a79565b806137a2575060005460ff16155b6137dd5760405162461bcd60e51b815260040180806020018281038252602e8152602001806153c4602e913960400191505060405180910390fd5b600054610100900460ff16158015613808576000805460ff1961ff0019909116610100171660011790555b611b176301ffc9a760e01b613ba9565b600054610100900460ff16806138315750613831611a79565b8061383f575060005460ff16155b61387a5760405162461bcd60e51b815260040180806020018281038252602e8152602001806153c4602e913960400191505060405180910390fd5b600054610100900460ff161580156138a5576000805460ff1961ff0019909116610100171660011790555b611b17630271189760e51b613ba9565b60008060006138cf89898860200151896000015101613c2d565b9092509050801561399a5784516000906001600160e01b0319166322ba176160e21b141561391657856020015180602001905181019061390f919061433f565b905061394f565b85516001600160e01b03191663025ceed960e61b141561394f576000866020015180602001905181019061394a919061454b565b509150505b6139986040518060400160405280888152602001848152508961397184613c4f565b887ff87e69cb514f255f3d32f9d90f25160a10d0cdefe6618a6406db334d4450595c611ef1565b505b50979650505050505050565b6000806139b287613c8e565b90506000806139e68a8989868a8a7fb3c5c697ec0b511b76d12f6293e6ee827b1e1df79ac7c64d0466d945904893d7613a0c565b9150915061138881111561351c5760405162461bcd60e51b815260040161072890614e10565b856000805b8651811015613acd57613a4d878281518110613a2957fe5b6020026020010151602001516001600160601b031683613af290919063ffffffff16565b9150600080613a7d858b8b8681518110613a6357fe5b6020026020010151602001516001600160601b0316613c2d565b90955085925090508015613ac357613ac360405180604001604052808e815260200183815250898b8681518110613ab057fe5b6020026020010151600001518a8a611ef1565b5050600101613a11565b5097509795505050505050565b6000612dce612710613aec8585613e07565b90613e60565b600082820183811015612dce576040805162461bcd60e51b815260206004820152601b60248201527f536166654d6174683a206164646974696f6e206f766572666c6f770000000000604482015290519081900360640190fd5b600082821115613ba3576040805162461bcd60e51b815260206004820152601e60248201527f536166654d6174683a207375627472616374696f6e206f766572666c6f770000604482015290519081900360640190fd5b50900390565b6001600160e01b03198082161415613c08576040805162461bcd60e51b815260206004820152601c60248201527f4552433136353a20696e76616c696420696e7465726661636520696400000000604482015290519081900360640190fd5b6001600160e01b0319166000908152603360205260409020805460ff19166001179055565b600080613c4385613c3e8686613ada565b613ec7565b91509150935093915050565b6001600160a01b0380821660009081526101c760205260408120549091168015613c7a5790506105c1565b50506101c6546001600160a01b0316919050565b80516060906001600160e01b03191663025ceed960e61b1480613cc2575081516001600160e01b0319166339d690a360e11b145b15613d78576000808360200151806020019051810190613ce2919061454b565b6101c554604051634e53ee3d60e11b81529294509092506001600160a01b031690639ca7dc7a90613d199085908590600401614d04565b600060405180830381600087803b158015613d3357600080fd5b505af1158015613d47573d6000803e3d6000fd5b505050506040513d6000823e601f3d908101601f19168201604052613d6f9190810190614753565b925050506105c1565b81516001600160e01b03191662737ea960e61b1415613dbb576000808360200151806020019051810190613dac919061435b565b6080015193506105c192505050565b81516001600160e01b03191663d8f960c160e01b1415613dff576000808360200151806020019051810190613df09190614458565b6060015193506105c192505050565b506060919050565b600082613e1657506000610658565b82820282848281613e2357fe5b0414612dce5760405162461bcd60e51b81526004018080602001828103825260218152602001806153f26021913960400191505060405180910390fd5b6000808211613eb6576040805162461bcd60e51b815260206004820152601a60248201527f536166654d6174683a206469766973696f6e206279207a65726f000000000000604482015290519081900360640190fd5b818381613ebf57fe5b049392505050565b60008082841115613ee657613edc8484613b4c565b9150829050613eed565b5060009050825b9250929050565b828054600181600116156101000203166002900490600052602060002090601f016020900481019282613f2a5760008555613f70565b82601f10613f4357805160ff1916838001178555613f70565b82800160010185558215613f70579182015b82811115613f70578251825591602001919060010190613f55565b50613f7c929150614044565b5090565b50805460018160011615610100020316600290046000825580601f10613fa65750610731565b601f0160209004906000526020600020908101906107319190614044565b604080518082019091526000808252602082015290565b6040518060a0016040528060608152602001606081526020016000815260200160008152602001600081525090565b604051806040016040528061401d614059565b8152602001600081525090565b604051806040016040528060608152602001606081525090565b5b80821115613f7c5760008155600101614045565b60408051808201909152600081526060602082015290565b600061408461407f8461531d565b6152dd565b905082815283838301111561409857600080fd5b612dce836020830184615356565b600082601f8301126140b6578081fd5b815160206140c661407f83615300565b82815281810190858301855b85811015614110578151880189603f8201126140ec578788fd5b6140fd8a8783015160408401614071565b85525092840192908401906001016140d2565b5090979650505050505050565b600082601f83011261412d578081fd5b8151602061413d61407f83615300565b8281528181019085830160408086028801850189101561415b578687fd5b865b868110156141ca5781838b031215614173578788fd5b81518281018181106001600160401b038211171561418d57fe5b8352835161419a81615388565b8152838701516001600160601b03811681146141b457898afd5b818801528552938501939181019160010161415d565b509198975050505050505050565b600082601f8301126141e8578081fd5b813560206141f861407f83615300565b8281528181019085830183850287018401881015614214578586fd5b855b8581101561411057813584529284019290840190600101614216565b80356001600160e01b0319811681146105c157600080fd5b600082601f83011261425a578081fd5b813561426861407f8261531d565b81815284602083860101111561427c578283fd5b816020850160208301379081016020019190915292915050565b600082601f8301126142a6578081fd5b612dce83835160208501614071565b6000604082840312156142c6578081fd5b604051604081016001600160401b0382821081831117156142e357fe5b816040528293506142f385614232565b8352602085013591508082111561430957600080fd5b506143168582860161424a565b6020830152505092915050565b600060208284031215614334578081fd5b8135612dce81615388565b600060208284031215614350578081fd5b8151612dce81615388565b6000806040838503121561436d578081fd5b825161437881615388565b60208401519092506001600160401b0380821115614394578283fd5b9084019060c082870312156143a7578283fd5b6143b160c06152dd565b825181526020830151828111156143c6578485fd5b6143d288828601614296565b602083015250604083015160408201526060830151828111156143f3578485fd5b6143ff8882860161411d565b606083015250608083015182811115614416578485fd5b6144228882860161411d565b60808301525060a083015182811115614439578485fd5b614445888286016140a6565b60a0830152508093505050509250929050565b6000806040838503121561446a578182fd5b825161447581615388565b60208401519092506001600160401b0380821115614491578283fd5b9084019060a082870312156144a4578283fd5b6144ae60a06152dd565b825181526020830151828111156144c3578485fd5b6144cf88828601614296565b6020830152506040830151828111156144e6578485fd5b6144f28882860161411d565b604083015250606083015182811115614509578485fd5b6145158882860161411d565b60608301525060808301518281111561452c578485fd5b614538888286016140a6565b6080830152508093505050509250929050565b6000806040838503121561455d578182fd5b825161456881615388565b6020939093015192949293505050565b6000806040838503121561458a578182fd5b823561459581615388565b915060208301356145a581615388565b809150509250929050565b600080600080600060a086880312156145c7578081fd5b85356145d281615388565b945060208601356145e281615388565b935060408601356001600160401b03808211156145fd578283fd5b61460989838a016141d8565b9450606088013591508082111561461e578283fd5b61462a89838a016141d8565b9350608088013591508082111561463f578283fd5b5061464c8882890161424a565b9150509295509295909350565b6000806000806080858703121561466e578182fd5b843561467981615388565b9350602085013561468981615388565b92506040850135915060608501356001600160401b038111156146aa578182fd5b6146b68782880161424a565b91505092959194509250565b600080600080600060a086880312156146d9578283fd5b85356146e481615388565b945060208601356146f481615388565b9350604086013592506060860135915060808601356001600160401b0381111561471c578182fd5b61464c8882890161424a565b6000806040838503121561473a578182fd5b823561474581615388565b946020939093013593505050565b600060208284031215614764578081fd5b81516001600160401b03811115614779578182fd5b6147858482850161411d565b949350505050565b60006020828403121561479e578081fd5b81518015158114612dce578182fd5b6000602082840312156147be578081fd5b612dce82614232565b600080604083850312156147d9578182fd5b61459583614232565b600080600080600060a086880312156147f9578283fd5b853561480481615388565b9450602086013561481481615388565b935060408601359250606086013561482b81615388565b9150608086013561483b81615388565b809150509295509295909350565b60008060008060008060c08789031215614861578384fd5b86356001600160401b0380821115614877578586fd5b908801906040828b03121561488a578586fd5b60405160408101818110838211171561489f57fe5b6040528235828111156148b0578788fd5b6148bc8c8286016142b5565b8252506020928301358382015297509088013590808211156148dc578586fd5b6148e88a838b016142b5565b9650604089013595506060890135945061490460808a01614232565b935060a0890135915080821115614919578283fd5b5061492689828a0161424a565b9150509295509295509295565b600060208284031215614944578081fd5b81516001600160401b038082111561495a578283fd5b9083019060a0828603121561496d578283fd5b60405160a08101818110838211171561498257fe5b604052825182811115614993578485fd5b61499f8782860161411d565b8252506020830151828111156149b3578485fd5b6149bf8782860161411d565b60208301525060408301516040820152606083015160608201526080830151608082015280935050505092915050565b600060208284031215614a00578081fd5b81516001600160401b0380821115614a16578283fd5b9083019060408286031215614a29578283fd5b604051604081018181108382111715614a3e57fe5b604052825182811115614a4f578485fd5b614a5b8782860161411d565b825250602083015182811115614a6f578485fd5b614a7b8782860161411d565b60208301525095945050505050565b600060208284031215614a9b578081fd5b5035919050565b60008060408385031215614ab4578182fd5b8235915060208301356001600160401b0380821115614ad1578283fd5b9084019060608287031215614ae4578283fd5b604051606081018181108382111715614af957fe5b60405282358152614b0c60208401614232565b6020820152604083013582811115614b22578485fd5b614b2e8882860161424a565b6040830152508093505050509250929050565b6001600160a01b03169052565b6001600160e01b0319169052565b60008151808452614b74816020860160208601615356565b601f01601f19169290920160200192915050565b60008154600180821660008114614ba65760018114614bc457614c02565b60028304607f16865260ff1983166020870152604086019350614c02565b60028304808752614bd48661533e565b60005b82811015614bf85781546020828b0101528482019150602081019050614bd7565b8801602001955050505b50505092915050565b600063ffffffff60e01b825460e01b16835260406020840152612dce6040840160018401614b88565b600081516040845263ffffffff60e01b81511660408501526020810151905060406060850152614c676080850182614b5c565b602093840151949093019390935250919050565b600060408352614c8e6040840183614c0b565b600283015460208501528091505092915050565b60008154835263ffffffff60e01b600183015460e01b16602084015260606040840152612dce6060840160028401614b88565b6001600160a01b0391909116815260200190565b6001600160a01b039290921682521515602082015260400190565b6001600160a01b03929092168252602082015260400190565b901515815260200190565b6001600160e01b031991909116815260200190565b6001600160a01b03958616815293851660208501529190931660408301526060820192909252608081019190915260c060a0820181905260009082015260e00190565b6001600160a01b039485168152928416602084015292166040820152606081019190915260800190565b6020808252601f908201527f616c7265616479206861766520616e206f75747374616e64696e672062696400604082015260600190565b6020808252601590820152741bdb9b1e4811551208189a591cc8185b1b1bddd959605a1b604082015260600190565b6020808252601d908201527f526f79616c746965732061726520746f6f206869676820283e35302529000000604082015260600190565b60208082526026908201527f61756374696f6e20666f7220746869732061637574696f6e496420697320696e60408201526561637469766560d01b606082015260800190565b6020808252818101527f7468657265206973206e6f2061756374696f6e20776974682074686973206964604082015260600190565b60208082526012908201527134b731b7b93932b1ba10323ab930ba34b7b760711b604082015260600190565b6020808252601d908201527f6e6f7420656e6f75676820666f72206275796f75742061756374696f6e000000604082015260600190565b6020808252601a908201527f61756374696f6e206f776e6572206e6f74206465746563746564000000000000604082015260600190565b60208082526012908201527162696420616d6f756e7420746f6f206c6f7760701b604082015260600190565b602080825260149082015273696e636f72726563742073746172742074696d6560601b604082015260600190565b60208082526012908201527132b9319b9918903b30b63ab29032b93937b960711b604082015260600190565b60208082526024908201527f6269642063616e2774206265206c657373207468616e206d696e696d616c20706040820152637269636560e01b606082015260800190565b6020808252601d908201527f63616e27742063616e63656c2061756374696f6e207769746820626964000000604082015260600190565b60208082526022908201527f63616e27742073656c6c20455448206f72204552433230206f6e20617563746960408201526137b760f11b606082015260800190565b6020808252601e908201527f53756d207061796f75747320427073206e6f7420657175616c20313030250000604082015260600190565b6020808252602b908201527f6f6e6c7920656e6465642061756374696f6e2077697468206269642063616e2060408201526a189948199a5b9a5cda195960aa1b606082015260800190565b6000606082526151346060830186614c34565b6001600160a01b0394851660208401529290931660409091015292915050565b600060a0825261516760a0830188614c34565b6001600160a01b0396871660208401529490951660408201526001600160e01b03199283166060820152911660809091015292915050565b6000602082526101608060208401526151bc610180840185614c7b565b601f19808583030160408601526151d68260038801614c0b565b9150808583030160608601526151ef8260058801614ca2565b91506151fe600887015461534a565b61520b6080870182614b41565b50615219600987015461534a565b61522660a0870182614b41565b50600a86015460c0860152600b86015460e0860152600c860154610100860152600d86015461012086015261525e600e870154615382565b61526c610140870182614b4e565b50848203018285015261528281600f8701614b88565b95945050505050565b6000604082528351604083015263ffffffff60e01b60208501511660608301526040840151606060808401526152c460a0840182614b5c565b9150508260208301529392505050565b90815260200190565b6040518181016001600160401b03811182821017156152f857fe5b604052919050565b60006001600160401b0382111561531357fe5b5060209081020190565b60006001600160401b0382111561533057fe5b50601f01601f191660200190565b60009081526020902090565b6001600160a01b031690565b60005b83811015615371578181015183820152602001615359565b83811115611da75750506000910152565b60e01b90565b6001600160a01b038116811461073157600080fdfe4f776e61626c653a206e6577206f776e657220697320746865207a65726f2061646472657373496e697469616c697a61626c653a20636f6e747261637420697320616c726561647920696e697469616c697a6564536166654d6174683a206d756c7469706c69636174696f6e206f766572666c6f774f776e61626c653a2063616c6c6572206973206e6f7420746865206f776e6572a26469706673582212204fb4ddfc91746f85cd1bd3467a5f2e6991b9d9719ef52ac6edb6251c58b9621064736f6c63430007060033",
  "immutableReferences": {},
  "source": "// SPDX-License-Identifier: MIT\n\npragma solidity 0.7.6;\npragma abicoder v2;\n\nimport \"./AuctionHouseBase.sol\";\n\nimport \"@rarible/exchange-v2/contracts/lib/LibTransfer.sol\";\nimport \"@rarible/exchange-v2/contracts/RaribleTransferManager.sol\";\n\n//contract AuctionHouse is AuctionHouseBase, Initializable, TransferExecutor {\ncontract AuctionHouse is AuctionHouseBase, TransferExecutor,  RaribleTransferManager{\n    using LibTransfer for address;\n\n    mapping(uint => Auction) auctions;   //save auctions here\n\n    uint256 private auctionId;          //unic. auction id\n\n    uint256 private constant EXTENSION_DURATION = 15 minutes;\n    uint256 private constant MAX_DURATION = 1000 days;\n\n    function __AuctionHouse_init(\n        INftTransferProxy _transferProxy,\n        IERC20TransferProxy _erc20TransferProxy,\n        uint newProtocolFee,\n        address newDefaultFeeReceiver,\n        IRoyaltiesProvider newRoyaltiesProvider\n    ) external initializer {\n        __Context_init_unchained();\n        __Ownable_init_unchained();\n        __TransferExecutor_init_unchained(_transferProxy, _erc20TransferProxy);\n        __RaribleTransferManager_init_unchained(newProtocolFee, newDefaultFeeReceiver, newRoyaltiesProvider);\n        __AuctionHouseBase_init();\n        __AuctionHouse_init_unchained();\n    }\n\n     function __AuctionHouse_init_unchained() internal initializer {\n        auctionId = 1;\n    }\n\n    //creates auction and locks assets to sell\n    function startAuction(\n        LibAsset.Asset memory _sellAsset,\n        LibAsset.AssetType memory _buyAsset,\n        uint minimalStep,\n        uint minimalPrice,\n        bytes4 dataType,\n        bytes memory data\n    ) external {\n        uint currentAuctionId = getNextAndIncrementAuctionId();\n        require(\n            _sellAsset.assetType.assetClass != LibAsset.ETH_ASSET_CLASS && \n            _sellAsset.assetType.assetClass != LibAsset.ERC20_ASSET_CLASS,\n            \"can't sell ETH or ERC20 on auction\"\n        );\n\n        LibAucDataV1.DataV1 memory aucData = LibAucDataV1.parse(data, dataType);\n        require(aucData.duration >= EXTENSION_DURATION && aucData.duration <= MAX_DURATION, \"incorrect duration\");\n\n        uint endTime = 0;\n        if (aucData.startTime > 0){\n            require (aucData.startTime >= block.timestamp, \"incorrect start time\");\n            endTime = aucData.startTime + aucData.duration;\n        }\n        auctions[currentAuctionId] = Auction(\n            _sellAsset,\n            _buyAsset,\n            Bid(0, \"\", \"\"),\n            _msgSender(),\n            payable(address(0)),\n            endTime,\n            minimalStep,\n            minimalPrice,\n            protocolFee,\n            dataType,\n            data\n        );\n        transfer(_sellAsset, _msgSender(), address(this), TO_LOCK, LOCK);\n        setApproveForTransferProxy(_sellAsset);\n\n        setAuctionForToken(_sellAsset, currentAuctionId);\n        emit AuctionCreated(currentAuctionId, auctions[currentAuctionId]);\n    }\n\n    function setApproveForTransferProxy(LibAsset.Asset memory _asset) internal {\n        if (_asset.assetType.assetClass == LibAsset.ERC20_ASSET_CLASS) {\n            (address token) = abi.decode(_asset.assetType.data, (address));\n            IERC20Upgradeable(token).approve(proxies[LibAsset.ERC20_ASSET_CLASS], _asset.value);\n        } else if (_asset.assetType.assetClass == LibAsset.ERC721_ASSET_CLASS) {\n            (address token,) = abi.decode(_asset.assetType.data, (address, uint256));\n            require(_asset.value == 1, \"erc721 value error\");\n            IERC721Upgradeable(token).setApprovalForAll(proxies[LibAsset.ERC721_ASSET_CLASS], true);\n        } else if (_asset.assetType.assetClass == LibAsset.ERC1155_ASSET_CLASS) {\n            (address token,) = abi.decode(_asset.assetType.data, (address, uint256));\n            IERC1155Upgradeable(token).setApprovalForAll(proxies[LibAsset.ERC1155_ASSET_CLASS], true);\n        }\n    }\n\n    function getNextAndIncrementAuctionId() internal returns (uint256) {\n        return auctionId++;\n    }\n\n    //put a bid and return locked assets for the last bid\n    function putBid(uint _auctionId, Bid memory bid) payable public {\n        require(!isFinalized(_auctionId), \"auction for this acutionId is inactive\");\n        address payable newBuyer = _msgSender();\n        uint newAmount = bid.amount;\n        if (buyOutVerify(_auctionId, newAmount)) {\n            _buyOut(_auctionId, bid);\n            doTransfers(_auctionId);\n            deactivateAuction(_auctionId);\n            return;\n        }\n        \n        Auction memory currentAuction = auctions[_auctionId];\n        LibAucDataV1.DataV1 memory aucData = LibAucDataV1.parse(currentAuction.data, currentAuction.dataType);\n        uint currentTime = block.timestamp;\n        //start action if minimal price is met\n        if (currentAuction.buyer == address(0x0)) {//no bid at all\n            if (currentAuction.endTime == 0){\n                auctions[_auctionId].endTime = currentTime + aucData.duration;\n            }\n            require(newAmount >= currentAuction.minimalPrice, \"bid can't be less than minimal price\");\n        } else {//there is bid in auction\n            require(currentAuction.buyer != newBuyer, \"already have an outstanding bid\");\n            uint256 minAmount = getMinimalNextBid(_auctionId);\n            require(newAmount >= minAmount, \"bid amount too low\");\n        }\n        reserveValue(\n            currentAuction.buyAsset, \n            currentAuction.buyer, \n            newBuyer, \n            getBidTotalAmount(currentAuction.lastBid, currentAuction.protocolFee), \n            getBidTotalAmount(bid, currentAuction.protocolFee)\n        );\n        auctions[_auctionId].lastBid = bid;\n        auctions[_auctionId].buyer = newBuyer;\n\n        if (currentAuction.endTime - currentTime < EXTENSION_DURATION) {\n            auctions[_auctionId].endTime = currentTime + EXTENSION_DURATION;\n        }\n        emit BidPlaced(_auctionId, bid, currentAuction.endTime);\n    }\n\n    function reserveValue(LibAsset.AssetType memory _buyAssetType, address oldBuyer, address newBuyer, uint oldAmount, uint newAmount) internal {\n        LibAsset.Asset memory transferAsset;\n        if (oldBuyer != address(0x0)) {//return oldAmount to oldBuyer\n            transferAsset = LibAsset.Asset(_buyAssetType, oldAmount);\n            transfer(transferAsset, address(this), oldBuyer, TO_LOCK, UNLOCK);\n        }\n        transferAsset = LibAsset.Asset(_buyAssetType, newAmount);\n        if (transferAsset.assetType.assetClass == LibAsset.ETH_ASSET_CLASS) {\n            if (msg.value > newAmount) {//more ETH than need\n                address(newBuyer).transferEth(msg.value - newAmount);\n            }\n        } else {\n            transfer(transferAsset, newBuyer, address(this), TO_LOCK, LOCK);\n            setApproveForTransferProxy(transferAsset);\n        } \n    }\n\n    function getMinimalNextBid(uint _auctionId) public view returns (uint minBid){\n        Auction storage currentAuction = auctions[_auctionId];\n\n        if (currentAuction.buyer == address(0x0)) {\n            minBid = currentAuction.minimalPrice;\n        } else {\n            minBid = currentAuction.lastBid.amount + currentAuction.minimalStep;\n        }\n    }\n\n    function checkAuctionExistence(uint _auctionId) public view returns (bool){\n        if (auctions[_auctionId].seller == address(0)) {\n            return false;\n        } else {\n            return true;\n        }\n    }\n\n    function buyOutVerify(uint _auctionId, uint newAmount) internal view returns (bool) {\n        LibAucDataV1.DataV1 memory aucData = LibAucDataV1.parse(auctions[_auctionId].data, auctions[_auctionId].dataType);\n\n        if (aucData.buyOutPrice > 0 && aucData.buyOutPrice <= newAmount) {\n            return true;\n        }\n        return false;\n    }\n\n    //finishAuction\n    function finishAuction(uint _auctionId) external {\n        require(checkAuctionExistence(_auctionId), \"there is no auction with this id\");\n        require(\n            !checkAuctionRangeTime(_auctionId) &&\n            auctions[_auctionId].buyer != address(0),\n            \"only ended auction with bid can be finished\");\n        doTransfers(_auctionId);\n        deactivateAuction(_auctionId);\n    }\n\n    function doTransfers(uint _auctionId) internal {\n        Auction memory currentAuction = auctions[_auctionId];\n        address seller = currentAuction.seller;\n        address buyer = currentAuction.buyer;\n        if (buyer != address(0x0)) {//bid exists\n            LibOrderDataV1.DataV1 memory bidData = LibBidDataV1.getPaymentData(currentAuction.lastBid.data, currentAuction.lastBid.dataType);\n            if (bidData.payouts.length == 0){\n                LibPart.Part[] memory payout = new LibPart.Part[](1);\n                payout[0].account = payable(buyer);\n                payout[0].value = 10000;\n                bidData.payouts = payout;\n            }\n            LibOrderDataV1.DataV1 memory aucData = LibAucDataV1.getPaymentData(currentAuction.data, currentAuction.dataType);\n            if (aucData.payouts.length == 0){\n                LibPart.Part[] memory payout = new LibPart.Part[](1);\n                payout[0].account = payable(seller);\n                payout[0].value = 10000;\n                aucData.payouts = payout;\n            }\n            doTransfersWithFees(\n                currentAuction.lastBid.amount, \n                address(this), \n                MatchProtocolFees(currentAuction.protocolFee, currentAuction.protocolFee),\n                bidData, \n                aucData, \n                currentAuction.buyAsset, \n                currentAuction.sellAsset.assetType, \n                TO_MAKER\n            );\n            transferPayouts(currentAuction.sellAsset.assetType, currentAuction.sellAsset.value, address(this), bidData.payouts, TO_TAKER);\n        } else {\n            transfer(currentAuction.sellAsset, address(this), seller, TO_SELLER, UNLOCK); //nft back to seller\n        }\n    }\n\n    function checkAuctionRangeTime(uint _auctionId) public view returns (bool){\n        Auction storage currentAuction = auctions[_auctionId];\n        uint endTime = auctions[_auctionId].endTime;\n        uint currentTime = block.timestamp;\n\n        LibAucDataV1.DataV1 memory aucData = LibAucDataV1.parse(currentAuction.data, currentAuction.dataType);\n        if (aucData.startTime > 0 && aucData.startTime > currentTime) {\n            return false;\n        }\n        if (endTime > 0 && endTime < currentTime){\n            return false;\n        }\n        \n        return true;\n    }\n\n    function deactivateAuction(uint _auctionId) internal {\n        emit AuctionFinished(_auctionId, auctions[_auctionId]);\n        deleteAuctionForToken(auctions[_auctionId].sellAsset);\n        delete auctions[_auctionId];\n    }\n\n    //cancel auction without bid\n    function cancel(uint _auctionId) external {\n        require(checkAuctionExistence(_auctionId), \"there is no auction with this id\");\n        Auction storage currentAuction = auctions[_auctionId];\n        address seller = currentAuction.seller;\n        require(seller == _msgSender(), \"auction owner not detected\");\n        address buyer = currentAuction.buyer;\n        require(buyer == address(0), \"can't cancel auction with bid\");\n        transfer(currentAuction.sellAsset, address(this), seller, TO_SELLER, UNLOCK); //nft transfer back to seller\n        deactivateAuction(_auctionId);\n        AuctionCancelled(_auctionId);\n    }\n\n    //buyout\n    function buyOut(uint _auctionId, Bid memory bid) external payable {\n        require(!isFinalized(_auctionId), \"auction for this acutionId is inactive\");\n\n        require(buyOutVerify(_auctionId, bid.amount), \"not enough for buyout auction\");\n        _buyOut(_auctionId, bid);\n        doTransfers(_auctionId);\n        deactivateAuction(_auctionId);\n    }\n\n    function _buyOut(uint _auctionId, Bid memory bid) internal {\n        address payable newBuyer = _msgSender();\n        Auction storage currentAuction = auctions[_auctionId];\n        reserveValue(\n            currentAuction.buyAsset, \n            currentAuction.buyer, \n            newBuyer, \n            getBidTotalAmount(currentAuction.lastBid, currentAuction.protocolFee), \n            getBidTotalAmount(bid, currentAuction.protocolFee)\n        );\n        currentAuction.lastBid = bid;\n        currentAuction.buyer = newBuyer;\n    }\n\n    function getCurrentBuyer(uint _auctionId) public view returns(address) {\n        return auctions[_auctionId].buyer;\n    }\n\n    function isFinalized(uint256 _auctionId) public view returns (bool){\n        return (!checkAuctionExistence(_auctionId) || !checkAuctionRangeTime(_auctionId));\n    }\n\n    function getBidTotalAmount(Bid memory bid, uint _protocolFee) internal view returns(uint){\n        return calculateTotalAmount(bid.amount, _protocolFee, LibBidDataV1.getOrigin(bid.data, bid.dataType));\n    }\n\n    function putBidWrapper(uint256 _auctionId) external payable {\n      require(auctions[_auctionId].buyAsset.assetClass == LibAsset.ETH_ASSET_CLASS, \"only ETH bids allowed\");\n      //putBid(_auctionId, Bid(msg.value, \"\", \"\"));\n    }\n\n    uint256[50] private ______gap;\n}",
  "sourcePath": "/Users/sergey/Projects/rarible/protocol-contracts/auction/contracts/AuctionHouse.sol",
  "compiler": {
    "name": "solc",
    "version": "0.7.6+commit.7338295f.Emscripten.clang"
  },
  "schemaVersion": "3.4.0",
  "updatedAt": "2021-10-31T06:43:25.982Z",
  "devdoc": {
    "kind": "dev",
    "methods": {
      "onERC721Received(address,address,uint256,bytes)": {
        "details": "See {IERC721Receiver-onERC721Received}. Always returns `IERC721Receiver.onERC721Received.selector`."
      },
      "owner()": {
        "details": "Returns the address of the current owner."
      },
      "renounceOwnership()": {
        "details": "Leaves the contract without owner. It will not be possible to call `onlyOwner` functions anymore. Can only be called by the current owner. NOTE: Renouncing ownership will leave the contract without an owner, thereby removing any functionality that is only available to the owner."
      },
      "supportsInterface(bytes4)": {
        "details": "See {IERC165-supportsInterface}. Time complexity O(1), guaranteed to always use less than 30 000 gas."
      },
      "transferOwnership(address)": {
        "details": "Transfers ownership of the contract to a new account (`newOwner`). Can only be called by the current owner."
      }
    },
    "version": 1
  },
  "userdoc": {
    "kind": "user",
    "methods": {},
    "version": 1
  }
}