{
  "contractName": "AuctionHouse",
  "abi": [
    {
      "anonymous": false,
      "inputs": [
        {
          "indexed": true,
          "internalType": "uint256",
          "name": "auctionId",
          "type": "uint256"
        }
      ],
      "name": "AuctionCancelled",
      "type": "event"
    },
    {
      "anonymous": false,
      "inputs": [
        {
          "indexed": true,
          "internalType": "uint256",
          "name": "auctionId",
          "type": "uint256"
        },
        {
          "components": [
            {
              "components": [
                {
                  "components": [
                    {
                      "internalType": "bytes4",
                      "name": "assetClass",
                      "type": "bytes4"
                    },
                    {
                      "internalType": "bytes",
                      "name": "data",
                      "type": "bytes"
                    }
                  ],
                  "internalType": "struct LibAsset.AssetType",
                  "name": "assetType",
                  "type": "tuple"
                },
                {
                  "internalType": "uint256",
                  "name": "value",
                  "type": "uint256"
                }
              ],
              "internalType": "struct LibAsset.Asset",
              "name": "sellAsset",
              "type": "tuple"
            },
            {
              "components": [
                {
                  "internalType": "bytes4",
                  "name": "assetClass",
                  "type": "bytes4"
                },
                {
                  "internalType": "bytes",
                  "name": "data",
                  "type": "bytes"
                }
              ],
              "internalType": "struct LibAsset.AssetType",
              "name": "buyAsset",
              "type": "tuple"
            },
            {
              "components": [
                {
                  "internalType": "uint256",
                  "name": "amount",
                  "type": "uint256"
                },
                {
                  "internalType": "bytes4",
                  "name": "dataType",
                  "type": "bytes4"
                },
                {
                  "internalType": "bytes",
                  "name": "data",
                  "type": "bytes"
                }
              ],
              "internalType": "struct AuctionHouseBase.Bid",
              "name": "lastBid",
              "type": "tuple"
            },
            {
              "internalType": "address payable",
              "name": "seller",
              "type": "address"
            },
            {
              "internalType": "address payable",
              "name": "buyer",
              "type": "address"
            },
            {
              "internalType": "uint256",
              "name": "endTime",
              "type": "uint256"
            },
            {
              "internalType": "uint256",
              "name": "minimalStep",
              "type": "uint256"
            },
            {
              "internalType": "uint256",
              "name": "minimalPrice",
              "type": "uint256"
            },
            {
              "internalType": "uint256",
              "name": "protocolFee",
              "type": "uint256"
            },
            {
              "internalType": "bytes4",
              "name": "dataType",
              "type": "bytes4"
            },
            {
              "internalType": "bytes",
              "name": "data",
              "type": "bytes"
            }
          ],
          "indexed": false,
          "internalType": "struct AuctionHouseBase.Auction",
          "name": "auction",
          "type": "tuple"
        }
      ],
      "name": "AuctionCreated",
      "type": "event"
    },
    {
      "anonymous": false,
      "inputs": [
        {
          "indexed": true,
          "internalType": "uint256",
          "name": "auctionId",
          "type": "uint256"
        },
        {
          "components": [
            {
              "components": [
                {
                  "components": [
                    {
                      "internalType": "bytes4",
                      "name": "assetClass",
                      "type": "bytes4"
                    },
                    {
                      "internalType": "bytes",
                      "name": "data",
                      "type": "bytes"
                    }
                  ],
                  "internalType": "struct LibAsset.AssetType",
                  "name": "assetType",
                  "type": "tuple"
                },
                {
                  "internalType": "uint256",
                  "name": "value",
                  "type": "uint256"
                }
              ],
              "internalType": "struct LibAsset.Asset",
              "name": "sellAsset",
              "type": "tuple"
            },
            {
              "components": [
                {
                  "internalType": "bytes4",
                  "name": "assetClass",
                  "type": "bytes4"
                },
                {
                  "internalType": "bytes",
                  "name": "data",
                  "type": "bytes"
                }
              ],
              "internalType": "struct LibAsset.AssetType",
              "name": "buyAsset",
              "type": "tuple"
            },
            {
              "components": [
                {
                  "internalType": "uint256",
                  "name": "amount",
                  "type": "uint256"
                },
                {
                  "internalType": "bytes4",
                  "name": "dataType",
                  "type": "bytes4"
                },
                {
                  "internalType": "bytes",
                  "name": "data",
                  "type": "bytes"
                }
              ],
              "internalType": "struct AuctionHouseBase.Bid",
              "name": "lastBid",
              "type": "tuple"
            },
            {
              "internalType": "address payable",
              "name": "seller",
              "type": "address"
            },
            {
              "internalType": "address payable",
              "name": "buyer",
              "type": "address"
            },
            {
              "internalType": "uint256",
              "name": "endTime",
              "type": "uint256"
            },
            {
              "internalType": "uint256",
              "name": "minimalStep",
              "type": "uint256"
            },
            {
              "internalType": "uint256",
              "name": "minimalPrice",
              "type": "uint256"
            },
            {
              "internalType": "uint256",
              "name": "protocolFee",
              "type": "uint256"
            },
            {
              "internalType": "bytes4",
              "name": "dataType",
              "type": "bytes4"
            },
            {
              "internalType": "bytes",
              "name": "data",
              "type": "bytes"
            }
          ],
          "indexed": false,
          "internalType": "struct AuctionHouseBase.Auction",
          "name": "auction",
          "type": "tuple"
        }
      ],
      "name": "AuctionFinished",
      "type": "event"
    },
    {
      "anonymous": false,
      "inputs": [
        {
          "indexed": true,
          "internalType": "uint256",
          "name": "auctionId",
          "type": "uint256"
        },
        {
          "components": [
            {
              "internalType": "uint256",
              "name": "amount",
              "type": "uint256"
            },
            {
              "internalType": "bytes4",
              "name": "dataType",
              "type": "bytes4"
            },
            {
              "internalType": "bytes",
              "name": "data",
              "type": "bytes"
            }
          ],
          "indexed": false,
          "internalType": "struct AuctionHouseBase.Bid",
          "name": "bid",
          "type": "tuple"
        },
        {
          "indexed": false,
          "internalType": "uint256",
          "name": "endTime",
          "type": "uint256"
        }
      ],
      "name": "BidPlaced",
      "type": "event"
    },
    {
      "anonymous": false,
      "inputs": [
        {
          "indexed": true,
          "internalType": "address",
          "name": "previousOwner",
          "type": "address"
        },
        {
          "indexed": true,
          "internalType": "address",
          "name": "newOwner",
          "type": "address"
        }
      ],
      "name": "OwnershipTransferred",
      "type": "event"
    },
    {
      "anonymous": false,
      "inputs": [
        {
          "indexed": true,
          "internalType": "bytes4",
          "name": "assetType",
          "type": "bytes4"
        },
        {
          "indexed": false,
          "internalType": "address",
          "name": "proxy",
          "type": "address"
        }
      ],
      "name": "ProxyChange",
      "type": "event"
    },
    {
      "anonymous": false,
      "inputs": [
        {
          "components": [
            {
              "components": [
                {
                  "internalType": "bytes4",
                  "name": "assetClass",
                  "type": "bytes4"
                },
                {
                  "internalType": "bytes",
                  "name": "data",
                  "type": "bytes"
                }
              ],
              "internalType": "struct LibAsset.AssetType",
              "name": "assetType",
              "type": "tuple"
            },
            {
              "internalType": "uint256",
              "name": "value",
              "type": "uint256"
            }
          ],
          "indexed": false,
          "internalType": "struct LibAsset.Asset",
          "name": "asset",
          "type": "tuple"
        },
        {
          "indexed": false,
          "internalType": "address",
          "name": "from",
          "type": "address"
        },
        {
          "indexed": false,
          "internalType": "address",
          "name": "to",
          "type": "address"
        },
        {
          "indexed": false,
          "internalType": "bytes4",
          "name": "transferDirection",
          "type": "bytes4"
        },
        {
          "indexed": false,
          "internalType": "bytes4",
          "name": "transferType",
          "type": "bytes4"
        }
      ],
      "name": "Transfer",
      "type": "event"
    },
    {
      "inputs": [],
      "name": "defaultFeeReceiver",
      "outputs": [
        {
          "internalType": "address",
          "name": "",
          "type": "address"
        }
      ],
      "stateMutability": "view",
      "type": "function"
    },
    {
      "inputs": [
        {
          "internalType": "address",
          "name": "",
          "type": "address"
        }
      ],
      "name": "feeReceivers",
      "outputs": [
        {
          "internalType": "address",
          "name": "",
          "type": "address"
        }
      ],
      "stateMutability": "view",
      "type": "function"
    },
    {
      "inputs": [
        {
          "internalType": "address",
          "name": "_collection",
          "type": "address"
        },
        {
          "internalType": "uint256",
          "name": "tokenId",
          "type": "uint256"
        }
      ],
      "name": "getAuctionByToken",
      "outputs": [
        {
          "internalType": "uint256",
          "name": "",
          "type": "uint256"
        }
      ],
      "stateMutability": "view",
      "type": "function"
    },
    {
      "inputs": [
        {
          "internalType": "address",
          "name": "",
          "type": "address"
        },
        {
          "internalType": "address",
          "name": "",
          "type": "address"
        },
        {
          "internalType": "uint256[]",
          "name": "",
          "type": "uint256[]"
        },
        {
          "internalType": "uint256[]",
          "name": "",
          "type": "uint256[]"
        },
        {
          "internalType": "bytes",
          "name": "",
          "type": "bytes"
        }
      ],
      "name": "onERC1155BatchReceived",
      "outputs": [
        {
          "internalType": "bytes4",
          "name": "",
          "type": "bytes4"
        }
      ],
      "stateMutability": "nonpayable",
      "type": "function"
    },
    {
      "inputs": [
        {
          "internalType": "address",
          "name": "",
          "type": "address"
        },
        {
          "internalType": "address",
          "name": "",
          "type": "address"
        },
        {
          "internalType": "uint256",
          "name": "",
          "type": "uint256"
        },
        {
          "internalType": "uint256",
          "name": "",
          "type": "uint256"
        },
        {
          "internalType": "bytes",
          "name": "",
          "type": "bytes"
        }
      ],
      "name": "onERC1155Received",
      "outputs": [
        {
          "internalType": "bytes4",
          "name": "",
          "type": "bytes4"
        }
      ],
      "stateMutability": "nonpayable",
      "type": "function"
    },
    {
      "inputs": [
        {
          "internalType": "address",
          "name": "",
          "type": "address"
        },
        {
          "internalType": "address",
          "name": "",
          "type": "address"
        },
        {
          "internalType": "uint256",
          "name": "",
          "type": "uint256"
        },
        {
          "internalType": "bytes",
          "name": "",
          "type": "bytes"
        }
      ],
      "name": "onERC721Received",
      "outputs": [
        {
          "internalType": "bytes4",
          "name": "",
          "type": "bytes4"
        }
      ],
      "stateMutability": "nonpayable",
      "type": "function"
    },
    {
      "inputs": [],
      "name": "owner",
      "outputs": [
        {
          "internalType": "address",
          "name": "",
          "type": "address"
        }
      ],
      "stateMutability": "view",
      "type": "function"
    },
    {
      "inputs": [],
      "name": "protocolFee",
      "outputs": [
        {
          "internalType": "uint256",
          "name": "",
          "type": "uint256"
        }
      ],
      "stateMutability": "view",
      "type": "function"
    },
    {
      "inputs": [],
      "name": "renounceOwnership",
      "outputs": [],
      "stateMutability": "nonpayable",
      "type": "function"
    },
    {
      "inputs": [],
      "name": "royaltiesRegistry",
      "outputs": [
        {
          "internalType": "contract IRoyaltiesProvider",
          "name": "",
          "type": "address"
        }
      ],
      "stateMutability": "view",
      "type": "function"
    },
    {
      "inputs": [
        {
          "internalType": "address payable",
          "name": "newDefaultFeeReceiver",
          "type": "address"
        }
      ],
      "name": "setDefaultFeeReceiver",
      "outputs": [],
      "stateMutability": "nonpayable",
      "type": "function"
    },
    {
      "inputs": [
        {
          "internalType": "address",
          "name": "token",
          "type": "address"
        },
        {
          "internalType": "address",
          "name": "wallet",
          "type": "address"
        }
      ],
      "name": "setFeeReceiver",
      "outputs": [],
      "stateMutability": "nonpayable",
      "type": "function"
    },
    {
      "inputs": [
        {
          "internalType": "uint256",
          "name": "newProtocolFee",
          "type": "uint256"
        }
      ],
      "name": "setProtocolFee",
      "outputs": [],
      "stateMutability": "nonpayable",
      "type": "function"
    },
    {
      "inputs": [
        {
          "internalType": "contract IRoyaltiesProvider",
          "name": "newRoyaltiesRegistry",
          "type": "address"
        }
      ],
      "name": "setRoyaltiesRegistry",
      "outputs": [],
      "stateMutability": "nonpayable",
      "type": "function"
    },
    {
      "inputs": [
        {
          "internalType": "bytes4",
          "name": "assetType",
          "type": "bytes4"
        },
        {
          "internalType": "address",
          "name": "proxy",
          "type": "address"
        }
      ],
      "name": "setTransferProxy",
      "outputs": [],
      "stateMutability": "nonpayable",
      "type": "function"
    },
    {
      "inputs": [
        {
          "internalType": "bytes4",
          "name": "interfaceId",
          "type": "bytes4"
        }
      ],
      "name": "supportsInterface",
      "outputs": [
        {
          "internalType": "bool",
          "name": "",
          "type": "bool"
        }
      ],
      "stateMutability": "view",
      "type": "function"
    },
    {
      "inputs": [
        {
          "internalType": "address",
          "name": "newOwner",
          "type": "address"
        }
      ],
      "name": "transferOwnership",
      "outputs": [],
      "stateMutability": "nonpayable",
      "type": "function"
    },
    {
      "inputs": [
        {
          "internalType": "contract INftTransferProxy",
          "name": "_transferProxy",
          "type": "address"
        },
        {
          "internalType": "contract IERC20TransferProxy",
          "name": "_erc20TransferProxy",
          "type": "address"
        },
        {
          "internalType": "uint256",
          "name": "newProtocolFee",
          "type": "uint256"
        },
        {
          "internalType": "address",
          "name": "newDefaultFeeReceiver",
          "type": "address"
        },
        {
          "internalType": "contract IRoyaltiesProvider",
          "name": "newRoyaltiesProvider",
          "type": "address"
        }
      ],
      "name": "__AuctionHouse_init",
      "outputs": [],
      "stateMutability": "nonpayable",
      "type": "function"
    },
    {
      "inputs": [
        {
          "components": [
            {
              "components": [
                {
                  "internalType": "bytes4",
                  "name": "assetClass",
                  "type": "bytes4"
                },
                {
                  "internalType": "bytes",
                  "name": "data",
                  "type": "bytes"
                }
              ],
              "internalType": "struct LibAsset.AssetType",
              "name": "assetType",
              "type": "tuple"
            },
            {
              "internalType": "uint256",
              "name": "value",
              "type": "uint256"
            }
          ],
          "internalType": "struct LibAsset.Asset",
          "name": "_sellAsset",
          "type": "tuple"
        },
        {
          "components": [
            {
              "internalType": "bytes4",
              "name": "assetClass",
              "type": "bytes4"
            },
            {
              "internalType": "bytes",
              "name": "data",
              "type": "bytes"
            }
          ],
          "internalType": "struct LibAsset.AssetType",
          "name": "_buyAsset",
          "type": "tuple"
        },
        {
          "internalType": "uint256",
          "name": "minimalStep",
          "type": "uint256"
        },
        {
          "internalType": "uint256",
          "name": "minimalPrice",
          "type": "uint256"
        },
        {
          "internalType": "bytes4",
          "name": "dataType",
          "type": "bytes4"
        },
        {
          "internalType": "bytes",
          "name": "data",
          "type": "bytes"
        }
      ],
      "name": "startAuction",
      "outputs": [],
      "stateMutability": "nonpayable",
      "type": "function"
    },
    {
      "inputs": [
        {
          "internalType": "uint256",
          "name": "_auctionId",
          "type": "uint256"
        },
        {
          "components": [
            {
              "internalType": "uint256",
              "name": "amount",
              "type": "uint256"
            },
            {
              "internalType": "bytes4",
              "name": "dataType",
              "type": "bytes4"
            },
            {
              "internalType": "bytes",
              "name": "data",
              "type": "bytes"
            }
          ],
          "internalType": "struct AuctionHouseBase.Bid",
          "name": "bid",
          "type": "tuple"
        }
      ],
      "name": "putBid",
      "outputs": [],
      "stateMutability": "payable",
      "type": "function"
    },
    {
      "inputs": [
        {
          "internalType": "uint256",
          "name": "_auctionId",
          "type": "uint256"
        }
      ],
      "name": "getMinimalNextBid",
      "outputs": [
        {
          "internalType": "uint256",
          "name": "minBid",
          "type": "uint256"
        }
      ],
      "stateMutability": "view",
      "type": "function"
    },
    {
      "inputs": [
        {
          "internalType": "uint256",
          "name": "_auctionId",
          "type": "uint256"
        }
      ],
      "name": "checkAuctionExistence",
      "outputs": [
        {
          "internalType": "bool",
          "name": "",
          "type": "bool"
        }
      ],
      "stateMutability": "view",
      "type": "function"
    },
    {
      "inputs": [
        {
          "internalType": "uint256",
          "name": "_auctionId",
          "type": "uint256"
        }
      ],
      "name": "finishAuction",
      "outputs": [],
      "stateMutability": "nonpayable",
      "type": "function"
    },
    {
      "inputs": [
        {
          "internalType": "uint256",
          "name": "_auctionId",
          "type": "uint256"
        }
      ],
      "name": "checkAuctionRangeTime",
      "outputs": [
        {
          "internalType": "bool",
          "name": "",
          "type": "bool"
        }
      ],
      "stateMutability": "view",
      "type": "function"
    },
    {
      "inputs": [
        {
          "internalType": "uint256",
          "name": "_auctionId",
          "type": "uint256"
        }
      ],
      "name": "cancel",
      "outputs": [],
      "stateMutability": "nonpayable",
      "type": "function"
    },
    {
      "inputs": [
        {
          "internalType": "uint256",
          "name": "_auctionId",
          "type": "uint256"
        },
        {
          "components": [
            {
              "internalType": "uint256",
              "name": "amount",
              "type": "uint256"
            },
            {
              "internalType": "bytes4",
              "name": "dataType",
              "type": "bytes4"
            },
            {
              "internalType": "bytes",
              "name": "data",
              "type": "bytes"
            }
          ],
          "internalType": "struct AuctionHouseBase.Bid",
          "name": "bid",
          "type": "tuple"
        }
      ],
      "name": "buyOut",
      "outputs": [],
      "stateMutability": "payable",
      "type": "function"
    },
    {
      "inputs": [
        {
          "internalType": "uint256",
          "name": "_auctionId",
          "type": "uint256"
        }
      ],
      "name": "getCurrentBuyer",
      "outputs": [
        {
          "internalType": "address",
          "name": "",
          "type": "address"
        }
      ],
      "stateMutability": "view",
      "type": "function"
    },
    {
      "inputs": [
        {
          "internalType": "uint256",
          "name": "_auctionId",
          "type": "uint256"
        }
      ],
      "name": "isFinalized",
      "outputs": [
        {
          "internalType": "bool",
          "name": "",
          "type": "bool"
        }
      ],
      "stateMutability": "view",
      "type": "function"
    }
  ],
  "bytecode": "0x608060405234801561001057600080fd5b506153d6806100206000396000f3fe6080604052600436106101b75760003560e01c80636eeb69db116100ec578063bc197c811161008a578063e66db25e11610064578063e66db25e146104aa578063ec578348146104ca578063f23a6e61146104ea578063f2fde38b1461050a576101b7565b8063bc197c811461044a578063c719cce61461046a578063cf266ed01461048a576101b7565b80638da5cb5b116100c65780638da5cb5b146103ed578063a2a106b814610402578063a6f4a3e014610422578063b0e21e8a14610435576101b7565b80636eeb69db14610398578063715018a6146103b8578063787dce3d146103cd576101b7565b806332132487116101595780633be89922116101335780633be899221461033057806340e58ee514610350578063506a90e7146103705780636d8f069414610383576101b7565b806332132487146102db57806333727c4d146102fb5780633abf6fd41461031b576101b7565b8063150b7a0211610195578063150b7a021461024c578063152b2c0a146102795780631cdfe3d81461029957806330c642f1146102bb576101b7565b806301ffc9a7146101bc57806302097ab1146101f25780630d6079641461021f575b600080fd5b3480156101c857600080fd5b506101dc6101d736600461474a565b61052a565b6040516101e99190614cba565b60405180910390f35b3480156101fe57600080fd5b5061021261020d3660046142c0565b6105a8565b6040516101e99190614c72565b34801561022b57600080fd5b5061023f61023a366004614a27565b6105c4565b6040516101e99190615242565b34801561025857600080fd5b5061026c6102673660046145f6565b610605565b6040516101e99190614cc5565b34801561028557600080fd5b5061023f6102943660046146c5565b610615565b3480156102a557600080fd5b506102b96102b43660046142c0565b610640565b005b3480156102c757600080fd5b506102b96102d6366004614764565b6106c5565b3480156102e757600080fd5b506102b96102f636600461477f565b610796565b34801561030757600080fd5b506101dc610316366004614a27565b610872565b34801561032757600080fd5b50610212610894565b34801561033c57600080fd5b506102b961034b3660046142c0565b6108a4565b34801561035c57600080fd5b506102b961036b366004614a27565b610929565b6102b961037e366004614a3f565b610b2a565b34801561038f57600080fd5b50610212611108565b3480156103a457600080fd5b506102126103b3366004614a27565b611118565b3480156103c457600080fd5b506102b9611137565b3480156103d957600080fd5b506102b96103e8366004614a27565b6111e5565b3480156103f957600080fd5b5061021261124d565b34801561040e57600080fd5b506101dc61041d366004614a27565b61125d565b6102b9610430366004614a3f565b61128d565b34801561044157600080fd5b5061023f6112f9565b34801561045657600080fd5b5061026c61046536600461454d565b611300565b34801561047657600080fd5b506102b96104853660046147e6565b611311565b34801561049657600080fd5b506102b96104a5366004614a27565b6116d2565b3480156104b657600080fd5b506102b96104c5366004614515565b611758565b3480156104d657600080fd5b506101dc6104e5366004614a27565b6117e9565b3480156104f657600080fd5b5061026c61050536600461465f565b6118fc565b34801561051657600080fd5b506102b96105253660046142c0565b61190d565b6040516301ffc9a760e01b815260009030906301ffc9a790610550908590600401614cc5565b60206040518083038186803b15801561056857600080fd5b505afa15801561057c573d6000803e3d6000fd5b505050506040513d601f19601f820116820180604052508101906105a0919061472a565b90505b919050565b6101c7602052600090815260409020546001600160a01b031681565b60008181526101f66020526040812060098101546001600160a01b03166105f15780600c015491506105ff565b600b81015460058201540191505b50919050565b630a85bd0160e11b949350505050565b6001600160a01b038216600090815260c9602090815260408083208484529091529020545b92915050565b610648611a12565b6001600160a01b031661065961124d565b6001600160a01b0316146106a2576040805162461bcd60e51b81526020600482018190526024820152600080516020615381833981519152604482015290519081900360640190fd5b6101c680546001600160a01b0319166001600160a01b0392909216919091179055565b6106cd611a12565b6001600160a01b03166106de61124d565b6001600160a01b031614610727576040805162461bcd60e51b81526020600482018190526024820152600080516020615381833981519152604482015290519081900360640190fd5b6001600160e01b03198216600081815261019260205260409081902080546001600160a01b0319166001600160a01b038516179055517f4b5aced933c0c9a88aeac3f0b3b72c5aaf75df8ebaf53225773248c4c31535939061078a908490614c72565b60405180910390a25050565b600054610100900460ff16806107af57506107af611a16565b806107bd575060005460ff16155b6107f85760405162461bcd60e51b815260040180806020018281038252602e815260200180615332602e913960400191505060405180910390fd5b600054610100900460ff16158015610823576000805460ff1961ff0019909116610100171660011790555b61082b611a27565b610833611ac8565b61083d8686611bc2565b610848848484611c6d565b610850611d4a565b610858611de7565b801561086a576000805461ff00191690555b505050505050565b600061087d8261125d565b15806105a0575061088d826117e9565b1592915050565b6101c6546001600160a01b031681565b6108ac611a12565b6001600160a01b03166108bd61124d565b6001600160a01b031614610906576040805162461bcd60e51b81526020600482018190526024820152600080516020615381833981519152604482015290519081900360640190fd5b6101c580546001600160a01b0319166001600160a01b0392909216919091179055565b6109328161125d565b6109575760405162461bcd60e51b815260040161094e90614dfb565b60405180910390fd5b60008181526101f66020526040902060088101546001600160a01b031661097c611a12565b6001600160a01b0316816001600160a01b0316146109ac5760405162461bcd60e51b815260040161094e90614e93565b60098201546001600160a01b031680156109d85760405162461bcd60e51b815260040161094e90614f94565b60408051608081018252845460e01b6001600160e01b0319168183019081526001808701805485516020600261010095841615959095026000190190921693909304601f8101829004820284018201909652858352610af0958994869490938693606087019390830182828015610a905780601f10610a6557610100808354040283529160200191610a90565b820191906000526020600020905b815481529060010190602001808311610a7357829003601f168201915b505050505081525050815260200160028201548152505030847f5a735e2bd379ffdaef126b56348f3853c7cd579726fb036c31f45b3b2a9d22c47f12755a21b06621963f5494677d2471a10330ef7ad5d571bc17b92582968032d0611e8e565b610af984612219565b60405184907f2809c7e17bf978fbc7194c0a694b638c4215e9140cacc6c38ca36010b45697df90600090a250505050565b610b3382610872565b15610b505760405162461bcd60e51b815260040161094e90614db5565b6000610b5a611a12565b8251909150610b69848261242a565b15610b9157610b78848461251c565b610b8184612750565b610b8a84612219565b5050611104565b60008481526101f66020908152604080832081516101e081018352815460e01b6001600160e01b0319166101a08201908152600180840180548651600261010094831615949094026000190190911692909204601f810188900488028301880190965285825292959394869461016086019487948694909386936101c08a01939190830182828015610c645780601f10610c3957610100808354040283529160200191610c64565b820191906000526020600020905b815481529060010190602001808311610c4757829003601f168201915b50505091909252505050815260029182015460209182015291835260408051808201825260038601805460e01b6001600160e01b031916825260048701805484516101006001831615026000190190911695909504601f8101879004870286018701909452838552958501959194909385820193909291830182828015610d2c5780601f10610d0157610100808354040283529160200191610d2c565b820191906000526020600020905b815481529060010190602001808311610d0f57829003601f168201915b505050919092525050508152604080516060810182526005840180548252600685015460e01b6001600160e01b031916602080840191909152600786018054855160026101006001841615026000190190921691909104601f810184900484028201840187528082529683019694959394938601939092830182828015610df45780601f10610dc957610100808354040283529160200191610df4565b820191906000526020600020905b815481529060010190602001808311610dd757829003601f168201915b50505091909252505050815260088201546001600160a01b039081166020808401919091526009840154909116604080840191909152600a8401546060840152600b8401546080840152600c84015460a0840152600d84015460c0840152600e84015460e090811b6001600160e01b03191690840152600f8401805482516002610100600184161581026000190190931604601f810186900486028201860190945283815294019392909190830182828015610ef15780601f10610ec657610100808354040283529160200191610ef1565b820191906000526020600020905b815481529060010190602001808311610ed457829003601f168201915b50505050508152505090506000610f12826101400151836101200151612d36565b608083015190915042906001600160a01b0316610f7a5760a0830151610f515760408083015160008981526101f660205291909120908201600a909101555b8260e00151841015610f755760405162461bcd60e51b815260040161094e90614f50565b610fdf565b846001600160a01b031683608001516001600160a01b03161415610fb05760405162461bcd60e51b815260040161094e90614d47565b6000610fbb886105c4565b905080851015610fdd5760405162461bcd60e51b815260040161094e90614eca565b505b61101483602001518460800151876110008760400151886101000151612d72565b61100f8b896101000151612d72565b612d94565b60008781526101f660209081526040918290208851600582019081558983015160068301805463ffffffff191660e09290921c9190911790559289015180518a949361106593600701920190613e91565b50505060008781526101f66020526040902060090180546001600160a01b0319166001600160a01b03871617905560a08301516103849082900310156110c05760008781526101f6602052604090206103848201600a909101555b867f9d89b26c88af0666e0502f71246ce92ea5ee513d508840b43aeb2eb22fac3ed1878560a001516040516110f69291906151f9565b60405180910390a250505050505b5050565b6101c5546001600160a01b031681565b60009081526101f660205260409020600901546001600160a01b031690565b61113f611a12565b6001600160a01b031661115061124d565b6001600160a01b031614611199576040805162461bcd60e51b81526020600482018190526024820152600080516020615381833981519152604482015290519081900360640190fd5b610160546040516000916001600160a01b0316907f8be0079c531659141344cd1fd0a4f28419497f9722a3daafe3b4186f6b6457e0908390a361016080546001600160a01b0319169055565b6111ed611a12565b6001600160a01b03166111fe61124d565b6001600160a01b031614611247576040805162461bcd60e51b81526020600482018190526024820152600080516020615381833981519152604482015290519081900360640190fd5b6101c455565b610160546001600160a01b031690565b60008181526101f660205260408120600801546001600160a01b0316611285575060006105a3565b5060016105a3565b61129682610872565b156112b35760405162461bcd60e51b815260040161094e90614db5565b6112c182826000015161242a565b6112dd5760405162461bcd60e51b815260040161094e90614e5c565b6112e7828261251c565b6112f082612750565b61110482612219565b6101c45481565b63bc197c8160e01b95945050505050565b600061131b612eb7565b8751519091506001600160e01b0319166355575f5d60e11b1480159061135457508651516001600160e01b0319166322ba176160e21b14155b6113705760405162461bcd60e51b815260040161094e90614fcb565b600061137c8385612d36565b905061038481604001511015801561139c57506305265c00816040015111155b6113b85760405162461bcd60e51b815260040161094e90614e30565b6060810151600090156113f65742826060015110156113e95760405162461bcd60e51b815260040161094e90614ef6565b5060408101516060820151015b6040518061016001604052808a815260200189815260200160405180606001604052806000815260200160006001600160e01b0319168152602001604051806020016040528060008152508152508152602001611451611a12565b6001600160a01b03168152600060208083018290526040808401869052606084018c9052608084018b90526101c45460a08501526001600160e01b03198a1660c085015260e09384018990528783526101f68252909120835180518051835463ffffffff1916951c94909417825583830151805192949193859384926114de926001850192910190613e91565b5050506020918201516002919091015582810151805160038401805463ffffffff191660e09290921c919091178155818301518051929391926115279260048701920190613e91565b50505060408281015180516005840190815560208083015160068601805463ffffffff191660e09290921c919091179055928201518051929391926115729260078701920190613e91565b50505060608201516008820180546001600160a01b039283166001600160a01b031991821617909155608084015160098401805491909316911617905560a0820151600a82015560c0820151600b82015560e080830151600c830155610100830151600d830155610120830151600e830180549190921c63ffffffff19909116179055610140820151805161161191600f840191602090910190613e91565b5090505061166989611621611a12565b307f8e9742dda957f51c3e385ce6ed07f0b7acc2bf98484e3acc9bd1a8c7c2a918f37ffc530b24510b924664e4cc98bd27ba37fd804f8cb2b1743b1bc15525a944ae93611e8e565b61167289612ec6565b61167c898461318e565b827f18f98bd854a0ed0d17c428b7f2c828ef9ddfc640f1e2d17d4150d03d54f76c9e6101f660008681526020019081526020016000206040516116bf919061510d565b60405180910390a2505050505050505050565b6116db8161125d565b6116f75760405162461bcd60e51b815260040161094e90614dfb565b611700816117e9565b158015611727575060008181526101f660205260409020600901546001600160a01b031615155b6117435760405162461bcd60e51b815260040161094e90615044565b61174c81612750565b61175581612219565b50565b611760611a12565b6001600160a01b031661177161124d565b6001600160a01b0316146117ba576040805162461bcd60e51b81526020600482018190526024820152600080516020615381833981519152604482015290519081900360640190fd5b6001600160a01b0391821660009081526101c76020526040902080546001600160a01b03191691909216179055565b60008181526101f660209081526040808320600a810154600f820180548451601f6002600019610100600186161502019093169290920491820187900487028101870190955280855292949193429387936118a49391908301828280156118915780601f1061186657610100808354040283529160200191611891565b820191906000526020600020905b81548152906001019060200180831161187457829003601f168201915b50505050600e87015460e01b9050612d36565b9050600081606001511180156118bd5750818160600151115b156118cf5760009450505050506105a3565b6000831180156118de57508183105b156118f05760009450505050506105a3565b50600195945050505050565b63f23a6e6160e01b95945050505050565b611915611a12565b6001600160a01b031661192661124d565b6001600160a01b03161461196f576040805162461bcd60e51b81526020600482018190526024820152600080516020615381833981519152604482015290519081900360640190fd5b6001600160a01b0381166119b45760405162461bcd60e51b815260040180806020018281038252602681526020018061530c6026913960400191505060405180910390fd5b610160546040516001600160a01b038084169216907f8be0079c531659141344cd1fd0a4f28419497f9722a3daafe3b4186f6b6457e090600090a361016080546001600160a01b0319166001600160a01b0392909216919091179055565b3390565b6000611a21306131e2565b15905090565b600054610100900460ff1680611a405750611a40611a16565b80611a4e575060005460ff16155b611a895760405162461bcd60e51b815260040180806020018281038252602e815260200180615332602e913960400191505060405180910390fd5b600054610100900460ff16158015611ab4576000805460ff1961ff0019909116610100171660011790555b8015611755576000805461ff001916905550565b600054610100900460ff1680611ae15750611ae1611a16565b80611aef575060005460ff16155b611b2a5760405162461bcd60e51b815260040180806020018281038252602e815260200180615332602e913960400191505060405180910390fd5b600054610100900460ff16158015611b55576000805460ff1961ff0019909116610100171660011790555b6000611b5f611a12565b61016080546001600160a01b0319166001600160a01b038316908117909155604051919250906000907f8be0079c531659141344cd1fd0a4f28419497f9722a3daafe3b4186f6b6457e0908290a3508015611755576000805461ff001916905550565b6101926020527f551ff5675f39168e2a165b54276aae4c0faf005af2dfc0606d1112578aadd0e780546001600160a01b039283166001600160a01b0319918216179091557fcdd41cf0bb58dd675d3c1245b870efe9c432ad282b6da2aa7bab041a4ecd4618805493909216928116831790915563025ceed960e61b6000527fbb681386d4bceb8ecabad454f6bd7e959192b5d8d06a2acafebcd3e3bf325ac980549091169091179055565b600054610100900460ff1680611c865750611c86611a16565b80611c94575060005460ff16155b611ccf5760405162461bcd60e51b815260040180806020018281038252602e815260200180615332602e913960400191505060405180910390fd5b600054610100900460ff16158015611cfa576000805460ff1961ff0019909116610100171660011790555b6101c48490556101c680546001600160a01b038086166001600160a01b0319928316179092556101c58054928516929091169190911790558015611d44576000805461ff00191690555b50505050565b600054610100900460ff1680611d635750611d63611a16565b80611d71575060005460ff16155b611dac5760405162461bcd60e51b815260040180806020018281038252602e815260200180615332602e913960400191505060405180910390fd5b600054610100900460ff16158015611dd7576000805460ff1961ff0019909116610100171660011790555b611ddf6131e8565b611ab4611a27565b600054610100900460ff1680611e005750611e00611a16565b80611e0e575060005460ff16155b611e495760405162461bcd60e51b815260040180806020018281038252602e815260200180615332602e913960400191505060405180910390fd5b600054610100900460ff16158015611e74576000805460ff1961ff0019909116610100171660011790555b60016101f7558015611755576000805461ff001916905550565b8451516001600160e01b0319166355575f5d60e11b1415611ec7576020850151611ec2906001600160a01b03851690613285565b6121d3565b8451516001600160e01b0319166322ba176160e21b1415611fa6576000856000015160200151806020019051810190611f0091906142dc565b6322ba176160e21b60005261019260209081527f551ff5675f39168e2a165b54276aae4c0faf005af2dfc0606d1112578aadd0e7549088015160405163776062c360e01b81529293506001600160a01b039091169163776062c391611f6e9185918a918a9190600401614d1d565b600060405180830381600087803b158015611f8857600080fd5b505af1158015611f9c573d6000803e3d6000fd5b50505050506121d3565b8451516001600160e01b0319166339d690a360e11b14156120a757600080866000015160200151806020019051810190611fe091906144e8565b9150915086602001516001146120085760405162461bcd60e51b815260040161094e90614f24565b6339d690a360e11b6000526101926020527fcdd41cf0bb58dd675d3c1245b870efe9c432ad282b6da2aa7bab041a4ecd461854604051637b84dc8360e11b81526001600160a01b039091169063f709b9069061206e9085908a908a908790600401614d1d565b600060405180830381600087803b15801561208857600080fd5b505af115801561209c573d6000803e3d6000fd5b5050505050506121d3565b8451516001600160e01b03191663025ceed960e61b1415612151576000808660000151602001518060200190518101906120e191906144e8565b63025ceed960e61b60005261019260209081527fbb681386d4bceb8ecabad454f6bd7e959192b5d8d06a2acafebcd3e3bf325ac954908a0151604051639c1c2ee960e01b81529395509193506001600160a01b031691639c1c2ee99161206e9186918b918b918891600401614cda565b8451516001600160e01b03191660009081526101926020526040908190205490516354bc0cf160e01b81526001600160a01b03909116906354bc0cf1906121a09088908890889060040161508f565b600060405180830381600087803b1580156121ba57600080fd5b505af11580156121ce573d6000803e3d6000fd5b505050505b7fcae9d16f553e92058883de29cb3135dbc0c1e31fd7eace79fef1d80577fe482e858585858560405161220a9594939291906150c2565b60405180910390a15050505050565b807f35536caf6898f5cfbe09a980e5374d10f7ef130ad8366a9fc9a0e7b8c6c6649d6101f6600084815260200190815260200160002060405161225c919061510d565b60405180910390a260008181526101f660209081526040918290208251608081018452815460e01b6001600160e01b031916818501908152600180840180548751600261010094831615949094026000190190911692909204601f8101879004870283018701909752868252612349969395869486936060870193909290919083018282801561232d5780601f106123025761010080835404028352916020019161232d565b820191906000526020600020905b81548152906001019060200180831161231057829003601f168201915b505050505081525050815260200160028201548152505061331d565b60008181526101f660205260408120805463ffffffff1916815590818181816123756001830182613f1d565b505060006002929092018290555060038301805463ffffffff19168155906123a06004850182613f1d565b505060006005830181815560068401805463ffffffff19169055906123c86007850182613f1d565b50506008820180546001600160a01b031990811690915560098301805490911690556000600a8301819055600b8301819055600c8301819055600d8301819055600e8301805463ffffffff1916905561242590600f840190613f1d565b505050565b60008281526101f660209081526040808320600f0180548251601f6002600019610100600186161502019093169290920491820185900485028101850190935280835284936124e9939291908301828280156124c75780601f1061249c576101008083540402835291602001916124c7565b820191906000526020600020905b8154815290600101906020018083116124aa57829003601f168201915b50505060008881526101f660205260409020600e015460e01b9150612d369050565b905060008160800151118015612503575082816080015111155b1561251257600191505061063a565b5060009392505050565b6000612526611a12565b60008481526101f660209081526040918290208251808401845260038201805460e01b6001600160e01b0319168252600483018054865160026101006001841615026000190190921691909104601f810187900487028201870190975286815296975092956126e595929491938583019391929091908301828280156125ed5780601f106125c2576101008083540402835291602001916125ed565b820191906000526020600020905b8154815290600101906020018083116125d057829003601f168201915b505050919092525050506009830154604080516060810182526005860180548252600687015460e01b6001600160e01b031916602080840191909152600788018054855160026101006001841615026000190190921691909104601f810184900484028201840187528082526001600160a01b03909716968b966126d79695949086019391908301828280156126c45780601f10612699576101008083540402835291602001916126c4565b820191906000526020600020905b8154815290600101906020018083116126a757829003601f168201915b50505050508152505086600d0154612d72565b61100f8887600d0154612d72565b82516005820190815560208085015160068401805463ffffffff191660e09290921c91909117905560408501518051869392612728926007870192910190613e91565b50505060090180546001600160a01b0319166001600160a01b03929092169190911790555050565b60008181526101f66020908152604080832081516101e081018352815460e01b6001600160e01b0319166101a08201908152600180840180548651600261010094831615949094026000190190911692909204601f810188900488028301880190965285825292959394869461016086019487948694909386936101c08a019391908301828280156128235780601f106127f857610100808354040283529160200191612823565b820191906000526020600020905b81548152906001019060200180831161280657829003601f168201915b50505091909252505050815260029182015460209182015291835260408051808201825260038601805460e01b6001600160e01b031916825260048701805484516101006001831615026000190190911695909504601f81018790048702860187019094528385529585019591949093858201939092918301828280156128eb5780601f106128c0576101008083540402835291602001916128eb565b820191906000526020600020905b8154815290600101906020018083116128ce57829003601f168201915b505050919092525050508152604080516060810182526005840180548252600685015460e01b6001600160e01b031916602080840191909152600786018054855160026101006001841615026000190190921691909104601f8101849004840282018401875280825296830196949593949386019390928301828280156129b35780601f10612988576101008083540402835291602001916129b3565b820191906000526020600020905b81548152906001019060200180831161299657829003601f168201915b50505091909252505050815260088201546001600160a01b039081166020808401919091526009840154909116604080840191909152600a8401546060840152600b8401546080840152600c84015460a0840152600d84015460c0840152600e84015460e090811b6001600160e01b03191690840152600f8401805482516002610100600184161581026000190190931604601f810186900486028201860190945283815294019392909190830182828015612ab05780601f10612a8557610100808354040283529160200191612ab0565b820191906000526020600020905b815481529060010190602001808311612a9357829003601f168201915b5050509190925250505060608101516080820151919250906001600160a01b03811615612ce7576000612af384604001516040015185604001516020015161336e565b805151909150612b9057604080516001808252818301909252600091816020015b612b1c613f61565b815260200190600190039081612b145790505090508281600081518110612b3f57fe5b6020026020010151600001906001600160a01b031690816001600160a01b03168152505061271081600081518110612b7357fe5b6020908102919091018101516001600160601b0390921691015281525b6000612ba68561014001518661012001516133c8565b805151909150612c4357604080516001808252818301909252600091816020015b612bcf613f61565b815260200190600190039081612bc75790505090508481600081518110612bf257fe5b6020026020010151600001906001600160a01b031690816001600160a01b03168152505061271081600081518110612c2657fe5b6020908102919091018101516001600160601b0390921691015281525b612ca5856040015160000151306040518060400160405280896101000151815260200189610100015181525085858a602001518b60000151600001517fb45a3ba14423c8f1b71cc094845ab56b5294dbe8d8e3ba53f3cdb63d59a4044b6133ff565b50845180516020909101518351612ce092919030907f1a0388dd7519a093630516a672419a2562e0e74deb98af068657dc265f0164c96134c6565b5050611d44565b8251611d449030847f5a735e2bd379ffdaef126b56348f3853c7cd579726fb036c31f45b3b2a9d22c47f12755a21b06621963f5494677d2471a10330ef7ad5d571bc17b92582968032d0611e8e565b612d3e613f78565b6001600160e01b03198216632611a13360e11b141561063a5782806020019051810190612d6b91906148d0565b9392505050565b6000612d6b836000015183612d8f8660400151876020015161366b565b6136a5565b612d9c613fa7565b6001600160a01b03851615612e0f576040518060400160405280878152602001848152509050612e0f8130877f8e9742dda957f51c3e385ce6ed07f0b7acc2bf98484e3acc9bd1a8c7c2a918f37f12755a21b06621963f5494677d2471a10330ef7ad5d571bc17b92582968032d0611e8e565b50604080518082019091528581526020810182905285516001600160e01b0319166355575f5d60e11b1415612e615781341115612e5c57612e5c6001600160a01b03851634849003613285565b61086a565b612eae8185307f8e9742dda957f51c3e385ce6ed07f0b7acc2bf98484e3acc9bd1a8c7c2a918f37ffc530b24510b924664e4cc98bd27ba37fd804f8cb2b1743b1bc15525a944ae93611e8e565b61086a81612ec6565b6101f780546001810190915590565b8051516001600160e01b0319166322ba176160e21b1415612fc3576000816000015160200151806020019051810190612eff91906142dc565b6322ba176160e21b60005261019260209081527f551ff5675f39168e2a165b54276aae4c0faf005af2dfc0606d1112578aadd0e7549084015160405163095ea7b360e01b81529293506001600160a01b038085169363095ea7b393612f6a9392169190600401614ca1565b602060405180830381600087803b158015612f8457600080fd5b505af1158015612f98573d6000803e3d6000fd5b505050506040513d601f19601f82011682018060405250810190612fbc919061472a565b5050611755565b8051516001600160e01b0319166339d690a360e11b14156130c0576000816000015160200151806020019051810190612ffc91906144e8565b50905081602001516001146130235760405162461bcd60e51b815260040161094e90614f24565b6339d690a360e11b6000526101926020527fcdd41cf0bb58dd675d3c1245b870efe9c432ad282b6da2aa7bab041a4ecd46185460405163a22cb46560e01b81526001600160a01b038381169263a22cb465926130889290911690600190600401614c86565b600060405180830381600087803b1580156130a257600080fd5b505af11580156130b6573d6000803e3d6000fd5b5050505050611755565b8051516001600160e01b03191663025ceed960e61b14156117555760008160000151602001518060200190518101906130f991906144e8565b5063025ceed960e61b6000526101926020527fbb681386d4bceb8ecabad454f6bd7e959192b5d8d06a2acafebcd3e3bf325ac95460405163a22cb46560e01b81529192506001600160a01b038084169263a22cb46592613160921690600190600401614c86565b600060405180830381600087803b15801561317a57600080fd5b505af115801561086a573d6000803e3d6000fd5b60008083600001516020015180602001905160408110156131ae57600080fd5b5080516020918201516001600160a01b03909116600090815260c98352604080822092825291909252902092909255505050565b3b151590565b600054610100900460ff16806132015750613201611a16565b8061320f575060005460ff16155b61324a5760405162461bcd60e51b815260040180806020018281038252602e815260200180615332602e913960400191505060405180910390fd5b600054610100900460ff16158015613275576000805460ff1961ff0019909116610100171660011790555b61327d613718565b611ddf6137b5565b6040516000906001600160a01b0384169083908381818185875af1925050503d80600081146132d0576040519150601f19603f3d011682016040523d82523d6000602084013e6132d5565b606091505b5050905080612425576040805162461bcd60e51b815260206004820152600f60248201526e1d1c985b9cd9995c8819985a5b1959608a1b604482015290519081900360640190fd5b600080826000015160200151806020019051604081101561333d57600080fd5b5080516020918201516001600160a01b03909116600090815260c98352604080822092825291909252812055505050565b613376613fc7565b6001600160e01b03198216632611a13360e11b141561063a576000838060200190518101906133a5919061498c565b604080518082019091528151815260209182015191810191909152949350505050565b6133d0613fc7565b6001600160e01b03198216632611a13360e11b141561063a576000838060200190518101906133a591906148d0565b600061341489886000015188602001516136a5565b90506000613426828b8b8b8988613852565b90506134368585838d8d88613943565b905061346b85828c8a602001518d887fdfdfdaf4cc275341b6776a7ee23b953990b8d991717449077287da70f32cf9556139a9565b50809150506134a385828c89602001518d887fdfdfdaf4cc275341b6776a7ee23b953990b8d991717449077287da70f32cf9556139a9565b50809150506134b985828b8960000151876134c6565b5098975050505050505050565b600084815b60018551038110156135b657600061350c8683815181106134e857fe5b6020026020010151602001516001600160601b031689613a7790919063ffffffff16565b905061354186838151811061351d57fe5b6020026020010151602001516001600160601b031685613a8f90919063ffffffff16565b935080156135ad576135538382613ae9565b92506135ad60405180604001604052808b8152602001838152508888858151811061357a57fe5b602002602001015160000151887fa10bb5b2060a412d05113732875a5431ca23453eb93f797e0ffcb5b40e5f2c3e611e8e565b506001016134cb565b506000846001865103815181106135c957fe5b602002602001015190506135f381602001516001600160601b031684613a8f90919063ffffffff16565b925082612710146136165760405162461bcd60e51b815260040161094e9061500d565b81156136615761366160405180604001604052808a815260200184815250878360000151877fa10bb5b2060a412d05113732875a5431ca23453eb93f797e0ffcb5b40e5f2c3e611e8e565b5050505050505050565b60606001600160e01b03198216632611a13360e11b141561063a578280602001905181019061369a919061498c565b602001519392505050565b60006136bb6136b48585613a77565b8590613a8f565b905060005b8251811015613710576137066136ff8483815181106136db57fe5b6020026020010151602001516001600160601b031687613a7790919063ffffffff16565b8390613a8f565b91506001016136c0565b509392505050565b600054610100900460ff16806137315750613731611a16565b8061373f575060005460ff16155b61377a5760405162461bcd60e51b815260040180806020018281038252602e815260200180615332602e913960400191505060405180910390fd5b600054610100900460ff161580156137a5576000805460ff1961ff0019909116610100171660011790555b611ab46301ffc9a760e01b613b46565b600054610100900460ff16806137ce57506137ce611a16565b806137dc575060005460ff16155b6138175760405162461bcd60e51b815260040180806020018281038252602e815260200180615332602e913960400191505060405180910390fd5b600054610100900460ff16158015613842576000805460ff1961ff0019909116610100171660011790555b611ab4630271189760e51b613b46565b600080600061386c89898860200151896000015101613bca565b909250905080156139375784516000906001600160e01b0319166322ba176160e21b14156138b35785602001518060200190518101906138ac91906142dc565b90506138ec565b85516001600160e01b03191663025ceed960e61b14156138ec57600086602001518060200190518101906138e791906144e8565b509150505b6139356040518060400160405280888152602001848152508961390e84613bec565b887ff87e69cb514f255f3d32f9d90f25160a10d0cdefe6618a6406db334d4450595c611e8e565b505b50979650505050505050565b60008061394f87613c2b565b90506000806139838a8989868a8a7fb3c5c697ec0b511b76d12f6293e6ee827b1e1df79ac7c64d0466d945904893d76139a9565b915091506113888111156134b95760405162461bcd60e51b815260040161094e90614d7e565b856000805b8651811015613a6a576139ea8782815181106139c657fe5b6020026020010151602001516001600160601b031683613a8f90919063ffffffff16565b9150600080613a1a858b8b8681518110613a0057fe5b6020026020010151602001516001600160601b0316613bca565b90955085925090508015613a6057613a6060405180604001604052808e815260200183815250898b8681518110613a4d57fe5b6020026020010151600001518a8a611e8e565b50506001016139ae565b5097509795505050505050565b6000612d6b612710613a898585613da4565b90613dfd565b600082820183811015612d6b576040805162461bcd60e51b815260206004820152601b60248201527f536166654d6174683a206164646974696f6e206f766572666c6f770000000000604482015290519081900360640190fd5b600082821115613b40576040805162461bcd60e51b815260206004820152601e60248201527f536166654d6174683a207375627472616374696f6e206f766572666c6f770000604482015290519081900360640190fd5b50900390565b6001600160e01b03198082161415613ba5576040805162461bcd60e51b815260206004820152601c60248201527f4552433136353a20696e76616c696420696e7465726661636520696400000000604482015290519081900360640190fd5b6001600160e01b0319166000908152603360205260409020805460ff19166001179055565b600080613be085613bdb8686613a77565b613e64565b91509150935093915050565b6001600160a01b0380821660009081526101c760205260408120549091168015613c175790506105a3565b50506101c6546001600160a01b0316919050565b80516060906001600160e01b03191663025ceed960e61b1480613c5f575081516001600160e01b0319166339d690a360e11b145b15613d15576000808360200151806020019051810190613c7f91906144e8565b6101c554604051634e53ee3d60e11b81529294509092506001600160a01b031690639ca7dc7a90613cb69085908590600401614ca1565b600060405180830381600087803b158015613cd057600080fd5b505af1158015613ce4573d6000803e3d6000fd5b505050506040513d6000823e601f3d908101601f19168201604052613d0c91908101906146f0565b925050506105a3565b81516001600160e01b03191662737ea960e61b1415613d58576000808360200151806020019051810190613d4991906142f8565b6080015193506105a392505050565b81516001600160e01b03191663d8f960c160e01b1415613d9c576000808360200151806020019051810190613d8d91906143f5565b6060015193506105a392505050565b506060919050565b600082613db35750600061063a565b82820282848281613dc057fe5b0414612d6b5760405162461bcd60e51b81526004018080602001828103825260218152602001806153606021913960400191505060405180910390fd5b6000808211613e53576040805162461bcd60e51b815260206004820152601a60248201527f536166654d6174683a206469766973696f6e206279207a65726f000000000000604482015290519081900360640190fd5b818381613e5c57fe5b049392505050565b60008082841115613e8357613e798484613ae9565b9150829050613e8a565b5060009050825b9250929050565b828054600181600116156101000203166002900490600052602060002090601f016020900481019282613ec75760008555613f0d565b82601f10613ee057805160ff1916838001178555613f0d565b82800160010185558215613f0d579182015b82811115613f0d578251825591602001919060010190613ef2565b50613f19929150613fe1565b5090565b50805460018160011615610100020316600290046000825580601f10613f435750611755565b601f0160209004906000526020600020908101906117559190613fe1565b604080518082019091526000808252602082015290565b6040518060a0016040528060608152602001606081526020016000815260200160008152602001600081525090565b6040518060400160405280613fba613ff6565b8152602001600081525090565b604051806040016040528060608152602001606081525090565b5b80821115613f195760008155600101613fe2565b60408051808201909152600081526060602082015290565b600061402161401c8461528b565b61524b565b905082815283838301111561403557600080fd5b612d6b8360208301846152c4565b600082601f830112614053578081fd5b8151602061406361401c8361526e565b82815281810190858301855b858110156140ad578151880189603f820112614089578788fd5b61409a8a878301516040840161400e565b855250928401929084019060010161406f565b5090979650505050505050565b600082601f8301126140ca578081fd5b815160206140da61401c8361526e565b828152818101908583016040808602880185018910156140f8578687fd5b865b868110156141675781838b031215614110578788fd5b81518281018181106001600160401b038211171561412a57fe5b83528351614137816152f6565b8152838701516001600160601b038116811461415157898afd5b81880152855293850193918101916001016140fa565b509198975050505050505050565b600082601f830112614185578081fd5b8135602061419561401c8361526e565b82815281810190858301838502870184018810156141b1578586fd5b855b858110156140ad578135845292840192908401906001016141b3565b80356001600160e01b0319811681146105a357600080fd5b600082601f8301126141f7578081fd5b813561420561401c8261528b565b818152846020838601011115614219578283fd5b816020850160208301379081016020019190915292915050565b600082601f830112614243578081fd5b612d6b8383516020850161400e565b600060408284031215614263578081fd5b604051604081016001600160401b03828210818311171561428057fe5b81604052829350614290856141cf565b835260208501359150808211156142a657600080fd5b506142b3858286016141e7565b6020830152505092915050565b6000602082840312156142d1578081fd5b8135612d6b816152f6565b6000602082840312156142ed578081fd5b8151612d6b816152f6565b6000806040838503121561430a578081fd5b8251614315816152f6565b60208401519092506001600160401b0380821115614331578283fd5b9084019060c08287031215614344578283fd5b61434e60c061524b565b82518152602083015182811115614363578485fd5b61436f88828601614233565b60208301525060408301516040820152606083015182811115614390578485fd5b61439c888286016140ba565b6060830152506080830151828111156143b3578485fd5b6143bf888286016140ba565b60808301525060a0830151828111156143d6578485fd5b6143e288828601614043565b60a0830152508093505050509250929050565b60008060408385031215614407578182fd5b8251614412816152f6565b60208401519092506001600160401b038082111561442e578283fd5b9084019060a08287031215614441578283fd5b61444b60a061524b565b82518152602083015182811115614460578485fd5b61446c88828601614233565b602083015250604083015182811115614483578485fd5b61448f888286016140ba565b6040830152506060830151828111156144a6578485fd5b6144b2888286016140ba565b6060830152506080830151828111156144c9578485fd5b6144d588828601614043565b6080830152508093505050509250929050565b600080604083850312156144fa578182fd5b8251614505816152f6565b6020939093015192949293505050565b60008060408385031215614527578182fd5b8235614532816152f6565b91506020830135614542816152f6565b809150509250929050565b600080600080600060a08688031215614564578081fd5b853561456f816152f6565b9450602086013561457f816152f6565b935060408601356001600160401b038082111561459a578283fd5b6145a689838a01614175565b945060608801359150808211156145bb578283fd5b6145c789838a01614175565b935060808801359150808211156145dc578283fd5b506145e9888289016141e7565b9150509295509295909350565b6000806000806080858703121561460b578182fd5b8435614616816152f6565b93506020850135614626816152f6565b92506040850135915060608501356001600160401b03811115614647578182fd5b614653878288016141e7565b91505092959194509250565b600080600080600060a08688031215614676578283fd5b8535614681816152f6565b94506020860135614691816152f6565b9350604086013592506060860135915060808601356001600160401b038111156146b9578182fd5b6145e9888289016141e7565b600080604083850312156146d7578182fd5b82356146e2816152f6565b946020939093013593505050565b600060208284031215614701578081fd5b81516001600160401b03811115614716578182fd5b614722848285016140ba565b949350505050565b60006020828403121561473b578081fd5b81518015158114612d6b578182fd5b60006020828403121561475b578081fd5b612d6b826141cf565b60008060408385031215614776578182fd5b614532836141cf565b600080600080600060a08688031215614796578283fd5b85356147a1816152f6565b945060208601356147b1816152f6565b93506040860135925060608601356147c8816152f6565b915060808601356147d8816152f6565b809150509295509295909350565b60008060008060008060c087890312156147fe578384fd5b86356001600160401b0380821115614814578586fd5b908801906040828b031215614827578586fd5b60405160408101818110838211171561483c57fe5b60405282358281111561484d578788fd5b6148598c828601614252565b825250602092830135838201529750908801359080821115614879578586fd5b6148858a838b01614252565b965060408901359550606089013594506148a160808a016141cf565b935060a08901359150808211156148b6578283fd5b506148c389828a016141e7565b9150509295509295509295565b6000602082840312156148e1578081fd5b81516001600160401b03808211156148f7578283fd5b9083019060a0828603121561490a578283fd5b60405160a08101818110838211171561491f57fe5b604052825182811115614930578485fd5b61493c878286016140ba565b825250602083015182811115614950578485fd5b61495c878286016140ba565b60208301525060408301516040820152606083015160608201526080830151608082015280935050505092915050565b60006020828403121561499d578081fd5b81516001600160401b03808211156149b3578283fd5b90830190604082860312156149c6578283fd5b6040516040810181811083821117156149db57fe5b6040528251828111156149ec578485fd5b6149f8878286016140ba565b825250602083015182811115614a0c578485fd5b614a18878286016140ba565b60208301525095945050505050565b600060208284031215614a38578081fd5b5035919050565b60008060408385031215614a51578182fd5b8235915060208301356001600160401b0380821115614a6e578283fd5b9084019060608287031215614a81578283fd5b604051606081018181108382111715614a9657fe5b60405282358152614aa9602084016141cf565b6020820152604083013582811115614abf578485fd5b614acb888286016141e7565b6040830152508093505050509250929050565b6001600160a01b03169052565b6001600160e01b0319169052565b60008151808452614b118160208601602086016152c4565b601f01601f19169290920160200192915050565b60008154600180821660008114614b435760018114614b6157614b9f565b60028304607f16865260ff1983166020870152604086019350614b9f565b60028304808752614b71866152ac565b60005b82811015614b955781546020828b0101528482019150602081019050614b74565b8801602001955050505b50505092915050565b600063ffffffff60e01b825460e01b16835260406020840152612d6b6040840160018401614b25565b600081516040845263ffffffff60e01b81511660408501526020810151905060406060850152614c046080850182614af9565b602093840151949093019390935250919050565b600060408352614c2b6040840183614ba8565b600283015460208501528091505092915050565b60008154835263ffffffff60e01b600183015460e01b16602084015260606040840152612d6b6060840160028401614b25565b6001600160a01b0391909116815260200190565b6001600160a01b039290921682521515602082015260400190565b6001600160a01b03929092168252602082015260400190565b901515815260200190565b6001600160e01b031991909116815260200190565b6001600160a01b03958616815293851660208501529190931660408301526060820192909252608081019190915260c060a0820181905260009082015260e00190565b6001600160a01b039485168152928416602084015292166040820152606081019190915260800190565b6020808252601f908201527f616c7265616479206861766520616e206f75747374616e64696e672062696400604082015260600190565b6020808252601d908201527f526f79616c746965732061726520746f6f206869676820283e35302529000000604082015260600190565b60208082526026908201527f61756374696f6e20666f7220746869732061637574696f6e496420697320696e60408201526561637469766560d01b606082015260800190565b6020808252818101527f7468657265206973206e6f2061756374696f6e20776974682074686973206964604082015260600190565b60208082526012908201527134b731b7b93932b1ba10323ab930ba34b7b760711b604082015260600190565b6020808252601d908201527f6e6f7420656e6f75676820666f72206275796f75742061756374696f6e000000604082015260600190565b6020808252601a908201527f61756374696f6e206f776e6572206e6f74206465746563746564000000000000604082015260600190565b60208082526012908201527162696420616d6f756e7420746f6f206c6f7760701b604082015260600190565b602080825260149082015273696e636f72726563742073746172742074696d6560601b604082015260600190565b60208082526012908201527132b9319b9918903b30b63ab29032b93937b960711b604082015260600190565b60208082526024908201527f6269642063616e2774206265206c657373207468616e206d696e696d616c20706040820152637269636560e01b606082015260800190565b6020808252601d908201527f63616e27742063616e63656c2061756374696f6e207769746820626964000000604082015260600190565b60208082526022908201527f63616e27742073656c6c20455448206f72204552433230206f6e20617563746960408201526137b760f11b606082015260800190565b6020808252601e908201527f53756d207061796f75747320427073206e6f7420657175616c20313030250000604082015260600190565b6020808252602b908201527f6f6e6c7920656e6465642061756374696f6e2077697468206269642063616e2060408201526a189948199a5b9a5cda195960aa1b606082015260800190565b6000606082526150a26060830186614bd1565b6001600160a01b0394851660208401529290931660409091015292915050565b600060a082526150d560a0830188614bd1565b6001600160a01b0396871660208401529490951660408201526001600160e01b03199283166060820152911660809091015292915050565b60006020825261016080602084015261512a610180840185614c18565b601f19808583030160408601526151448260038801614ba8565b91508085830301606086015261515d8260058801614c3f565b915061516c60088701546152b8565b6151796080870182614ade565b5061518760098701546152b8565b61519460a0870182614ade565b50600a86015460c0860152600b86015460e0860152600c860154610100860152600d8601546101208601526151cc600e8701546152f0565b6151da610140870182614aeb565b5084820301828501526151f081600f8701614b25565b95945050505050565b6000604082528351604083015263ffffffff60e01b602085015116606083015260408401516060608084015261523260a0840182614af9565b9150508260208301529392505050565b90815260200190565b6040518181016001600160401b038111828210171561526657fe5b604052919050565b60006001600160401b0382111561528157fe5b5060209081020190565b60006001600160401b0382111561529e57fe5b50601f01601f191660200190565b60009081526020902090565b6001600160a01b031690565b60005b838110156152df5781810151838201526020016152c7565b83811115611d445750506000910152565b60e01b90565b6001600160a01b038116811461175557600080fdfe4f776e61626c653a206e6577206f776e657220697320746865207a65726f2061646472657373496e697469616c697a61626c653a20636f6e747261637420697320616c726561647920696e697469616c697a6564536166654d6174683a206d756c7469706c69636174696f6e206f766572666c6f774f776e61626c653a2063616c6c6572206973206e6f7420746865206f776e6572a264697066735822122074fca456f4bd88b22b89530be7ef380c11c3982c0e53dc565571bf1432af197564736f6c63430007060033",
  "immutableReferences": {},
  "source": "// SPDX-License-Identifier: MIT\n\npragma solidity 0.7.6;\npragma abicoder v2;\n\nimport \"./AuctionHouseBase.sol\";\n\nimport \"@rarible/exchange-v2/contracts/lib/LibTransfer.sol\";\nimport \"@rarible/exchange-v2/contracts/RaribleTransferManager.sol\";\n\n//contract AuctionHouse is AuctionHouseBase, Initializable, TransferExecutor {\ncontract AuctionHouse is AuctionHouseBase, TransferExecutor,  RaribleTransferManager{\n    using LibTransfer for address;\n\n    mapping(uint => Auction) auctions;   //save auctions here\n\n    uint256 private auctionId;          //unic. auction id\n\n    uint256 private constant EXTENSION_DURATION = 15 minutes;\n    uint256 private constant MAX_DURATION = 1000 days;\n\n    function __AuctionHouse_init(\n        INftTransferProxy _transferProxy,\n        IERC20TransferProxy _erc20TransferProxy,\n        uint newProtocolFee,\n        address newDefaultFeeReceiver,\n        IRoyaltiesProvider newRoyaltiesProvider\n    ) external initializer {\n        __Context_init_unchained();\n        __Ownable_init_unchained();\n        __TransferExecutor_init_unchained(_transferProxy, _erc20TransferProxy);\n        __RaribleTransferManager_init_unchained(newProtocolFee, newDefaultFeeReceiver, newRoyaltiesProvider);\n        __AuctionHouseBase_init();\n        __AuctionHouse_init_unchained();\n    }\n\n     function __AuctionHouse_init_unchained() internal initializer {\n        auctionId = 1;\n    }\n\n    //creates auction and locks assets to sell\n    function startAuction(\n        LibAsset.Asset memory _sellAsset,\n        LibAsset.AssetType memory _buyAsset,\n        uint minimalStep,\n        uint minimalPrice,\n        bytes4 dataType,\n        bytes memory data\n    ) external {\n        uint currentAuctionId = getNextAndIncrementAuctionId();\n        require(\n            _sellAsset.assetType.assetClass != LibAsset.ETH_ASSET_CLASS && \n            _sellAsset.assetType.assetClass != LibAsset.ERC20_ASSET_CLASS,\n            \"can't sell ETH or ERC20 on auction\"\n        );\n\n        LibAucDataV1.DataV1 memory aucData = LibAucDataV1.parse(data, dataType);\n        require(aucData.duration >= EXTENSION_DURATION && aucData.duration <= MAX_DURATION, \"incorrect duration\");\n\n        uint endTime = 0;\n        if (aucData.startTime > 0){\n            require (aucData.startTime >= block.timestamp, \"incorrect start time\");\n            endTime = aucData.startTime + aucData.duration;\n        }\n        auctions[currentAuctionId] = Auction(\n            _sellAsset,\n            _buyAsset,\n            Bid(0, \"\", \"\"),\n            _msgSender(),\n            payable(address(0)),\n            endTime,\n            minimalStep,\n            minimalPrice,\n            protocolFee,\n            dataType,\n            data\n        );\n        transfer(_sellAsset, _msgSender(), address(this), TO_LOCK, LOCK);\n        setApproveForTransferProxy(_sellAsset);\n\n        setAuctionForToken(_sellAsset, currentAuctionId);\n        emit AuctionCreated(currentAuctionId, auctions[currentAuctionId]);\n    }\n\n    function setApproveForTransferProxy(LibAsset.Asset memory _asset) internal {\n        if (_asset.assetType.assetClass == LibAsset.ERC20_ASSET_CLASS) {\n            (address token) = abi.decode(_asset.assetType.data, (address));\n            IERC20Upgradeable(token).approve(proxies[LibAsset.ERC20_ASSET_CLASS], _asset.value);\n        } else if (_asset.assetType.assetClass == LibAsset.ERC721_ASSET_CLASS) {\n            (address token,) = abi.decode(_asset.assetType.data, (address, uint256));\n            require(_asset.value == 1, \"erc721 value error\");\n            IERC721Upgradeable(token).setApprovalForAll(proxies[LibAsset.ERC721_ASSET_CLASS], true);\n        } else if (_asset.assetType.assetClass == LibAsset.ERC1155_ASSET_CLASS) {\n            (address token,) = abi.decode(_asset.assetType.data, (address, uint256));\n            IERC1155Upgradeable(token).setApprovalForAll(proxies[LibAsset.ERC1155_ASSET_CLASS], true);\n        }\n    }\n\n    function getNextAndIncrementAuctionId() internal returns (uint256) {\n        return auctionId++;\n    }\n\n    //put a bid and return locked assets for the last bid\n    function putBid(uint _auctionId, Bid memory bid) payable external {\n        require(!isFinalized(_auctionId), \"auction for this acutionId is inactive\");\n        address payable newBuyer = _msgSender();\n        uint newAmount = bid.amount;\n        if (buyOutVerify(_auctionId, newAmount)) {\n            _buyOut(_auctionId, bid);\n            doTransfers(_auctionId);\n            deactivateAuction(_auctionId);\n            return;\n        }\n        \n        Auction memory currentAuction = auctions[_auctionId];\n        LibAucDataV1.DataV1 memory aucData = LibAucDataV1.parse(currentAuction.data, currentAuction.dataType);\n        uint currentTime = block.timestamp;\n        //start action if minimal price is met\n        if (currentAuction.buyer == address(0x0)) {//no bid at all\n            if (currentAuction.endTime == 0){\n                auctions[_auctionId].endTime = currentTime + aucData.duration;\n            }\n            require(newAmount >= currentAuction.minimalPrice, \"bid can't be less than minimal price\");\n        } else {//there is bid in auction\n            require(currentAuction.buyer != newBuyer, \"already have an outstanding bid\");\n            uint256 minAmount = getMinimalNextBid(_auctionId);\n            require(newAmount >= minAmount, \"bid amount too low\");\n        }\n        reserveValue(\n            currentAuction.buyAsset, \n            currentAuction.buyer, \n            newBuyer, \n            getBidTotalAmount(currentAuction.lastBid, currentAuction.protocolFee), \n            getBidTotalAmount(bid, currentAuction.protocolFee)\n        );\n        auctions[_auctionId].lastBid = bid;\n        auctions[_auctionId].buyer = newBuyer;\n\n        if (currentAuction.endTime - currentTime < EXTENSION_DURATION) {\n            auctions[_auctionId].endTime = currentTime + EXTENSION_DURATION;\n        }\n        emit BidPlaced(_auctionId, bid, currentAuction.endTime);\n    }\n\n    function reserveValue(LibAsset.AssetType memory _buyAssetType, address oldBuyer, address newBuyer, uint oldAmount, uint newAmount) internal {\n        LibAsset.Asset memory transferAsset;\n        if (oldBuyer != address(0x0)) {//return oldAmount to oldBuyer\n            transferAsset = LibAsset.Asset(_buyAssetType, oldAmount);\n            transfer(transferAsset, address(this), oldBuyer, TO_LOCK, UNLOCK);\n        }\n        transferAsset = LibAsset.Asset(_buyAssetType, newAmount);\n        if (transferAsset.assetType.assetClass == LibAsset.ETH_ASSET_CLASS) {\n            if (msg.value > newAmount) {//more ETH than need\n                address(newBuyer).transferEth(msg.value - newAmount);\n            }\n        } else {\n            transfer(transferAsset, newBuyer, address(this), TO_LOCK, LOCK);\n            setApproveForTransferProxy(transferAsset);\n        } \n    }\n\n    function getMinimalNextBid(uint _auctionId) public view returns (uint minBid){\n        Auction storage currentAuction = auctions[_auctionId];\n\n        if (currentAuction.buyer == address(0x0)) {\n            minBid = currentAuction.minimalPrice;\n        } else {\n            minBid = currentAuction.lastBid.amount + currentAuction.minimalStep;\n        }\n    }\n\n    function checkAuctionExistence(uint _auctionId) public view returns (bool){\n        if (auctions[_auctionId].seller == address(0)) {\n            return false;\n        } else {\n            return true;\n        }\n    }\n\n    function buyOutVerify(uint _auctionId, uint newAmount) internal view returns (bool) {\n        LibAucDataV1.DataV1 memory aucData = LibAucDataV1.parse(auctions[_auctionId].data, auctions[_auctionId].dataType);\n\n        if (aucData.buyOutPrice > 0 && aucData.buyOutPrice <= newAmount) {\n            return true;\n        }\n        return false;\n    }\n\n    //finishAuction\n    function finishAuction(uint _auctionId) external {\n        require(checkAuctionExistence(_auctionId), \"there is no auction with this id\");\n        require(\n            !checkAuctionRangeTime(_auctionId) &&\n            auctions[_auctionId].buyer != address(0),\n            \"only ended auction with bid can be finished\");\n        doTransfers(_auctionId);\n        deactivateAuction(_auctionId);\n    }\n\n    function doTransfers(uint _auctionId) internal {\n        Auction memory currentAuction = auctions[_auctionId];\n        address seller = currentAuction.seller;\n        address buyer = currentAuction.buyer;\n        if (buyer != address(0x0)) {//bid exists\n            LibOrderDataV1.DataV1 memory bidData = LibBidDataV1.getPaymentData(currentAuction.lastBid.data, currentAuction.lastBid.dataType);\n            if (bidData.payouts.length == 0){\n                LibPart.Part[] memory payout = new LibPart.Part[](1);\n                payout[0].account = payable(buyer);\n                payout[0].value = 10000;\n                bidData.payouts = payout;\n            }\n            LibOrderDataV1.DataV1 memory aucData = LibAucDataV1.getPaymentData(currentAuction.data, currentAuction.dataType);\n            if (aucData.payouts.length == 0){\n                LibPart.Part[] memory payout = new LibPart.Part[](1);\n                payout[0].account = payable(seller);\n                payout[0].value = 10000;\n                aucData.payouts = payout;\n            }\n            doTransfersWithFees(\n                currentAuction.lastBid.amount, \n                address(this), \n                MatchProtocolFees(currentAuction.protocolFee, currentAuction.protocolFee),\n                bidData, \n                aucData, \n                currentAuction.buyAsset, \n                currentAuction.sellAsset.assetType, \n                TO_MAKER\n            );\n            transferPayouts(currentAuction.sellAsset.assetType, currentAuction.sellAsset.value, address(this), bidData.payouts, TO_TAKER);\n        } else {\n            transfer(currentAuction.sellAsset, address(this), seller, TO_SELLER, UNLOCK); //nft back to seller\n        }\n    }\n\n    function checkAuctionRangeTime(uint _auctionId) public view returns (bool){\n        Auction storage currentAuction = auctions[_auctionId];\n        uint endTime = auctions[_auctionId].endTime;\n        uint currentTime = block.timestamp;\n\n        LibAucDataV1.DataV1 memory aucData = LibAucDataV1.parse(currentAuction.data, currentAuction.dataType);\n        if (aucData.startTime > 0 && aucData.startTime > currentTime) {\n            return false;\n        }\n        if (endTime > 0 && endTime < currentTime){\n            return false;\n        }\n        \n        return true;\n    }\n\n    function deactivateAuction(uint _auctionId) internal {\n        emit AuctionFinished(_auctionId, auctions[_auctionId]);\n        deleteAuctionForToken(auctions[_auctionId].sellAsset);\n        delete auctions[_auctionId];\n    }\n\n    //cancel auction without bid\n    function cancel(uint _auctionId) external {\n        require(checkAuctionExistence(_auctionId), \"there is no auction with this id\");\n        Auction storage currentAuction = auctions[_auctionId];\n        address seller = currentAuction.seller;\n        require(seller == _msgSender(), \"auction owner not detected\");\n        address buyer = currentAuction.buyer;\n        require(buyer == address(0), \"can't cancel auction with bid\");\n        transfer(currentAuction.sellAsset, address(this), seller, TO_SELLER, UNLOCK); //nft transfer back to seller\n        deactivateAuction(_auctionId);\n        AuctionCancelled(_auctionId);\n    }\n\n    //buyout\n    function buyOut(uint _auctionId, Bid memory bid) external payable {\n        require(!isFinalized(_auctionId), \"auction for this acutionId is inactive\");\n\n        require(buyOutVerify(_auctionId, bid.amount), \"not enough for buyout auction\");\n        _buyOut(_auctionId, bid);\n        doTransfers(_auctionId);\n        deactivateAuction(_auctionId);\n    }\n\n    function _buyOut(uint _auctionId, Bid memory bid) internal {\n        address payable newBuyer = _msgSender();\n        Auction storage currentAuction = auctions[_auctionId];\n        reserveValue(\n            currentAuction.buyAsset, \n            currentAuction.buyer, \n            newBuyer, \n            getBidTotalAmount(currentAuction.lastBid, currentAuction.protocolFee), \n            getBidTotalAmount(bid, currentAuction.protocolFee)\n        );\n        currentAuction.lastBid = bid;\n        currentAuction.buyer = newBuyer;\n    }\n\n    function getCurrentBuyer(uint _auctionId) public view returns(address) {\n        return auctions[_auctionId].buyer;\n    }\n\n    function isFinalized(uint256 _auctionId) public view returns (bool){\n        return (!checkAuctionExistence(_auctionId) || !checkAuctionRangeTime(_auctionId));\n    }\n\n    function getBidTotalAmount(Bid memory bid, uint _protocolFee) internal view returns(uint){\n        return calculateTotalAmount(bid.amount, _protocolFee, LibBidDataV1.getOrigin(bid.data, bid.dataType));\n    }\n\n    uint256[50] private ______gap;\n}",
  "sourcePath": "/Users/sergey/Projects/rarible/protocol-contracts/auction/contracts/AuctionHouse.sol",
  "compiler": {
    "name": "solc",
    "version": "0.7.6+commit.7338295f.Emscripten.clang"
  },
  "schemaVersion": "3.4.0",
  "updatedAt": "2021-10-30T11:51:19.317Z",
  "devdoc": {
    "kind": "dev",
    "methods": {
      "onERC721Received(address,address,uint256,bytes)": {
        "details": "See {IERC721Receiver-onERC721Received}. Always returns `IERC721Receiver.onERC721Received.selector`."
      },
      "owner()": {
        "details": "Returns the address of the current owner."
      },
      "renounceOwnership()": {
        "details": "Leaves the contract without owner. It will not be possible to call `onlyOwner` functions anymore. Can only be called by the current owner. NOTE: Renouncing ownership will leave the contract without an owner, thereby removing any functionality that is only available to the owner."
      },
      "supportsInterface(bytes4)": {
        "details": "See {IERC165-supportsInterface}. Time complexity O(1), guaranteed to always use less than 30 000 gas."
      },
      "transferOwnership(address)": {
        "details": "Transfers ownership of the contract to a new account (`newOwner`). Can only be called by the current owner."
      }
    },
    "version": 1
  },
  "userdoc": {
    "kind": "user",
    "methods": {},
    "version": 1
  }
}