{
  "contractName": "MintableOwnableToken",
  "abi": [
    {
      "inputs": [
        {
          "internalType": "string",
          "name": "name",
          "type": "string"
        },
        {
          "internalType": "string",
          "name": "symbol",
          "type": "string"
        },
        {
          "internalType": "string",
          "name": "tokenURIPrefix",
          "type": "string"
        },
        {
          "internalType": "address",
          "name": "signer",
          "type": "address"
        }
      ],
      "payable": false,
      "stateMutability": "nonpayable",
      "type": "constructor"
    },
    {
      "anonymous": false,
      "inputs": [
        {
          "indexed": true,
          "internalType": "address",
          "name": "owner",
          "type": "address"
        },
        {
          "indexed": true,
          "internalType": "address",
          "name": "approved",
          "type": "address"
        },
        {
          "indexed": true,
          "internalType": "uint256",
          "name": "tokenId",
          "type": "uint256"
        }
      ],
      "name": "Approval",
      "type": "event"
    },
    {
      "anonymous": false,
      "inputs": [
        {
          "indexed": true,
          "internalType": "address",
          "name": "owner",
          "type": "address"
        },
        {
          "indexed": true,
          "internalType": "address",
          "name": "operator",
          "type": "address"
        },
        {
          "indexed": false,
          "internalType": "bool",
          "name": "approved",
          "type": "bool"
        }
      ],
      "name": "ApprovalForAll",
      "type": "event"
    },
    {
      "anonymous": false,
      "inputs": [
        {
          "indexed": true,
          "internalType": "address",
          "name": "creator",
          "type": "address"
        },
        {
          "indexed": false,
          "internalType": "string",
          "name": "name",
          "type": "string"
        },
        {
          "indexed": false,
          "internalType": "string",
          "name": "symbol",
          "type": "string"
        }
      ],
      "name": "Create",
      "type": "event"
    },
    {
      "anonymous": false,
      "inputs": [
        {
          "indexed": true,
          "internalType": "address",
          "name": "previousOwner",
          "type": "address"
        },
        {
          "indexed": true,
          "internalType": "address",
          "name": "newOwner",
          "type": "address"
        }
      ],
      "name": "OwnershipTransferred",
      "type": "event"
    },
    {
      "anonymous": false,
      "inputs": [
        {
          "indexed": true,
          "internalType": "address",
          "name": "account",
          "type": "address"
        }
      ],
      "name": "SignerAdded",
      "type": "event"
    },
    {
      "anonymous": false,
      "inputs": [
        {
          "indexed": true,
          "internalType": "address",
          "name": "account",
          "type": "address"
        }
      ],
      "name": "SignerRemoved",
      "type": "event"
    },
    {
      "anonymous": false,
      "inputs": [
        {
          "indexed": true,
          "internalType": "address",
          "name": "from",
          "type": "address"
        },
        {
          "indexed": true,
          "internalType": "address",
          "name": "to",
          "type": "address"
        },
        {
          "indexed": true,
          "internalType": "uint256",
          "name": "tokenId",
          "type": "uint256"
        }
      ],
      "name": "Transfer",
      "type": "event"
    },
    {
      "constant": false,
      "inputs": [
        {
          "internalType": "address",
          "name": "to",
          "type": "address"
        },
        {
          "internalType": "uint256",
          "name": "tokenId",
          "type": "uint256"
        }
      ],
      "name": "approve",
      "outputs": [],
      "payable": false,
      "stateMutability": "nonpayable",
      "type": "function"
    },
    {
      "constant": true,
      "inputs": [
        {
          "internalType": "address",
          "name": "owner",
          "type": "address"
        }
      ],
      "name": "balanceOf",
      "outputs": [
        {
          "internalType": "uint256",
          "name": "",
          "type": "uint256"
        }
      ],
      "payable": false,
      "stateMutability": "view",
      "type": "function"
    },
    {
      "constant": false,
      "inputs": [
        {
          "internalType": "uint256",
          "name": "tokenId",
          "type": "uint256"
        }
      ],
      "name": "burn",
      "outputs": [],
      "payable": false,
      "stateMutability": "nonpayable",
      "type": "function"
    },
    {
      "constant": true,
      "inputs": [
        {
          "internalType": "uint256",
          "name": "tokenId",
          "type": "uint256"
        }
      ],
      "name": "getApproved",
      "outputs": [
        {
          "internalType": "address",
          "name": "",
          "type": "address"
        }
      ],
      "payable": false,
      "stateMutability": "view",
      "type": "function"
    },
    {
      "constant": true,
      "inputs": [
        {
          "internalType": "address",
          "name": "owner",
          "type": "address"
        },
        {
          "internalType": "address",
          "name": "operator",
          "type": "address"
        }
      ],
      "name": "isApprovedForAll",
      "outputs": [
        {
          "internalType": "bool",
          "name": "",
          "type": "bool"
        }
      ],
      "payable": false,
      "stateMutability": "view",
      "type": "function"
    },
    {
      "constant": true,
      "inputs": [],
      "name": "isOwner",
      "outputs": [
        {
          "internalType": "bool",
          "name": "",
          "type": "bool"
        }
      ],
      "payable": false,
      "stateMutability": "view",
      "type": "function"
    },
    {
      "constant": true,
      "inputs": [
        {
          "internalType": "address",
          "name": "account",
          "type": "address"
        }
      ],
      "name": "isSigner",
      "outputs": [
        {
          "internalType": "bool",
          "name": "",
          "type": "bool"
        }
      ],
      "payable": false,
      "stateMutability": "view",
      "type": "function"
    },
    {
      "constant": true,
      "inputs": [],
      "name": "name",
      "outputs": [
        {
          "internalType": "string",
          "name": "",
          "type": "string"
        }
      ],
      "payable": false,
      "stateMutability": "view",
      "type": "function"
    },
    {
      "constant": true,
      "inputs": [],
      "name": "owner",
      "outputs": [
        {
          "internalType": "address",
          "name": "",
          "type": "address"
        }
      ],
      "payable": false,
      "stateMutability": "view",
      "type": "function"
    },
    {
      "constant": true,
      "inputs": [
        {
          "internalType": "uint256",
          "name": "tokenId",
          "type": "uint256"
        }
      ],
      "name": "ownerOf",
      "outputs": [
        {
          "internalType": "address",
          "name": "",
          "type": "address"
        }
      ],
      "payable": false,
      "stateMutability": "view",
      "type": "function"
    },
    {
      "constant": false,
      "inputs": [],
      "name": "renounceOwnership",
      "outputs": [],
      "payable": false,
      "stateMutability": "nonpayable",
      "type": "function"
    },
    {
      "constant": false,
      "inputs": [],
      "name": "renounceSigner",
      "outputs": [],
      "payable": false,
      "stateMutability": "nonpayable",
      "type": "function"
    },
    {
      "constant": false,
      "inputs": [
        {
          "internalType": "address",
          "name": "from",
          "type": "address"
        },
        {
          "internalType": "address",
          "name": "to",
          "type": "address"
        },
        {
          "internalType": "uint256",
          "name": "tokenId",
          "type": "uint256"
        }
      ],
      "name": "safeTransferFrom",
      "outputs": [],
      "payable": false,
      "stateMutability": "nonpayable",
      "type": "function"
    },
    {
      "constant": false,
      "inputs": [
        {
          "internalType": "address",
          "name": "from",
          "type": "address"
        },
        {
          "internalType": "address",
          "name": "to",
          "type": "address"
        },
        {
          "internalType": "uint256",
          "name": "tokenId",
          "type": "uint256"
        },
        {
          "internalType": "bytes",
          "name": "_data",
          "type": "bytes"
        }
      ],
      "name": "safeTransferFrom",
      "outputs": [],
      "payable": false,
      "stateMutability": "nonpayable",
      "type": "function"
    },
    {
      "constant": false,
      "inputs": [
        {
          "internalType": "address",
          "name": "to",
          "type": "address"
        },
        {
          "internalType": "bool",
          "name": "approved",
          "type": "bool"
        }
      ],
      "name": "setApprovalForAll",
      "outputs": [],
      "payable": false,
      "stateMutability": "nonpayable",
      "type": "function"
    },
    {
      "constant": true,
      "inputs": [
        {
          "internalType": "bytes4",
          "name": "interfaceId",
          "type": "bytes4"
        }
      ],
      "name": "supportsInterface",
      "outputs": [
        {
          "internalType": "bool",
          "name": "",
          "type": "bool"
        }
      ],
      "payable": false,
      "stateMutability": "view",
      "type": "function"
    },
    {
      "constant": true,
      "inputs": [],
      "name": "symbol",
      "outputs": [
        {
          "internalType": "string",
          "name": "",
          "type": "string"
        }
      ],
      "payable": false,
      "stateMutability": "view",
      "type": "function"
    },
    {
      "constant": true,
      "inputs": [
        {
          "internalType": "uint256",
          "name": "index",
          "type": "uint256"
        }
      ],
      "name": "tokenByIndex",
      "outputs": [
        {
          "internalType": "uint256",
          "name": "",
          "type": "uint256"
        }
      ],
      "payable": false,
      "stateMutability": "view",
      "type": "function"
    },
    {
      "constant": true,
      "inputs": [
        {
          "internalType": "address",
          "name": "owner",
          "type": "address"
        },
        {
          "internalType": "uint256",
          "name": "index",
          "type": "uint256"
        }
      ],
      "name": "tokenOfOwnerByIndex",
      "outputs": [
        {
          "internalType": "uint256",
          "name": "",
          "type": "uint256"
        }
      ],
      "payable": false,
      "stateMutability": "view",
      "type": "function"
    },
    {
      "constant": true,
      "inputs": [
        {
          "internalType": "uint256",
          "name": "tokenId",
          "type": "uint256"
        }
      ],
      "name": "tokenURI",
      "outputs": [
        {
          "internalType": "string",
          "name": "",
          "type": "string"
        }
      ],
      "payable": false,
      "stateMutability": "view",
      "type": "function"
    },
    {
      "constant": true,
      "inputs": [],
      "name": "tokenURIPrefix",
      "outputs": [
        {
          "internalType": "string",
          "name": "",
          "type": "string"
        }
      ],
      "payable": false,
      "stateMutability": "view",
      "type": "function"
    },
    {
      "constant": true,
      "inputs": [],
      "name": "totalSupply",
      "outputs": [
        {
          "internalType": "uint256",
          "name": "",
          "type": "uint256"
        }
      ],
      "payable": false,
      "stateMutability": "view",
      "type": "function"
    },
    {
      "constant": false,
      "inputs": [
        {
          "internalType": "address",
          "name": "from",
          "type": "address"
        },
        {
          "internalType": "address",
          "name": "to",
          "type": "address"
        },
        {
          "internalType": "uint256",
          "name": "tokenId",
          "type": "uint256"
        }
      ],
      "name": "transferFrom",
      "outputs": [],
      "payable": false,
      "stateMutability": "nonpayable",
      "type": "function"
    },
    {
      "constant": false,
      "inputs": [
        {
          "internalType": "address",
          "name": "newOwner",
          "type": "address"
        }
      ],
      "name": "transferOwnership",
      "outputs": [],
      "payable": false,
      "stateMutability": "nonpayable",
      "type": "function"
    },
    {
      "constant": false,
      "inputs": [
        {
          "internalType": "uint256",
          "name": "tokenId",
          "type": "uint256"
        },
        {
          "internalType": "uint8",
          "name": "v",
          "type": "uint8"
        },
        {
          "internalType": "bytes32",
          "name": "r",
          "type": "bytes32"
        },
        {
          "internalType": "bytes32",
          "name": "s",
          "type": "bytes32"
        },
        {
          "internalType": "string",
          "name": "tokenURI",
          "type": "string"
        }
      ],
      "name": "mint",
      "outputs": [],
      "payable": false,
      "stateMutability": "nonpayable",
      "type": "function"
    },
    {
      "constant": false,
      "inputs": [
        {
          "internalType": "address",
          "name": "account",
          "type": "address"
        }
      ],
      "name": "addSigner",
      "outputs": [],
      "payable": false,
      "stateMutability": "nonpayable",
      "type": "function"
    },
    {
      "constant": false,
      "inputs": [
        {
          "internalType": "address",
          "name": "account",
          "type": "address"
        }
      ],
      "name": "removeSigner",
      "outputs": [],
      "payable": false,
      "stateMutability": "nonpayable",
      "type": "function"
    },
    {
      "constant": false,
      "inputs": [
        {
          "internalType": "string",
          "name": "tokenURIPrefix",
          "type": "string"
        }
      ],
      "name": "setTokenURIPrefix",
      "outputs": [],
      "payable": false,
      "stateMutability": "nonpayable",
      "type": "function"
    }
  ],
  "bytecode": "0x60806040523480156200001157600080fd5b5060405162002c2938038062002c29833981810160405260808110156200003757600080fd5b81019080805160405193929190846401000000008211156200005857600080fd5b9083019060208201858111156200006e57600080fd5b82516401000000008111828201881017156200008957600080fd5b82525081516020918201929091019080838360005b83811015620000b85781810151838201526020016200009e565b50505050905090810190601f168015620000e65780820380516001836020036101000a031916815260200191505b50604052602001805160405193929190846401000000008211156200010a57600080fd5b9083019060208201858111156200012057600080fd5b82516401000000008111828201881017156200013b57600080fd5b82525081516020918201929091019080838360005b838110156200016a57818101518382015260200162000150565b50505050905090810190601f168015620001985780820380516001836020036101000a031916815260200191505b5060405260200180516040519392919084640100000000821115620001bc57600080fd5b908301906020820185811115620001d257600080fd5b8251640100000000811182820188101715620001ed57600080fd5b82525081516020918201929091019080838360005b838110156200021c57818101518382015260200162000202565b50505050905090810190601f1680156200024a5780820380516001836020036101000a031916815260200191505b50604081905260209190910151600080546001600160a01b0319163317808255919450879350869286926001600160a01b031691907f8be0079c531659141344cd1fd0a4f28419497f9722a3daafe3b4186f6b6457e0908290a3620002d87f01ffc9a7000000000000000000000000000000000000000000000000000000006001600160e01b03620004f816565b6200030c7f80ac58cd000000000000000000000000000000000000000000000000000000006001600160e01b03620004f816565b620003407f780e9d63000000000000000000000000000000000000000000000000000000006001600160e01b03620004f816565b82516200035590600a90602086019062000746565b5081516200036b90600b90602085019062000746565b5080516200038190600c90602084019062000746565b50620003b67f5b5e139f000000000000000000000000000000000000000000000000000000006001600160e01b03620004f816565b505050620003ca33620005ca60201b60201c565b336001600160a01b03167f750d13f39f16526306cffdefb909852b055c2ea79ee21d21b36402eddaae70368585604051808060200180602001838103835285818151815260200191508051906020019080838360005b838110156200043a57818101518382015260200162000420565b50505050905090810190601f168015620004685780820380516001836020036101000a031916815260200191505b50838103825284518152845160209182019186019080838360005b838110156200049d57818101518382015260200162000483565b50505050905090810190601f168015620004cb5780820380516001836020036101000a031916815260200191505b5094505050505060405180910390a2620004ee816001600160e01b03620005ca16565b50505050620007eb565b7fffffffff0000000000000000000000000000000000000000000000000000000080821614156200058a57604080517f08c379a000000000000000000000000000000000000000000000000000000000815260206004820152601c60248201527f4552433136353a20696e76616c696420696e7465726661636520696400000000604482015290519081900360640190fd5b7fffffffff00000000000000000000000000000000000000000000000000000000166000908152600160208190526040909120805460ff19169091179055565b620005e581600e6200061c60201b62001cbf1790919060201c565b6040516001600160a01b038216907f47d1c22a25bb3a5d4e481b9b1e6944c2eade3181a0a20b495ed61d35b5323f2490600090a250565b6200063182826001600160e01b03620006c316565b156200069e57604080517f08c379a000000000000000000000000000000000000000000000000000000000815260206004820152601f60248201527f526f6c65733a206163636f756e7420616c72656164792068617320726f6c6500604482015290519081900360640190fd5b6001600160a01b0316600090815260209190915260409020805460ff19166001179055565b60006001600160a01b03821662000726576040517f08c379a000000000000000000000000000000000000000000000000000000000815260040180806020018281038252602281526020018062002c076022913960400191505060405180910390fd5b506001600160a01b03166000908152602091909152604090205460ff1690565b828054600181600116156101000203166002900490600052602060002090601f016020900481019282601f106200078957805160ff1916838001178555620007b9565b82800160010185558215620007b9579182015b82811115620007b95782518255916020019190600101906200079c565b50620007c7929150620007cb565b5090565b620007e891905b80821115620007c75760008155600101620007d2565b90565b61240c80620007fb6000396000f3fe608060405234801561001057600080fd5b50600436106101c45760003560e01c80637df73e27116100f9578063b88d4fde11610097578063e5c8b03d11610071578063e5c8b03d14610703578063e985e9c51461070b578063eb12d61e14610739578063f2fde38b1461075f576101c4565b8063b88d4fde14610618578063c0ac9983146106de578063c87b56dd146106e6576101c4565b80638f32d59b116100d35780638f32d59b1461053457806395d89b411461053c57806399e0dd7c14610544578063a22cb465146105ea576101c4565b80637df73e27146104455780637fbcc6391461046b5780638da5cb5b1461052c576101c4565b80632f745c59116101665780634f6ccce7116101405780634f6ccce7146103dd5780636352211e146103fa57806370a0823114610417578063715018a61461043d576101c4565b80632f745c591461035e57806342842e0e1461038a57806342966c68146103c0576101c4565b8063095ea7b3116101a2578063095ea7b3146102ba5780630e316ab7146102e857806318160ddd1461030e57806323b872dd14610328576101c4565b806301ffc9a7146101c957806306fdde0314610204578063081812fc14610281575b600080fd5b6101f0600480360360208110156101df57600080fd5b50356001600160e01b031916610785565b604080519115158252519081900360200190f35b61020c6107a4565b6040805160208082528351818301528351919283929083019185019080838360005b8381101561024657818101518382015260200161022e565b50505050905090810190601f1680156102735780820380516001836020036101000a031916815260200191505b509250505060405180910390f35b61029e6004803603602081101561029757600080fd5b5035610832565b604080516001600160a01b039092168252519081900360200190f35b6102e6600480360360408110156102d057600080fd5b506001600160a01b038135169060200135610894565b005b6102e6600480360360208110156102fe57600080fd5b50356001600160a01b03166109a5565b6103166109f8565b60408051918252519081900360200190f35b6102e66004803603606081101561033e57600080fd5b506001600160a01b038135811691602081013590911690604001356109ff565b6103166004803603604081101561037457600080fd5b506001600160a01b038135169060200135610a54565b6102e6600480360360608110156103a057600080fd5b506001600160a01b03813581169160208101359091169060400135610ad3565b6102e6600480360360208110156103d657600080fd5b5035610aee565b610316600480360360208110156103f357600080fd5b5035610b3c565b61029e6004803603602081101561041057600080fd5b5035610ba2565b6103166004803603602081101561042d57600080fd5b50356001600160a01b0316610bfc565b6102e6610c64565b6101f06004803603602081101561045b57600080fd5b50356001600160a01b0316610cf5565b6102e6600480360360a081101561048157600080fd5b81359160ff6020820135169160408201359160608101359181019060a0810160808201356401000000008111156104b757600080fd5b8201836020820111156104c957600080fd5b803590602001918460018302840111640100000000831117156104eb57600080fd5b91908080601f016020809104026020016040519081016040528093929190818152602001838380828437600092019190915250929550610d08945050505050565b61029e610e42565b6101f0610e51565b61020c610e62565b6102e66004803603602081101561055a57600080fd5b81019060208101813564010000000081111561057557600080fd5b82018360208201111561058757600080fd5b803590602001918460018302840111640100000000831117156105a957600080fd5b91908080601f016020809104026020016040519081016040528093929190818152602001838380828437600092019190915250929550610ebd945050505050565b6102e66004803603604081101561060057600080fd5b506001600160a01b0381351690602001351515610f0d565b6102e66004803603608081101561062e57600080fd5b6001600160a01b0382358116926020810135909116916040820135919081019060808101606082013564010000000081111561066957600080fd5b82018360208201111561067b57600080fd5b8035906020019184600183028401116401000000008311171561069d57600080fd5b91908080601f016020809104026020016040519081016040528093929190818152602001838380828437600092019190915250929550610fd9945050505050565b61020c611031565b61020c600480360360208110156106fc57600080fd5b503561108c565b6102e6611200565b6101f06004803603604081101561072157600080fd5b506001600160a01b038135811691602001351661120b565b6102e66004803603602081101561074f57600080fd5b50356001600160a01b0316611239565b6102e66004803603602081101561077557600080fd5b50356001600160a01b0316611289565b6001600160e01b03191660009081526001602052604090205460ff1690565b600a805460408051602060026001851615610100026000190190941693909304601f8101849004840282018401909252818152929183018282801561082a5780601f106107ff5761010080835404028352916020019161082a565b820191906000526020600020905b81548152906001019060200180831161080d57829003601f168201915b505050505081565b600061083d826112d9565b6108785760405162461bcd60e51b815260040180806020018281038252602c815260200180612213602c913960400191505060405180910390fd5b506000908152600360205260409020546001600160a01b031690565b600061089f82610ba2565b9050806001600160a01b0316836001600160a01b031614156108f25760405162461bcd60e51b81526004018080602001828103825260218152602001806123056021913960400191505060405180910390fd5b336001600160a01b038216148061090e575061090e813361120b565b6109495760405162461bcd60e51b81526004018080602001828103825260388152602001806121676038913960400191505060405180910390fd5b60008281526003602052604080822080546001600160a01b0319166001600160a01b0387811691821790925591518593918516917f8c5be1e5ebec7d5bd14f71427d1e84f3dd0314c0f7b2291e5b200ac8c7c3b92591a4505050565b6109ad610e51565b6109ec576040805162461bcd60e51b8152602060048201819052602482015260008051602061226b833981519152604482015290519081900360640190fd5b6109f5816112f6565b50565b6008545b90565b610a09338261133e565b610a445760405162461bcd60e51b81526004018080602001828103825260318152602001806123266031913960400191505060405180910390fd5b610a4f8383836113e2565b505050565b6000610a5f83610bfc565b8210610a9c5760405162461bcd60e51b815260040180806020018281038252602b815260200180612094602b913960400191505060405180910390fd5b6001600160a01b0383166000908152600660205260409020805483908110610ac057fe5b9060005260206000200154905092915050565b610a4f83838360405180602001604052806000815250610fd9565b610af8338261133e565b610b335760405162461bcd60e51b81526004018080602001828103825260308152602001806123a86030913960400191505060405180910390fd5b6109f581611401565b6000610b466109f8565b8210610b835760405162461bcd60e51b815260040180806020018281038252602c815260200180612357602c913960400191505060405180910390fd5b60088281548110610b9057fe5b90600052602060002001549050919050565b6000818152600260205260408120546001600160a01b031680610bf65760405162461bcd60e51b81526004018080602001828103825260298152602001806121c96029913960400191505060405180910390fd5b92915050565b60006001600160a01b038216610c435760405162461bcd60e51b815260040180806020018281038252602a81526020018061219f602a913960400191505060405180910390fd5b6001600160a01b0382166000908152600460205260409020610bf690611413565b610c6c610e51565b610cab576040805162461bcd60e51b8152602060048201819052602482015260008051602061226b833981519152604482015290519081900360640190fd5b600080546040516001600160a01b03909116907f8be0079c531659141344cd1fd0a4f28419497f9722a3daafe3b4186f6b6457e0908390a3600080546001600160a01b0319169055565b6000610bf6600e8363ffffffff61141716565b610d10610e51565b610d4f576040805162461bcd60e51b8152602060048201819052602482015260008051602061226b833981519152604482015290519081900360640190fd5b6040805160208082018890528251808303820181528284018085528151918301919091206000909152606083018085525260ff8716608083015260a0820186905260c082018590529151610dd69260019260e080820193601f1981019281900390910190855afa158015610dc7573d6000803e3d6000fd5b50505060206040510351610cf5565b610e27576040805162461bcd60e51b815260206004820152601a60248201527f7369676e65722073686f756c64207369676e20746f6b656e4964000000000000604482015290519081900360640190fd5b610e31338661147e565b610e3b858261149f565b5050505050565b6000546001600160a01b031690565b6000546001600160a01b0316331490565b600b805460408051602060026001851615610100026000190190941693909304601f8101849004840282018401909252818152929183018282801561082a5780601f106107ff5761010080835404028352916020019161082a565b610ec5610e51565b610f04576040805162461bcd60e51b8152602060048201819052602482015260008051602061226b833981519152604482015290519081900360640190fd5b6109f581611502565b6001600160a01b038216331415610f6b576040805162461bcd60e51b815260206004820152601960248201527f4552433732313a20617070726f766520746f2063616c6c657200000000000000604482015290519081900360640190fd5b3360008181526005602090815260408083206001600160a01b03871680855290835292819020805460ff1916861515908117909155815190815290519293927f17307eab39ab6107e8899845ad3d59bd9653f200f220920489ca2b5937696c31929181900390910190a35050565b610fe48484846109ff565b610ff084848484611515565b61102b5760405162461bcd60e51b81526004018080602001828103825260328152602001806120bf6032913960400191505060405180910390fd5b50505050565b600c805460408051602060026001851615610100026000190190941693909304601f8101849004840282018401909252818152929183018282801561082a5780601f106107ff5761010080835404028352916020019161082a565b6060611097826112d9565b6110d25760405162461bcd60e51b815260040180806020018281038252602f8152602001806122d6602f913960400191505060405180910390fd5b600c8054604080516020601f60026000196101006001881615020190951694909404938401819004810282018101909252828152610bf6939092909183018282801561115f5780601f106111345761010080835404028352916020019161115f565b820191906000526020600020905b81548152906001019060200180831161114257829003601f168201915b5050506000868152600d60209081526040918290208054835160026001831615610100026000190190921691909104601f8101849004840282018401909452838152945092508301828280156111f65780601f106111cb576101008083540402835291602001916111f6565b820191906000526020600020905b8154815290600101906020018083116111d957829003601f168201915b5050505050611648565b611209336112f6565b565b6001600160a01b03918216600090815260056020908152604080832093909416825291909152205460ff1690565b611241610e51565b611280576040805162461bcd60e51b8152602060048201819052602482015260008051602061226b833981519152604482015290519081900360640190fd5b6109f58161173d565b611291610e51565b6112d0576040805162461bcd60e51b8152602060048201819052602482015260008051602061226b833981519152604482015290519081900360640190fd5b6109f581611785565b6000908152600260205260409020546001600160a01b0316151590565b611307600e8263ffffffff61182516565b6040516001600160a01b038216907f3525e22824a8a7df2c9a6029941c824cf95b6447f1e13d5128fd3826d35afe8b90600090a250565b6000611349826112d9565b6113845760405162461bcd60e51b815260040180806020018281038252602c81526020018061213b602c913960400191505060405180910390fd5b600061138f83610ba2565b9050806001600160a01b0316846001600160a01b031614806113ca5750836001600160a01b03166113bf84610832565b6001600160a01b0316145b806113da57506113da818561120b565b949350505050565b6113ed83838361188c565b6113f783826119d0565b610a4f8282611abe565b6109f561140d82610ba2565b82611afc565b5490565b60006001600160a01b03821661145e5760405162461bcd60e51b815260040180806020018281038252602281526020018061228b6022913960400191505060405180910390fd5b506001600160a01b03166000908152602091909152604090205460ff1690565b6114888282611b44565b6114928282611abe565b61149b81611c75565b5050565b6114a8826112d9565b6114e35760405162461bcd60e51b815260040180806020018281038252602c81526020018061223f602c913960400191505060405180910390fd5b6000828152600d602090815260409091208251610a4f92840190611f97565b805161149b90600c906020840190611f97565b6000611529846001600160a01b0316611cb9565b611535575060016113da565b604051630a85bd0160e11b815233600482018181526001600160a01b03888116602485015260448401879052608060648501908152865160848601528651600095928a169463150b7a029490938c938b938b939260a4019060208501908083838e5b838110156115af578181015183820152602001611597565b50505050905090810190601f1680156115dc5780820380516001836020036101000a031916815260200191505b5095505050505050602060405180830381600087803b1580156115fe57600080fd5b505af1158015611612573d6000803e3d6000fd5b505050506040513d602081101561162857600080fd5b50516001600160e01b031916630a85bd0160e11b14915050949350505050565b6060808390506060839050606081518351016040519080825280601f01601f191660200182016040528015611684576020820181803883390190505b5090506000805b84518110156116dc578481815181106116a057fe5b602001015160f81c60f81b8383806001019450815181106116bd57fe5b60200101906001600160f81b031916908160001a90535060010161168b565b5060005b8351811015611731578381815181106116f557fe5b602001015160f81c60f81b83838060010194508151811061171257fe5b60200101906001600160f81b031916908160001a9053506001016116e0565b50909695505050505050565b61174e600e8263ffffffff611cbf16565b6040516001600160a01b038216907f47d1c22a25bb3a5d4e481b9b1e6944c2eade3181a0a20b495ed61d35b5323f2490600090a250565b6001600160a01b0381166117ca5760405162461bcd60e51b81526004018080602001828103825260268152602001806120f16026913960400191505060405180910390fd5b600080546040516001600160a01b03808516939216917f8be0079c531659141344cd1fd0a4f28419497f9722a3daafe3b4186f6b6457e091a3600080546001600160a01b0319166001600160a01b0392909216919091179055565b61182f8282611417565b61186a5760405162461bcd60e51b81526004018080602001828103825260218152602001806121f26021913960400191505060405180910390fd5b6001600160a01b0316600090815260209190915260409020805460ff19169055565b826001600160a01b031661189f82610ba2565b6001600160a01b0316146118e45760405162461bcd60e51b81526004018080602001828103825260298152602001806122ad6029913960400191505060405180910390fd5b6001600160a01b0382166119295760405162461bcd60e51b81526004018080602001828103825260248152602001806121176024913960400191505060405180910390fd5b61193281611d40565b6001600160a01b038316600090815260046020526040902061195390611d7b565b6001600160a01b038216600090815260046020526040902061197490611d92565b60008181526002602052604080822080546001600160a01b0319166001600160a01b0386811691821790925591518493918716917fddf252ad1be2c89b69c2b068fc378daa952ba7f163c4a11628f55a4df523b3ef91a4505050565b6001600160a01b0382166000908152600660205260408120546119fa90600163ffffffff611d9b16565b600083815260076020526040902054909150808214611a95576001600160a01b0384166000908152600660205260408120805484908110611a3757fe5b906000526020600020015490508060066000876001600160a01b03166001600160a01b031681526020019081526020016000208381548110611a7557fe5b600091825260208083209091019290925591825260079052604090208190555b6001600160a01b0384166000908152600660205260409020805490610e3b906000198301612015565b6001600160a01b0390911660009081526006602081815260408084208054868652600784529185208290559282526001810183559183529091200155565b611b068282611df8565b6000818152600d6020526040902054600260001961010060018416150201909116041561149b576000818152600d6020526040812061149b91612039565b6001600160a01b038216611b9f576040805162461bcd60e51b815260206004820181905260248201527f4552433732313a206d696e7420746f20746865207a65726f2061646472657373604482015290519081900360640190fd5b611ba8816112d9565b15611bfa576040805162461bcd60e51b815260206004820152601c60248201527f4552433732313a20746f6b656e20616c7265616479206d696e74656400000000604482015290519081900360640190fd5b600081815260026020908152604080832080546001600160a01b0319166001600160a01b038716908117909155835260049091529020611c3990611d92565b60405181906001600160a01b038416906000907fddf252ad1be2c89b69c2b068fc378daa952ba7f163c4a11628f55a4df523b3ef908290a45050565b600880546000838152600960205260408120829055600182018355919091527ff3f7a9fe364faab93b216da50a3214154f22a0a2b415b23a84c8169e8b636ee30155565b3b151590565b611cc98282611417565b15611d1b576040805162461bcd60e51b815260206004820152601f60248201527f526f6c65733a206163636f756e7420616c72656164792068617320726f6c6500604482015290519081900360640190fd5b6001600160a01b0316600090815260209190915260409020805460ff19166001179055565b6000818152600360205260409020546001600160a01b0316156109f557600090815260036020526040902080546001600160a01b0319169055565b8054611d8e90600163ffffffff611d9b16565b9055565b80546001019055565b600082821115611df2576040805162461bcd60e51b815260206004820152601e60248201527f536166654d6174683a207375627472616374696f6e206f766572666c6f770000604482015290519081900360640190fd5b50900390565b611e028282611e24565b611e0c82826119d0565b60008181526007602052604081205561149b81611efb565b816001600160a01b0316611e3782610ba2565b6001600160a01b031614611e7c5760405162461bcd60e51b81526004018080602001828103825260258152602001806123836025913960400191505060405180910390fd5b611e8581611d40565b6001600160a01b0382166000908152600460205260409020611ea690611d7b565b60008181526002602052604080822080546001600160a01b0319169055518291906001600160a01b038516907fddf252ad1be2c89b69c2b068fc378daa952ba7f163c4a11628f55a4df523b3ef908390a45050565b600854600090611f1290600163ffffffff611d9b16565b60008381526009602052604081205460088054939450909284908110611f3457fe5b906000526020600020015490508060088381548110611f4f57fe5b60009182526020808320909101929092558281526009909152604090208290556008805490611f82906000198301612015565b50505060009182525060096020526040812055565b828054600181600116156101000203166002900490600052602060002090601f016020900481019282601f10611fd857805160ff1916838001178555612005565b82800160010185558215612005579182015b82811115612005578251825591602001919060010190611fea565b50612011929150612079565b5090565b815481835581811115610a4f57600083815260209020610a4f918101908301612079565b50805460018160011615610100020316600290046000825580601f1061205f57506109f5565b601f0160209004906000526020600020908101906109f591905b6109fc91905b80821115612011576000815560010161207f56fe455243373231456e756d657261626c653a206f776e657220696e646578206f7574206f6620626f756e64734552433732313a207472616e7366657220746f206e6f6e20455243373231526563656976657220696d706c656d656e7465724f776e61626c653a206e6577206f776e657220697320746865207a65726f20616464726573734552433732313a207472616e7366657220746f20746865207a65726f20616464726573734552433732313a206f70657261746f7220717565727920666f72206e6f6e6578697374656e7420746f6b656e4552433732313a20617070726f76652063616c6c6572206973206e6f74206f776e6572206e6f7220617070726f76656420666f7220616c6c4552433732313a2062616c616e636520717565727920666f7220746865207a65726f20616464726573734552433732313a206f776e657220717565727920666f72206e6f6e6578697374656e7420746f6b656e526f6c65733a206163636f756e7420646f6573206e6f74206861766520726f6c654552433732313a20617070726f76656420717565727920666f72206e6f6e6578697374656e7420746f6b656e4552433732314d657461646174613a2055524920736574206f66206e6f6e6578697374656e7420746f6b656e4f776e61626c653a2063616c6c6572206973206e6f7420746865206f776e6572526f6c65733a206163636f756e7420697320746865207a65726f20616464726573734552433732313a207472616e73666572206f6620746f6b656e2074686174206973206e6f74206f776e4552433732314d657461646174613a2055524920717565727920666f72206e6f6e6578697374656e7420746f6b656e4552433732313a20617070726f76616c20746f2063757272656e74206f776e65724552433732313a207472616e736665722063616c6c6572206973206e6f74206f776e6572206e6f7220617070726f766564455243373231456e756d657261626c653a20676c6f62616c20696e646578206f7574206f6620626f756e64734552433732313a206275726e206f6620746f6b656e2074686174206973206e6f74206f776e4552433732314275726e61626c653a2063616c6c6572206973206e6f74206f776e6572206e6f7220617070726f766564a265627a7a72315820857539471303b0a829e08a5256e7fbe2da81b0b251ac496396423e74895561a264736f6c634300050c0032526f6c65733a206163636f756e7420697320746865207a65726f2061646472657373",
  "source": "pragma solidity ^0.5.0;\n\nimport \"openzeppelin-solidity/contracts/ownership/Ownable.sol\";\nimport \"openzeppelin-solidity/contracts/access/roles/SignerRole.sol\";\nimport \"openzeppelin-solidity/contracts/token/ERC721/ERC721.sol\";\nimport \"openzeppelin-solidity/contracts/token/ERC721/IERC721Metadata.sol\";\nimport \"openzeppelin-solidity/contracts/token/ERC721/ERC721Burnable.sol\";\nimport \"./ERC721Base.sol\";\n\n/**\n * @title MintableOwnableToken\n * @dev only owner can mint token.\n */\ncontract MintableOwnableToken is Ownable, ERC721, IERC721Metadata, ERC721Burnable, ERC721Base, SignerRole {\n\n    event Create(address indexed creator, string name, string symbol);\n\n    constructor (string memory name, string memory symbol, string memory tokenURIPrefix, address signer) public ERC721Base(name, symbol, tokenURIPrefix) {\n        emit Create(msg.sender, name, symbol);\n        _addSigner(signer);\n    }\n\n    function mint(uint256 tokenId, uint8 v, bytes32 r, bytes32 s, string memory tokenURI) onlyOwner public {\n        require(isSigner(ecrecover(keccak256(abi.encodePacked(tokenId)), v, r, s)), \"signer should sign tokenId\");\n        _mint(msg.sender, tokenId);\n        _setTokenURI(tokenId, tokenURI);\n    }\n\n    function addSigner(address account) public onlyOwner {\n        _addSigner(account);\n    }\n\n    function removeSigner(address account) public onlyOwner {\n        _removeSigner(account);\n    }\n\n    function setTokenURIPrefix(string memory tokenURIPrefix) public onlyOwner {\n        _setTokenURIPrefix(tokenURIPrefix);\n    }\n}\n",
  "sourcePath": "/home/quadro/Projects/tokenplace/tokenplace-contracts/contracts/MintableOwnableToken.sol",
  "compiler": {
    "name": "solc",
    "version": "0.5.12+commit.7709ece9.Emscripten.clang"
  },
  "schemaVersion": "3.0.11",
  "updatedAt": "2019-11-19T11:24:35.414Z",
  "devdoc": {
    "details": "only owner can mint token.",
    "methods": {
      "approve(address,uint256)": {
        "details": "Approves another address to transfer the given token ID The zero address indicates there is no approved address. There can only be one approved address per token at a given time. Can only be called by the token owner or an approved operator.",
        "params": {
          "to": "address to be approved for the given token ID",
          "tokenId": "uint256 ID of the token to be approved"
        }
      },
      "balanceOf(address)": {
        "details": "Gets the balance of the specified address.",
        "params": {
          "owner": "address to query the balance of"
        },
        "return": "uint256 representing the amount owned by the passed address"
      },
      "burn(uint256)": {
        "details": "Burns a specific ERC721 token.",
        "params": {
          "tokenId": "uint256 id of the ERC721 token to be burned."
        }
      },
      "getApproved(uint256)": {
        "details": "Gets the approved address for a token ID, or zero if no address set Reverts if the token ID does not exist.",
        "params": {
          "tokenId": "uint256 ID of the token to query the approval of"
        },
        "return": "address currently approved for the given token ID"
      },
      "isApprovedForAll(address,address)": {
        "details": "Tells whether an operator is approved by a given owner.",
        "params": {
          "operator": "operator address which you want to query the approval of",
          "owner": "owner address which you want to query the approval of"
        },
        "return": "bool whether the given operator is approved by the given owner"
      },
      "isOwner()": {
        "details": "Returns true if the caller is the current owner."
      },
      "owner()": {
        "details": "Returns the address of the current owner."
      },
      "ownerOf(uint256)": {
        "details": "Gets the owner of the specified token ID.",
        "params": {
          "tokenId": "uint256 ID of the token to query the owner of"
        },
        "return": "address currently marked as the owner of the given token ID"
      },
      "renounceOwnership()": {
        "details": "Leaves the contract without owner. It will not be possible to call `onlyOwner` functions anymore. Can only be called by the current owner.     * > Note: Renouncing ownership will leave the contract without an owner, thereby removing any functionality that is only available to the owner."
      },
      "safeTransferFrom(address,address,uint256)": {
        "details": "Safely transfers the ownership of a given token ID to another address If the target address is a contract, it must implement `onERC721Received`, which is called upon a safe transfer, and return the magic value `bytes4(keccak256(\"onERC721Received(address,address,uint256,bytes)\"))`; otherwise, the transfer is reverted. Requires the msg.sender to be the owner, approved, or operator",
        "params": {
          "from": "current owner of the token",
          "to": "address to receive the ownership of the given token ID",
          "tokenId": "uint256 ID of the token to be transferred"
        }
      },
      "safeTransferFrom(address,address,uint256,bytes)": {
        "details": "Safely transfers the ownership of a given token ID to another address If the target address is a contract, it must implement `onERC721Received`, which is called upon a safe transfer, and return the magic value `bytes4(keccak256(\"onERC721Received(address,address,uint256,bytes)\"))`; otherwise, the transfer is reverted. Requires the msg.sender to be the owner, approved, or operator",
        "params": {
          "_data": "bytes data to send along with a safe transfer check",
          "from": "current owner of the token",
          "to": "address to receive the ownership of the given token ID",
          "tokenId": "uint256 ID of the token to be transferred"
        }
      },
      "setApprovalForAll(address,bool)": {
        "details": "Sets or unsets the approval of a given operator An operator is allowed to transfer all tokens of the sender on their behalf.",
        "params": {
          "approved": "representing the status of the approval to be set",
          "to": "operator address to set the approval"
        }
      },
      "supportsInterface(bytes4)": {
        "details": "See `IERC165.supportsInterface`.     * Time complexity O(1), guaranteed to always use less than 30 000 gas."
      },
      "tokenByIndex(uint256)": {
        "details": "Gets the token ID at a given index of all the tokens in this contract Reverts if the index is greater or equal to the total number of tokens.",
        "params": {
          "index": "uint256 representing the index to be accessed of the tokens list"
        },
        "return": "uint256 token ID at the given index of the tokens list"
      },
      "tokenOfOwnerByIndex(address,uint256)": {
        "details": "Gets the token ID at a given index of the tokens list of the requested owner.",
        "params": {
          "index": "uint256 representing the index to be accessed of the requested tokens list",
          "owner": "address owning the tokens list to be accessed"
        },
        "return": "uint256 token ID at the given index of the tokens list owned by the requested address"
      },
      "tokenURI(uint256)": {
        "details": "Returns an URI for a given token ID. Throws if the token ID does not exist. May return an empty string.",
        "params": {
          "tokenId": "uint256 ID of the token to query"
        }
      },
      "totalSupply()": {
        "details": "Gets the total amount of tokens stored by the contract.",
        "return": "uint256 representing the total amount of tokens"
      },
      "transferFrom(address,address,uint256)": {
        "details": "Transfers the ownership of a given token ID to another address. Usage of this method is discouraged, use `safeTransferFrom` whenever possible. Requires the msg.sender to be the owner, approved, or operator.",
        "params": {
          "from": "current owner of the token",
          "to": "address to receive the ownership of the given token ID",
          "tokenId": "uint256 ID of the token to be transferred"
        }
      },
      "transferOwnership(address)": {
        "details": "Transfers ownership of the contract to a new account (`newOwner`). Can only be called by the current owner."
      }
    },
    "title": "MintableOwnableToken"
  },
  "userdoc": {
    "methods": {}
  }
}