{
  "contractName": "ExchangeV2",
  "abi": [
    {
      "anonymous": false,
      "inputs": [
        {
          "indexed": false,
          "internalType": "bytes32",
          "name": "hash",
          "type": "bytes32"
        },
        {
          "indexed": false,
          "internalType": "address",
          "name": "maker",
          "type": "address"
        },
        {
          "components": [
            {
              "internalType": "bytes4",
              "name": "assetClass",
              "type": "bytes4"
            },
            {
              "internalType": "bytes",
              "name": "data",
              "type": "bytes"
            }
          ],
          "indexed": false,
          "internalType": "struct LibAsset.AssetType",
          "name": "makeAssetType",
          "type": "tuple"
        },
        {
          "components": [
            {
              "internalType": "bytes4",
              "name": "assetClass",
              "type": "bytes4"
            },
            {
              "internalType": "bytes",
              "name": "data",
              "type": "bytes"
            }
          ],
          "indexed": false,
          "internalType": "struct LibAsset.AssetType",
          "name": "takeAssetType",
          "type": "tuple"
        }
      ],
      "name": "Cancel",
      "type": "event"
    },
    {
      "anonymous": false,
      "inputs": [
        {
          "indexed": false,
          "internalType": "bytes32",
          "name": "leftHash",
          "type": "bytes32"
        },
        {
          "indexed": false,
          "internalType": "bytes32",
          "name": "rightHash",
          "type": "bytes32"
        },
        {
          "indexed": false,
          "internalType": "address",
          "name": "leftMaker",
          "type": "address"
        },
        {
          "indexed": false,
          "internalType": "address",
          "name": "rightMaker",
          "type": "address"
        },
        {
          "indexed": false,
          "internalType": "uint256",
          "name": "newLeftFill",
          "type": "uint256"
        },
        {
          "indexed": false,
          "internalType": "uint256",
          "name": "newRightFill",
          "type": "uint256"
        },
        {
          "components": [
            {
              "internalType": "bytes4",
              "name": "assetClass",
              "type": "bytes4"
            },
            {
              "internalType": "bytes",
              "name": "data",
              "type": "bytes"
            }
          ],
          "indexed": false,
          "internalType": "struct LibAsset.AssetType",
          "name": "leftAsset",
          "type": "tuple"
        },
        {
          "components": [
            {
              "internalType": "bytes4",
              "name": "assetClass",
              "type": "bytes4"
            },
            {
              "internalType": "bytes",
              "name": "data",
              "type": "bytes"
            }
          ],
          "indexed": false,
          "internalType": "struct LibAsset.AssetType",
          "name": "rightAsset",
          "type": "tuple"
        }
      ],
      "name": "Match",
      "type": "event"
    },
    {
      "anonymous": false,
      "inputs": [
        {
          "indexed": true,
          "internalType": "bytes4",
          "name": "assetType",
          "type": "bytes4"
        },
        {
          "indexed": false,
          "internalType": "address",
          "name": "matcher",
          "type": "address"
        }
      ],
      "name": "MatcherChange",
      "type": "event"
    },
    {
      "anonymous": false,
      "inputs": [
        {
          "indexed": true,
          "internalType": "address",
          "name": "previousOwner",
          "type": "address"
        },
        {
          "indexed": true,
          "internalType": "address",
          "name": "newOwner",
          "type": "address"
        }
      ],
      "name": "OwnershipTransferred",
      "type": "event"
    },
    {
      "anonymous": false,
      "inputs": [
        {
          "indexed": true,
          "internalType": "bytes4",
          "name": "assetType",
          "type": "bytes4"
        },
        {
          "indexed": false,
          "internalType": "address",
          "name": "proxy",
          "type": "address"
        }
      ],
      "name": "ProxyChange",
      "type": "event"
    },
    {
      "anonymous": false,
      "inputs": [
        {
          "components": [
            {
              "components": [
                {
                  "internalType": "bytes4",
                  "name": "assetClass",
                  "type": "bytes4"
                },
                {
                  "internalType": "bytes",
                  "name": "data",
                  "type": "bytes"
                }
              ],
              "internalType": "struct LibAsset.AssetType",
              "name": "assetType",
              "type": "tuple"
            },
            {
              "internalType": "uint256",
              "name": "value",
              "type": "uint256"
            }
          ],
          "indexed": false,
          "internalType": "struct LibAsset.Asset",
          "name": "asset",
          "type": "tuple"
        },
        {
          "indexed": false,
          "internalType": "address",
          "name": "from",
          "type": "address"
        },
        {
          "indexed": false,
          "internalType": "address",
          "name": "to",
          "type": "address"
        },
        {
          "indexed": false,
          "internalType": "bytes4",
          "name": "transferDirection",
          "type": "bytes4"
        },
        {
          "indexed": false,
          "internalType": "bytes4",
          "name": "transferType",
          "type": "bytes4"
        }
      ],
      "name": "Transfer",
      "type": "event"
    },
    {
      "anonymous": false,
      "inputs": [
        {
          "components": [
            {
              "internalType": "address",
              "name": "maker",
              "type": "address"
            },
            {
              "components": [
                {
                  "components": [
                    {
                      "internalType": "bytes4",
                      "name": "assetClass",
                      "type": "bytes4"
                    },
                    {
                      "internalType": "bytes",
                      "name": "data",
                      "type": "bytes"
                    }
                  ],
                  "internalType": "struct LibAsset.AssetType",
                  "name": "assetType",
                  "type": "tuple"
                },
                {
                  "internalType": "uint256",
                  "name": "value",
                  "type": "uint256"
                }
              ],
              "internalType": "struct LibAsset.Asset",
              "name": "makeAsset",
              "type": "tuple"
            },
            {
              "internalType": "address",
              "name": "taker",
              "type": "address"
            },
            {
              "components": [
                {
                  "components": [
                    {
                      "internalType": "bytes4",
                      "name": "assetClass",
                      "type": "bytes4"
                    },
                    {
                      "internalType": "bytes",
                      "name": "data",
                      "type": "bytes"
                    }
                  ],
                  "internalType": "struct LibAsset.AssetType",
                  "name": "assetType",
                  "type": "tuple"
                },
                {
                  "internalType": "uint256",
                  "name": "value",
                  "type": "uint256"
                }
              ],
              "internalType": "struct LibAsset.Asset",
              "name": "takeAsset",
              "type": "tuple"
            },
            {
              "internalType": "uint256",
              "name": "salt",
              "type": "uint256"
            },
            {
              "internalType": "uint256",
              "name": "start",
              "type": "uint256"
            },
            {
              "internalType": "uint256",
              "name": "end",
              "type": "uint256"
            },
            {
              "internalType": "bytes4",
              "name": "dataType",
              "type": "bytes4"
            },
            {
              "internalType": "bytes",
              "name": "data",
              "type": "bytes"
            }
          ],
          "indexed": false,
          "internalType": "struct LibOrder.Order",
          "name": "order",
          "type": "tuple"
        }
      ],
      "name": "UpsertOrder",
      "type": "event"
    },
    {
      "inputs": [
        {
          "components": [
            {
              "internalType": "address",
              "name": "maker",
              "type": "address"
            },
            {
              "components": [
                {
                  "components": [
                    {
                      "internalType": "bytes4",
                      "name": "assetClass",
                      "type": "bytes4"
                    },
                    {
                      "internalType": "bytes",
                      "name": "data",
                      "type": "bytes"
                    }
                  ],
                  "internalType": "struct LibAsset.AssetType",
                  "name": "assetType",
                  "type": "tuple"
                },
                {
                  "internalType": "uint256",
                  "name": "value",
                  "type": "uint256"
                }
              ],
              "internalType": "struct LibAsset.Asset",
              "name": "makeAsset",
              "type": "tuple"
            },
            {
              "internalType": "address",
              "name": "taker",
              "type": "address"
            },
            {
              "components": [
                {
                  "components": [
                    {
                      "internalType": "bytes4",
                      "name": "assetClass",
                      "type": "bytes4"
                    },
                    {
                      "internalType": "bytes",
                      "name": "data",
                      "type": "bytes"
                    }
                  ],
                  "internalType": "struct LibAsset.AssetType",
                  "name": "assetType",
                  "type": "tuple"
                },
                {
                  "internalType": "uint256",
                  "name": "value",
                  "type": "uint256"
                }
              ],
              "internalType": "struct LibAsset.Asset",
              "name": "takeAsset",
              "type": "tuple"
            },
            {
              "internalType": "uint256",
              "name": "salt",
              "type": "uint256"
            },
            {
              "internalType": "uint256",
              "name": "start",
              "type": "uint256"
            },
            {
              "internalType": "uint256",
              "name": "end",
              "type": "uint256"
            },
            {
              "internalType": "bytes4",
              "name": "dataType",
              "type": "bytes4"
            },
            {
              "internalType": "bytes",
              "name": "data",
              "type": "bytes"
            }
          ],
          "internalType": "struct LibOrder.Order",
          "name": "order",
          "type": "tuple"
        }
      ],
      "name": "cancel",
      "outputs": [],
      "stateMutability": "nonpayable",
      "type": "function"
    },
    {
      "inputs": [
        {
          "internalType": "bytes32",
          "name": "orderKeyHash",
          "type": "bytes32"
        }
      ],
      "name": "checkOrderExistance",
      "outputs": [
        {
          "internalType": "bool",
          "name": "",
          "type": "bool"
        }
      ],
      "stateMutability": "view",
      "type": "function"
    },
    {
      "inputs": [],
      "name": "defaultFeeReceiver",
      "outputs": [
        {
          "internalType": "address",
          "name": "",
          "type": "address"
        }
      ],
      "stateMutability": "view",
      "type": "function"
    },
    {
      "inputs": [
        {
          "internalType": "address",
          "name": "",
          "type": "address"
        }
      ],
      "name": "feeReceivers",
      "outputs": [
        {
          "internalType": "address",
          "name": "",
          "type": "address"
        }
      ],
      "stateMutability": "view",
      "type": "function"
    },
    {
      "inputs": [
        {
          "internalType": "bytes32",
          "name": "",
          "type": "bytes32"
        }
      ],
      "name": "fills",
      "outputs": [
        {
          "internalType": "uint256",
          "name": "",
          "type": "uint256"
        }
      ],
      "stateMutability": "view",
      "type": "function"
    },
    {
      "inputs": [
        {
          "components": [
            {
              "internalType": "address",
              "name": "maker",
              "type": "address"
            },
            {
              "components": [
                {
                  "components": [
                    {
                      "internalType": "bytes4",
                      "name": "assetClass",
                      "type": "bytes4"
                    },
                    {
                      "internalType": "bytes",
                      "name": "data",
                      "type": "bytes"
                    }
                  ],
                  "internalType": "struct LibAsset.AssetType",
                  "name": "assetType",
                  "type": "tuple"
                },
                {
                  "internalType": "uint256",
                  "name": "value",
                  "type": "uint256"
                }
              ],
              "internalType": "struct LibAsset.Asset",
              "name": "makeAsset",
              "type": "tuple"
            },
            {
              "internalType": "address",
              "name": "taker",
              "type": "address"
            },
            {
              "components": [
                {
                  "components": [
                    {
                      "internalType": "bytes4",
                      "name": "assetClass",
                      "type": "bytes4"
                    },
                    {
                      "internalType": "bytes",
                      "name": "data",
                      "type": "bytes"
                    }
                  ],
                  "internalType": "struct LibAsset.AssetType",
                  "name": "assetType",
                  "type": "tuple"
                },
                {
                  "internalType": "uint256",
                  "name": "value",
                  "type": "uint256"
                }
              ],
              "internalType": "struct LibAsset.Asset",
              "name": "takeAsset",
              "type": "tuple"
            },
            {
              "internalType": "uint256",
              "name": "salt",
              "type": "uint256"
            },
            {
              "internalType": "uint256",
              "name": "start",
              "type": "uint256"
            },
            {
              "internalType": "uint256",
              "name": "end",
              "type": "uint256"
            },
            {
              "internalType": "bytes4",
              "name": "dataType",
              "type": "bytes4"
            },
            {
              "internalType": "bytes",
              "name": "data",
              "type": "bytes"
            }
          ],
          "internalType": "struct LibOrder.Order",
          "name": "orderLeft",
          "type": "tuple"
        },
        {
          "internalType": "bytes",
          "name": "signatureLeft",
          "type": "bytes"
        },
        {
          "components": [
            {
              "internalType": "address",
              "name": "maker",
              "type": "address"
            },
            {
              "components": [
                {
                  "components": [
                    {
                      "internalType": "bytes4",
                      "name": "assetClass",
                      "type": "bytes4"
                    },
                    {
                      "internalType": "bytes",
                      "name": "data",
                      "type": "bytes"
                    }
                  ],
                  "internalType": "struct LibAsset.AssetType",
                  "name": "assetType",
                  "type": "tuple"
                },
                {
                  "internalType": "uint256",
                  "name": "value",
                  "type": "uint256"
                }
              ],
              "internalType": "struct LibAsset.Asset",
              "name": "makeAsset",
              "type": "tuple"
            },
            {
              "internalType": "address",
              "name": "taker",
              "type": "address"
            },
            {
              "components": [
                {
                  "components": [
                    {
                      "internalType": "bytes4",
                      "name": "assetClass",
                      "type": "bytes4"
                    },
                    {
                      "internalType": "bytes",
                      "name": "data",
                      "type": "bytes"
                    }
                  ],
                  "internalType": "struct LibAsset.AssetType",
                  "name": "assetType",
                  "type": "tuple"
                },
                {
                  "internalType": "uint256",
                  "name": "value",
                  "type": "uint256"
                }
              ],
              "internalType": "struct LibAsset.Asset",
              "name": "takeAsset",
              "type": "tuple"
            },
            {
              "internalType": "uint256",
              "name": "salt",
              "type": "uint256"
            },
            {
              "internalType": "uint256",
              "name": "start",
              "type": "uint256"
            },
            {
              "internalType": "uint256",
              "name": "end",
              "type": "uint256"
            },
            {
              "internalType": "bytes4",
              "name": "dataType",
              "type": "bytes4"
            },
            {
              "internalType": "bytes",
              "name": "data",
              "type": "bytes"
            }
          ],
          "internalType": "struct LibOrder.Order",
          "name": "orderRight",
          "type": "tuple"
        },
        {
          "internalType": "bytes",
          "name": "signatureRight",
          "type": "bytes"
        }
      ],
      "name": "matchOrders",
      "outputs": [],
      "stateMutability": "payable",
      "type": "function"
    },
    {
      "inputs": [
        {
          "internalType": "bytes32",
          "name": "",
          "type": "bytes32"
        }
      ],
      "name": "onChainOrders",
      "outputs": [
        {
          "components": [
            {
              "internalType": "address",
              "name": "maker",
              "type": "address"
            },
            {
              "components": [
                {
                  "components": [
                    {
                      "internalType": "bytes4",
                      "name": "assetClass",
                      "type": "bytes4"
                    },
                    {
                      "internalType": "bytes",
                      "name": "data",
                      "type": "bytes"
                    }
                  ],
                  "internalType": "struct LibAsset.AssetType",
                  "name": "assetType",
                  "type": "tuple"
                },
                {
                  "internalType": "uint256",
                  "name": "value",
                  "type": "uint256"
                }
              ],
              "internalType": "struct LibAsset.Asset",
              "name": "makeAsset",
              "type": "tuple"
            },
            {
              "internalType": "address",
              "name": "taker",
              "type": "address"
            },
            {
              "components": [
                {
                  "components": [
                    {
                      "internalType": "bytes4",
                      "name": "assetClass",
                      "type": "bytes4"
                    },
                    {
                      "internalType": "bytes",
                      "name": "data",
                      "type": "bytes"
                    }
                  ],
                  "internalType": "struct LibAsset.AssetType",
                  "name": "assetType",
                  "type": "tuple"
                },
                {
                  "internalType": "uint256",
                  "name": "value",
                  "type": "uint256"
                }
              ],
              "internalType": "struct LibAsset.Asset",
              "name": "takeAsset",
              "type": "tuple"
            },
            {
              "internalType": "uint256",
              "name": "salt",
              "type": "uint256"
            },
            {
              "internalType": "uint256",
              "name": "start",
              "type": "uint256"
            },
            {
              "internalType": "uint256",
              "name": "end",
              "type": "uint256"
            },
            {
              "internalType": "bytes4",
              "name": "dataType",
              "type": "bytes4"
            },
            {
              "internalType": "bytes",
              "name": "data",
              "type": "bytes"
            }
          ],
          "internalType": "struct LibOrder.Order",
          "name": "order",
          "type": "tuple"
        },
        {
          "internalType": "uint256",
          "name": "fee",
          "type": "uint256"
        }
      ],
      "stateMutability": "view",
      "type": "function"
    },
    {
      "inputs": [],
      "name": "owner",
      "outputs": [
        {
          "internalType": "address",
          "name": "",
          "type": "address"
        }
      ],
      "stateMutability": "view",
      "type": "function"
    },
    {
      "inputs": [],
      "name": "protocolFee",
      "outputs": [
        {
          "internalType": "uint256",
          "name": "",
          "type": "uint256"
        }
      ],
      "stateMutability": "view",
      "type": "function"
    },
    {
      "inputs": [],
      "name": "renounceOwnership",
      "outputs": [],
      "stateMutability": "nonpayable",
      "type": "function"
    },
    {
      "inputs": [],
      "name": "royaltiesRegistry",
      "outputs": [
        {
          "internalType": "contract IRoyaltiesProvider",
          "name": "",
          "type": "address"
        }
      ],
      "stateMutability": "view",
      "type": "function"
    },
    {
      "inputs": [
        {
          "internalType": "bytes4",
          "name": "assetType",
          "type": "bytes4"
        },
        {
          "internalType": "address",
          "name": "matcher",
          "type": "address"
        }
      ],
      "name": "setAssetMatcher",
      "outputs": [],
      "stateMutability": "nonpayable",
      "type": "function"
    },
    {
      "inputs": [
        {
          "internalType": "address payable",
          "name": "newDefaultFeeReceiver",
          "type": "address"
        }
      ],
      "name": "setDefaultFeeReceiver",
      "outputs": [],
      "stateMutability": "nonpayable",
      "type": "function"
    },
    {
      "inputs": [
        {
          "internalType": "address",
          "name": "token",
          "type": "address"
        },
        {
          "internalType": "address",
          "name": "wallet",
          "type": "address"
        }
      ],
      "name": "setFeeReceiver",
      "outputs": [],
      "stateMutability": "nonpayable",
      "type": "function"
    },
    {
      "inputs": [
        {
          "internalType": "uint256",
          "name": "newProtocolFee",
          "type": "uint256"
        }
      ],
      "name": "setProtocolFee",
      "outputs": [],
      "stateMutability": "nonpayable",
      "type": "function"
    },
    {
      "inputs": [
        {
          "internalType": "contract IRoyaltiesProvider",
          "name": "newRoyaltiesRegistry",
          "type": "address"
        }
      ],
      "name": "setRoyaltiesRegistry",
      "outputs": [],
      "stateMutability": "nonpayable",
      "type": "function"
    },
    {
      "inputs": [
        {
          "internalType": "bytes4",
          "name": "assetType",
          "type": "bytes4"
        },
        {
          "internalType": "address",
          "name": "proxy",
          "type": "address"
        }
      ],
      "name": "setTransferProxy",
      "outputs": [],
      "stateMutability": "nonpayable",
      "type": "function"
    },
    {
      "inputs": [
        {
          "internalType": "address",
          "name": "newOwner",
          "type": "address"
        }
      ],
      "name": "transferOwnership",
      "outputs": [],
      "stateMutability": "nonpayable",
      "type": "function"
    },
    {
      "inputs": [
        {
          "components": [
            {
              "internalType": "address",
              "name": "maker",
              "type": "address"
            },
            {
              "components": [
                {
                  "components": [
                    {
                      "internalType": "bytes4",
                      "name": "assetClass",
                      "type": "bytes4"
                    },
                    {
                      "internalType": "bytes",
                      "name": "data",
                      "type": "bytes"
                    }
                  ],
                  "internalType": "struct LibAsset.AssetType",
                  "name": "assetType",
                  "type": "tuple"
                },
                {
                  "internalType": "uint256",
                  "name": "value",
                  "type": "uint256"
                }
              ],
              "internalType": "struct LibAsset.Asset",
              "name": "makeAsset",
              "type": "tuple"
            },
            {
              "internalType": "address",
              "name": "taker",
              "type": "address"
            },
            {
              "components": [
                {
                  "components": [
                    {
                      "internalType": "bytes4",
                      "name": "assetClass",
                      "type": "bytes4"
                    },
                    {
                      "internalType": "bytes",
                      "name": "data",
                      "type": "bytes"
                    }
                  ],
                  "internalType": "struct LibAsset.AssetType",
                  "name": "assetType",
                  "type": "tuple"
                },
                {
                  "internalType": "uint256",
                  "name": "value",
                  "type": "uint256"
                }
              ],
              "internalType": "struct LibAsset.Asset",
              "name": "takeAsset",
              "type": "tuple"
            },
            {
              "internalType": "uint256",
              "name": "salt",
              "type": "uint256"
            },
            {
              "internalType": "uint256",
              "name": "start",
              "type": "uint256"
            },
            {
              "internalType": "uint256",
              "name": "end",
              "type": "uint256"
            },
            {
              "internalType": "bytes4",
              "name": "dataType",
              "type": "bytes4"
            },
            {
              "internalType": "bytes",
              "name": "data",
              "type": "bytes"
            }
          ],
          "internalType": "struct LibOrder.Order",
          "name": "order",
          "type": "tuple"
        }
      ],
      "name": "upsertOrder",
      "outputs": [],
      "stateMutability": "payable",
      "type": "function"
    },
    {
      "inputs": [
        {
          "internalType": "contract INftTransferProxy",
          "name": "_transferProxy",
          "type": "address"
        },
        {
          "internalType": "contract IERC20TransferProxy",
          "name": "_erc20TransferProxy",
          "type": "address"
        },
        {
          "internalType": "uint256",
          "name": "newProtocolFee",
          "type": "uint256"
        },
        {
          "internalType": "address",
          "name": "newDefaultFeeReceiver",
          "type": "address"
        },
        {
          "internalType": "contract IRoyaltiesProvider",
          "name": "newRoyaltiesProvider",
          "type": "address"
        }
      ],
      "name": "__ExchangeV2_init",
      "outputs": [],
      "stateMutability": "nonpayable",
      "type": "function"
    }
  ],
  "bytecode": "0x608060405234801561001057600080fd5b5061592880620000216000396000f3fe60806040526004361061011f5760003560e01c8063787dce3d116100a0578063c096547d11610064578063c096547d1461030d578063e2864fe314610320578063e66db25e14610340578063e99a3f8014610360578063f2fde38b146103735761011f565b8063787dce3d146102755780638da5cb5b14610295578063979a3583146102aa578063b0e21e8a146102d8578063b39deb46146102ed5761011f565b806330c642f1116100e757806330c642f1146101f65780633abf6fd4146102165780633be899221461022b5780636d8f06941461024b578063715018a6146102605761011f565b806302097ab1146101245780631372a6251461015a57806317dc89741461017c5780631cdfe3d8146101a957806320158c44146101c9575b600080fd5b34801561013057600080fd5b5061014461013f366004614b16565b610393565b6040516101519190615199565b60405180910390f35b34801561016657600080fd5b5061017a610175366004614e0a565b6103af565b005b34801561018857600080fd5b5061019c610197366004614dd5565b610483565b60405161015191906151c6565b3480156101b557600080fd5b5061017a6101c4366004614b16565b6104b2565b3480156101d557600080fd5b506101e96101e4366004614dd5565b610537565b60405161015191906156eb565b34801561020257600080fd5b5061017a610211366004614ded565b61054a565b34801561022257600080fd5b5061014461061a565b34801561023757600080fd5b5061017a610246366004614b16565b61062a565b34801561025757600080fd5b506101446106af565b34801561026c57600080fd5b5061017a6106bf565b34801561028157600080fd5b5061017a610290366004614dd5565b61076b565b3480156102a157600080fd5b506101446107d3565b3480156102b657600080fd5b506102ca6102c5366004614dd5565b6107e2565b6040516101519291906156c9565b3480156102e457600080fd5b506101e9610a97565b3480156102f957600080fd5b5061017a610308366004614ded565b610a9e565b61017a61031b366004614f88565b610b62565b34801561032c57600080fd5b5061017a61033b366004614f88565b61121e565b34801561034c57600080fd5b5061017a61035b366004614d6b565b6116f8565b61017a61036e366004614fba565b611789565b34801561037f57600080fd5b5061017a61038e366004614b16565b611845565b610164602052600090815260409020546001600160a01b031681565b600054610100900460ff16806103c857506103c8611948565b806103d6575060005460ff16155b6104115760405162461bcd60e51b815260040180806020018281038252602e815260200180615842602e913960400191505060405180910390fd5b600054610100900460ff1615801561043c576000805460ff1961ff0019909116610100171660011790555b610444611959565b61044c6119fb565b6104568686611af4565b610461848484611b9e565b610469611c7a565b801561047b576000805461ff00191690555b505050505050565b600081815261013060205260408120546001600160a01b0316156104a9575060016104ad565b5060005b919050565b6104ba611d4a565b6001600160a01b03166104cb6107d3565b6001600160a01b031614610514576040805162461bcd60e51b815260206004820181905260248201526000805160206158b3833981519152604482015290519081900360640190fd5b61016380546001600160a01b0319166001600160a01b0392909216919091179055565b61012f6020526000908152604090205481565b610552611d4a565b6001600160a01b03166105636107d3565b6001600160a01b0316146105ac576040805162461bcd60e51b815260206004820181905260248201526000805160206158b3833981519152604482015290519081900360640190fd5b6001600160e01b031982166000818152609760205260409081902080546001600160a01b0319166001600160a01b038516179055517f4b5aced933c0c9a88aeac3f0b3b72c5aaf75df8ebaf53225773248c4c31535939061060e908490615199565b60405180910390a25050565b610163546001600160a01b031681565b610632611d4a565b6001600160a01b03166106436107d3565b6001600160a01b03161461068c576040805162461bcd60e51b815260206004820181905260248201526000805160206158b3833981519152604482015290519081900360640190fd5b61016280546001600160a01b0319166001600160a01b0392909216919091179055565b610162546001600160a01b031681565b6106c7611d4a565b6001600160a01b03166106d86107d3565b6001600160a01b031614610721576040805162461bcd60e51b815260206004820181905260248201526000805160206158b3833981519152604482015290519081900360640190fd5b6033546040516000916001600160a01b0316907f8be0079c531659141344cd1fd0a4f28419497f9722a3daafe3b4186f6b6457e0908390a3603380546001600160a01b0319169055565b610773611d4a565b6001600160a01b03166107846107d3565b6001600160a01b0316146107cd576040805162461bcd60e51b815260206004820181905260248201526000805160206158b3833981519152604482015290519081900360640190fd5b61016155565b6033546001600160a01b031690565b6101306020908152600091825260409182902082516101208101845281546001600160a01b0316815283516080810185526001808401805460e01b6001600160e01b031916838801908152600280870180548a516101009682161596909602600019011691909104601f810189900489028501890190995288845295979496889688820196939486948693606087019391908301828280156108c55780601f1061089a576101008083540402835291602001916108c5565b820191906000526020600020905b8154815290600101906020018083116108a857829003601f168201915b50505091909252505050815260029182015460209182015291835260048401546001600160a01b0316838301526040805160808101825260058601805460e01b6001600160e01b03191682840190815260068801805485516101006001831615026000190190911696909604601f810188900488028701880186528087529490970196929591948694919386936060870193908301828280156109a95780601f1061097e576101008083540402835291602001916109a9565b820191906000526020600020905b81548152906001019060200180831161098c57829003601f168201915b5050509190925250505081526002918201546020918201529183526008840154838301526009840154604080850191909152600a8501546060850152600b85015460e01b6001600160e01b0319166080850152600c8501805482516101006001831615026000190190911693909304601f810185900485028401850190925281835260a0909401939192830182828015610a845780601f10610a5957610100808354040283529160200191610a84565b820191906000526020600020905b815481529060010190602001808311610a6757829003601f168201915b50505091909252505050600d9091015482565b6101615481565b610aa6611d4a565b6001600160a01b0316610ab76107d3565b6001600160a01b031614610b00576040805162461bcd60e51b815260206004820181905260248201526000805160206158b3833981519152604482015290519081900360640190fd5b6001600160e01b031982166000818152606560205260409081902080546001600160a01b0319166001600160a01b038516179055517fd2bf91075f105d0fd80328da28e20ebdad1c1261839711183bc29a44cbe6c72f9061060e908490615199565b6000610b6d82611d4e565b82519091506001600160a01b0316610b83611d4a565b6001600160a01b031614610bb25760405162461bcd60e51b8152600401610ba990615419565b60405180910390fd5b61012f60008281526020019081526020016000205482606001516020015111610bed5760405162461bcd60e51b8152600401610ba99061535e565b6000610bf98383611dc2565b905080610c0583610483565b15610f505760008381526101306020908152604080832081516101208101835281546001600160a01b0316815282516080810184526001808401805460e01b6001600160e01b0319168387019081526002808701805489516101009682161596909602600019011691909104601f81018a90048a0285018a01909852878452610eba9895978887019693948694869360608701939091830182828015610cec5780601f10610cc157610100808354040283529160200191610cec565b820191906000526020600020905b815481529060010190602001808311610ccf57829003601f168201915b50505091909252505050815260029182015460209182015291835260048401546001600160a01b0316838301526040805160808101825260058601805460e01b6001600160e01b03191682840190815260068801805485516101006001831615026000190190911696909604601f81018890048802870188018652808752949097019692959194869491938693606087019390830182828015610dd05780601f10610da557610100808354040283529160200191610dd0565b820191906000526020600020905b815481529060010190602001808311610db357829003601f168201915b5050509190925250505081526002918201546020918201529183526008840154838301526009840154604080850191909152600a8501546060850152600b85015460e01b6001600160e01b0319166080850152600c8501805482516101006001831615026000190190911693909304601f810185900485028401850190925281835260a0909401939192830182828015610eab5780601f10610e8057610100808354040283529160200191610eab565b820191906000526020600020905b815481529060010190602001808311610e8e57829003601f168201915b50505050508152505085611dc2565b9050808311610eca576000610ed4565b610ed48382611e08565b91506000838211610ee6576000610ef0565b610ef08285611e08565b9050610f4d60405180604001604052808860200151600001518152602001838152503088600001517f12755a21b06621963f5494677d2471a10330ef7ad5d571bc17b92582968032d06000805160206158d3833981519152611e65565b50505b602084015151516001600160e01b0319166355575f5d60e11b141561108857606084015151516001600160e01b0319166355575f5d60e11b1415610fa65760405162461bcd60e51b8152600401610ba9906153cd565b80341015610fc65760405162461bcd60e51b8152600401610ba9906155c6565b8015611062576040805180820182526020808701515182528101839052855191517fcae9d16f553e92058883de29cb3135dbc0c1e31fd7eace79fef1d80577fe482e92611059929130907f8e9742dda957f51c3e385ce6ed07f0b7acc2bf98484e3acc9bd1a8c7c2a918f3907ffc530b24510b924664e4cc98bd27ba37fd804f8cb2b1743b1bc15525a944ae939061566b565b60405180910390a15b80341115611088576110886110773483611e08565b85516001600160a01b031690611e87565b611090611f24565b600084815261013060209081526040909120600d810192909255855182546001600160a01b0319166001600160a01b03909116178255858101518051805160018501805463ffffffff191660e09290921c9190911781558184015180518a96959293928492611108926002890192919091019061466d565b5050506020918201516002919091015560408301516004830180546001600160a01b0319166001600160a01b0390921691909117905560608301518051805160058501805463ffffffff191660e09290921c91909117815581840151805193949193849261117d92600689019291019061466d565b505050602091820151600291909101556080830151600883015560a0830151600983015560c0830151600a83015560e080840151600b8401805463ffffffff19169190921c17905561010083015180516111dd92600c850192019061466d565b509050507f1acc8aca73f063aff7288a5f63824311301634d60a04d06437f67d5f0604bd198460405161121091906156b6565b60405180910390a150505050565b80516001600160a01b0316611231611d4a565b6001600160a01b0316146112575760405162461bcd60e51b8152600401610ba9906155ee565b60808101516112785760405162461bcd60e51b8152600401610ba99061539f565b600061128382611d4e565b905061128e81610483565b156116935760008181526101306020908152604080832081516101208101835281546001600160a01b0316815282516080810184526001808401805460e01b6001600160e01b0319168387019081526002808701805489516101009682161596909602600019011691909104601f81018a90048a0285018a01909852878452949795968887019694959294869492938693606087019390928301828280156113775780601f1061134c57610100808354040283529160200191611377565b820191906000526020600020905b81548152906001019060200180831161135a57829003601f168201915b50505091909252505050815260029182015460209182015291835260048401546001600160a01b0316838301526040805160808101825260058601805460e01b6001600160e01b03191682840190815260068801805485516101006001831615026000190190911696909604601f8101889004880287018801865280875294909701969295919486949193869360608701939083018282801561145b5780601f106114305761010080835404028352916020019161145b565b820191906000526020600020905b81548152906001019060200180831161143e57829003601f168201915b5050509190925250505081526002918201546020918201529183526008840154838301526009840154604080850191909152600a8501546060850152600b85015460e01b6001600160e01b0319166080850152600c8501805482516101006001831615026000190190911693909304601f810185900485028401850190925281835260a09094019391928301828280156115365780601f1061150b57610100808354040283529160200191611536565b820191906000526020600020905b81548152906001019060200180831161151957829003601f168201915b50505091909252505050602081015151519091506001600160e01b0319166355575f5d60e11b14156115c3576115c3604051806040016040528083602001516000015181526020016115888486611dc2565b9052825130907f12755a21b06621963f5494677d2471a10330ef7ad5d571bc17b92582968032d06000805160206158d3833981519152611e65565b60008281526101306020526040812080546001600160a01b031916815560018101805463ffffffff191681559091908290829081818161160660028701826146f9565b50506000600292909201829055506004830180546001600160a01b031916905560058301805463ffffffff1916815590818161164560068701826146f9565b50506000600292909201829055506008830181905560098301819055600a8301819055600b8301805463ffffffff1916905561168590600c8401906146f9565b5050600d8201600090555050505b600081815261012f602090815260409182902060001990558351908401515160608501515192517fbbdc98cb2835f4f846e6a63700d0498b4674f0e8858fd50c6379314227afa04e936116ec93869390929091906151d1565b60405180910390a15050565b611700611d4a565b6001600160a01b03166117116107d3565b6001600160a01b03161461175a576040805162461bcd60e51b815260206004820181905260248201526000805160206158b3833981519152604482015290519081900360640190fd5b6001600160a01b0391821660009081526101646020526040902080546001600160a01b03191691909216179055565b6117938484611f2b565b61179d8282611f2b565b60408401516001600160a01b0316156117e95783604001516001600160a01b031682600001516001600160a01b0316146117e95760405162461bcd60e51b8152600401610ba990615583565b60408201516001600160a01b0316156118355783600001516001600160a01b031682604001516001600160a01b0316146118355760405162461bcd60e51b8152600401610ba990615487565b61183f8483611f5e565b50505050565b61184d611d4a565b6001600160a01b031661185e6107d3565b6001600160a01b0316146118a7576040805162461bcd60e51b815260206004820181905260248201526000805160206158b3833981519152604482015290519081900360640190fd5b6001600160a01b0381166118ec5760405162461bcd60e51b81526004018080602001828103825260268152602001806157ad6026913960400191505060405180910390fd5b6033546040516001600160a01b038084169216907f8be0079c531659141344cd1fd0a4f28419497f9722a3daafe3b4186f6b6457e090600090a3603380546001600160a01b0319166001600160a01b0392909216919091179055565b6000611953306121a3565b15905090565b600054610100900460ff16806119725750611972611948565b80611980575060005460ff16155b6119bb5760405162461bcd60e51b815260040180806020018281038252602e815260200180615842602e913960400191505060405180910390fd5b600054610100900460ff161580156119e6576000805460ff1961ff0019909116610100171660011790555b80156119f8576000805461ff00191690555b50565b600054610100900460ff1680611a145750611a14611948565b80611a22575060005460ff16155b611a5d5760405162461bcd60e51b815260040180806020018281038252602e815260200180615842602e913960400191505060405180910390fd5b600054610100900460ff16158015611a88576000805460ff1961ff0019909116610100171660011790555b6000611a92611d4a565b603380546001600160a01b0319166001600160a01b038316908117909155604051919250906000907f8be0079c531659141344cd1fd0a4f28419497f9722a3daafe3b4186f6b6457e0908290a35080156119f8576000805461ff001916905550565b60976020527f4532fa16f071d6234e30e1a1e69b9806f04095edf37a1ca7a25c8d6af7861cc080546001600160a01b039283166001600160a01b0319918216179091557f30a684095c937b5aa064dcf94f9903a7d808e3efb22d8389dbd43080ad4ed3d5805493909216928116831790915563025ceed960e61b6000527f4b5822151ea34b7c8d9e37c3e466bcecb631efe6a9f26a4a4054110a93dd316f80549091169091179055565b600054610100900460ff1680611bb75750611bb7611948565b80611bc5575060005460ff16155b611c005760405162461bcd60e51b815260040180806020018281038252602e815260200180615842602e913960400191505060405180910390fd5b600054610100900460ff16158015611c2b576000805460ff1961ff0019909116610100171660011790555b61016184905561016380546001600160a01b038086166001600160a01b031992831617909255610162805492851692909116919091179055801561183f576000805461ff001916905550505050565b600054610100900460ff1680611c935750611c93611948565b80611ca1575060005460ff16155b611cdc5760405162461bcd60e51b815260040180806020018281038252602e815260200180615842602e913960400191505060405180910390fd5b600054610100900460ff16158015611d07576000805460ff1961ff0019909116610100171660011790555b6119e66040518060400160405280600881526020016745786368616e676560c01b815250604051806040016040528060018152602001601960f91b8152506121a9565b3390565b805160208201515160009190611d6390612269565b606084015151611d7290612269565b846080015160405160200180856001600160a01b03168152602001848152602001838152602001828152602001945050505050604051602081830303815290604052805190602001209050919050565b600080611dd884611dd386866122d3565b612300565b5090506000611dfd82611deb8787612344565b611df488612378565b60200151612439565b925050505b92915050565b600082821115611e5f576040805162461bcd60e51b815260206004820152601e60248201527f536166654d6174683a207375627472616374696f6e206f766572666c6f770000604482015290519081900360640190fd5b50900390565b6020850151611e7357611e80565b611e8085858584866124ac565b5050505050565b6040516000906001600160a01b0384169083908381818185875af1925050503d8060008114611ed2576040519150601f19603f3d011682016040523d82523d6000602084013e611ed7565b606091505b5050905080611f1f576040805162461bcd60e51b815260206004820152600f60248201526e1d1c985b9cd9995c8819985a5b1959608a1b604482015290519081900360640190fd5b505050565b6101615490565b611f3482612833565b611f4682611f4184611d4e565b6128fd565b15611f5057611f5a565b611f5a8282612bcc565b5050565b600080611f6b8484612e23565b915091506000611f7a85611d4e565b90506000611f8785611d4e565b90506000611f9587846122d3565b90506000611fa387846122d3565b90506000611fb389898585612ebc565b90506000816020015111611fd95760405162461bcd60e51b8152600401610ba9906154f7565b608089015115612004576020810151611ff3908490612f40565b600086815261012f60205260409020555b60808801511561202c57805161201b908390612f40565b600085815261012f60205260409020555b60008061203c8989858e8e612fa1565b915091507f268820db288a211986b26a8fda86b1e0046281b21206936bb0e61c67b5c79ef487878d600001518d60000151876020015188600001518f8f60405161208d989796959493929190615218565b60405180910390a160006120a38c8c8a8a613124565b8a519091506001600160e01b0319166355575f5d60e11b1480156120c45750805b156121295788516001600160e01b0319166355575f5d60e11b14156120e857600080fd5b823410156121085760405162461bcd60e51b8152600401610ba9906155c6565b823411156121245761212461211d3485611e08565b3390611e87565b612181565b88516001600160e01b0319166355575f5d60e11b1480156121475750805b15612181578134101561216c5760405162461bcd60e51b8152600401610ba9906155c6565b813411156121815761218161211d3484611e08565b61218b8c8961319c565b6121958b8861319c565b505050505050505050505050565b3b151590565b600054610100900460ff16806121c257506121c2611948565b806121d0575060005460ff16155b61220b5760405162461bcd60e51b815260040180806020018281038252602e815260200180615842602e913960400191505060405180910390fd5b600054610100900460ff16158015612236576000805460ff1961ff0019909116610100171660011790555b825160208085019190912083519184019190912060c99190915560ca558015611f1f576000805461ff0019169055505050565b8051602091820151805190830120604080517f452a0dc408cb0d27ffc3b3caff933a5208040a53a9dbecd8d89cad2c0d40e00c818601526001600160e01b031990931683820152606080840192909252805180840390920182526080909201909152805191012090565b60008260800151600014156122ea57506000611e02565b50600090815261012f6020526040902054919050565b60008061231e83856060015160200151611e0890919063ffffffff16565b905061233b846020015160200151856060015160200151836132a7565b91509250929050565b600061235083836128fd565b1561236e5750600081815261013060205260409020600d0154611e02565b5061016154611e02565b61238061473d565b60e08201516001600160e01b031916632611a13360e11b14156123c9576123ab82610100015161330b565b8051519091506123c45781516123c19082613327565b90505b6104ad565b60e08201516001600160e01b031990811614156123ec5781516123c19082613327565b6040805162461bcd60e51b815260206004820152601760248201527f556e6b6e6f776e204f7264657220646174612074797065000000000000000000604482015290519081900360640190fd5b600061244f61244885856133c8565b8590612f40565b905060005b82518110156124a45761249a61249384838151811061246f57fe5b6020026020010151602001516001600160601b0316876133c890919063ffffffff16565b8390612f40565b9150600101612454565b509392505050565b8451516001600160e01b0319166355575f5d60e11b14156124e55760208501516124e0906001600160a01b03851690611e87565b6127ed565b8451516001600160e01b0319166322ba176160e21b14156125c357600085600001516020015180602001905181019061251e9190614b32565b6322ba176160e21b600052609760209081527f4532fa16f071d6234e30e1a1e69b9806f04095edf37a1ca7a25c8d6af7861cc0549088015160405163776062c360e01b81529293506001600160a01b039091169163776062c39161258b9185918a918a91906004016152c6565b600060405180830381600087803b1580156125a557600080fd5b505af11580156125b9573d6000803e3d6000fd5b50505050506127ed565b8451516001600160e01b0319166339d690a360e11b14156126c3576000808660000151602001518060200190518101906125fd9190614d3e565b9150915086602001516001146126255760405162461bcd60e51b8152600401610ba9906154cb565b6339d690a360e11b60005260976020527f30a684095c937b5aa064dcf94f9903a7d808e3efb22d8389dbd43080ad4ed3d554604051637b84dc8360e11b81526001600160a01b039091169063f709b9069061268a9085908a908a9087906004016152c6565b600060405180830381600087803b1580156126a457600080fd5b505af11580156126b8573d6000803e3d6000fd5b5050505050506127ed565b8451516001600160e01b03191663025ceed960e61b141561276c576000808660000151602001518060200190518101906126fd9190614d3e565b63025ceed960e61b600052609760209081527f4b5822151ea34b7c8d9e37c3e466bcecb631efe6a9f26a4a4054110a93dd316f54908a0151604051639c1c2ee960e01b81529395509193506001600160a01b031691639c1c2ee99161268a9186918b918b918891600401615283565b8451516001600160e01b031916600090815260976020526040908190205490516354bc0cf160e01b81526001600160a01b03909116906354bc0cf1906127ba90889088908890600401615638565b600060405180830381600087803b1580156127d457600080fd5b505af11580156127e8573d6000803e3d6000fd5b505050505b7fcae9d16f553e92058883de29cb3135dbc0c1e31fd7eace79fef1d80577fe482e858585858560405161282495949392919061566b565b60405180910390a15050505050565b60a081015115806128475750428160a00151105b612898576040805162461bcd60e51b815260206004820152601d60248201527f4f726465722073746172742076616c69646174696f6e206661696c6564000000604482015290519081900360640190fd5b60c081015115806128ac5750428160c00151115b6119f8576040805162461bcd60e51b815260206004820152601b60248201527f4f7264657220656e642076616c69646174696f6e206661696c65640000000000604482015290519081900360640190fd5b60008181526101306020908152604080832081516101208101835281546001600160a01b0316815282516080810184526001808401805460e01b6001600160e01b0319168387019081526002808701805489516101009682161596909602600019011691909104601f81018a90048a0285018a01909852878452612bac98959788870196939486948693606087019390918301828280156129df5780601f106129b4576101008083540402835291602001916129df565b820191906000526020600020905b8154815290600101906020018083116129c257829003601f168201915b50505091909252505050815260029182015460209182015291835260048401546001600160a01b0316838301526040805160808101825260058601805460e01b6001600160e01b03191682840190815260068801805485516101006001831615026000190190911696909604601f81018890048802870188018652808752949097019692959194869491938693606087019390830182828015612ac35780601f10612a9857610100808354040283529160200191612ac3565b820191906000526020600020905b815481529060010190602001808311612aa657829003601f168201915b5050509190925250505081526002918201546020918201529183526008840154838301526009840154604080850191909152600a8501546060850152600b85015460e01b6001600160e01b0319166080850152600c8501805482516101006001831615026000190190911693909304601f810185900485028401850190925281835260a0909401939192830182828015612b9e5780601f10612b7357610100808354040283529160200191612b9e565b820191906000526020600020905b815481529060010190602001808311612b8157829003601f168201915b5050505050815250506133da565b612bb5846133da565b1415612bc357506001611e02565b50600092915050565b6080820151612c415781516001600160a01b0316612be8611d4a565b6001600160a01b031614612c3c576040805162461bcd60e51b815260206004820152601660248201527536b0b5b2b91034b9903737ba103a3c1039b2b73232b960511b604482015290519081900360640190fd5b611f5a565b81516001600160a01b0316612c54611d4a565b6001600160a01b031614611f5a576000612c6d836133da565b83519091506001600160a01b0316612c8e83612c88846134ca565b90613516565b6001600160a01b031614611f1f578251612cb0906001600160a01b03166121a3565b15612dec578251630b135d3f60e11b906001600160a01b0316631626ba7e612cd7846134ca565b856040518363ffffffff1660e01b81526004018083815260200180602001828103825283818151815260200191508051906020019080838360005b83811015612d2a578181015183820152602001612d12565b50505050905090810190601f168015612d575780820380516001836020036101000a031916815260200191505b50935050505060206040518083038186803b158015612d7557600080fd5b505afa158015612d89573d6000803e3d6000fd5b505050506040513d6020811015612d9f57600080fd5b50516001600160e01b03191614612de75760405162461bcd60e51b815260040180806020018281038252602b815260200180615817602b913960400191505060405180910390fd5b611f1f565b60405162461bcd60e51b81526004018080602001828103825260228152602001806157f56022913960400191505060405180910390fd5b612e2b614757565b612e33614757565b602084015151606084015151612e499190613596565b80519092506001600160e01b031916612e745760405162461bcd60e51b8152600401610ba990615557565b606084015151602084015151612e8a9190613596565b80519091506001600160e01b031916612eb55760405162461bcd60e51b8152600401610ba990615557565b9250929050565b612ec461476f565b600080612ed18786612300565b91509150600080612ee28887612300565b9150915083811115612f1557612f0a84848a60200151602001518b60600151602001516135d6565b945050505050612f38565b612f318960200151602001518a6060015160200151848461365b565b9450505050505b949350505050565b600082820183811015612f9a576040805162461bcd60e51b815260206004820152601b60248201527f536166654d6174683a206164646974696f6e206f766572666c6f770000000000604482015290519081900360640190fd5b9392505050565b6000806000612fb8886000015188600001516136e1565b86516020880151909450925090506001816002811115612fd457fe5b141561305b57855185516130289190612fee8888866137a9565b612ff789612378565b61300089612378565b8d8d7f1a0388dd7519a093630516a672419a2562e0e74deb98af068657dc265f0164c9613849565b9250613056878760200151866000015161304189612378565b516000805160206158d3833981519152613910565b613119565b600281600281111561306957fe5b14156130ef576130af866020015185600001516130878888866137a9565b61309088612378565b6130998a612378565b8c8e6000805160206158d3833981519152613849565b915061305688876000015187600001516130c888612378565b517f1a0388dd7519a093630516a672419a2562e0e74deb98af068657dc265f0164c9613910565b85518551613102918a916130c888612378565b613119878760200151866000015161304189612378565b509550959350505050565b602084015151516000906001600160e01b0319166355575f5d60e11b141561315c5761315085846128fd565b61315c57506001612f38565b602084015151516001600160e01b0319166355575f5d60e11b14156131915761318584836128fd565b61319157506001612f38565b506000949350505050565b6131a682826128fd565b6131af57611f5a565b60006131cd6131be84846122d3565b60608501516020015190611e08565b905080611f1f5760008281526101306020526040812080546001600160a01b031916815560018101805463ffffffff191681559091908290829081818161321760028701826146f9565b50506000600292909201829055506004830180546001600160a01b031916905560058301805463ffffffff1916815590818161325660068701826146f9565b50506000600292909201829055506008830181905560098301819055600a8301819055600b8301805463ffffffff1916905561329690600c8401906146f9565b5050600d8201600090555050505050565b60006132b4848484613ab5565b156132f7576040805162461bcd60e51b815260206004820152600e60248201526d3937bab73234b7339032b93937b960911b604482015290519081900360640190fd5b612f38836133058685613b44565b90613b9d565b61331361473d565b81806020019051810190611e029190614efc565b61332f61473d565b604080516001808252818301909252600091816020015b61334e614789565b815260200190600190039081613346579050509050838160008151811061337157fe5b6020026020010151600001906001600160a01b031690816001600160a01b031681525050612710816000815181106133a557fe5b6020908102919091018101516001600160601b0392909216910152825250919050565b6000612f9a6127106133058585613b44565b60007f477ed43b8020849b755512278536c3766a3b4ab547519949a75f483372493f8d826000015161340f8460200151613c04565b84604001516134218660600151613c04565b86608001518760a001518860c001518960e001518a610100015180519060200120604051602001808b81526020018a6001600160a01b03168152602001898152602001886001600160a01b03168152602001878152602001868152602001858152602001848152602001836001600160e01b03191681526020018281526020019a5050505050505050505050604051602081830303815290604052805190602001209050919050565b60006134d4613c74565b82604051602001808061190160f01b81525060020183815260200182815260200192505050604051602081830303815290604052805190602001209050919050565b6000815160411461356e576040805162461bcd60e51b815260206004820152601f60248201527f45434453413a20696e76616c6964207369676e6174757265206c656e67746800604482015290519081900360640190fd5b60208201516040830151606084015160001a61358c86828585613cb4565b9695505050505050565b61359e614757565b60006135aa8484613f0a565b80519091506001600160e01b0319166135cf576135c78385613f0a565b915050611e02565b9050611e02565b6135de61476f565b60006135eb8585856132a7565b905085811115613642576040805162461bcd60e51b815260206004820152601860248201527f66696c6c4c6566743a20756e61626c6520746f2066696c6c0000000000000000604482015290519081900360640190fd5b5050604080518082019091529384525050602082015290565b61366361476f565b60006136708387876132a7565b9050838111156136c7576040805162461bcd60e51b815260206004820152601960248201527f66696c6c52696768743a20756e61626c6520746f2066696c6c00000000000000604482015290519081900360640190fd5b604080518082019091529283526020830152509392505050565b60006001600160e01b031983166355575f5d60e11b141561370457506001611e02565b6001600160e01b031982166355575f5d60e11b141561372557506002611e02565b6001600160e01b031983166322ba176160e21b141561374657506001611e02565b6001600160e01b031982166322ba176160e21b141561376757506002611e02565b6001600160e01b0319831663025ceed960e61b141561378857506001611e02565b6001600160e01b0319821663025ceed960e61b1415612bc357506002611e02565b6137b161476f565b6137b961476f565b60006137cd866137c888611d4e565b612344565b905060006137de866137c888611d4e565b905060018560028111156137ee57fe5b1415613803578183526020830181905261383e565b600285600281111561381157fe5b1415613826578083526020830182905261383e565b60405162461bcd60e51b8152600401610ba990615450565b509095945050505050565b600061385e8988600001518860200151612439565b90506000613870828b8b8b8988614126565b90506138808585838d8d88614217565b90506138b585828c8a602001518d887fdfdfdaf4cc275341b6776a7ee23b953990b8d991717449077287da70f32cf95561427d565b50809150506138ed85828c89602001518d887fdfdfdaf4cc275341b6776a7ee23b953990b8d991717449077287da70f32cf95561427d565b508091505061390385828b896000015187613910565b5098975050505050505050565b600084815b6001855103811015613a0057600061395686838151811061393257fe5b6020026020010151602001516001600160601b0316896133c890919063ffffffff16565b905061398b86838151811061396757fe5b6020026020010151602001516001600160601b031685612f4090919063ffffffff16565b935080156139f75761399d8382611e08565b92506139f760405180604001604052808b815260200183815250888885815181106139c457fe5b602002602001015160000151887fa10bb5b2060a412d05113732875a5431ca23453eb93f797e0ffcb5b40e5f2c3e6124ac565b50600101613915565b50600084600186510381518110613a1357fe5b60200260200101519050613a3d81602001516001600160601b031684612f4090919063ffffffff16565b92508261271014613a605760405162461bcd60e51b8152600401610ba990615520565b8115613aab57613aab60405180604001604052808a815260200184815250878360000151877fa10bb5b2060a412d05113732875a5431ca23453eb93f797e0ffcb5b40e5f2c3e6124ac565b5050505050505050565b600082613afc576040805162461bcd60e51b815260206004820152601060248201526f6469766973696f6e206279207a65726f60801b604482015290519081900360640190fd5b811580613b07575083155b15613b1457506000612f9a565b60008380613b1e57fe5b8584099050613b2d8584613b44565b613b39826103e8613b44565b101595945050505050565b600082613b5357506000611e02565b82820282848281613b6057fe5b0414612f9a5760405162461bcd60e51b81526004018080602001828103825260218152602001806158926021913960400191505060405180910390fd5b6000808211613bf3576040805162461bcd60e51b815260206004820152601a60248201527f536166654d6174683a206469766973696f6e206279207a65726f000000000000604482015290519081900360640190fd5b818381613bfc57fe5b049392505050565b60007fdb6f72e915676cfc289da13bc4ece054fd17b1df6d77ffc4a60510718c236b08613c348360000151612269565b8360200151604051602001808481526020018381526020018281526020019350505050604051602081830303815290604052805190602001209050919050565b6000613caf7f8b73c3c69bb8fe3d512ecc4cf759cc79239f7b179b0ffacaa9a75d522b39400f613ca261434b565b613caa614351565b614357565b905090565b60007f7fffffffffffffffffffffffffffffff5d576e7357a4501ddfe92f46681b20a0821115613d155760405162461bcd60e51b81526004018080602001828103825260228152602001806157d36022913960400191505060405180910390fd5b6000601e8560ff161115613def576004850360ff16601b1480613d3e57506004850360ff16601c145b613d795760405162461bcd60e51b81526004018080602001828103825260228152602001806158706022913960400191505060405180910390fd5b6001613d84876143b9565b60048703868660405160008152602001604052604051808581526020018460ff1681526020018381526020018281526020019450505050506020604051602081039080840390855afa158015613dde573d6000803e3d6000fd5b505050602060405103519050613ea6565b8460ff16601b1480613e0457508460ff16601c145b613e3f5760405162461bcd60e51b81526004018080602001828103825260228152602001806158706022913960400191505060405180910390fd5b60018686868660405160008152602001604052604051808581526020018460ff1681526020018381526020018281526020019450505050506020604051602081039080840390855afa158015613e99573d6000803e3d6000fd5b5050506020604051035190505b6001600160a01b038116613f01576040805162461bcd60e51b815260206004820152601860248201527f45434453413a20696e76616c6964207369676e61747572650000000000000000604482015290519081900360640190fd5b95945050505050565b613f12614757565b825182516001600160e01b031982166355575f5d60e11b1415613f7d576001600160e01b031981166355575f5d60e11b1415613f52578492505050611e02565b5050604080518082018252600080825282516020818101909452908152918101919091529050611e02565b6001600160e01b031982166322ba176160e21b1415613fc2576001600160e01b031981166322ba176160e21b1415613f5257613fb9858561440a565b92505050611e02565b6001600160e01b031982166339d690a360e11b1415613ffe576001600160e01b031981166339d690a360e11b1415613f5257613fb9858561440a565b6001600160e01b0319821663025ceed960e61b141561403a576001600160e01b0319811663025ceed960e61b1415613f5257613fb9858561440a565b6001600160e01b031982166000908152606560205260409020546001600160a01b031680156140ef576040516306d3f7cb60e41b81526001600160a01b03821690636d3f7cb0906140919089908990600401615613565b60006040518083038186803b1580156140a957600080fd5b505afa1580156140bd573d6000803e3d6000fd5b505050506040513d6000823e601f3d908101601f191682016040526140e59190810190614e71565b9350505050611e02565b6001600160e01b0319838116908316141561410e576140e5868661440a565b60405162461bcd60e51b8152600401610ba9906152f0565b600080600061414089898860200151896000015101614467565b9092509050801561420b5784516000906001600160e01b0319166322ba176160e21b14156141875785602001518060200190518101906141809190614b32565b90506141c0565b85516001600160e01b03191663025ceed960e61b14156141c057600086602001518060200190518101906141bb9190614d3e565b509150505b614209604051806040016040528088815260200184815250896141e284614489565b887ff87e69cb514f255f3d32f9d90f25160a10d0cdefe6618a6406db334d4450595c6124ac565b505b50979650505050505050565b600080614223876144c8565b90506000806142578a8989868a8a7fb3c5c697ec0b511b76d12f6293e6ee827b1e1df79ac7c64d0466d945904893d761427d565b915091506113888111156139035760405162461bcd60e51b8152600401610ba990615327565b856000805b865181101561433e576142be87828151811061429a57fe5b6020026020010151602001516001600160601b031683612f4090919063ffffffff16565b91506000806142ee858b8b86815181106142d457fe5b6020026020010151602001516001600160601b0316614467565b909550859250905080156143345761433460405180604001604052808e815260200183815250898b868151811061432157fe5b6020026020010151600001518a8a6124ac565b5050600101614282565b5097509795505050505050565b60c95490565b60ca5490565b6000838383614364614641565b3060405160200180868152602001858152602001848152602001838152602001826001600160a01b03168152602001955050505050506040516020818303038152906040528051906020012090509392505050565b604080517f19457468657265756d205369676e6564204d6573736167653a0a333200000000602080830191909152603c8083019490945282518083039094018452605c909101909152815191012090565b614412614757565b6020808401518051908201208382015180519201919091208082141561443c578492505050611e02565b5050604080518082018252600080825282516020808201909452908152918101919091529392505050565b60008061447d8561447886866133c8565b614645565b91509150935093915050565b6001600160a01b038082166000908152610164602052604081205490911680156144b45790506104ad565b5050610163546001600160a01b0316919050565b80516060906001600160e01b03191663025ceed960e61b14806144fc575081516001600160e01b0319166339d690a360e11b145b156145b257600080836020015180602001905181019061451c9190614d3e565b61016254604051634e53ee3d60e11b81529294509092506001600160a01b031690639ca7dc7a9061455390859085906004016151ad565b600060405180830381600087803b15801561456d57600080fd5b505af1158015614581573d6000803e3d6000fd5b505050506040513d6000823e601f3d908101601f191682016040526145a99190810190614da3565b925050506104ad565b81516001600160e01b03191662737ea960e61b14156145f55760008083602001518060200190518101906145e69190614b4e565b6080015193506104ad92505050565b81516001600160e01b03191663d8f960c160e01b141561463957600080836020015180602001905181019061462a9190614c4b565b6060015193506104ad92505050565b506060919050565b4690565b600080828411156146645761465a8484611e08565b9150829050612eb5565b50600093915050565b828054600181600116156101000203166002900490600052602060002090601f0160209004810192826146a357600085556146e9565b82601f106146bc57805160ff19168380011785556146e9565b828001600101855582156146e9579182015b828111156146e95782518255916020019190600101906146ce565b506146f59291506147a0565b5090565b50805460018160011615610100020316600290046000825580601f1061471f57506119f8565b601f0160209004906000526020600020908101906119f891906147a0565b604051806040016040528060608152602001606081525090565b60408051808201909152600081526060602082015290565b604051806040016040528060008152602001600081525090565b604080518082019091526000808252602082015290565b5b808211156146f557600081556001016147a1565b80356104ad81615781565b600082601f8301126147d0578081fd5b815160206147e56147e083615717565b6156f4565b82815281810190858301855b8581101561481a57614808898684518b0101614939565b845292840192908401906001016147f1565b5090979650505050505050565b600082601f830112614837578081fd5b815160206148476147e083615717565b82815281810190858301604080860288018501891015614865578687fd5b865b868110156148d45781838b03121561487d578788fd5b81518281018181106001600160401b038211171561489757fe5b835283516148a481615781565b8152838701516001600160601b03811681146148be57898afd5b8188015285529385019391810191600101614867565b509198975050505050505050565b80356104ad81615796565b600082601f8301126148fd578081fd5b813561490b6147e082615734565b81815284602083860101111561491f578283fd5b816020850160208301379081016020019190915292915050565b600082601f830112614949578081fd5b81516149576147e082615734565b81815284602083860101111561496b578283fd5b612f38826020830160208701615755565b6000604080838503121561498e578182fd5b80518181016001600160401b0382821081831117156149a957fe5b8184528294508535818111156149be57600080fd5b86018088038513156149cf57600080fd5b6080840183811083821117156149e157fe5b9094528335936149f085615796565b93825260208401359381851115614a0657600080fd5b614a12888683016148ed565b60608501525050815260209384013593019290925292915050565b6000610120808385031215614a40578182fd5b614a49816156f4565b915050614a55826147b5565b815260208201356001600160401b0380821115614a7157600080fd5b614a7d8583860161497c565b6020840152614a8e604085016147b5565b60408401526060840135915080821115614aa757600080fd5b614ab38583860161497c565b60608401526080840135608084015260a084013560a084015260c084013560c0840152614ae260e085016148e2565b60e084015261010091508184013581811115614afd57600080fd5b614b09868287016148ed565b8385015250505092915050565b600060208284031215614b27578081fd5b8135612f9a81615781565b600060208284031215614b43578081fd5b8151612f9a81615781565b60008060408385031215614b60578081fd5b8251614b6b81615781565b60208401519092506001600160401b0380821115614b87578283fd5b9084019060c08287031215614b9a578283fd5b614ba460c06156f4565b82518152602083015182811115614bb9578485fd5b614bc588828601614939565b60208301525060408301516040820152606083015182811115614be6578485fd5b614bf288828601614827565b606083015250608083015182811115614c09578485fd5b614c1588828601614827565b60808301525060a083015182811115614c2c578485fd5b614c38888286016147c0565b60a0830152508093505050509250929050565b60008060408385031215614c5d578182fd5b8251614c6881615781565b60208401519092506001600160401b0380821115614c84578283fd5b9084019060a08287031215614c97578283fd5b614ca160a06156f4565b82518152602083015182811115614cb6578485fd5b614cc288828601614939565b602083015250604083015182811115614cd9578485fd5b614ce588828601614827565b604083015250606083015182811115614cfc578485fd5b614d0888828601614827565b606083015250608083015182811115614d1f578485fd5b614d2b888286016147c0565b6080830152508093505050509250929050565b60008060408385031215614d50578182fd5b8251614d5b81615781565b6020939093015192949293505050565b60008060408385031215614d7d578182fd5b8235614d8881615781565b91506020830135614d9881615781565b809150509250929050565b600060208284031215614db4578081fd5b81516001600160401b03811115614dc9578182fd5b612f3884828501614827565b600060208284031215614de6578081fd5b5035919050565b60008060408385031215614dff578182fd5b8235614d8881615796565b600080600080600060a08688031215614e21578081fd5b8535614e2c81615781565b94506020860135614e3c81615781565b9350604086013592506060860135614e5381615781565b91506080860135614e6381615781565b809150509295509295909350565b600060208284031215614e82578081fd5b81516001600160401b0380821115614e98578283fd5b9083019060408286031215614eab578283fd5b604051604081018181108382111715614ec057fe5b6040528251614ece81615796565b8152602083015182811115614ee1578485fd5b614eed87828601614939565b60208301525095945050505050565b600060208284031215614f0d578081fd5b81516001600160401b0380821115614f23578283fd5b9083019060408286031215614f36578283fd5b604051604081018181108382111715614f4b57fe5b604052825182811115614f5c578485fd5b614f6887828601614827565b825250602083015182811115614f7c578485fd5b614eed87828601614827565b600060208284031215614f99578081fd5b81356001600160401b03811115614fae578182fd5b612f3884828501614a2d565b60008060008060808587031215614fcf578182fd5b84356001600160401b0380821115614fe5578384fd5b614ff188838901614a2d565b95506020870135915080821115615006578384fd5b615012888389016148ed565b94506040870135915080821115615027578384fd5b61503388838901614a2d565b93506060870135915080821115615048578283fd5b50615055878288016148ed565b91505092959194509250565b6001600160a01b03169052565b6001600160e01b0319169052565b60008151808452615094816020860160208601615755565b601f01601f19169290920160200192915050565b600063ffffffff60e01b8251168352602082015160406020850152612f38604085018261507c565b60008151604084526150e560408501826150a8565b602093840151949093019390935250919050565b6000610120615109848451615061565b6020830151816020860152615120828601826150d0565b91505060408301516151356040860182615061565b506060830151848203606086015261514d82826150d0565b9150506080830151608085015260a083015160a085015260c083015160c085015260e083015161518060e086018261506e565b50610100808401518583038287015261358c838261507c565b6001600160a01b0391909116815260200190565b6001600160a01b03929092168252602082015260400190565b901515815260200190565b8481526001600160a01b03841660208201526080604082018190526000906151fb908301856150a8565b828103606084015261520d81856150a8565b979650505050505050565b888152602081018890526001600160a01b038781166040830152861660608201526080810185905260a0810184905261010060c08201819052600090615260838201866150a8565b905082810360e084015261527481856150a8565b9b9a5050505050505050505050565b6001600160a01b03958616815293851660208501529190931660408301526060820192909252608081019190915260c060a0820181905260009082015260e00190565b6001600160a01b039485168152928416602084015292166040820152606081019190915260800190565b60208082526017908201527f6e6f7420666f756e64204941737365744d617463686572000000000000000000604082015260600190565b6020808252601d908201527f526f79616c746965732061726520746f6f206869676820283e35302529000000604082015260600190565b60208082526021908201527f737563682074616b652076616c756520697320616c72656164792066696c6c656040820152601960fa1b606082015260800190565b6020808252601490820152730c081cd85b1d0818d85b89dd081899481d5cd95960621b604082015260600190565b6020808252602c908201527f77726f6e67206f726465723a2045544820746f2045544820747261646573206160408201526b3932903337b93134b23232b760a11b606082015260800190565b6020808252601e908201527f6f726465722e6d616b6572206d757374206265206d73672e73656e6465720000604082015260600190565b60208082526019908201527f756e65787065637465642066656553696465203d204e4f4e4500000000000000604082015260600190565b60208082526024908201527f72696768744f726465722e74616b657220766572696669636174696f6e2066616040820152631a5b195960e21b606082015260800190565b60208082526012908201527132b9319b9918903b30b63ab29032b93937b960711b604082015260600190565b6020808252600f908201526e1b9bdd1a1a5b99c81d1bc8199a5b1b608a1b604082015260600190565b6020808252601e908201527f53756d207061796f75747320427073206e6f7420657175616c20313030250000604082015260600190565b6020808252601290820152710c2e6e6cae8e640c8dedc4ee840dac2e8c6d60731b604082015260600190565b60208082526023908201527f6c6566744f726465722e74616b657220766572696669636174696f6e206661696040820152621b195960ea1b606082015260800190565b6020808252600e908201526d0dcdee840cadcdeeaced040cae8d60931b604082015260600190565b6020808252600b908201526a3737ba10309036b0b5b2b960a91b604082015260600190565b60006040825261562660408301856150a8565b8281036020840152613f0181856150a8565b60006060825261564b60608301866150d0565b6001600160a01b0394851660208401529290931660409091015292915050565b600060a0825261567e60a08301886150d0565b6001600160a01b0396871660208401529490951660408201526001600160e01b03199283166060820152911660809091015292915050565b600060208252612f9a60208301846150f9565b6000604082526156dc60408301856150f9565b90508260208301529392505050565b90815260200190565b6040518181016001600160401b038111828210171561570f57fe5b604052919050565b60006001600160401b0382111561572a57fe5b5060209081020190565b60006001600160401b0382111561574757fe5b50601f01601f191660200190565b60005b83811015615770578181015183820152602001615758565b8381111561183f5750506000910152565b6001600160a01b03811681146119f857600080fd5b6001600160e01b0319811681146119f857600080fdfe4f776e61626c653a206e6577206f776e657220697320746865207a65726f206164647265737345434453413a20696e76616c6964207369676e6174757265202773272076616c75656f72646572207369676e617475726520766572696669636174696f6e206572726f72636f6e7472616374206f72646572207369676e617475726520766572696669636174696f6e206572726f72496e697469616c697a61626c653a20636f6e747261637420697320616c726561647920696e697469616c697a656445434453413a20696e76616c6964207369676e6174757265202776272076616c7565536166654d6174683a206d756c7469706c69636174696f6e206f766572666c6f774f776e61626c653a2063616c6c6572206973206e6f7420746865206f776e6572b45a3ba14423c8f1b71cc094845ab56b5294dbe8d8e3ba53f3cdb63d59a4044ba2646970667358221220bc7bcca9586bb5b46b55a8a064af767e2176041cbeecb7ed5176b2dbb851c41464736f6c63430007060033",
  "immutableReferences": {},
  "source": "// SPDX-License-Identifier: MIT\n\npragma solidity 0.7.6;\npragma abicoder v2;\n\nimport \"./ExchangeV2Core.sol\";\nimport \"./RaribleTransferManager.sol\";\nimport \"@rarible/royalties/contracts/IRoyaltiesProvider.sol\";\n\ncontract ExchangeV2 is ExchangeV2Core, RaribleTransferManager {\n    function __ExchangeV2_init(\n        INftTransferProxy _transferProxy,\n        IERC20TransferProxy _erc20TransferProxy,\n        uint newProtocolFee,\n        address newDefaultFeeReceiver,\n        IRoyaltiesProvider newRoyaltiesProvider\n    ) external initializer {\n        __Context_init_unchained();\n        __Ownable_init_unchained();\n        __TransferExecutor_init_unchained(_transferProxy, _erc20TransferProxy);\n        __RaribleTransferManager_init_unchained(newProtocolFee, newDefaultFeeReceiver, newRoyaltiesProvider);\n        __OrderValidator_init_unchained();\n    }\n\n    function getOrderProtocolFee(LibOrder.Order memory order, bytes32 hash) override internal view returns(uint) {\n        if (isTheSameAsOnChain(order, hash)) {\n            return onChainOrders[hash].fee;\n        } else {\n            return protocolFee;\n        }\n    }\n\n    function getProtocolFee() override internal view returns(uint) {\n        return protocolFee;\n    }\n\n\n}\n",
  "sourcePath": "/Users/sergey.patrikeev/Documents/protocol-contracts/exchange-v2/contracts/ExchangeV2.sol",
  "compiler": {
    "name": "solc",
    "version": "0.7.6+commit.7338295f.Emscripten.clang"
  },
  "schemaVersion": "3.4.3",
  "updatedAt": "2021-09-09T12:33:22.783Z",
  "devdoc": {
    "kind": "dev",
    "methods": {
      "checkOrderExistance(bytes32)": {
        "details": "Checks order for existance on-chain by orderKeyHash"
      },
      "owner()": {
        "details": "Returns the address of the current owner."
      },
      "renounceOwnership()": {
        "details": "Leaves the contract without owner. It will not be possible to call `onlyOwner` functions anymore. Can only be called by the current owner. NOTE: Renouncing ownership will leave the contract without an owner, thereby removing any functionality that is only available to the owner."
      },
      "transferOwnership(address)": {
        "details": "Transfers ownership of the contract to a new account (`newOwner`). Can only be called by the current owner."
      },
      "upsertOrder((address,((bytes4,bytes),uint256),address,((bytes4,bytes),uint256),uint256,uint256,uint256,bytes4,bytes))": {
        "details": "Creates new or updates an on-chain order"
      }
    },
    "version": 1
  },
  "userdoc": {
    "kind": "user",
    "methods": {},
    "version": 1
  }
}