{
  "contractName": "ExchangeV2",
  "abi": [
    {
      "anonymous": false,
      "inputs": [
        {
          "indexed": false,
          "internalType": "bytes32",
          "name": "hash",
          "type": "bytes32"
        },
        {
          "indexed": false,
          "internalType": "address",
          "name": "maker",
          "type": "address"
        },
        {
          "components": [
            {
              "internalType": "bytes4",
              "name": "assetClass",
              "type": "bytes4"
            },
            {
              "internalType": "bytes",
              "name": "data",
              "type": "bytes"
            }
          ],
          "indexed": false,
          "internalType": "struct LibAsset.AssetType",
          "name": "makeAssetType",
          "type": "tuple"
        },
        {
          "components": [
            {
              "internalType": "bytes4",
              "name": "assetClass",
              "type": "bytes4"
            },
            {
              "internalType": "bytes",
              "name": "data",
              "type": "bytes"
            }
          ],
          "indexed": false,
          "internalType": "struct LibAsset.AssetType",
          "name": "takeAssetType",
          "type": "tuple"
        }
      ],
      "name": "Cancel",
      "type": "event"
    },
    {
      "anonymous": false,
      "inputs": [
        {
          "indexed": false,
          "internalType": "bytes32",
          "name": "leftHash",
          "type": "bytes32"
        },
        {
          "indexed": false,
          "internalType": "bytes32",
          "name": "rightHash",
          "type": "bytes32"
        },
        {
          "indexed": false,
          "internalType": "address",
          "name": "leftMaker",
          "type": "address"
        },
        {
          "indexed": false,
          "internalType": "address",
          "name": "rightMaker",
          "type": "address"
        },
        {
          "indexed": false,
          "internalType": "uint256",
          "name": "newLeftFill",
          "type": "uint256"
        },
        {
          "indexed": false,
          "internalType": "uint256",
          "name": "newRightFill",
          "type": "uint256"
        },
        {
          "components": [
            {
              "internalType": "bytes4",
              "name": "assetClass",
              "type": "bytes4"
            },
            {
              "internalType": "bytes",
              "name": "data",
              "type": "bytes"
            }
          ],
          "indexed": false,
          "internalType": "struct LibAsset.AssetType",
          "name": "leftAsset",
          "type": "tuple"
        },
        {
          "components": [
            {
              "internalType": "bytes4",
              "name": "assetClass",
              "type": "bytes4"
            },
            {
              "internalType": "bytes",
              "name": "data",
              "type": "bytes"
            }
          ],
          "indexed": false,
          "internalType": "struct LibAsset.AssetType",
          "name": "rightAsset",
          "type": "tuple"
        }
      ],
      "name": "Match",
      "type": "event"
    },
    {
      "anonymous": false,
      "inputs": [
        {
          "indexed": true,
          "internalType": "bytes4",
          "name": "assetType",
          "type": "bytes4"
        },
        {
          "indexed": false,
          "internalType": "address",
          "name": "matcher",
          "type": "address"
        }
      ],
      "name": "MatcherChange",
      "type": "event"
    },
    {
      "anonymous": false,
      "inputs": [
        {
          "indexed": true,
          "internalType": "address",
          "name": "previousOwner",
          "type": "address"
        },
        {
          "indexed": true,
          "internalType": "address",
          "name": "newOwner",
          "type": "address"
        }
      ],
      "name": "OwnershipTransferred",
      "type": "event"
    },
    {
      "anonymous": false,
      "inputs": [
        {
          "indexed": true,
          "internalType": "bytes4",
          "name": "assetType",
          "type": "bytes4"
        },
        {
          "indexed": false,
          "internalType": "address",
          "name": "proxy",
          "type": "address"
        }
      ],
      "name": "ProxyChange",
      "type": "event"
    },
    {
      "anonymous": false,
      "inputs": [
        {
          "components": [
            {
              "components": [
                {
                  "internalType": "bytes4",
                  "name": "assetClass",
                  "type": "bytes4"
                },
                {
                  "internalType": "bytes",
                  "name": "data",
                  "type": "bytes"
                }
              ],
              "internalType": "struct LibAsset.AssetType",
              "name": "assetType",
              "type": "tuple"
            },
            {
              "internalType": "uint256",
              "name": "value",
              "type": "uint256"
            }
          ],
          "indexed": false,
          "internalType": "struct LibAsset.Asset",
          "name": "asset",
          "type": "tuple"
        },
        {
          "indexed": false,
          "internalType": "address",
          "name": "from",
          "type": "address"
        },
        {
          "indexed": false,
          "internalType": "address",
          "name": "to",
          "type": "address"
        },
        {
          "indexed": false,
          "internalType": "bytes4",
          "name": "transferDirection",
          "type": "bytes4"
        },
        {
          "indexed": false,
          "internalType": "bytes4",
          "name": "transferType",
          "type": "bytes4"
        }
      ],
      "name": "Transfer",
      "type": "event"
    },
    {
      "anonymous": false,
      "inputs": [
        {
          "components": [
            {
              "internalType": "address",
              "name": "maker",
              "type": "address"
            },
            {
              "components": [
                {
                  "components": [
                    {
                      "internalType": "bytes4",
                      "name": "assetClass",
                      "type": "bytes4"
                    },
                    {
                      "internalType": "bytes",
                      "name": "data",
                      "type": "bytes"
                    }
                  ],
                  "internalType": "struct LibAsset.AssetType",
                  "name": "assetType",
                  "type": "tuple"
                },
                {
                  "internalType": "uint256",
                  "name": "value",
                  "type": "uint256"
                }
              ],
              "internalType": "struct LibAsset.Asset",
              "name": "makeAsset",
              "type": "tuple"
            },
            {
              "internalType": "address",
              "name": "taker",
              "type": "address"
            },
            {
              "components": [
                {
                  "components": [
                    {
                      "internalType": "bytes4",
                      "name": "assetClass",
                      "type": "bytes4"
                    },
                    {
                      "internalType": "bytes",
                      "name": "data",
                      "type": "bytes"
                    }
                  ],
                  "internalType": "struct LibAsset.AssetType",
                  "name": "assetType",
                  "type": "tuple"
                },
                {
                  "internalType": "uint256",
                  "name": "value",
                  "type": "uint256"
                }
              ],
              "internalType": "struct LibAsset.Asset",
              "name": "takeAsset",
              "type": "tuple"
            },
            {
              "internalType": "uint256",
              "name": "salt",
              "type": "uint256"
            },
            {
              "internalType": "uint256",
              "name": "start",
              "type": "uint256"
            },
            {
              "internalType": "uint256",
              "name": "end",
              "type": "uint256"
            },
            {
              "internalType": "bytes4",
              "name": "dataType",
              "type": "bytes4"
            },
            {
              "internalType": "bytes",
              "name": "data",
              "type": "bytes"
            }
          ],
          "indexed": false,
          "internalType": "struct LibOrder.Order",
          "name": "order",
          "type": "tuple"
        }
      ],
      "name": "UpsertOrder",
      "type": "event"
    },
    {
      "inputs": [
        {
          "components": [
            {
              "internalType": "address",
              "name": "maker",
              "type": "address"
            },
            {
              "components": [
                {
                  "components": [
                    {
                      "internalType": "bytes4",
                      "name": "assetClass",
                      "type": "bytes4"
                    },
                    {
                      "internalType": "bytes",
                      "name": "data",
                      "type": "bytes"
                    }
                  ],
                  "internalType": "struct LibAsset.AssetType",
                  "name": "assetType",
                  "type": "tuple"
                },
                {
                  "internalType": "uint256",
                  "name": "value",
                  "type": "uint256"
                }
              ],
              "internalType": "struct LibAsset.Asset",
              "name": "makeAsset",
              "type": "tuple"
            },
            {
              "internalType": "address",
              "name": "taker",
              "type": "address"
            },
            {
              "components": [
                {
                  "components": [
                    {
                      "internalType": "bytes4",
                      "name": "assetClass",
                      "type": "bytes4"
                    },
                    {
                      "internalType": "bytes",
                      "name": "data",
                      "type": "bytes"
                    }
                  ],
                  "internalType": "struct LibAsset.AssetType",
                  "name": "assetType",
                  "type": "tuple"
                },
                {
                  "internalType": "uint256",
                  "name": "value",
                  "type": "uint256"
                }
              ],
              "internalType": "struct LibAsset.Asset",
              "name": "takeAsset",
              "type": "tuple"
            },
            {
              "internalType": "uint256",
              "name": "salt",
              "type": "uint256"
            },
            {
              "internalType": "uint256",
              "name": "start",
              "type": "uint256"
            },
            {
              "internalType": "uint256",
              "name": "end",
              "type": "uint256"
            },
            {
              "internalType": "bytes4",
              "name": "dataType",
              "type": "bytes4"
            },
            {
              "internalType": "bytes",
              "name": "data",
              "type": "bytes"
            }
          ],
          "internalType": "struct LibOrder.Order",
          "name": "order",
          "type": "tuple"
        }
      ],
      "name": "cancel",
      "outputs": [],
      "stateMutability": "nonpayable",
      "type": "function"
    },
    {
      "inputs": [
        {
          "internalType": "bytes32",
          "name": "orderKeyHash",
          "type": "bytes32"
        }
      ],
      "name": "checkOrderExistance",
      "outputs": [
        {
          "internalType": "bool",
          "name": "",
          "type": "bool"
        }
      ],
      "stateMutability": "view",
      "type": "function"
    },
    {
      "inputs": [],
      "name": "defaultFeeReceiver",
      "outputs": [
        {
          "internalType": "address",
          "name": "",
          "type": "address"
        }
      ],
      "stateMutability": "view",
      "type": "function"
    },
    {
      "inputs": [
        {
          "internalType": "address",
          "name": "",
          "type": "address"
        }
      ],
      "name": "feeReceivers",
      "outputs": [
        {
          "internalType": "address",
          "name": "",
          "type": "address"
        }
      ],
      "stateMutability": "view",
      "type": "function"
    },
    {
      "inputs": [
        {
          "internalType": "bytes32",
          "name": "",
          "type": "bytes32"
        }
      ],
      "name": "fills",
      "outputs": [
        {
          "internalType": "uint256",
          "name": "",
          "type": "uint256"
        }
      ],
      "stateMutability": "view",
      "type": "function"
    },
    {
      "inputs": [
        {
          "components": [
            {
              "internalType": "address",
              "name": "maker",
              "type": "address"
            },
            {
              "components": [
                {
                  "components": [
                    {
                      "internalType": "bytes4",
                      "name": "assetClass",
                      "type": "bytes4"
                    },
                    {
                      "internalType": "bytes",
                      "name": "data",
                      "type": "bytes"
                    }
                  ],
                  "internalType": "struct LibAsset.AssetType",
                  "name": "assetType",
                  "type": "tuple"
                },
                {
                  "internalType": "uint256",
                  "name": "value",
                  "type": "uint256"
                }
              ],
              "internalType": "struct LibAsset.Asset",
              "name": "makeAsset",
              "type": "tuple"
            },
            {
              "internalType": "address",
              "name": "taker",
              "type": "address"
            },
            {
              "components": [
                {
                  "components": [
                    {
                      "internalType": "bytes4",
                      "name": "assetClass",
                      "type": "bytes4"
                    },
                    {
                      "internalType": "bytes",
                      "name": "data",
                      "type": "bytes"
                    }
                  ],
                  "internalType": "struct LibAsset.AssetType",
                  "name": "assetType",
                  "type": "tuple"
                },
                {
                  "internalType": "uint256",
                  "name": "value",
                  "type": "uint256"
                }
              ],
              "internalType": "struct LibAsset.Asset",
              "name": "takeAsset",
              "type": "tuple"
            },
            {
              "internalType": "uint256",
              "name": "salt",
              "type": "uint256"
            },
            {
              "internalType": "uint256",
              "name": "start",
              "type": "uint256"
            },
            {
              "internalType": "uint256",
              "name": "end",
              "type": "uint256"
            },
            {
              "internalType": "bytes4",
              "name": "dataType",
              "type": "bytes4"
            },
            {
              "internalType": "bytes",
              "name": "data",
              "type": "bytes"
            }
          ],
          "internalType": "struct LibOrder.Order",
          "name": "orderLeft",
          "type": "tuple"
        },
        {
          "internalType": "bytes",
          "name": "signatureLeft",
          "type": "bytes"
        },
        {
          "components": [
            {
              "internalType": "address",
              "name": "maker",
              "type": "address"
            },
            {
              "components": [
                {
                  "components": [
                    {
                      "internalType": "bytes4",
                      "name": "assetClass",
                      "type": "bytes4"
                    },
                    {
                      "internalType": "bytes",
                      "name": "data",
                      "type": "bytes"
                    }
                  ],
                  "internalType": "struct LibAsset.AssetType",
                  "name": "assetType",
                  "type": "tuple"
                },
                {
                  "internalType": "uint256",
                  "name": "value",
                  "type": "uint256"
                }
              ],
              "internalType": "struct LibAsset.Asset",
              "name": "makeAsset",
              "type": "tuple"
            },
            {
              "internalType": "address",
              "name": "taker",
              "type": "address"
            },
            {
              "components": [
                {
                  "components": [
                    {
                      "internalType": "bytes4",
                      "name": "assetClass",
                      "type": "bytes4"
                    },
                    {
                      "internalType": "bytes",
                      "name": "data",
                      "type": "bytes"
                    }
                  ],
                  "internalType": "struct LibAsset.AssetType",
                  "name": "assetType",
                  "type": "tuple"
                },
                {
                  "internalType": "uint256",
                  "name": "value",
                  "type": "uint256"
                }
              ],
              "internalType": "struct LibAsset.Asset",
              "name": "takeAsset",
              "type": "tuple"
            },
            {
              "internalType": "uint256",
              "name": "salt",
              "type": "uint256"
            },
            {
              "internalType": "uint256",
              "name": "start",
              "type": "uint256"
            },
            {
              "internalType": "uint256",
              "name": "end",
              "type": "uint256"
            },
            {
              "internalType": "bytes4",
              "name": "dataType",
              "type": "bytes4"
            },
            {
              "internalType": "bytes",
              "name": "data",
              "type": "bytes"
            }
          ],
          "internalType": "struct LibOrder.Order",
          "name": "orderRight",
          "type": "tuple"
        },
        {
          "internalType": "bytes",
          "name": "signatureRight",
          "type": "bytes"
        }
      ],
      "name": "matchOrders",
      "outputs": [],
      "stateMutability": "payable",
      "type": "function"
    },
    {
      "inputs": [
        {
          "internalType": "bytes32",
          "name": "",
          "type": "bytes32"
        }
      ],
      "name": "onChainOrders",
      "outputs": [
        {
          "components": [
            {
              "internalType": "address",
              "name": "maker",
              "type": "address"
            },
            {
              "components": [
                {
                  "components": [
                    {
                      "internalType": "bytes4",
                      "name": "assetClass",
                      "type": "bytes4"
                    },
                    {
                      "internalType": "bytes",
                      "name": "data",
                      "type": "bytes"
                    }
                  ],
                  "internalType": "struct LibAsset.AssetType",
                  "name": "assetType",
                  "type": "tuple"
                },
                {
                  "internalType": "uint256",
                  "name": "value",
                  "type": "uint256"
                }
              ],
              "internalType": "struct LibAsset.Asset",
              "name": "makeAsset",
              "type": "tuple"
            },
            {
              "internalType": "address",
              "name": "taker",
              "type": "address"
            },
            {
              "components": [
                {
                  "components": [
                    {
                      "internalType": "bytes4",
                      "name": "assetClass",
                      "type": "bytes4"
                    },
                    {
                      "internalType": "bytes",
                      "name": "data",
                      "type": "bytes"
                    }
                  ],
                  "internalType": "struct LibAsset.AssetType",
                  "name": "assetType",
                  "type": "tuple"
                },
                {
                  "internalType": "uint256",
                  "name": "value",
                  "type": "uint256"
                }
              ],
              "internalType": "struct LibAsset.Asset",
              "name": "takeAsset",
              "type": "tuple"
            },
            {
              "internalType": "uint256",
              "name": "salt",
              "type": "uint256"
            },
            {
              "internalType": "uint256",
              "name": "start",
              "type": "uint256"
            },
            {
              "internalType": "uint256",
              "name": "end",
              "type": "uint256"
            },
            {
              "internalType": "bytes4",
              "name": "dataType",
              "type": "bytes4"
            },
            {
              "internalType": "bytes",
              "name": "data",
              "type": "bytes"
            }
          ],
          "internalType": "struct LibOrder.Order",
          "name": "order",
          "type": "tuple"
        },
        {
          "internalType": "uint256",
          "name": "fee",
          "type": "uint256"
        }
      ],
      "stateMutability": "view",
      "type": "function"
    },
    {
      "inputs": [],
      "name": "owner",
      "outputs": [
        {
          "internalType": "address",
          "name": "",
          "type": "address"
        }
      ],
      "stateMutability": "view",
      "type": "function"
    },
    {
      "inputs": [],
      "name": "protocolFee",
      "outputs": [
        {
          "internalType": "uint256",
          "name": "",
          "type": "uint256"
        }
      ],
      "stateMutability": "view",
      "type": "function"
    },
    {
      "inputs": [],
      "name": "renounceOwnership",
      "outputs": [],
      "stateMutability": "nonpayable",
      "type": "function"
    },
    {
      "inputs": [],
      "name": "royaltiesRegistry",
      "outputs": [
        {
          "internalType": "contract IRoyaltiesProvider",
          "name": "",
          "type": "address"
        }
      ],
      "stateMutability": "view",
      "type": "function"
    },
    {
      "inputs": [
        {
          "internalType": "bytes4",
          "name": "assetType",
          "type": "bytes4"
        },
        {
          "internalType": "address",
          "name": "matcher",
          "type": "address"
        }
      ],
      "name": "setAssetMatcher",
      "outputs": [],
      "stateMutability": "nonpayable",
      "type": "function"
    },
    {
      "inputs": [
        {
          "internalType": "address payable",
          "name": "newDefaultFeeReceiver",
          "type": "address"
        }
      ],
      "name": "setDefaultFeeReceiver",
      "outputs": [],
      "stateMutability": "nonpayable",
      "type": "function"
    },
    {
      "inputs": [
        {
          "internalType": "address",
          "name": "token",
          "type": "address"
        },
        {
          "internalType": "address",
          "name": "wallet",
          "type": "address"
        }
      ],
      "name": "setFeeReceiver",
      "outputs": [],
      "stateMutability": "nonpayable",
      "type": "function"
    },
    {
      "inputs": [
        {
          "internalType": "uint256",
          "name": "newProtocolFee",
          "type": "uint256"
        }
      ],
      "name": "setProtocolFee",
      "outputs": [],
      "stateMutability": "nonpayable",
      "type": "function"
    },
    {
      "inputs": [
        {
          "internalType": "contract IRoyaltiesProvider",
          "name": "newRoyaltiesRegistry",
          "type": "address"
        }
      ],
      "name": "setRoyaltiesRegistry",
      "outputs": [],
      "stateMutability": "nonpayable",
      "type": "function"
    },
    {
      "inputs": [
        {
          "internalType": "bytes4",
          "name": "assetType",
          "type": "bytes4"
        },
        {
          "internalType": "address",
          "name": "proxy",
          "type": "address"
        }
      ],
      "name": "setTransferProxy",
      "outputs": [],
      "stateMutability": "nonpayable",
      "type": "function"
    },
    {
      "inputs": [
        {
          "internalType": "address",
          "name": "newOwner",
          "type": "address"
        }
      ],
      "name": "transferOwnership",
      "outputs": [],
      "stateMutability": "nonpayable",
      "type": "function"
    },
    {
      "inputs": [
        {
          "components": [
            {
              "internalType": "address",
              "name": "maker",
              "type": "address"
            },
            {
              "components": [
                {
                  "components": [
                    {
                      "internalType": "bytes4",
                      "name": "assetClass",
                      "type": "bytes4"
                    },
                    {
                      "internalType": "bytes",
                      "name": "data",
                      "type": "bytes"
                    }
                  ],
                  "internalType": "struct LibAsset.AssetType",
                  "name": "assetType",
                  "type": "tuple"
                },
                {
                  "internalType": "uint256",
                  "name": "value",
                  "type": "uint256"
                }
              ],
              "internalType": "struct LibAsset.Asset",
              "name": "makeAsset",
              "type": "tuple"
            },
            {
              "internalType": "address",
              "name": "taker",
              "type": "address"
            },
            {
              "components": [
                {
                  "components": [
                    {
                      "internalType": "bytes4",
                      "name": "assetClass",
                      "type": "bytes4"
                    },
                    {
                      "internalType": "bytes",
                      "name": "data",
                      "type": "bytes"
                    }
                  ],
                  "internalType": "struct LibAsset.AssetType",
                  "name": "assetType",
                  "type": "tuple"
                },
                {
                  "internalType": "uint256",
                  "name": "value",
                  "type": "uint256"
                }
              ],
              "internalType": "struct LibAsset.Asset",
              "name": "takeAsset",
              "type": "tuple"
            },
            {
              "internalType": "uint256",
              "name": "salt",
              "type": "uint256"
            },
            {
              "internalType": "uint256",
              "name": "start",
              "type": "uint256"
            },
            {
              "internalType": "uint256",
              "name": "end",
              "type": "uint256"
            },
            {
              "internalType": "bytes4",
              "name": "dataType",
              "type": "bytes4"
            },
            {
              "internalType": "bytes",
              "name": "data",
              "type": "bytes"
            }
          ],
          "internalType": "struct LibOrder.Order",
          "name": "order",
          "type": "tuple"
        }
      ],
      "name": "upsertOrder",
      "outputs": [],
      "stateMutability": "payable",
      "type": "function"
    },
    {
      "inputs": [
        {
          "internalType": "contract INftTransferProxy",
          "name": "_transferProxy",
          "type": "address"
        },
        {
          "internalType": "contract IERC20TransferProxy",
          "name": "_erc20TransferProxy",
          "type": "address"
        },
        {
          "internalType": "uint256",
          "name": "newProtocolFee",
          "type": "uint256"
        },
        {
          "internalType": "address",
          "name": "newDefaultFeeReceiver",
          "type": "address"
        },
        {
          "internalType": "contract IRoyaltiesProvider",
          "name": "newRoyaltiesProvider",
          "type": "address"
        }
      ],
      "name": "__ExchangeV2_init",
      "outputs": [],
      "stateMutability": "nonpayable",
      "type": "function"
    }
  ],
  "bytecode": "0x608060405234801561001057600080fd5b50615d0d80620000216000396000f3fe60806040526004361061011f5760003560e01c8063787dce3d116100a0578063c096547d11610064578063c096547d1461030d578063e2864fe314610320578063e66db25e14610340578063e99a3f8014610360578063f2fde38b146103735761011f565b8063787dce3d146102755780638da5cb5b14610295578063979a3583146102aa578063b0e21e8a146102d8578063b39deb46146102ed5761011f565b806330c642f1116100e757806330c642f1146101f65780633abf6fd4146102165780633be899221461022b5780636d8f06941461024b578063715018a6146102605761011f565b806302097ab1146101245780631372a6251461015a57806317dc89741461017c5780631cdfe3d8146101a957806320158c44146101c9575b600080fd5b34801561013057600080fd5b5061014461013f366004614e54565b610393565b604051610151919061558d565b60405180910390f35b34801561016657600080fd5b5061017a610175366004615148565b6103af565b005b34801561018857600080fd5b5061019c610197366004615113565b610483565b60405161015191906155ba565b3480156101b557600080fd5b5061017a6101c4366004614e54565b6104b2565b3480156101d557600080fd5b506101e96101e4366004615113565b610537565b6040516101519190615ad0565b34801561020257600080fd5b5061017a61021136600461512b565b61054a565b34801561022257600080fd5b5061014461061a565b34801561023757600080fd5b5061017a610246366004614e54565b61062a565b34801561025757600080fd5b506101446106af565b34801561026c57600080fd5b5061017a6106bf565b34801561028157600080fd5b5061017a610290366004615113565b61076b565b3480156102a157600080fd5b506101446107d3565b3480156102b657600080fd5b506102ca6102c5366004615113565b6107e2565b604051610151929190615aae565b3480156102e457600080fd5b506101e9610a97565b3480156102f957600080fd5b5061017a61030836600461512b565b610a9e565b61017a61031b36600461537c565b610b62565b34801561032c57600080fd5b5061017a61033b36600461537c565b61121e565b34801561034c57600080fd5b5061017a61035b3660046150a9565b6116f8565b61017a61036e3660046153ae565b611789565b34801561037f57600080fd5b5061017a61038e366004614e54565b611845565b610164602052600090815260409020546001600160a01b031681565b600054610100900460ff16806103c857506103c8611948565b806103d6575060005460ff16155b6104115760405162461bcd60e51b815260040180806020018281038252602e815260200180615c27602e913960400191505060405180910390fd5b600054610100900460ff1615801561043c576000805460ff1961ff0019909116610100171660011790555b610444611959565b61044c6119fb565b6104568686611af4565b610461848484611b9e565b610469611c7a565b801561047b576000805461ff00191690555b505050505050565b600081815261013060205260408120546001600160a01b0316156104a9575060016104ad565b5060005b919050565b6104ba611d4a565b6001600160a01b03166104cb6107d3565b6001600160a01b031614610514576040805162461bcd60e51b81526020600482018190526024820152600080516020615c98833981519152604482015290519081900360640190fd5b61016380546001600160a01b0319166001600160a01b0392909216919091179055565b61012f6020526000908152604090205481565b610552611d4a565b6001600160a01b03166105636107d3565b6001600160a01b0316146105ac576040805162461bcd60e51b81526020600482018190526024820152600080516020615c98833981519152604482015290519081900360640190fd5b6001600160e01b031982166000818152609760205260409081902080546001600160a01b0319166001600160a01b038516179055517f4b5aced933c0c9a88aeac3f0b3b72c5aaf75df8ebaf53225773248c4c31535939061060e90849061558d565b60405180910390a25050565b610163546001600160a01b031681565b610632611d4a565b6001600160a01b03166106436107d3565b6001600160a01b03161461068c576040805162461bcd60e51b81526020600482018190526024820152600080516020615c98833981519152604482015290519081900360640190fd5b61016280546001600160a01b0319166001600160a01b0392909216919091179055565b610162546001600160a01b031681565b6106c7611d4a565b6001600160a01b03166106d86107d3565b6001600160a01b031614610721576040805162461bcd60e51b81526020600482018190526024820152600080516020615c98833981519152604482015290519081900360640190fd5b6033546040516000916001600160a01b0316907f8be0079c531659141344cd1fd0a4f28419497f9722a3daafe3b4186f6b6457e0908390a3603380546001600160a01b0319169055565b610773611d4a565b6001600160a01b03166107846107d3565b6001600160a01b0316146107cd576040805162461bcd60e51b81526020600482018190526024820152600080516020615c98833981519152604482015290519081900360640190fd5b61016155565b6033546001600160a01b031690565b6101306020908152600091825260409182902082516101208101845281546001600160a01b0316815283516080810185526001808401805460e01b6001600160e01b031916838801908152600280870180548a516101009682161596909602600019011691909104601f810189900489028501890190995288845295979496889688820196939486948693606087019391908301828280156108c55780601f1061089a576101008083540402835291602001916108c5565b820191906000526020600020905b8154815290600101906020018083116108a857829003601f168201915b50505091909252505050815260029182015460209182015291835260048401546001600160a01b0316838301526040805160808101825260058601805460e01b6001600160e01b03191682840190815260068801805485516101006001831615026000190190911696909604601f810188900488028701880186528087529490970196929591948694919386936060870193908301828280156109a95780601f1061097e576101008083540402835291602001916109a9565b820191906000526020600020905b81548152906001019060200180831161098c57829003601f168201915b5050509190925250505081526002918201546020918201529183526008840154838301526009840154604080850191909152600a8501546060850152600b85015460e01b6001600160e01b0319166080850152600c8501805482516101006001831615026000190190911693909304601f810185900485028401850190925281835260a0909401939192830182828015610a845780601f10610a5957610100808354040283529160200191610a84565b820191906000526020600020905b815481529060010190602001808311610a6757829003601f168201915b50505091909252505050600d9091015482565b6101615481565b610aa6611d4a565b6001600160a01b0316610ab76107d3565b6001600160a01b031614610b00576040805162461bcd60e51b81526020600482018190526024820152600080516020615c98833981519152604482015290519081900360640190fd5b6001600160e01b031982166000818152606560205260409081902080546001600160a01b0319166001600160a01b038516179055517fd2bf91075f105d0fd80328da28e20ebdad1c1261839711183bc29a44cbe6c72f9061060e90849061558d565b6000610b6d82611d4e565b82519091506001600160a01b0316610b83611d4a565b6001600160a01b031614610bb25760405162461bcd60e51b8152600401610ba9906157fe565b60405180910390fd5b61012f60008281526020019081526020016000205482606001516020015111610bed5760405162461bcd60e51b8152600401610ba990615743565b6000610bf98383611ebd565b905080610c0583610483565b15610f505760008381526101306020908152604080832081516101208101835281546001600160a01b0316815282516080810184526001808401805460e01b6001600160e01b0319168387019081526002808701805489516101009682161596909602600019011691909104601f81018a90048a0285018a01909852878452610eba9895978887019693948694869360608701939091830182828015610cec5780601f10610cc157610100808354040283529160200191610cec565b820191906000526020600020905b815481529060010190602001808311610ccf57829003601f168201915b50505091909252505050815260029182015460209182015291835260048401546001600160a01b0316838301526040805160808101825260058601805460e01b6001600160e01b03191682840190815260068801805485516101006001831615026000190190911696909604601f81018890048802870188018652808752949097019692959194869491938693606087019390830182828015610dd05780601f10610da557610100808354040283529160200191610dd0565b820191906000526020600020905b815481529060010190602001808311610db357829003601f168201915b5050509190925250505081526002918201546020918201529183526008840154838301526009840154604080850191909152600a8501546060850152600b85015460e01b6001600160e01b0319166080850152600c8501805482516101006001831615026000190190911693909304601f810185900485028401850190925281835260a0909401939192830182828015610eab5780601f10610e8057610100808354040283529160200191610eab565b820191906000526020600020905b815481529060010190602001808311610e8e57829003601f168201915b50505050508152505085611ebd565b9050808311610eca576000610ed4565b610ed48382611f0e565b91506000838211610ee6576000610ef0565b610ef08285611f0e565b9050610f4d60405180604001604052808860200151600001518152602001838152503088600001517f12755a21b06621963f5494677d2471a10330ef7ad5d571bc17b92582968032d0600080516020615cb8833981519152611f6b565b50505b602084015151516001600160e01b0319166355575f5d60e11b141561108857606084015151516001600160e01b0319166355575f5d60e11b1415610fa65760405162461bcd60e51b8152600401610ba9906157b2565b80341015610fc65760405162461bcd60e51b8152600401610ba9906159ab565b8015611062576040805180820182526020808701515182528101839052855191517fcae9d16f553e92058883de29cb3135dbc0c1e31fd7eace79fef1d80577fe482e92611059929130907f8e9742dda957f51c3e385ce6ed07f0b7acc2bf98484e3acc9bd1a8c7c2a918f3907ffc530b24510b924664e4cc98bd27ba37fd804f8cb2b1743b1bc15525a944ae9390615a50565b60405180910390a15b80341115611088576110886110773483611f0e565b85516001600160a01b031690611f8d565b61109061202a565b600084815261013060209081526040909120600d810192909255855182546001600160a01b0319166001600160a01b03909116178255858101518051805160018501805463ffffffff191660e09290921c9190911781558184015180518a96959293928492611108926002890192919091019061493d565b5050506020918201516002919091015560408301516004830180546001600160a01b0319166001600160a01b0390921691909117905560608301518051805160058501805463ffffffff191660e09290921c91909117815581840151805193949193849261117d92600689019291019061493d565b505050602091820151600291909101556080830151600883015560a0830151600983015560c0830151600a83015560e080840151600b8401805463ffffffff19169190921c17905561010083015180516111dd92600c850192019061493d565b509050507f1acc8aca73f063aff7288a5f63824311301634d60a04d06437f67d5f0604bd19846040516112109190615a9b565b60405180910390a150505050565b80516001600160a01b0316611231611d4a565b6001600160a01b0316146112575760405162461bcd60e51b8152600401610ba9906159d3565b60808101516112785760405162461bcd60e51b8152600401610ba990615784565b600061128382611d4e565b905061128e81610483565b156116935760008181526101306020908152604080832081516101208101835281546001600160a01b0316815282516080810184526001808401805460e01b6001600160e01b0319168387019081526002808701805489516101009682161596909602600019011691909104601f81018a90048a0285018a01909852878452949795968887019694959294869492938693606087019390928301828280156113775780601f1061134c57610100808354040283529160200191611377565b820191906000526020600020905b81548152906001019060200180831161135a57829003601f168201915b50505091909252505050815260029182015460209182015291835260048401546001600160a01b0316838301526040805160808101825260058601805460e01b6001600160e01b03191682840190815260068801805485516101006001831615026000190190911696909604601f8101889004880287018801865280875294909701969295919486949193869360608701939083018282801561145b5780601f106114305761010080835404028352916020019161145b565b820191906000526020600020905b81548152906001019060200180831161143e57829003601f168201915b5050509190925250505081526002918201546020918201529183526008840154838301526009840154604080850191909152600a8501546060850152600b85015460e01b6001600160e01b0319166080850152600c8501805482516101006001831615026000190190911693909304601f810185900485028401850190925281835260a09094019391928301828280156115365780601f1061150b57610100808354040283529160200191611536565b820191906000526020600020905b81548152906001019060200180831161151957829003601f168201915b50505091909252505050602081015151519091506001600160e01b0319166355575f5d60e11b14156115c3576115c3604051806040016040528083602001516000015181526020016115888486611ebd565b9052825130907f12755a21b06621963f5494677d2471a10330ef7ad5d571bc17b92582968032d0600080516020615cb8833981519152611f6b565b60008281526101306020526040812080546001600160a01b031916815560018101805463ffffffff191681559091908290829081818161160660028701826149c9565b50506000600292909201829055506004830180546001600160a01b031916905560058301805463ffffffff1916815590818161164560068701826149c9565b50506000600292909201829055506008830181905560098301819055600a8301819055600b8301805463ffffffff1916905561168590600c8401906149c9565b5050600d8201600090555050505b600081815261012f602090815260409182902060001990558351908401515160608501515192517fbbdc98cb2835f4f846e6a63700d0498b4674f0e8858fd50c6379314227afa04e936116ec93869390929091906155c5565b60405180910390a15050565b611700611d4a565b6001600160a01b03166117116107d3565b6001600160a01b03161461175a576040805162461bcd60e51b81526020600482018190526024820152600080516020615c98833981519152604482015290519081900360640190fd5b6001600160a01b0391821660009081526101646020526040902080546001600160a01b03191691909216179055565b6117938484612031565b61179d8282612031565b60408401516001600160a01b0316156117e95783604001516001600160a01b031682600001516001600160a01b0316146117e95760405162461bcd60e51b8152600401610ba990615968565b60408201516001600160a01b0316156118355783600001516001600160a01b031682604001516001600160a01b0316146118355760405162461bcd60e51b8152600401610ba99061586c565b61183f8483612064565b50505050565b61184d611d4a565b6001600160a01b031661185e6107d3565b6001600160a01b0316146118a7576040805162461bcd60e51b81526020600482018190526024820152600080516020615c98833981519152604482015290519081900360640190fd5b6001600160a01b0381166118ec5760405162461bcd60e51b8152600401808060200182810382526026815260200180615b926026913960400191505060405180910390fd5b6033546040516001600160a01b038084169216907f8be0079c531659141344cd1fd0a4f28419497f9722a3daafe3b4186f6b6457e090600090a3603380546001600160a01b0319166001600160a01b0392909216919091179055565b600061195330612152565b15905090565b600054610100900460ff16806119725750611972611948565b80611980575060005460ff16155b6119bb5760405162461bcd60e51b815260040180806020018281038252602e815260200180615c27602e913960400191505060405180910390fd5b600054610100900460ff161580156119e6576000805460ff1961ff0019909116610100171660011790555b80156119f8576000805461ff00191690555b50565b600054610100900460ff1680611a145750611a14611948565b80611a22575060005460ff16155b611a5d5760405162461bcd60e51b815260040180806020018281038252602e815260200180615c27602e913960400191505060405180910390fd5b600054610100900460ff16158015611a88576000805460ff1961ff0019909116610100171660011790555b6000611a92611d4a565b603380546001600160a01b0319166001600160a01b038316908117909155604051919250906000907f8be0079c531659141344cd1fd0a4f28419497f9722a3daafe3b4186f6b6457e0908290a35080156119f8576000805461ff001916905550565b60976020527f4532fa16f071d6234e30e1a1e69b9806f04095edf37a1ca7a25c8d6af7861cc080546001600160a01b039283166001600160a01b0319918216179091557f30a684095c937b5aa064dcf94f9903a7d808e3efb22d8389dbd43080ad4ed3d5805493909216928116831790915563025ceed960e61b6000527f4b5822151ea34b7c8d9e37c3e466bcecb631efe6a9f26a4a4054110a93dd316f80549091169091179055565b600054610100900460ff1680611bb75750611bb7611948565b80611bc5575060005460ff16155b611c005760405162461bcd60e51b815260040180806020018281038252602e815260200180615c27602e913960400191505060405180910390fd5b600054610100900460ff16158015611c2b576000805460ff1961ff0019909116610100171660011790555b61016184905561016380546001600160a01b038086166001600160a01b031992831617909255610162805492851692909116919091179055801561183f576000805461ff001916905550505050565b600054610100900460ff1680611c935750611c93611948565b80611ca1575060005460ff16155b611cdc5760405162461bcd60e51b815260040180806020018281038252602e815260200180615c27602e913960400191505060405180910390fd5b600054610100900460ff16158015611d07576000805460ff1961ff0019909116610100171660011790555b6119e66040518060400160405280600881526020016745786368616e676560c01b815250604051806040016040528060018152602001601960f91b815250612158565b3390565b60e08101516000906001600160e01b0319166323d235ef60e01b1415611e4d578151602083015151611d7f90612218565b606084015151611d8e90612218565b846080015185610100015160405160200180866001600160a01b0316815260200185815260200184815260200183815260200180602001828103825283818151815260200191508051906020019080838360005b83811015611dfa578181015183820152602001611de2565b50505050905090810190601f168015611e275780820380516001836020036101000a031916815260200191505b5096505050505050506040516020818303038152906040528051906020012090506104ad565b8151602083015151611e5e90612218565b606084015151611e6d90612218565b846080015160405160200180856001600160a01b031681526020018481526020018381526020018281526020019450505050506040516020818303038152906040528051906020012090506104ad565b600080611ec984612282565b90506000611ee585611edb8787612386565b84604001516123b3565b5090506000611f0282611ef8888861242d565b8560200151612461565b93505050505b92915050565b600082821115611f65576040805162461bcd60e51b815260206004820152601e60248201527f536166654d6174683a207375627472616374696f6e206f766572666c6f770000604482015290519081900360640190fd5b50900390565b6020850151611f7957611f86565b611f8685858584866124d4565b5050505050565b6040516000906001600160a01b0384169083908381818185875af1925050503d8060008114611fd8576040519150601f19603f3d011682016040523d82523d6000602084013e611fdd565b606091505b5050905080612025576040805162461bcd60e51b815260206004820152600f60248201526e1d1c985b9cd9995c8819985a5b1959608a1b604482015290519081900360640190fd5b505050565b6101615490565b61203a8261285b565b61204c8261204784611d4e565b612925565b1561205657612060565b6120608282612bf4565b5050565b60006120708383612e7d565b9050600061207d84611d4e565b9050600061208a84611d4e565b9050600061209786612282565b905060006120a486612282565b905060006120b6888887878787612f09565b90506000806120c988848c8c8989613034565b915091506120dc888b8b8a8a87876131c8565b6120e68a886132c7565b6120f089876132c7565b8951895160208086015186518c51928d01516040517f268820db288a211986b26a8fda86b1e0046281b21206936bb0e61c67b5c79ef49661213e968f968f969295919492939192909161560c565b60405180910390a150505050505050505050565b3b151590565b600054610100900460ff16806121715750612171611948565b8061217f575060005460ff16155b6121ba5760405162461bcd60e51b815260040180806020018281038252602e815260200180615c27602e913960400191505060405180910390fd5b600054610100900460ff161580156121e5576000805460ff1961ff0019909116610100171660011790555b825160208085019190912083519184019190912060c99190915560ca558015612025576000805461ff0019169055505050565b8051602091820151805190830120604080517f452a0dc408cb0d27ffc3b3caff933a5208040a53a9dbecd8d89cad2c0d40e00c818601526001600160e01b031990931683820152606080840192909252805180840390920182526080909201909152805191012090565b61228a614a0d565b60e08201516001600160e01b031916632611a13360e11b14156122d25760006122b78361010001516133d2565b8051835260209081015190830152506000604082015261236d565b60e08201516001600160e01b0319166323d235ef60e01b1415612304576122fd8261010001516133ee565b905061236d565b60e08201516001600160e01b031990811614156123205761236d565b6040805162461bcd60e51b815260206004820152601760248201527f556e6b6e6f776e204f7264657220646174612074797065000000000000000000604482015290519081900360640190fd5b8051516104ad57815161237f9061340a565b8152919050565b600082608001516000141561239d57506000611f08565b50600090815261012f6020526040902054919050565b60008082156123f25760208086015101516123ce9085611f0e565b91506123eb856060015160200151866020015160200151846134a5565b9050612425565b6060850151602001516124059085611f0e565b9050612422856020015160200151866060015160200151836134a5565b91505b935093915050565b60006124398383612925565b156124575750600081815261013060205260409020600d0154611f08565b5061016154611f08565b60006124776124708585613511565b859061352a565b905060005b82518110156124cc576124c26124bb84838151811061249757fe5b6020026020010151602001516001600160601b03168761351190919063ffffffff16565b839061352a565b915060010161247c565b509392505050565b8451516001600160e01b0319166355575f5d60e11b141561250d576020850151612508906001600160a01b03851690611f8d565b612815565b8451516001600160e01b0319166322ba176160e21b14156125eb5760008560000151602001518060200190518101906125469190614e70565b6322ba176160e21b600052609760209081527f4532fa16f071d6234e30e1a1e69b9806f04095edf37a1ca7a25c8d6af7861cc0549088015160405163776062c360e01b81529293506001600160a01b039091169163776062c3916125b39185918a918a91906004016156ab565b600060405180830381600087803b1580156125cd57600080fd5b505af11580156125e1573d6000803e3d6000fd5b5050505050612815565b8451516001600160e01b0319166339d690a360e11b14156126eb57600080866000015160200151806020019051810190612625919061507c565b91509150866020015160011461264d5760405162461bcd60e51b8152600401610ba9906158b0565b6339d690a360e11b60005260976020527f30a684095c937b5aa064dcf94f9903a7d808e3efb22d8389dbd43080ad4ed3d554604051637b84dc8360e11b81526001600160a01b039091169063f709b906906126b29085908a908a9087906004016156ab565b600060405180830381600087803b1580156126cc57600080fd5b505af11580156126e0573d6000803e3d6000fd5b505050505050612815565b8451516001600160e01b03191663025ceed960e61b141561279457600080866000015160200151806020019051810190612725919061507c565b63025ceed960e61b600052609760209081527f4b5822151ea34b7c8d9e37c3e466bcecb631efe6a9f26a4a4054110a93dd316f54908a0151604051639c1c2ee960e01b81529395509193506001600160a01b031691639c1c2ee9916126b29186918b918b918891600401615668565b8451516001600160e01b031916600090815260976020526040908190205490516354bc0cf160e01b81526001600160a01b03909116906354bc0cf1906127e290889088908890600401615a1d565b600060405180830381600087803b1580156127fc57600080fd5b505af1158015612810573d6000803e3d6000fd5b505050505b7fcae9d16f553e92058883de29cb3135dbc0c1e31fd7eace79fef1d80577fe482e858585858560405161284c959493929190615a50565b60405180910390a15050505050565b60a0810151158061286f5750428160a00151105b6128c0576040805162461bcd60e51b815260206004820152601d60248201527f4f726465722073746172742076616c69646174696f6e206661696c6564000000604482015290519081900360640190fd5b60c081015115806128d45750428160c00151115b6119f8576040805162461bcd60e51b815260206004820152601b60248201527f4f7264657220656e642076616c69646174696f6e206661696c65640000000000604482015290519081900360640190fd5b60008181526101306020908152604080832081516101208101835281546001600160a01b0316815282516080810184526001808401805460e01b6001600160e01b0319168387019081526002808701805489516101009682161596909602600019011691909104601f81018a90048a0285018a01909852878452612bd49895978887019693948694869360608701939091830182828015612a075780601f106129dc57610100808354040283529160200191612a07565b820191906000526020600020905b8154815290600101906020018083116129ea57829003601f168201915b50505091909252505050815260029182015460209182015291835260048401546001600160a01b0316838301526040805160808101825260058601805460e01b6001600160e01b03191682840190815260068801805485516101006001831615026000190190911696909604601f81018890048802870188018652808752949097019692959194869491938693606087019390830182828015612aeb5780601f10612ac057610100808354040283529160200191612aeb565b820191906000526020600020905b815481529060010190602001808311612ace57829003601f168201915b5050509190925250505081526002918201546020918201529183526008840154838301526009840154604080850191909152600a8501546060850152600b85015460e01b6001600160e01b0319166080850152600c8501805482516101006001831615026000190190911693909304601f810185900485028401850190925281835260a0909401939192830182828015612bc65780601f10612b9b57610100808354040283529160200191612bc6565b820191906000526020600020905b815481529060010190602001808311612ba957829003601f168201915b505050505081525050613584565b612bdd84613584565b1415612beb57506001611f08565b50600092915050565b6080820151612c925781516001600160a01b031615612c795781516001600160a01b0316612c20611d4a565b6001600160a01b031614612c74576040805162461bcd60e51b815260206004820152601660248201527536b0b5b2b91034b9903737ba103a3c1039b2b73232b960511b604482015290519081900360640190fd5b612c8d565b612c81611d4a565b6001600160a01b031682525b612060565b81516001600160a01b0316612ca5611d4a565b6001600160a01b031614612060576000612cbe83613584565b90506000825160411415612ce257612cdf83612cd984613674565b906136c0565b90505b83516001600160a01b0382811691161461183f578351612d0a906001600160a01b0316612152565b15612e46578351630b135d3f60e11b906001600160a01b0316631626ba7e612d3185613674565b866040518363ffffffff1660e01b81526004018083815260200180602001828103825283818151815260200191508051906020019080838360005b83811015612d84578181015183820152602001612d6c565b50505050905090810190601f168015612db15780820380516001836020036101000a031916815260200191505b50935050505060206040518083038186803b158015612dcf57600080fd5b505afa158015612de3573d6000803e3d6000fd5b505050506040513d6020811015612df957600080fd5b50516001600160e01b03191614612e415760405162461bcd60e51b815260040180806020018281038252602b815260200180615bfc602b913960400191505060405180910390fd5b61183f565b60405162461bcd60e51b8152600401808060200182810382526022815260200180615bda6022913960400191505060405180910390fd5b612e85614a30565b602083015151606083015151612e9b9190613736565b808252516001600160e01b031916612ec55760405162461bcd60e51b8152600401610ba99061593c565b606083015151602083015151612edb9190613736565b60208201819052516001600160e01b031916611f085760405162461bcd60e51b8152600401610ba99061593c565b612f11614a55565b6000612f1d8887612386565b90506000612f2b8887612386565b90506000612f458a8a85858a604001518a60400151613776565b905060008160200151118015612f5b5750805115155b612f775760405162461bcd60e51b8152600401610ba9906158dc565b60808a015115612fce57856040015115612fad578051612f9890849061352a565b600089815261012f6020526040902055612fce565b6020810151612fbd90849061352a565b600089815261012f60205260409020555b60808901511561302557846040015115613007576020810151612ff290839061352a565b600088815261012f6020526040902055613025565b805161301490839061352a565b600088815261012f60205260409020555b925050505b9695505050505050565b600080600061304d87878b600001518c602001516137fc565b885160208a01519094509250905060018160400151600281111561306d57fe5b14156130e1576130b3886000015188600001518388888e600001518f602001517f1a0388dd7519a093630516a672419a2562e0e74deb98af068657dc265f0164c96138d3565b6020808b0151908a0151885188519396506130dc93600080516020615cb883398151915261399a565b6131bc565b6002816040015160028111156130f357fe5b141561315c57613127886020015187600001518387898e602001518f60000151600080516020615cb88339815191526138d3565b89518951895187519395506130dc937f1a0388dd7519a093630516a672419a2562e0e74deb98af068657dc265f0164c961399a565b8851885188518651613191939291907f1a0388dd7519a093630516a672419a2562e0e74deb98af068657dc265f0164c961399a565b6131bc8960200151896020015188600001518860000151600080516020615cb883398151915261399a565b50965096945050505050565b60006131d687878787613b35565b8851519091506001600160e01b0319166355575f5d60e11b1480156131f85750805b15613261576020880151516001600160e01b0319166355575f5d60e11b141561322057600080fd5b823410156132405760405162461bcd60e51b8152600401610ba9906159ab565b8234111561325c5761325c6132553485611f0e565b3390611f8d565b6132bd565b6020880151516001600160e01b0319166355575f5d60e11b1480156132835750805b156132bd57813410156132a85760405162461bcd60e51b8152600401610ba9906159ab565b813411156132bd576132bd6132553484611f0e565b5050505050505050565b6132d18282612925565b6132da57612060565b60006132f86132e98484612386565b60608501516020015190611f0e565b9050806120255760008281526101306020526040812080546001600160a01b031916815560018101805463ffffffff191681559091908290829081818161334260028701826149c9565b50506000600292909201829055506004830180546001600160a01b031916905560058301805463ffffffff1916815590818161338160068701826149c9565b50506000600292909201829055506008830181905560098301819055600a8301819055600b8301805463ffffffff191690556133c190600c8401906149c9565b5050600d8201600090555050505050565b6133da614a6f565b81806020019051810190611f08919061523a565b6133f6614a0d565b81806020019051810190611f0891906152c6565b60408051600180825281830190925260609160009190816020015b61342d614a89565b815260200190600190039081613425579050509050828160008151811061345057fe5b6020026020010151600001906001600160a01b031690816001600160a01b0316815250506127108160008151811061348457fe5b6020908102919091018101516001600160601b039092169101529050919050565b60006134b2848484613bad565b156134f5576040805162461bcd60e51b815260206004820152600e60248201526d3937bab73234b7339032b93937b960911b604482015290519081900360640190fd5b613509836135038685613c3c565b90613c95565b949350505050565b60006135236127106135038585613c3c565b9392505050565b600082820183811015613523576040805162461bcd60e51b815260206004820152601b60248201527f536166654d6174683a206164646974696f6e206f766572666c6f770000000000604482015290519081900360640190fd5b60007f477ed43b8020849b755512278536c3766a3b4ab547519949a75f483372493f8d82600001516135b98460200151613cfc565b84604001516135cb8660600151613cfc565b86608001518760a001518860c001518960e001518a610100015180519060200120604051602001808b81526020018a6001600160a01b03168152602001898152602001886001600160a01b03168152602001878152602001868152602001858152602001848152602001836001600160e01b03191681526020018281526020019a5050505050505050505050604051602081830303815290604052805190602001209050919050565b600061367e613d6c565b82604051602001808061190160f01b81525060020183815260200182815260200192505050604051602081830303815290604052805190602001209050919050565b60008151604114613718576040805162461bcd60e51b815260206004820152601f60248201527f45434453413a20696e76616c6964207369676e6174757265206c656e67746800604482015290519081900360640190fd5b60208201516040830151606084015160001a611f0286828585613dac565b61373e614aa0565b600061374a8484614002565b80519091506001600160e01b03191661376f576137678385614002565b915050611f08565b9050611f08565b61377e614a55565b60008061378c8988876123b3565b9150915060008061379e8a89886123b3565b91509150838111156137d1576137c684848c60200151602001518d606001516020015161421e565b94505050505061302a565b6137ed8b60200151602001518c606001516020015184846142a3565b9b9a5050505050505050505050565b613804614ab8565b61380c614ab8565b8351835161381a9190614329565b8160400190600281111561382a57fe5b9081600281111561383757fe5b905250600061384e8761384981611d4e565b61242d565b9050600061385f8761384989611d4e565b905060018360400151600281111561387357fe5b141561388857818352602083018190526138c7565b60028360400151600281111561389a57fe5b14156138af57808352602083018290526138c7565b60405162461bcd60e51b8152600401610ba990615835565b50909695505050505050565b60006138e88988600001518860200151612461565b905060006138fa828b8b8b89886143f1565b905061390a8585838d8d886144e2565b905061393f85828c8a602001518d887fdfdfdaf4cc275341b6776a7ee23b953990b8d991717449077287da70f32cf955614548565b508091505061397785828c89602001518d887fdfdfdaf4cc275341b6776a7ee23b953990b8d991717449077287da70f32cf955614548565b508091505061398d85828b89600001518761399a565b5098975050505050505050565b600084815b6001855103811015613a8a5760006139e08683815181106139bc57fe5b6020026020010151602001516001600160601b03168961351190919063ffffffff16565b9050613a158683815181106139f157fe5b6020026020010151602001516001600160601b03168561352a90919063ffffffff16565b93508015613a8157613a278382611f0e565b9250613a8160405180604001604052808b81526020018381525088888581518110613a4e57fe5b602002602001015160000151887fa10bb5b2060a412d05113732875a5431ca23453eb93f797e0ffcb5b40e5f2c3e6124d4565b5060010161399f565b50600084600186510381518110613a9d57fe5b60200260200101519050613ac781602001516001600160601b03168461352a90919063ffffffff16565b92508261271014613aea5760405162461bcd60e51b8152600401610ba990615905565b81156132bd576132bd60405180604001604052808a815260200184815250878360000151877fa10bb5b2060a412d05113732875a5431ca23453eb93f797e0ffcb5b40e5f2c3e6124d4565b602084015151516000906001600160e01b0319166355575f5d60e11b1415613b6d57613b618584612925565b613b6d57506001613509565b602084015151516001600160e01b0319166355575f5d60e11b1415613ba257613b968483612925565b613ba257506001613509565b506000949350505050565b600082613bf4576040805162461bcd60e51b815260206004820152601060248201526f6469766973696f6e206279207a65726f60801b604482015290519081900360640190fd5b811580613bff575083155b15613c0c57506000613523565b60008380613c1657fe5b8584099050613c258584613c3c565b613c31826103e8613c3c565b101595945050505050565b600082613c4b57506000611f08565b82820282848281613c5857fe5b04146135235760405162461bcd60e51b8152600401808060200182810382526021815260200180615c776021913960400191505060405180910390fd5b6000808211613ceb576040805162461bcd60e51b815260206004820152601a60248201527f536166654d6174683a206469766973696f6e206279207a65726f000000000000604482015290519081900360640190fd5b818381613cf457fe5b049392505050565b60007fdb6f72e915676cfc289da13bc4ece054fd17b1df6d77ffc4a60510718c236b08613d2c8360000151612218565b8360200151604051602001808481526020018381526020018281526020019350505050604051602081830303815290604052805190602001209050919050565b6000613da77f8b73c3c69bb8fe3d512ecc4cf759cc79239f7b179b0ffacaa9a75d522b39400f613d9a614616565b613da261461c565b614622565b905090565b60007f7fffffffffffffffffffffffffffffff5d576e7357a4501ddfe92f46681b20a0821115613e0d5760405162461bcd60e51b8152600401808060200182810382526022815260200180615bb86022913960400191505060405180910390fd5b6000601e8560ff161115613ee7576004850360ff16601b1480613e3657506004850360ff16601c145b613e715760405162461bcd60e51b8152600401808060200182810382526022815260200180615c556022913960400191505060405180910390fd5b6001613e7c87614684565b60048703868660405160008152602001604052604051808581526020018460ff1681526020018381526020018281526020019450505050506020604051602081039080840390855afa158015613ed6573d6000803e3d6000fd5b505050602060405103519050613f9e565b8460ff16601b1480613efc57508460ff16601c145b613f375760405162461bcd60e51b8152600401808060200182810382526022815260200180615c556022913960400191505060405180910390fd5b60018686868660405160008152602001604052604051808581526020018460ff1681526020018381526020018281526020019450505050506020604051602081039080840390855afa158015613f91573d6000803e3d6000fd5b5050506020604051035190505b6001600160a01b038116613ff9576040805162461bcd60e51b815260206004820152601860248201527f45434453413a20696e76616c6964207369676e61747572650000000000000000604482015290519081900360640190fd5b95945050505050565b61400a614aa0565b825182516001600160e01b031982166355575f5d60e11b1415614075576001600160e01b031981166355575f5d60e11b141561404a578492505050611f08565b5050604080518082018252600080825282516020818101909452908152918101919091529050611f08565b6001600160e01b031982166322ba176160e21b14156140ba576001600160e01b031981166322ba176160e21b141561404a576140b185856146d5565b92505050611f08565b6001600160e01b031982166339d690a360e11b14156140f6576001600160e01b031981166339d690a360e11b141561404a576140b185856146d5565b6001600160e01b0319821663025ceed960e61b1415614132576001600160e01b0319811663025ceed960e61b141561404a576140b185856146d5565b6001600160e01b031982166000908152606560205260409020546001600160a01b031680156141e7576040516306d3f7cb60e41b81526001600160a01b03821690636d3f7cb09061418990899089906004016159f8565b60006040518083038186803b1580156141a157600080fd5b505afa1580156141b5573d6000803e3d6000fd5b505050506040513d6000823e601f3d908101601f191682016040526141dd91908101906151af565b9350505050611f08565b6001600160e01b03198381169083161415614206576141dd86866146d5565b60405162461bcd60e51b8152600401610ba9906156d5565b614226614a55565b60006142338585856134a5565b90508581111561428a576040805162461bcd60e51b815260206004820152601860248201527f66696c6c4c6566743a20756e61626c6520746f2066696c6c0000000000000000604482015290519081900360640190fd5b5050604080518082019091529384525050602082015290565b6142ab614a55565b60006142b88387876134a5565b90508381111561430f576040805162461bcd60e51b815260206004820152601960248201527f66696c6c52696768743a20756e61626c6520746f2066696c6c00000000000000604482015290519081900360640190fd5b604080518082019091529283526020830152509392505050565b60006001600160e01b031983166355575f5d60e11b141561434c57506001611f08565b6001600160e01b031982166355575f5d60e11b141561436d57506002611f08565b6001600160e01b031983166322ba176160e21b141561438e57506001611f08565b6001600160e01b031982166322ba176160e21b14156143af57506002611f08565b6001600160e01b0319831663025ceed960e61b14156143d057506001611f08565b6001600160e01b0319821663025ceed960e61b1415612beb57506002611f08565b600080600061440b89898860200151896000015101614732565b909250905080156144d65784516000906001600160e01b0319166322ba176160e21b141561445257856020015180602001905181019061444b9190614e70565b905061448b565b85516001600160e01b03191663025ceed960e61b141561448b5760008660200151806020019051810190614486919061507c565b509150505b6144d4604051806040016040528088815260200184815250896144ad84614754565b887ff87e69cb514f255f3d32f9d90f25160a10d0cdefe6618a6406db334d4450595c6124d4565b505b50979650505050505050565b6000806144ee87614793565b90506000806145228a8989868a8a7fb3c5c697ec0b511b76d12f6293e6ee827b1e1df79ac7c64d0466d945904893d7614548565b9150915061138881111561398d5760405162461bcd60e51b8152600401610ba99061570c565b856000805b86518110156146095761458987828151811061456557fe5b6020026020010151602001516001600160601b03168361352a90919063ffffffff16565b91506000806145b9858b8b868151811061459f57fe5b6020026020010151602001516001600160601b0316614732565b909550859250905080156145ff576145ff60405180604001604052808e815260200183815250898b86815181106145ec57fe5b6020026020010151600001518a8a6124d4565b505060010161454d565b5097509795505050505050565b60c95490565b60ca5490565b600083838361462f61490c565b3060405160200180868152602001858152602001848152602001838152602001826001600160a01b03168152602001955050505050506040516020818303038152906040528051906020012090509392505050565b604080517f19457468657265756d205369676e6564204d6573736167653a0a333200000000602080830191909152603c8083019490945282518083039094018452605c909101909152815191012090565b6146dd614aa0565b60208084015180519082012083820151805192019190912080821415614707578492505050611f08565b5050604080518082018252600080825282516020808201909452908152918101919091529392505050565b600080614748856147438686613511565b614910565b91509150935093915050565b6001600160a01b0380821660009081526101646020526040812054909116801561477f5790506104ad565b5050610163546001600160a01b0316919050565b80516060906001600160e01b03191663025ceed960e61b14806147c7575081516001600160e01b0319166339d690a360e11b145b1561487d5760008083602001518060200190518101906147e7919061507c565b61016254604051634e53ee3d60e11b81529294509092506001600160a01b031690639ca7dc7a9061481e90859085906004016155a1565b600060405180830381600087803b15801561483857600080fd5b505af115801561484c573d6000803e3d6000fd5b505050506040513d6000823e601f3d908101601f1916820160405261487491908101906150e1565b925050506104ad565b81516001600160e01b03191662737ea960e61b14156148c05760008083602001518060200190518101906148b19190614e8c565b6080015193506104ad92505050565b81516001600160e01b03191663d8f960c160e01b14156149045760008083602001518060200190518101906148f59190614f89565b6060015193506104ad92505050565b506060919050565b4690565b6000808284111561492f576149258484611f0e565b9150829050614936565b5060009050825b9250929050565b828054600181600116156101000203166002900490600052602060002090601f01602090048101928261497357600085556149b9565b82601f1061498c57805160ff19168380011785556149b9565b828001600101855582156149b9579182015b828111156149b957825182559160200191906001019061499e565b506149c5929150614ade565b5090565b50805460018160011615610100020316600290046000825580601f106149ef57506119f8565b601f0160209004906000526020600020908101906119f89190614ade565b604051806060016040528060608152602001606081526020016000151581525090565b6040518060400160405280614a43614aa0565b8152602001614a50614aa0565b905290565b604051806040016040528060008152602001600081525090565b604051806040016040528060608152602001606081525090565b604080518082019091526000808252602082015290565b60408051808201909152600081526060602082015290565b6040518060600160405280600081526020016000815260200160006002811115614a5057fe5b5b808211156149c55760008155600101614adf565b80356104ad81615b66565b600082601f830112614b0e578081fd5b81516020614b23614b1e83615afc565b615ad9565b82815281810190858301855b85811015614b5857614b46898684518b0101614c77565b84529284019290840190600101614b2f565b5090979650505050505050565b600082601f830112614b75578081fd5b81516020614b85614b1e83615afc565b82815281810190858301604080860288018501891015614ba3578687fd5b865b86811015614c125781838b031215614bbb578788fd5b81518281018181106001600160401b0382111715614bd557fe5b83528351614be281615b66565b8152838701516001600160601b0381168114614bfc57898afd5b8188015285529385019391810191600101614ba5565b509198975050505050505050565b80356104ad81615b7b565b600082601f830112614c3b578081fd5b8135614c49614b1e82615b19565b818152846020838601011115614c5d578283fd5b816020850160208301379081016020019190915292915050565b600082601f830112614c87578081fd5b8151614c95614b1e82615b19565b818152846020838601011115614ca9578283fd5b613509826020830160208701615b3a565b60006040808385031215614ccc578182fd5b80518181016001600160401b038282108183111715614ce757fe5b818452829450853581811115614cfc57600080fd5b8601808803851315614d0d57600080fd5b608084018381108382111715614d1f57fe5b909452833593614d2e85615b7b565b93825260208401359381851115614d4457600080fd5b614d5088868301614c2b565b60608501525050815260209384013593019290925292915050565b6000610120808385031215614d7e578182fd5b614d8781615ad9565b915050614d9382614af3565b815260208201356001600160401b0380821115614daf57600080fd5b614dbb85838601614cba565b6020840152614dcc60408501614af3565b60408401526060840135915080821115614de557600080fd5b614df185838601614cba565b60608401526080840135608084015260a084013560a084015260c084013560c0840152614e2060e08501614c20565b60e084015261010091508184013581811115614e3b57600080fd5b614e4786828701614c2b565b8385015250505092915050565b600060208284031215614e65578081fd5b813561352381615b66565b600060208284031215614e81578081fd5b815161352381615b66565b60008060408385031215614e9e578081fd5b8251614ea981615b66565b60208401519092506001600160401b0380821115614ec5578283fd5b9084019060c08287031215614ed8578283fd5b614ee260c0615ad9565b82518152602083015182811115614ef7578485fd5b614f0388828601614c77565b60208301525060408301516040820152606083015182811115614f24578485fd5b614f3088828601614b65565b606083015250608083015182811115614f47578485fd5b614f5388828601614b65565b60808301525060a083015182811115614f6a578485fd5b614f7688828601614afe565b60a0830152508093505050509250929050565b60008060408385031215614f9b578182fd5b8251614fa681615b66565b60208401519092506001600160401b0380821115614fc2578283fd5b9084019060a08287031215614fd5578283fd5b614fdf60a0615ad9565b82518152602083015182811115614ff4578485fd5b61500088828601614c77565b602083015250604083015182811115615017578485fd5b61502388828601614b65565b60408301525060608301518281111561503a578485fd5b61504688828601614b65565b60608301525060808301518281111561505d578485fd5b61506988828601614afe565b6080830152508093505050509250929050565b6000806040838503121561508e578182fd5b825161509981615b66565b6020939093015192949293505050565b600080604083850312156150bb578182fd5b82356150c681615b66565b915060208301356150d681615b66565b809150509250929050565b6000602082840312156150f2578081fd5b81516001600160401b03811115615107578182fd5b61350984828501614b65565b600060208284031215615124578081fd5b5035919050565b6000806040838503121561513d578182fd5b82356150c681615b7b565b600080600080600060a0868803121561515f578081fd5b853561516a81615b66565b9450602086013561517a81615b66565b935060408601359250606086013561519181615b66565b915060808601356151a181615b66565b809150509295509295909350565b6000602082840312156151c0578081fd5b81516001600160401b03808211156151d6578283fd5b90830190604082860312156151e9578283fd5b6040516040810181811083821117156151fe57fe5b604052825161520c81615b7b565b815260208301518281111561521f578485fd5b61522b87828601614c77565b60208301525095945050505050565b60006020828403121561524b578081fd5b81516001600160401b0380821115615261578283fd5b9083019060408286031215615274578283fd5b60405160408101818110838211171561528957fe5b60405282518281111561529a578485fd5b6152a687828601614b65565b8252506020830151828111156152ba578485fd5b61522b87828601614b65565b6000602082840312156152d7578081fd5b81516001600160401b03808211156152ed578283fd5b9083019060608286031215615300578283fd5b60405160608101818110838211171561531557fe5b604052825182811115615326578485fd5b61533287828601614b65565b825250602083015182811115615346578485fd5b61535287828601614b65565b60208301525060408301519250821515831461536c578384fd5b6040810192909252509392505050565b60006020828403121561538d578081fd5b81356001600160401b038111156153a2578182fd5b61350984828501614d6b565b600080600080608085870312156153c3578182fd5b84356001600160401b03808211156153d9578384fd5b6153e588838901614d6b565b955060208701359150808211156153fa578384fd5b61540688838901614c2b565b9450604087013591508082111561541b578384fd5b61542788838901614d6b565b9350606087013591508082111561543c578283fd5b5061544987828801614c2b565b91505092959194509250565b6001600160a01b03169052565b6001600160e01b0319169052565b60008151808452615488816020860160208601615b3a565b601f01601f19169290920160200192915050565b600063ffffffff60e01b82511683526020820151604060208501526135096040850182615470565b60008151604084526154d9604085018261549c565b602093840151949093019390935250919050565b60006101206154fd848451615455565b6020830151816020860152615514828601826154c4565b91505060408301516155296040860182615455565b506060830151848203606086015261554182826154c4565b9150506080830151608085015260a083015160a085015260c083015160c085015260e083015161557460e0860182615462565b506101008084015185830382870152611f028382615470565b6001600160a01b0391909116815260200190565b6001600160a01b03929092168252602082015260400190565b901515815260200190565b8481526001600160a01b03841660208201526080604082018190526000906155ef9083018561549c565b8281036060840152615601818561549c565b979650505050505050565b888152602081018890526001600160a01b038781166040830152861660608201526080810185905260a0810184905261010060c082018190526000906156548382018661549c565b905082810360e08401526137ed818561549c565b6001600160a01b03958616815293851660208501529190931660408301526060820192909252608081019190915260c060a0820181905260009082015260e00190565b6001600160a01b039485168152928416602084015292166040820152606081019190915260800190565b60208082526017908201527f6e6f7420666f756e64204941737365744d617463686572000000000000000000604082015260600190565b6020808252601d908201527f526f79616c746965732061726520746f6f206869676820283e35302529000000604082015260600190565b60208082526021908201527f737563682074616b652076616c756520697320616c72656164792066696c6c656040820152601960fa1b606082015260800190565b6020808252601490820152730c081cd85b1d0818d85b89dd081899481d5cd95960621b604082015260600190565b6020808252602c908201527f77726f6e67206f726465723a2045544820746f2045544820747261646573206160408201526b3932903337b93134b23232b760a11b606082015260800190565b6020808252601e908201527f6f726465722e6d616b6572206d757374206265206d73672e73656e6465720000604082015260600190565b60208082526019908201527f756e65787065637465642066656553696465203d204e4f4e4500000000000000604082015260600190565b60208082526024908201527f72696768744f726465722e74616b657220766572696669636174696f6e2066616040820152631a5b195960e21b606082015260800190565b60208082526012908201527132b9319b9918903b30b63ab29032b93937b960711b604082015260600190565b6020808252600f908201526e1b9bdd1a1a5b99c81d1bc8199a5b1b608a1b604082015260600190565b6020808252601e908201527f53756d207061796f75747320427073206e6f7420657175616c20313030250000604082015260600190565b6020808252601290820152710c2e6e6cae8e640c8dedc4ee840dac2e8c6d60731b604082015260600190565b60208082526023908201527f6c6566744f726465722e74616b657220766572696669636174696f6e206661696040820152621b195960ea1b606082015260800190565b6020808252600e908201526d0dcdee840cadcdeeaced040cae8d60931b604082015260600190565b6020808252600b908201526a3737ba10309036b0b5b2b960a91b604082015260600190565b600060408252615a0b604083018561549c565b8281036020840152613ff9818561549c565b600060608252615a3060608301866154c4565b6001600160a01b0394851660208401529290931660409091015292915050565b600060a08252615a6360a08301886154c4565b6001600160a01b0396871660208401529490951660408201526001600160e01b03199283166060820152911660809091015292915050565b60006020825261352360208301846154ed565b600060408252615ac160408301856154ed565b90508260208301529392505050565b90815260200190565b6040518181016001600160401b0381118282101715615af457fe5b604052919050565b60006001600160401b03821115615b0f57fe5b5060209081020190565b60006001600160401b03821115615b2c57fe5b50601f01601f191660200190565b60005b83811015615b55578181015183820152602001615b3d565b8381111561183f5750506000910152565b6001600160a01b03811681146119f857600080fd5b6001600160e01b0319811681146119f857600080fdfe4f776e61626c653a206e6577206f776e657220697320746865207a65726f206164647265737345434453413a20696e76616c6964207369676e6174757265202773272076616c75656f72646572207369676e617475726520766572696669636174696f6e206572726f72636f6e7472616374206f72646572207369676e617475726520766572696669636174696f6e206572726f72496e697469616c697a61626c653a20636f6e747261637420697320616c726561647920696e697469616c697a656445434453413a20696e76616c6964207369676e6174757265202776272076616c7565536166654d6174683a206d756c7469706c69636174696f6e206f766572666c6f774f776e61626c653a2063616c6c6572206973206e6f7420746865206f776e6572b45a3ba14423c8f1b71cc094845ab56b5294dbe8d8e3ba53f3cdb63d59a4044ba26469706673582212203db7e93985bdc0510b9910cf163b683f69feaf8f52f669332101ec3accbf0b3264736f6c63430007060033",
  "immutableReferences": {},
  "source": "// SPDX-License-Identifier: MIT\n\npragma solidity 0.7.6;\npragma abicoder v2;\n\nimport \"./ExchangeV2Core.sol\";\nimport \"./RaribleTransferManager.sol\";\nimport \"@rarible/royalties/contracts/IRoyaltiesProvider.sol\";\n\ncontract ExchangeV2 is ExchangeV2Core, RaribleTransferManager {\n    function __ExchangeV2_init(\n        INftTransferProxy _transferProxy,\n        IERC20TransferProxy _erc20TransferProxy,\n        uint newProtocolFee,\n        address newDefaultFeeReceiver,\n        IRoyaltiesProvider newRoyaltiesProvider\n    ) external initializer {\n        __Context_init_unchained();\n        __Ownable_init_unchained();\n        __TransferExecutor_init_unchained(_transferProxy, _erc20TransferProxy);\n        __RaribleTransferManager_init_unchained(newProtocolFee, newDefaultFeeReceiver, newRoyaltiesProvider);\n        __OrderValidator_init_unchained();\n    }\n    \n    function getOrderProtocolFee(LibOrder.Order memory order, bytes32 hash) override internal view returns(uint) {\n        if (isTheSameAsOnChain(order, hash)) {\n            return onChainOrders[hash].fee;\n        } else {\n            return protocolFee;\n        }\n    }\n\n    function getProtocolFee() override internal view returns(uint) {\n        return protocolFee;\n    }\n\n}\n",
  "sourcePath": "/Users/sergey.patrikeev/Documents/protocol-contracts/exchange-v2/contracts/ExchangeV2.sol",
  "compiler": {
    "name": "solc",
    "version": "0.7.6+commit.7338295f.Emscripten.clang"
  },
  "schemaVersion": "3.4.3",
  "updatedAt": "2021-11-17T17:00:34.037Z",
  "devdoc": {
    "kind": "dev",
    "methods": {
      "checkOrderExistance(bytes32)": {
        "details": "Checks order for existance on-chain by orderKeyHash"
      },
      "owner()": {
        "details": "Returns the address of the current owner."
      },
      "renounceOwnership()": {
        "details": "Leaves the contract without owner. It will not be possible to call `onlyOwner` functions anymore. Can only be called by the current owner. NOTE: Renouncing ownership will leave the contract without an owner, thereby removing any functionality that is only available to the owner."
      },
      "transferOwnership(address)": {
        "details": "Transfers ownership of the contract to a new account (`newOwner`). Can only be called by the current owner."
      },
      "upsertOrder((address,((bytes4,bytes),uint256),address,((bytes4,bytes),uint256),uint256,uint256,uint256,bytes4,bytes))": {
        "details": "Creates new or updates an on-chain order"
      }
    },
    "version": 1
  },
  "userdoc": {
    "kind": "user",
    "methods": {},
    "version": 1
  }
}