{
  "contractName": "MintableOwnableToken",
  "abi": [
    {
      "constant": true,
      "inputs": [
        {
          "name": "interfaceId",
          "type": "bytes4"
        }
      ],
      "name": "supportsInterface",
      "outputs": [
        {
          "name": "",
          "type": "bool"
        }
      ],
      "payable": false,
      "stateMutability": "view",
      "type": "function"
    },
    {
      "constant": true,
      "inputs": [],
      "name": "name",
      "outputs": [
        {
          "name": "",
          "type": "string"
        }
      ],
      "payable": false,
      "stateMutability": "view",
      "type": "function"
    },
    {
      "constant": true,
      "inputs": [
        {
          "name": "tokenId",
          "type": "uint256"
        }
      ],
      "name": "getApproved",
      "outputs": [
        {
          "name": "",
          "type": "address"
        }
      ],
      "payable": false,
      "stateMutability": "view",
      "type": "function"
    },
    {
      "constant": false,
      "inputs": [
        {
          "name": "to",
          "type": "address"
        },
        {
          "name": "tokenId",
          "type": "uint256"
        }
      ],
      "name": "approve",
      "outputs": [],
      "payable": false,
      "stateMutability": "nonpayable",
      "type": "function"
    },
    {
      "constant": true,
      "inputs": [],
      "name": "totalSupply",
      "outputs": [
        {
          "name": "",
          "type": "uint256"
        }
      ],
      "payable": false,
      "stateMutability": "view",
      "type": "function"
    },
    {
      "constant": false,
      "inputs": [
        {
          "name": "from",
          "type": "address"
        },
        {
          "name": "to",
          "type": "address"
        },
        {
          "name": "tokenId",
          "type": "uint256"
        }
      ],
      "name": "transferFrom",
      "outputs": [],
      "payable": false,
      "stateMutability": "nonpayable",
      "type": "function"
    },
    {
      "constant": true,
      "inputs": [
        {
          "name": "owner",
          "type": "address"
        },
        {
          "name": "index",
          "type": "uint256"
        }
      ],
      "name": "tokenOfOwnerByIndex",
      "outputs": [
        {
          "name": "",
          "type": "uint256"
        }
      ],
      "payable": false,
      "stateMutability": "view",
      "type": "function"
    },
    {
      "constant": false,
      "inputs": [
        {
          "name": "from",
          "type": "address"
        },
        {
          "name": "to",
          "type": "address"
        },
        {
          "name": "tokenId",
          "type": "uint256"
        }
      ],
      "name": "safeTransferFrom",
      "outputs": [],
      "payable": false,
      "stateMutability": "nonpayable",
      "type": "function"
    },
    {
      "constant": true,
      "inputs": [
        {
          "name": "index",
          "type": "uint256"
        }
      ],
      "name": "tokenByIndex",
      "outputs": [
        {
          "name": "",
          "type": "uint256"
        }
      ],
      "payable": false,
      "stateMutability": "view",
      "type": "function"
    },
    {
      "constant": true,
      "inputs": [
        {
          "name": "tokenId",
          "type": "uint256"
        }
      ],
      "name": "ownerOf",
      "outputs": [
        {
          "name": "",
          "type": "address"
        }
      ],
      "payable": false,
      "stateMutability": "view",
      "type": "function"
    },
    {
      "constant": true,
      "inputs": [
        {
          "name": "owner",
          "type": "address"
        }
      ],
      "name": "balanceOf",
      "outputs": [
        {
          "name": "",
          "type": "uint256"
        }
      ],
      "payable": false,
      "stateMutability": "view",
      "type": "function"
    },
    {
      "constant": false,
      "inputs": [],
      "name": "renounceOwnership",
      "outputs": [],
      "payable": false,
      "stateMutability": "nonpayable",
      "type": "function"
    },
    {
      "constant": true,
      "inputs": [],
      "name": "owner",
      "outputs": [
        {
          "name": "",
          "type": "address"
        }
      ],
      "payable": false,
      "stateMutability": "view",
      "type": "function"
    },
    {
      "constant": true,
      "inputs": [],
      "name": "isOwner",
      "outputs": [
        {
          "name": "",
          "type": "bool"
        }
      ],
      "payable": false,
      "stateMutability": "view",
      "type": "function"
    },
    {
      "constant": true,
      "inputs": [],
      "name": "symbol",
      "outputs": [
        {
          "name": "",
          "type": "string"
        }
      ],
      "payable": false,
      "stateMutability": "view",
      "type": "function"
    },
    {
      "constant": false,
      "inputs": [
        {
          "name": "to",
          "type": "address"
        },
        {
          "name": "approved",
          "type": "bool"
        }
      ],
      "name": "setApprovalForAll",
      "outputs": [],
      "payable": false,
      "stateMutability": "nonpayable",
      "type": "function"
    },
    {
      "constant": false,
      "inputs": [
        {
          "name": "from",
          "type": "address"
        },
        {
          "name": "to",
          "type": "address"
        },
        {
          "name": "tokenId",
          "type": "uint256"
        },
        {
          "name": "_data",
          "type": "bytes"
        }
      ],
      "name": "safeTransferFrom",
      "outputs": [],
      "payable": false,
      "stateMutability": "nonpayable",
      "type": "function"
    },
    {
      "constant": true,
      "inputs": [
        {
          "name": "tokenId",
          "type": "uint256"
        }
      ],
      "name": "tokenURI",
      "outputs": [
        {
          "name": "",
          "type": "string"
        }
      ],
      "payable": false,
      "stateMutability": "view",
      "type": "function"
    },
    {
      "constant": true,
      "inputs": [
        {
          "name": "owner",
          "type": "address"
        },
        {
          "name": "operator",
          "type": "address"
        }
      ],
      "name": "isApprovedForAll",
      "outputs": [
        {
          "name": "",
          "type": "bool"
        }
      ],
      "payable": false,
      "stateMutability": "view",
      "type": "function"
    },
    {
      "constant": false,
      "inputs": [
        {
          "name": "newOwner",
          "type": "address"
        }
      ],
      "name": "transferOwnership",
      "outputs": [],
      "payable": false,
      "stateMutability": "nonpayable",
      "type": "function"
    },
    {
      "inputs": [
        {
          "name": "creator",
          "type": "address"
        },
        {
          "name": "name",
          "type": "string"
        },
        {
          "name": "symbol",
          "type": "string"
        }
      ],
      "payable": false,
      "stateMutability": "nonpayable",
      "type": "constructor"
    },
    {
      "anonymous": false,
      "inputs": [
        {
          "indexed": true,
          "name": "creator",
          "type": "address"
        },
        {
          "indexed": false,
          "name": "name",
          "type": "string"
        },
        {
          "indexed": false,
          "name": "symbol",
          "type": "string"
        }
      ],
      "name": "CreateCollection",
      "type": "event"
    },
    {
      "anonymous": false,
      "inputs": [
        {
          "indexed": true,
          "name": "creator",
          "type": "address"
        },
        {
          "indexed": true,
          "name": "tokenId",
          "type": "uint256"
        }
      ],
      "name": "Mint",
      "type": "event"
    },
    {
      "anonymous": false,
      "inputs": [
        {
          "indexed": true,
          "name": "previousOwner",
          "type": "address"
        },
        {
          "indexed": true,
          "name": "newOwner",
          "type": "address"
        }
      ],
      "name": "OwnershipTransferred",
      "type": "event"
    },
    {
      "anonymous": false,
      "inputs": [
        {
          "indexed": true,
          "name": "from",
          "type": "address"
        },
        {
          "indexed": true,
          "name": "to",
          "type": "address"
        },
        {
          "indexed": true,
          "name": "tokenId",
          "type": "uint256"
        }
      ],
      "name": "Transfer",
      "type": "event"
    },
    {
      "anonymous": false,
      "inputs": [
        {
          "indexed": true,
          "name": "owner",
          "type": "address"
        },
        {
          "indexed": true,
          "name": "approved",
          "type": "address"
        },
        {
          "indexed": true,
          "name": "tokenId",
          "type": "uint256"
        }
      ],
      "name": "Approval",
      "type": "event"
    },
    {
      "anonymous": false,
      "inputs": [
        {
          "indexed": true,
          "name": "owner",
          "type": "address"
        },
        {
          "indexed": true,
          "name": "operator",
          "type": "address"
        },
        {
          "indexed": false,
          "name": "approved",
          "type": "bool"
        }
      ],
      "name": "ApprovalForAll",
      "type": "event"
    },
    {
      "constant": false,
      "inputs": [
        {
          "name": "creator",
          "type": "address"
        },
        {
          "name": "to",
          "type": "address"
        },
        {
          "name": "tokenURI",
          "type": "string"
        }
      ],
      "name": "mint",
      "outputs": [
        {
          "name": "",
          "type": "uint256"
        }
      ],
      "payable": false,
      "stateMutability": "nonpayable",
      "type": "function"
    },
    {
      "constant": false,
      "inputs": [
        {
          "name": "to",
          "type": "address"
        },
        {
          "name": "tokenURI",
          "type": "string"
        }
      ],
      "name": "mint",
      "outputs": [
        {
          "name": "",
          "type": "uint256"
        }
      ],
      "payable": false,
      "stateMutability": "nonpayable",
      "type": "function"
    },
    {
      "constant": false,
      "inputs": [
        {
          "name": "tokenURI",
          "type": "string"
        }
      ],
      "name": "mint",
      "outputs": [
        {
          "name": "",
          "type": "uint256"
        }
      ],
      "payable": false,
      "stateMutability": "nonpayable",
      "type": "function"
    }
  ],
  "bytecode": "0x60806040523480156200001157600080fd5b506040516200214b3803806200214b833981810160405260608110156200003757600080fd5b8151602083018051919392830192916401000000008111156200005957600080fd5b820160208101848111156200006d57600080fd5b81516401000000008111828201871017156200008857600080fd5b50509291906020018051640100000000811115620000a557600080fd5b82016020810184811115620000b957600080fd5b8151640100000000811182820187101715620000d457600080fd5b5090935084925083915082905081620001167f01ffc9a70000000000000000000000000000000000000000000000000000000064010000000062000347810204565b6200014a7f80ac58cd0000000000000000000000000000000000000000000000000000000064010000000062000347810204565b6200017e7f780e9d630000000000000000000000000000000000000000000000000000000064010000000062000347810204565b81516200019390600990602085019062000416565b508051620001a990600a90602084019062000416565b50620001de7f5b5e139f0000000000000000000000000000000000000000000000000000000064010000000062000347810204565b5050600c8054600160a060020a031916331790819055604051600160a060020a03919091169250600091507f8be0079c531659141344cd1fd0a4f28419497f9722a3daafe3b4186f6b6457e0908290a382600160a060020a03167fdd580899028ee224578640a8896d563977bfe758955b9d75433fb311b60bcb118383604051808060200180602001838103835285818151815260200191508051906020019080838360005b838110156200029e57818101518382015260200162000284565b50505050905090810190601f168015620002cc5780820380516001836020036101000a031916815260200191505b50838103825284518152845160209182019186019080838360005b8381101562000301578181015183820152602001620002e7565b50505050905090810190601f1680156200032f5780820380516001836020036101000a031916815260200191505b5094505050505060405180910390a2505050620004bb565b7fffffffff000000000000000000000000000000000000000000000000000000008082161415620003d957604080517f08c379a000000000000000000000000000000000000000000000000000000000815260206004820152601c60248201527f4552433136353a20696e76616c696420696e7465726661636520696400000000604482015290519081900360640190fd5b7fffffffff00000000000000000000000000000000000000000000000000000000166000908152602081905260409020805460ff19166001179055565b828054600181600116156101000203166002900490600052602060002090601f016020900481019282601f106200045957805160ff191683800117855562000489565b8280016001018555821562000489579182015b82811115620004895782518255916020019190600101906200046c565b50620004979291506200049b565b5090565b620004b891905b80821115620004975760008155600101620004a2565b90565b611c8080620004cb6000396000f3fe608060405234801561001057600080fd5b506004361061016a576000357c01000000000000000000000000000000000000000000000000000000009004806370a08231116100e0578063b88d4fde11610099578063b88d4fde146104c2578063c87b56dd14610588578063d0def521146105a5578063d85d3d271461065b578063e985e9c514610701578063f2fde38b1461072f5761016a565b806370a082311461044e578063715018a6146104745780638da5cb5b1461047c5780638f32d59b1461048457806395d89b411461048c578063a22cb465146104945761016a565b8063221375a611610132578063221375a6146102bd57806323b872dd1461037c5780632f745c59146103b257806342842e0e146103de5780634f6ccce7146104145780636352211e146104315761016a565b806301ffc9a71461016f57806306fdde03146101bf578063081812fc1461023c578063095ea7b31461027557806318160ddd146102a3575b600080fd5b6101ab6004803603602081101561018557600080fd5b50357bffffffffffffffffffffffffffffffffffffffffffffffffffffffff1916610755565b604080519115158252519081900360200190f35b6101c7610789565b6040805160208082528351818301528351919283929083019185019080838360005b838110156102015781810151838201526020016101e9565b50505050905090810190601f16801561022e5780820380516001836020036101000a031916815260200191505b509250505060405180910390f35b6102596004803603602081101561025257600080fd5b5035610820565b60408051600160a060020a039092168252519081900360200190f35b6102a16004803603604081101561028b57600080fd5b50600160a060020a038135169060200135610885565b005b6102ab6109a9565b60408051918252519081900360200190f35b6102ab600480360360608110156102d357600080fd5b600160a060020a03823581169260208101359091169181019060608101604082013564010000000081111561030757600080fd5b82018360208201111561031957600080fd5b8035906020019184600183028401116401000000008311171561033b57600080fd5b91908080601f0160208091040260200160405190810160405280939291908181526020018383808284376000920191909152509295506109af945050505050565b6102a16004803603606081101561039257600080fd5b50600160a060020a03813581169160208101359091169060400135610a6b565b6102ab600480360360408110156103c857600080fd5b50600160a060020a038135169060200135610ac3565b6102a1600480360360608110156103f457600080fd5b50600160a060020a03813581169160208101359091169060400135610b45565b6102ab6004803603602081101561042a57600080fd5b5035610b60565b6102596004803603602081101561044757600080fd5b5035610bc9565b6102ab6004803603602081101561046457600080fd5b5035600160a060020a0316610c26565b6102a1610c91565b610259610d44565b6101ab610d53565b6101c7610d64565b6102a1600480360360408110156104aa57600080fd5b50600160a060020a0381351690602001351515610dc5565b6102a1600480360360808110156104d857600080fd5b600160a060020a0382358116926020810135909116916040820135919081019060808101606082013564010000000081111561051357600080fd5b82018360208201111561052557600080fd5b8035906020019184600183028401116401000000008311171561054757600080fd5b91908080601f016020809104026020016040519081016040528093929190818152602001838380828437600092019190915250929550610e94945050505050565b6101c76004803603602081101561059e57600080fd5b5035610eef565b6102ab600480360360408110156105bb57600080fd5b600160a060020a0382351691908101906040810160208201356401000000008111156105e657600080fd5b8201836020820111156105f857600080fd5b8035906020019184600183028401116401000000008311171561061a57600080fd5b91908080601f016020809104026020016040519081016040528093929190818152602001838380828437600092019190915250929550610fd7945050505050565b6102ab6004803603602081101561067157600080fd5b81019060208101813564010000000081111561068c57600080fd5b82018360208201111561069e57600080fd5b803590602001918460018302840111640100000000831117156106c057600080fd5b91908080601f016020809104026020016040519081016040528093929190818152602001838380828437600092019190915250929550610feb945050505050565b6101ab6004803603604081101561071757600080fd5b50600160a060020a0381358116916020013516610ff8565b6102a16004803603602081101561074557600080fd5b5035600160a060020a0316611026565b7bffffffffffffffffffffffffffffffffffffffffffffffffffffffff191660009081526020819052604090205460ff1690565b60098054604080516020601f60026000196101006001881615020190951694909404938401819004810282018101909252828152606093909290918301828280156108155780601f106107ea57610100808354040283529160200191610815565b820191906000526020600020905b8154815290600101906020018083116107f857829003601f168201915b505050505090505b90565b600061082b8261108e565b6108695760405160e560020a62461bcd02815260040180806020018281038252602c815260200180611b1e602c913960400191505060405180910390fd5b50600090815260026020526040902054600160a060020a031690565b600061089082610bc9565b905080600160a060020a031683600160a060020a031614156108e65760405160e560020a62461bcd028152600401808060200182810382526021815260200180611bce6021913960400191505060405180910390fd5b33600160a060020a038216148061090257506109028133610ff8565b6109405760405160e560020a62461bcd028152600401808060200182810382526038815260200180611a936038913960400191505060405180910390fd5b600082815260026020526040808220805473ffffffffffffffffffffffffffffffffffffffff1916600160a060020a0387811691821790925591518593918516917f8c5be1e5ebec7d5bd14f71427d1e84f3dd0314c0f7b2291e5b200ac8c7c3b92591a4505050565b60075490565b60006109b9610d53565b610a0d576040805160e560020a62461bcd02815260206004820181905260248201527f4f776e61626c653a2063616c6c6572206973206e6f7420746865206f776e6572604482015290519081900360640190fd5b6000610a176109a9565b9050610a2384826110ab565b610a2d81846110cc565b6040518190600160a060020a038716907f0f6798a560793a54c3bcfe86a93cde1e73087d944c0ea20544137d412139688590600090a3949350505050565b610a753382611132565b610ab35760405160e560020a62461bcd028152600401808060200182810382526031815260200180611bef6031913960400191505060405180910390fd5b610abe8383836111d9565b505050565b6000610ace83610c26565b8210610b0e5760405160e560020a62461bcd02815260040180806020018281038252602b8152602001806119c0602b913960400191505060405180910390fd5b600160a060020a0383166000908152600560205260409020805483908110610b3257fe5b9060005260206000200154905092915050565b610abe83838360405180602001604052806000815250610e94565b6000610b6a6109a9565b8210610baa5760405160e560020a62461bcd02815260040180806020018281038252602c815260200180611c20602c913960400191505060405180910390fd5b60078281548110610bb757fe5b90600052602060002001549050919050565b600081815260016020526040812054600160a060020a031680610c205760405160e560020a62461bcd028152600401808060200182810382526029815260200180611af56029913960400191505060405180910390fd5b92915050565b6000600160a060020a038216610c705760405160e560020a62461bcd02815260040180806020018281038252602a815260200180611acb602a913960400191505060405180910390fd5b600160a060020a0382166000908152600360205260409020610c20906111f8565b610c99610d53565b610ced576040805160e560020a62461bcd02815260206004820181905260248201527f4f776e61626c653a2063616c6c6572206973206e6f7420746865206f776e6572604482015290519081900360640190fd5b600c54604051600091600160a060020a0316907f8be0079c531659141344cd1fd0a4f28419497f9722a3daafe3b4186f6b6457e0908390a3600c805473ffffffffffffffffffffffffffffffffffffffff19169055565b600c54600160a060020a031690565b600c54600160a060020a0316331490565b600a8054604080516020601f60026000196101006001881615020190951694909404938401819004810282018101909252828152606093909290918301828280156108155780601f106107ea57610100808354040283529160200191610815565b600160a060020a038216331415610e26576040805160e560020a62461bcd02815260206004820152601960248201527f4552433732313a20617070726f766520746f2063616c6c657200000000000000604482015290519081900360640190fd5b336000818152600460209081526040808320600160a060020a03871680855290835292819020805460ff1916861515908117909155815190815290519293927f17307eab39ab6107e8899845ad3d59bd9653f200f220920489ca2b5937696c31929181900390910190a35050565b610e9f848484610a6b565b610eab848484846111fc565b610ee95760405160e560020a62461bcd0281526004018080602001828103825260328152602001806119eb6032913960400191505060405180910390fd5b50505050565b6060610efa8261108e565b610f385760405160e560020a62461bcd02815260040180806020018281038252602f815260200180611b9f602f913960400191505060405180910390fd5b6000828152600b602090815260409182902080548351601f600260001961010060018616150201909316929092049182018490048402810184019094528084529091830182828015610fcb5780601f10610fa057610100808354040283529160200191610fcb565b820191906000526020600020905b815481529060010190602001808311610fae57829003601f168201915b50505050509050919050565b6000610fe48384846109af565b9392505050565b6000610c203333846109af565b600160a060020a03918216600090815260046020908152604080832093909416825291909152205460ff1690565b61102e610d53565b611082576040805160e560020a62461bcd02815260206004820181905260248201527f4f776e61626c653a2063616c6c6572206973206e6f7420746865206f776e6572604482015290519081900360640190fd5b61108b81611376565b50565b600090815260016020526040902054600160a060020a0316151590565b6110b58282611427565b6110bf828261156b565b6110c8816115a9565b5050565b6110d58261108e565b6111135760405160e560020a62461bcd02815260040180806020018281038252602c815260200180611b4a602c913960400191505060405180910390fd5b6000828152600b602090815260409091208251610abe92840190611907565b600061113d8261108e565b61117b5760405160e560020a62461bcd02815260040180806020018281038252602c815260200180611a67602c913960400191505060405180910390fd5b600061118683610bc9565b905080600160a060020a031684600160a060020a031614806111c1575083600160a060020a03166111b684610820565b600160a060020a0316145b806111d157506111d18185610ff8565b949350505050565b6111e48383836115ed565b6111ee8382611744565b610abe828261156b565b5490565b600061121084600160a060020a0316611839565b61121c575060016111d1565b6040517f150b7a020000000000000000000000000000000000000000000000000000000081523360048201818152600160a060020a03888116602485015260448401879052608060648501908152865160848601528651600095928a169463150b7a029490938c938b938b939260a4019060208501908083838e5b838110156112af578181015183820152602001611297565b50505050905090810190601f1680156112dc5780820380516001836020036101000a031916815260200191505b5095505050505050602060405180830381600087803b1580156112fe57600080fd5b505af1158015611312573d6000803e3d6000fd5b505050506040513d602081101561132857600080fd5b50517bffffffffffffffffffffffffffffffffffffffffffffffffffffffff19167f150b7a020000000000000000000000000000000000000000000000000000000014915050949350505050565b600160a060020a0381166113be5760405160e560020a62461bcd028152600401808060200182810382526026815260200180611a1d6026913960400191505060405180910390fd5b600c54604051600160a060020a038084169216907f8be0079c531659141344cd1fd0a4f28419497f9722a3daafe3b4186f6b6457e090600090a3600c805473ffffffffffffffffffffffffffffffffffffffff1916600160a060020a0392909216919091179055565b600160a060020a038216611485576040805160e560020a62461bcd02815260206004820181905260248201527f4552433732313a206d696e7420746f20746865207a65726f2061646472657373604482015290519081900360640190fd5b61148e8161108e565b156114e3576040805160e560020a62461bcd02815260206004820152601c60248201527f4552433732313a20746f6b656e20616c7265616479206d696e74656400000000604482015290519081900360640190fd5b6000818152600160209081526040808320805473ffffffffffffffffffffffffffffffffffffffff1916600160a060020a03871690811790915583526003909152902061152f9061183f565b6040518190600160a060020a038416906000907fddf252ad1be2c89b69c2b068fc378daa952ba7f163c4a11628f55a4df523b3ef908290a45050565b600160a060020a0390911660009081526005602081815260408084208054868652600684529185208290559282526001810183559183529091200155565b600780546000838152600860205260408120829055600182018355919091527fa66cc928b5edb82af9bd49922954155ab7b0942694bea4ce44661d9a8736c6880155565b82600160a060020a031661160082610bc9565b600160a060020a0316146116485760405160e560020a62461bcd028152600401808060200182810382526029815260200180611b766029913960400191505060405180910390fd5b600160a060020a0382166116905760405160e560020a62461bcd028152600401808060200182810382526024815260200180611a436024913960400191505060405180910390fd5b61169981611848565b600160a060020a03831660009081526003602052604090206116ba90611890565b600160a060020a03821660009081526003602052604090206116db9061183f565b600081815260016020526040808220805473ffffffffffffffffffffffffffffffffffffffff1916600160a060020a0386811691821790925591518493918716917fddf252ad1be2c89b69c2b068fc378daa952ba7f163c4a11628f55a4df523b3ef91a4505050565b600160a060020a03821660009081526005602052604081205461176e90600163ffffffff6118a716565b60008381526006602052604090205490915080821461180957600160a060020a03841660009081526005602052604081208054849081106117ab57fe5b90600052602060002001549050806005600087600160a060020a0316600160a060020a0316815260200190815260200160002083815481106117e957fe5b600091825260208083209091019290925591825260069052604090208190555b600160a060020a0384166000908152600560205260409020805490611832906000198301611985565b5050505050565b3b151590565b80546001019055565b600081815260026020526040902054600160a060020a03161561108b576000908152600260205260409020805473ffffffffffffffffffffffffffffffffffffffff19169055565b80546118a390600163ffffffff6118a716565b9055565b600082821115611901576040805160e560020a62461bcd02815260206004820152601e60248201527f536166654d6174683a207375627472616374696f6e206f766572666c6f770000604482015290519081900360640190fd5b50900390565b828054600181600116156101000203166002900490600052602060002090601f016020900481019282601f1061194857805160ff1916838001178555611975565b82800160010185558215611975579182015b8281111561197557825182559160200191906001019061195a565b506119819291506119a5565b5090565b815481835581811115610abe57600083815260209020610abe9181019083015b61081d91905b8082111561198157600081556001016119ab56fe455243373231456e756d657261626c653a206f776e657220696e646578206f7574206f6620626f756e64734552433732313a207472616e7366657220746f206e6f6e20455243373231526563656976657220696d706c656d656e7465724f776e61626c653a206e6577206f776e657220697320746865207a65726f20616464726573734552433732313a207472616e7366657220746f20746865207a65726f20616464726573734552433732313a206f70657261746f7220717565727920666f72206e6f6e6578697374656e7420746f6b656e4552433732313a20617070726f76652063616c6c6572206973206e6f74206f776e6572206e6f7220617070726f76656420666f7220616c6c4552433732313a2062616c616e636520717565727920666f7220746865207a65726f20616464726573734552433732313a206f776e657220717565727920666f72206e6f6e6578697374656e7420746f6b656e4552433732313a20617070726f76656420717565727920666f72206e6f6e6578697374656e7420746f6b656e4552433732314d657461646174613a2055524920736574206f66206e6f6e6578697374656e7420746f6b656e4552433732313a207472616e73666572206f6620746f6b656e2074686174206973206e6f74206f776e4552433732314d657461646174613a2055524920717565727920666f72206e6f6e6578697374656e7420746f6b656e4552433732313a20617070726f76616c20746f2063757272656e74206f776e65724552433732313a207472616e736665722063616c6c6572206973206e6f74206f776e6572206e6f7220617070726f766564455243373231456e756d657261626c653a20676c6f62616c20696e646578206f7574206f6620626f756e6473a265627a7a72305820b3812e0cde47ad640ea01868022f47066764b50b231d39753660e6b4279c490764736f6c634300050a0032",
  "source": "pragma solidity ^0.5.0;\n\nimport \"openzeppelin-solidity/contracts/token/ERC721/ERC721.sol\";\nimport \"openzeppelin-solidity/contracts/ownership/Ownable.sol\";\nimport \"openzeppelin-solidity/contracts/token/ERC721/IERC721Metadata.sol\";\nimport \"openzeppelin-solidity/contracts/token/ERC721/ERC721Full.sol\";\n\n/**\n * @title MintableOwnableToken\n * @dev only owner can mint token.\n */\ncontract MintableOwnableToken is ERC721, IERC721Metadata, ERC721Full, Ownable {\n\n    event CreateCollection(address indexed creator, string name, string symbol);\n\n    event Mint(address indexed creator, uint256 indexed tokenId);\n\n    constructor (address creator, string memory name, string memory symbol) public ERC721Full(name, symbol) {\n        emit CreateCollection(creator, name, symbol);\n    }\n\n    /**\n     * @dev Function to mint tokens.\n     * @param creator Creator of the token\n     * @param to The address that will receive the minted tokens.\n     * @param tokenURI metadata\n     * @return Token id\n     */\n    function mint(address creator, address to, string memory tokenURI) public onlyOwner returns (uint256) {\n        uint256 tokenId = totalSupply();\n        _mint(to, tokenId);\n        _setTokenURI(tokenId, tokenURI);\n        emit Mint(creator, tokenId);\n        return tokenId;\n    }\n\n    function mint(address to, string memory tokenURI) public returns (uint256) {\n        return mint(to, to, tokenURI);\n    }\n\n    function mint(string memory tokenURI) public returns (uint256) {\n        return mint(msg.sender, msg.sender, tokenURI);\n    }\n}\n",
  "sourcePath": "/Users/Vladislove/Documents/tokenplace-contracts/contracts/MintableOwnableToken.sol",
  "compiler": {
    "name": "solc",
    "version": "0.5.10+commit.5a6ea5b1.Emscripten.clang"
  },
  "schemaVersion": "3.0.11",
  "updatedAt": "2019-10-21T08:33:48.633Z",
  "devdoc": {
    "details": "only owner can mint token.",
    "methods": {
      "approve(address,uint256)": {
        "details": "Approves another address to transfer the given token ID The zero address indicates there is no approved address. There can only be one approved address per token at a given time. Can only be called by the token owner or an approved operator.",
        "params": {
          "to": "address to be approved for the given token ID",
          "tokenId": "uint256 ID of the token to be approved"
        }
      },
      "balanceOf(address)": {
        "details": "Gets the balance of the specified address.",
        "params": {
          "owner": "address to query the balance of"
        },
        "return": "uint256 representing the amount owned by the passed address"
      },
      "getApproved(uint256)": {
        "details": "Gets the approved address for a token ID, or zero if no address set Reverts if the token ID does not exist.",
        "params": {
          "tokenId": "uint256 ID of the token to query the approval of"
        },
        "return": "address currently approved for the given token ID"
      },
      "isApprovedForAll(address,address)": {
        "details": "Tells whether an operator is approved by a given owner.",
        "params": {
          "operator": "operator address which you want to query the approval of",
          "owner": "owner address which you want to query the approval of"
        },
        "return": "bool whether the given operator is approved by the given owner"
      },
      "isOwner()": {
        "details": "Returns true if the caller is the current owner."
      },
      "mint(address,address,string)": {
        "details": "Function to mint tokens.",
        "params": {
          "creator": "Creator of the token",
          "to": "The address that will receive the minted tokens.",
          "tokenURI": "metadata"
        },
        "return": "Token id"
      },
      "name()": {
        "details": "Gets the token name.",
        "return": "string representing the token name"
      },
      "owner()": {
        "details": "Returns the address of the current owner."
      },
      "ownerOf(uint256)": {
        "details": "Gets the owner of the specified token ID.",
        "params": {
          "tokenId": "uint256 ID of the token to query the owner of"
        },
        "return": "address currently marked as the owner of the given token ID"
      },
      "renounceOwnership()": {
        "details": "Leaves the contract without owner. It will not be possible to call `onlyOwner` functions anymore. Can only be called by the current owner.     * > Note: Renouncing ownership will leave the contract without an owner, thereby removing any functionality that is only available to the owner."
      },
      "safeTransferFrom(address,address,uint256)": {
        "details": "Safely transfers the ownership of a given token ID to another address If the target address is a contract, it must implement `onERC721Received`, which is called upon a safe transfer, and return the magic value `bytes4(keccak256(\"onERC721Received(address,address,uint256,bytes)\"))`; otherwise, the transfer is reverted. Requires the msg.sender to be the owner, approved, or operator",
        "params": {
          "from": "current owner of the token",
          "to": "address to receive the ownership of the given token ID",
          "tokenId": "uint256 ID of the token to be transferred"
        }
      },
      "safeTransferFrom(address,address,uint256,bytes)": {
        "details": "Safely transfers the ownership of a given token ID to another address If the target address is a contract, it must implement `onERC721Received`, which is called upon a safe transfer, and return the magic value `bytes4(keccak256(\"onERC721Received(address,address,uint256,bytes)\"))`; otherwise, the transfer is reverted. Requires the msg.sender to be the owner, approved, or operator",
        "params": {
          "_data": "bytes data to send along with a safe transfer check",
          "from": "current owner of the token",
          "to": "address to receive the ownership of the given token ID",
          "tokenId": "uint256 ID of the token to be transferred"
        }
      },
      "setApprovalForAll(address,bool)": {
        "details": "Sets or unsets the approval of a given operator An operator is allowed to transfer all tokens of the sender on their behalf.",
        "params": {
          "approved": "representing the status of the approval to be set",
          "to": "operator address to set the approval"
        }
      },
      "supportsInterface(bytes4)": {
        "details": "See `IERC165.supportsInterface`.     * Time complexity O(1), guaranteed to always use less than 30 000 gas."
      },
      "symbol()": {
        "details": "Gets the token symbol.",
        "return": "string representing the token symbol"
      },
      "tokenByIndex(uint256)": {
        "details": "Gets the token ID at a given index of all the tokens in this contract Reverts if the index is greater or equal to the total number of tokens.",
        "params": {
          "index": "uint256 representing the index to be accessed of the tokens list"
        },
        "return": "uint256 token ID at the given index of the tokens list"
      },
      "tokenOfOwnerByIndex(address,uint256)": {
        "details": "Gets the token ID at a given index of the tokens list of the requested owner.",
        "params": {
          "index": "uint256 representing the index to be accessed of the requested tokens list",
          "owner": "address owning the tokens list to be accessed"
        },
        "return": "uint256 token ID at the given index of the tokens list owned by the requested address"
      },
      "tokenURI(uint256)": {
        "details": "Returns an URI for a given token ID. Throws if the token ID does not exist. May return an empty string.",
        "params": {
          "tokenId": "uint256 ID of the token to query"
        }
      },
      "totalSupply()": {
        "details": "Gets the total amount of tokens stored by the contract.",
        "return": "uint256 representing the total amount of tokens"
      },
      "transferFrom(address,address,uint256)": {
        "details": "Transfers the ownership of a given token ID to another address. Usage of this method is discouraged, use `safeTransferFrom` whenever possible. Requires the msg.sender to be the owner, approved, or operator.",
        "params": {
          "from": "current owner of the token",
          "to": "address to receive the ownership of the given token ID",
          "tokenId": "uint256 ID of the token to be transferred"
        }
      },
      "transferOwnership(address)": {
        "details": "Transfers ownership of the contract to a new account (`newOwner`). Can only be called by the current owner."
      }
    },
    "title": "MintableOwnableToken"
  },
  "userdoc": {
    "methods": {}
  }
}