{
  "contractName": "AuctionHouse",
  "abi": [
    {
      "anonymous": false,
      "inputs": [
        {
          "indexed": false,
          "internalType": "uint256",
          "name": "auctionId",
          "type": "uint256"
        }
      ],
      "name": "AuctionBuyOut",
      "type": "event"
    },
    {
      "anonymous": false,
      "inputs": [
        {
          "indexed": false,
          "internalType": "uint256",
          "name": "auctionId",
          "type": "uint256"
        }
      ],
      "name": "AuctionCancelled",
      "type": "event"
    },
    {
      "anonymous": false,
      "inputs": [
        {
          "indexed": false,
          "internalType": "uint256",
          "name": "auctionId",
          "type": "uint256"
        },
        {
          "components": [
            {
              "components": [
                {
                  "components": [
                    {
                      "internalType": "bytes4",
                      "name": "assetClass",
                      "type": "bytes4"
                    },
                    {
                      "internalType": "bytes",
                      "name": "data",
                      "type": "bytes"
                    }
                  ],
                  "internalType": "struct LibAsset.AssetType",
                  "name": "assetType",
                  "type": "tuple"
                },
                {
                  "internalType": "uint256",
                  "name": "value",
                  "type": "uint256"
                }
              ],
              "internalType": "struct LibAsset.Asset",
              "name": "sellAsset",
              "type": "tuple"
            },
            {
              "components": [
                {
                  "internalType": "bytes4",
                  "name": "assetClass",
                  "type": "bytes4"
                },
                {
                  "internalType": "bytes",
                  "name": "data",
                  "type": "bytes"
                }
              ],
              "internalType": "struct LibAsset.AssetType",
              "name": "buyAsset",
              "type": "tuple"
            },
            {
              "components": [
                {
                  "internalType": "uint256",
                  "name": "amount",
                  "type": "uint256"
                },
                {
                  "internalType": "bytes4",
                  "name": "dataType",
                  "type": "bytes4"
                },
                {
                  "internalType": "bytes",
                  "name": "data",
                  "type": "bytes"
                }
              ],
              "internalType": "struct AuctionHouseBase.Bid",
              "name": "lastBid",
              "type": "tuple"
            },
            {
              "internalType": "address payable",
              "name": "seller",
              "type": "address"
            },
            {
              "internalType": "address payable",
              "name": "buyer",
              "type": "address"
            },
            {
              "internalType": "uint256",
              "name": "startTime",
              "type": "uint256"
            },
            {
              "internalType": "uint256",
              "name": "endTime",
              "type": "uint256"
            },
            {
              "internalType": "uint256",
              "name": "minimalStep",
              "type": "uint256"
            },
            {
              "internalType": "uint256",
              "name": "minimalPrice",
              "type": "uint256"
            },
            {
              "internalType": "uint256",
              "name": "protocolFee",
              "type": "uint256"
            },
            {
              "internalType": "bytes4",
              "name": "dataType",
              "type": "bytes4"
            },
            {
              "internalType": "bytes",
              "name": "data",
              "type": "bytes"
            }
          ],
          "indexed": false,
          "internalType": "struct AuctionHouseBase.Auction",
          "name": "auction",
          "type": "tuple"
        }
      ],
      "name": "AuctionCreated",
      "type": "event"
    },
    {
      "anonymous": false,
      "inputs": [
        {
          "indexed": false,
          "internalType": "uint256",
          "name": "auctionId",
          "type": "uint256"
        }
      ],
      "name": "AuctionFinished",
      "type": "event"
    },
    {
      "anonymous": false,
      "inputs": [
        {
          "indexed": false,
          "internalType": "uint256",
          "name": "auctionId",
          "type": "uint256"
        },
        {
          "components": [
            {
              "internalType": "uint256",
              "name": "amount",
              "type": "uint256"
            },
            {
              "internalType": "bytes4",
              "name": "dataType",
              "type": "bytes4"
            },
            {
              "internalType": "bytes",
              "name": "data",
              "type": "bytes"
            }
          ],
          "indexed": false,
          "internalType": "struct AuctionHouseBase.Bid",
          "name": "bid",
          "type": "tuple"
        },
        {
          "indexed": false,
          "internalType": "uint256",
          "name": "endTime",
          "type": "uint256"
        }
      ],
      "name": "BidPlaced",
      "type": "event"
    },
    {
      "anonymous": false,
      "inputs": [
        {
          "indexed": true,
          "internalType": "address",
          "name": "previousOwner",
          "type": "address"
        },
        {
          "indexed": true,
          "internalType": "address",
          "name": "newOwner",
          "type": "address"
        }
      ],
      "name": "OwnershipTransferred",
      "type": "event"
    },
    {
      "anonymous": false,
      "inputs": [
        {
          "indexed": true,
          "internalType": "bytes4",
          "name": "assetType",
          "type": "bytes4"
        },
        {
          "indexed": false,
          "internalType": "address",
          "name": "proxy",
          "type": "address"
        }
      ],
      "name": "ProxyChange",
      "type": "event"
    },
    {
      "anonymous": false,
      "inputs": [
        {
          "components": [
            {
              "components": [
                {
                  "internalType": "bytes4",
                  "name": "assetClass",
                  "type": "bytes4"
                },
                {
                  "internalType": "bytes",
                  "name": "data",
                  "type": "bytes"
                }
              ],
              "internalType": "struct LibAsset.AssetType",
              "name": "assetType",
              "type": "tuple"
            },
            {
              "internalType": "uint256",
              "name": "value",
              "type": "uint256"
            }
          ],
          "indexed": false,
          "internalType": "struct LibAsset.Asset",
          "name": "asset",
          "type": "tuple"
        },
        {
          "indexed": false,
          "internalType": "address",
          "name": "from",
          "type": "address"
        },
        {
          "indexed": false,
          "internalType": "address",
          "name": "to",
          "type": "address"
        },
        {
          "indexed": false,
          "internalType": "bytes4",
          "name": "transferDirection",
          "type": "bytes4"
        },
        {
          "indexed": false,
          "internalType": "bytes4",
          "name": "transferType",
          "type": "bytes4"
        }
      ],
      "name": "Transfer",
      "type": "event"
    },
    {
      "inputs": [
        {
          "internalType": "uint256",
          "name": "",
          "type": "uint256"
        }
      ],
      "name": "auctions",
      "outputs": [
        {
          "components": [
            {
              "components": [
                {
                  "internalType": "bytes4",
                  "name": "assetClass",
                  "type": "bytes4"
                },
                {
                  "internalType": "bytes",
                  "name": "data",
                  "type": "bytes"
                }
              ],
              "internalType": "struct LibAsset.AssetType",
              "name": "assetType",
              "type": "tuple"
            },
            {
              "internalType": "uint256",
              "name": "value",
              "type": "uint256"
            }
          ],
          "internalType": "struct LibAsset.Asset",
          "name": "sellAsset",
          "type": "tuple"
        },
        {
          "components": [
            {
              "internalType": "bytes4",
              "name": "assetClass",
              "type": "bytes4"
            },
            {
              "internalType": "bytes",
              "name": "data",
              "type": "bytes"
            }
          ],
          "internalType": "struct LibAsset.AssetType",
          "name": "buyAsset",
          "type": "tuple"
        },
        {
          "components": [
            {
              "internalType": "uint256",
              "name": "amount",
              "type": "uint256"
            },
            {
              "internalType": "bytes4",
              "name": "dataType",
              "type": "bytes4"
            },
            {
              "internalType": "bytes",
              "name": "data",
              "type": "bytes"
            }
          ],
          "internalType": "struct AuctionHouseBase.Bid",
          "name": "lastBid",
          "type": "tuple"
        },
        {
          "internalType": "address payable",
          "name": "seller",
          "type": "address"
        },
        {
          "internalType": "address payable",
          "name": "buyer",
          "type": "address"
        },
        {
          "internalType": "uint256",
          "name": "startTime",
          "type": "uint256"
        },
        {
          "internalType": "uint256",
          "name": "endTime",
          "type": "uint256"
        },
        {
          "internalType": "uint256",
          "name": "minimalStep",
          "type": "uint256"
        },
        {
          "internalType": "uint256",
          "name": "minimalPrice",
          "type": "uint256"
        },
        {
          "internalType": "uint256",
          "name": "protocolFee",
          "type": "uint256"
        },
        {
          "internalType": "bytes4",
          "name": "dataType",
          "type": "bytes4"
        },
        {
          "internalType": "bytes",
          "name": "data",
          "type": "bytes"
        }
      ],
      "stateMutability": "view",
      "type": "function"
    },
    {
      "inputs": [],
      "name": "defaultFeeReceiver",
      "outputs": [
        {
          "internalType": "address",
          "name": "",
          "type": "address"
        }
      ],
      "stateMutability": "view",
      "type": "function"
    },
    {
      "inputs": [
        {
          "components": [
            {
              "components": [
                {
                  "internalType": "address payable",
                  "name": "account",
                  "type": "address"
                },
                {
                  "internalType": "uint96",
                  "name": "value",
                  "type": "uint96"
                }
              ],
              "internalType": "struct LibPart.Part[]",
              "name": "originFees",
              "type": "tuple[]"
            },
            {
              "internalType": "uint256",
              "name": "duration",
              "type": "uint256"
            },
            {
              "internalType": "uint256",
              "name": "startTime",
              "type": "uint256"
            },
            {
              "internalType": "uint256",
              "name": "buyOutPrice",
              "type": "uint256"
            }
          ],
          "internalType": "struct LibAucDataV1.DataV1",
          "name": "data",
          "type": "tuple"
        }
      ],
      "name": "encode",
      "outputs": [
        {
          "internalType": "bytes",
          "name": "",
          "type": "bytes"
        }
      ],
      "stateMutability": "pure",
      "type": "function"
    },
    {
      "inputs": [
        {
          "components": [
            {
              "components": [
                {
                  "internalType": "address payable",
                  "name": "account",
                  "type": "address"
                },
                {
                  "internalType": "uint96",
                  "name": "value",
                  "type": "uint96"
                }
              ],
              "internalType": "struct LibPart.Part[]",
              "name": "originFees",
              "type": "tuple[]"
            }
          ],
          "internalType": "struct LibBidDataV1.DataV1",
          "name": "data",
          "type": "tuple"
        }
      ],
      "name": "encodeBid",
      "outputs": [
        {
          "internalType": "bytes",
          "name": "",
          "type": "bytes"
        }
      ],
      "stateMutability": "pure",
      "type": "function"
    },
    {
      "inputs": [
        {
          "internalType": "address",
          "name": "",
          "type": "address"
        }
      ],
      "name": "feeReceivers",
      "outputs": [
        {
          "internalType": "address",
          "name": "",
          "type": "address"
        }
      ],
      "stateMutability": "view",
      "type": "function"
    },
    {
      "inputs": [
        {
          "internalType": "address",
          "name": "",
          "type": "address"
        },
        {
          "internalType": "address",
          "name": "",
          "type": "address"
        },
        {
          "internalType": "uint256[]",
          "name": "",
          "type": "uint256[]"
        },
        {
          "internalType": "uint256[]",
          "name": "",
          "type": "uint256[]"
        },
        {
          "internalType": "bytes",
          "name": "",
          "type": "bytes"
        }
      ],
      "name": "onERC1155BatchReceived",
      "outputs": [
        {
          "internalType": "bytes4",
          "name": "",
          "type": "bytes4"
        }
      ],
      "stateMutability": "nonpayable",
      "type": "function"
    },
    {
      "inputs": [
        {
          "internalType": "address",
          "name": "",
          "type": "address"
        },
        {
          "internalType": "address",
          "name": "",
          "type": "address"
        },
        {
          "internalType": "uint256",
          "name": "",
          "type": "uint256"
        },
        {
          "internalType": "uint256",
          "name": "",
          "type": "uint256"
        },
        {
          "internalType": "bytes",
          "name": "",
          "type": "bytes"
        }
      ],
      "name": "onERC1155Received",
      "outputs": [
        {
          "internalType": "bytes4",
          "name": "",
          "type": "bytes4"
        }
      ],
      "stateMutability": "nonpayable",
      "type": "function"
    },
    {
      "inputs": [
        {
          "internalType": "address",
          "name": "",
          "type": "address"
        },
        {
          "internalType": "address",
          "name": "",
          "type": "address"
        },
        {
          "internalType": "uint256",
          "name": "",
          "type": "uint256"
        },
        {
          "internalType": "bytes",
          "name": "",
          "type": "bytes"
        }
      ],
      "name": "onERC721Received",
      "outputs": [
        {
          "internalType": "bytes4",
          "name": "",
          "type": "bytes4"
        }
      ],
      "stateMutability": "nonpayable",
      "type": "function"
    },
    {
      "inputs": [],
      "name": "owner",
      "outputs": [
        {
          "internalType": "address",
          "name": "",
          "type": "address"
        }
      ],
      "stateMutability": "view",
      "type": "function"
    },
    {
      "inputs": [],
      "name": "protocolFee",
      "outputs": [
        {
          "internalType": "uint256",
          "name": "",
          "type": "uint256"
        }
      ],
      "stateMutability": "view",
      "type": "function"
    },
    {
      "inputs": [],
      "name": "renounceOwnership",
      "outputs": [],
      "stateMutability": "nonpayable",
      "type": "function"
    },
    {
      "inputs": [
        {
          "internalType": "address payable",
          "name": "newDefaultFeeReceiver",
          "type": "address"
        }
      ],
      "name": "setDefaultFeeReceiver",
      "outputs": [],
      "stateMutability": "nonpayable",
      "type": "function"
    },
    {
      "inputs": [
        {
          "internalType": "address",
          "name": "token",
          "type": "address"
        },
        {
          "internalType": "address",
          "name": "wallet",
          "type": "address"
        }
      ],
      "name": "setFeeReceiver",
      "outputs": [],
      "stateMutability": "nonpayable",
      "type": "function"
    },
    {
      "inputs": [
        {
          "internalType": "uint256",
          "name": "newProtocolFee",
          "type": "uint256"
        }
      ],
      "name": "setProtocolFee",
      "outputs": [],
      "stateMutability": "nonpayable",
      "type": "function"
    },
    {
      "inputs": [
        {
          "internalType": "bytes4",
          "name": "assetType",
          "type": "bytes4"
        },
        {
          "internalType": "address",
          "name": "proxy",
          "type": "address"
        }
      ],
      "name": "setTransferProxy",
      "outputs": [],
      "stateMutability": "nonpayable",
      "type": "function"
    },
    {
      "inputs": [
        {
          "internalType": "bytes4",
          "name": "interfaceId",
          "type": "bytes4"
        }
      ],
      "name": "supportsInterface",
      "outputs": [
        {
          "internalType": "bool",
          "name": "",
          "type": "bool"
        }
      ],
      "stateMutability": "view",
      "type": "function"
    },
    {
      "inputs": [
        {
          "internalType": "address",
          "name": "newOwner",
          "type": "address"
        }
      ],
      "name": "transferOwnership",
      "outputs": [],
      "stateMutability": "nonpayable",
      "type": "function"
    },
    {
      "inputs": [
        {
          "internalType": "contract INftTransferProxy",
          "name": "_transferProxy",
          "type": "address"
        },
        {
          "internalType": "contract IERC20TransferProxy",
          "name": "_erc20TransferProxy",
          "type": "address"
        },
        {
          "internalType": "uint256",
          "name": "newProtocolFee",
          "type": "uint256"
        },
        {
          "internalType": "address",
          "name": "newDefaultFeeReceiver",
          "type": "address"
        }
      ],
      "name": "__AuctionHouse_init",
      "outputs": [],
      "stateMutability": "nonpayable",
      "type": "function"
    },
    {
      "inputs": [
        {
          "components": [
            {
              "components": [
                {
                  "internalType": "bytes4",
                  "name": "assetClass",
                  "type": "bytes4"
                },
                {
                  "internalType": "bytes",
                  "name": "data",
                  "type": "bytes"
                }
              ],
              "internalType": "struct LibAsset.AssetType",
              "name": "assetType",
              "type": "tuple"
            },
            {
              "internalType": "uint256",
              "name": "value",
              "type": "uint256"
            }
          ],
          "internalType": "struct LibAsset.Asset",
          "name": "_sellAsset",
          "type": "tuple"
        },
        {
          "components": [
            {
              "internalType": "bytes4",
              "name": "assetClass",
              "type": "bytes4"
            },
            {
              "internalType": "bytes",
              "name": "data",
              "type": "bytes"
            }
          ],
          "internalType": "struct LibAsset.AssetType",
          "name": "_buyAsset",
          "type": "tuple"
        },
        {
          "internalType": "uint256",
          "name": "endTime",
          "type": "uint256"
        },
        {
          "internalType": "uint256",
          "name": "minimalStep",
          "type": "uint256"
        },
        {
          "internalType": "uint256",
          "name": "minimalPrice",
          "type": "uint256"
        },
        {
          "internalType": "bytes4",
          "name": "dataType",
          "type": "bytes4"
        },
        {
          "internalType": "bytes",
          "name": "data",
          "type": "bytes"
        }
      ],
      "name": "startAuction",
      "outputs": [],
      "stateMutability": "nonpayable",
      "type": "function"
    },
    {
      "inputs": [
        {
          "internalType": "uint256",
          "name": "_auctionId",
          "type": "uint256"
        },
        {
          "components": [
            {
              "internalType": "uint256",
              "name": "amount",
              "type": "uint256"
            },
            {
              "internalType": "bytes4",
              "name": "dataType",
              "type": "bytes4"
            },
            {
              "internalType": "bytes",
              "name": "data",
              "type": "bytes"
            }
          ],
          "internalType": "struct AuctionHouseBase.Bid",
          "name": "bid",
          "type": "tuple"
        }
      ],
      "name": "putBid",
      "outputs": [],
      "stateMutability": "payable",
      "type": "function"
    },
    {
      "inputs": [
        {
          "internalType": "uint256",
          "name": "_auctionId",
          "type": "uint256"
        }
      ],
      "name": "finishAuction",
      "outputs": [],
      "stateMutability": "payable",
      "type": "function"
    },
    {
      "inputs": [
        {
          "internalType": "uint256",
          "name": "_auctionId",
          "type": "uint256"
        }
      ],
      "name": "cancel",
      "outputs": [],
      "stateMutability": "nonpayable",
      "type": "function"
    },
    {
      "inputs": [
        {
          "internalType": "uint256",
          "name": "_auctionId",
          "type": "uint256"
        },
        {
          "components": [
            {
              "internalType": "uint256",
              "name": "amount",
              "type": "uint256"
            },
            {
              "internalType": "bytes4",
              "name": "dataType",
              "type": "bytes4"
            },
            {
              "internalType": "bytes",
              "name": "data",
              "type": "bytes"
            }
          ],
          "internalType": "struct AuctionHouseBase.Bid",
          "name": "bid",
          "type": "tuple"
        }
      ],
      "name": "buyOut",
      "outputs": [],
      "stateMutability": "payable",
      "type": "function"
    }
  ],
  "bytecode": "0x608060405234801561001057600080fd5b50614a9f806100206000396000f3fe6080604052600436106101405760003560e01c8063715018a6116100b6578063bc197c811161006f578063bc197c8114610383578063cf266ed0146103a3578063e66db25e146103b6578063ee40f79b146103d6578063f23a6e61146103f6578063f2fde38b1461041657610140565b8063715018a6146102e4578063787dce3d146102f95780638da5cb5b14610319578063a59f23ee1461032e578063a6f4a3e01461034e578063b0e21e8a1461036157610140565b806330c642f11161010857806330c642f1146102175780633abf6fd41461023757806340e58ee51461024c578063484ffa361461026c578063506a90e714610299578063571a26a0146102ac57610140565b806301ffc9a71461014557806302097ab11461017b578063109ffdf5146101a8578063150b7a02146101ca5780631cdfe3d8146101f7575b600080fd5b34801561015157600080fd5b50610165610160366004613b7e565b610436565b604051610172919061425d565b60405180910390f35b34801561018757600080fd5b5061019b610196366004613949565b6104b4565b6040516101729190614215565b3480156101b457600080fd5b506101c86101c3366004613bb3565b6104cf565b005b3480156101d657600080fd5b506101ea6101e5366004613a8f565b6105d1565b6040516101729190614268565b34801561020357600080fd5b506101c8610212366004613949565b6105e1565b34801561022357600080fd5b506101c8610232366004613b98565b610665565b34801561024357600080fd5b5061019b610735565b34801561025857600080fd5b506101c8610267366004613f10565b610744565b34801561027857600080fd5b5061028c610287366004613cfa565b61092e565b604051610172919061427d565b6101c86102a7366004613f28565b610957565b3480156102b857600080fd5b506102cc6102c7366004613f10565b610d35565b6040516101729c9b9a999897969594939291906146ad565b3480156102f057600080fd5b506101c861106d565b34801561030557600080fd5b506101c8610314366004613f10565b611119565b34801561032557600080fd5b5061019b611180565b34801561033a57600080fd5b5061028c610349366004613e2c565b61118f565b6101c861035c366004613f28565b6111a2565b34801561036d57600080fd5b5061037661126c565b60405161017291906147bb565b34801561038f57600080fd5b506101ea61039e3660046139e6565b611272565b6101c86103b1366004613f10565b611283565b3480156103c257600080fd5b506101c86103d13660046139ae565b61131a565b3480156103e257600080fd5b506101c86103f1366004613c05565b6113aa565b34801561040257600080fd5b506101ea610411366004613af8565b6116d3565b34801561042257600080fd5b506101c8610431366004613949565b6116e4565b6040516301ffc9a760e01b815260009030906301ffc9a79061045c908590600401614268565b60206040518083038186803b15801561047457600080fd5b505afa158015610488573d6000803e3d6000fd5b505050506040513d601f19601f820116820180604052508101906104ac9190613b5e565b90505b919050565b60cb602052600090815260409020546001600160a01b031681565b603254610100900460ff16806104e857506104e86117e7565b806104f6575060325460ff16155b6105315760405162461bcd60e51b815260040180806020018281038252602e8152602001806149fb602e913960400191505060405180910390fd5b603254610100900460ff1615801561055c576032805460ff1961ff0019909116610100171660011790555b6105646117f8565b61056c61189a565b6105768585611993565b61057e611a3d565b6105888383611a44565b60fc80546001600160a01b038088166001600160a01b03199283161790925560fd80549287169290911691909117905580156105ca576032805461ff00191690555b5050505050565b630a85bd0160e11b949350505050565b6105e9611b08565b6001600160a01b03166105fa611180565b6001600160a01b031614610643576040805162461bcd60e51b81526020600482018190526024820152600080516020614a4a833981519152604482015290519081900360640190fd5b60ca80546001600160a01b0319166001600160a01b0392909216919091179055565b61066d611b08565b6001600160a01b031661067e611180565b6001600160a01b0316146106c7576040805162461bcd60e51b81526020600482018190526024820152600080516020614a4a833981519152604482015290519081900360640190fd5b6001600160e01b031982166000818152609760205260409081902080546001600160a01b0319166001600160a01b038516179055517f4b5aced933c0c9a88aeac3f0b3b72c5aaf75df8ebaf53225773248c4c315359390610729908490614215565b60405180910390a25050565b60ca546001600160a01b031681565b61074d81611b0c565b6107725760405162461bcd60e51b8152600401610769906143ad565b60405180910390fd5b600081815260fa6020526040902060088101546001600160a01b0316610796611b08565b6001600160a01b0316816001600160a01b0316146107c65760405162461bcd60e51b81526004016107699061444e565b600982015460058301546001600160a01b0390911690816105ca5760408051608081018252855460e01b6001600160e01b0319168183019081526001808801805485516020600261010095841615959095026000190190921693909304601f81018290048202840182019096528583526108e7958a948694909386936060870193908301828280156108995780601f1061086e57610100808354040283529160200191610899565b820191906000526020600020905b81548152906001019060200180831161087c57829003601f168201915b505050505081525050815260200160028201548152505030856000805160206149bb8339815191527f12755a21b06621963f5494677d2471a10330ef7ad5d571bc17b92582968032d0611b3b565b6108f085611eb3565b7f2809c7e17bf978fbc7194c0a694b638c4215e9140cacc6c38ca36010b45697df8560405161091f91906147bb565b60405180910390a15050505050565b606081604051602001610941919061475a565b6040516020818303038152906040529050919050565b61096082611b0c565b61097c5760405162461bcd60e51b8152600401610769906143ad565b61098582611ebd565b6109a15760405162461bcd60e51b8152600401610769906145e8565b60006109ab611b08565b82519091506109ba8482611fa5565b15610a19576109c9848461203c565b6109d2846121a3565b6109db84611eb3565b7f5a28582ddb8790a81a3ab22a2cba2677acdba09bc6ee1385990f0f2bbabc26c384604051610a0a91906147bb565b60405180910390a15050610d31565b600084815260fa60209081526040808320601081018054835160026001831615610100026000190190921691909104601f8101869004860282018601909452838152919442949093610acb939291830182828015610ab85780601f10610a8d57610100808354040283529160200191610ab8565b820191906000526020600020905b815481529060010190602001808311610a9b57829003601f168201915b50505050600f86015460e01b905061253f565b60098401549091506001600160a01b0316610b155782600d0154841015610b045760405162461bcd60e51b8152600401610769906144dd565b60208101518201600b840155610b98565b8183600b01541015610b395760405162461bcd60e51b815260040161076990614551565b60098301546001600160a01b0386811691161415610b695760405162461bcd60e51b81526004016107699061433f565b6000610b748861257b565b905080851015610b965760405162461bcd60e51b815260040161076990614485565b505b60408051808201825260038501805460e01b6001600160e01b03191682526004860180548451602060026101006001851615026000190190931692909204601f8101839004830282018301909652858152610c6c95828601939192830182828015610c445780601f10610c1957610100808354040283529160200191610c44565b820191906000526020600020905b815481529060010190602001808311610c2757829003601f168201915b50505091909252505050600985015460058601546001600160a01b03909116908890886125bb565b85516005840190815560208088015160068601805463ffffffff191660e09290921c91909117905560408801518051899392610caf92600789019291019061358d565b5050506009830180546001600160a01b0319166001600160a01b038716179055600b830154610384908390031015610cec576103848201600b8401555b7f9d89b26c88af0666e0502f71246ce92ea5ee513d508840b43aeb2eb22fac3ed1878785600b0154604051610d23939291906148c3565b60405180910390a150505050505b5050565b60fa602090815260009182526040918290208251608081018452815460e01b6001600160e01b031916818501908152600180840180548751600261010094831615949094026000190190911692909204601f810187900487028301870190975286825293959294869486948693606087019390929190830182828015610dfc5780601f10610dd157610100808354040283529160200191610dfc565b820191906000526020600020905b815481529060010190602001808311610ddf57829003601f168201915b50505091909252505050815260029182015460209182015260408051808201825260038601805460e01b6001600160e01b031916825260048701805484516101006001831615026000190190911696909604601f8101869004860287018601909452838652959695919490938581019391929190830182828015610ec15780601f10610e9657610100808354040283529160200191610ec1565b820191906000526020600020905b815481529060010190602001808311610ea457829003601f168201915b505050919092525050604080516060810182526005850180548252600686015460e01b6001600160e01b031916602080840191909152600787018054855160026101006001841615026000190190921691909104601f8101849004840282018401875280825297989794965092948601939091830182828015610f855780601f10610f5a57610100808354040283529160200191610f85565b820191906000526020600020905b815481529060010190602001808311610f6857829003601f168201915b5050509190925250505060088201546009830154600a840154600b850154600c860154600d870154600e880154600f89015460108a01805460408051602060026101006001861615026000190190941693909304601f81018490048402820184019092528181529b9c6001600160a01b039b8c169c9b909a169a9899979896979596949560e09490941b9492918301828280156110635780601f1061103857610100808354040283529160200191611063565b820191906000526020600020905b81548152906001019060200180831161104657829003601f168201915b505050505090508c565b611075611b08565b6001600160a01b0316611086611180565b6001600160a01b0316146110cf576040805162461bcd60e51b81526020600482018190526024820152600080516020614a4a833981519152604482015290519081900360640190fd5b6065546040516000916001600160a01b0316907f8be0079c531659141344cd1fd0a4f28419497f9722a3daafe3b4186f6b6457e0908390a3606580546001600160a01b0319169055565b611121611b08565b6001600160a01b0316611132611180565b6001600160a01b03161461117b576040805162461bcd60e51b81526020600482018190526024820152600080516020614a4a833981519152604482015290519081900360640190fd5b60c955565b6065546001600160a01b031690565b60608160405160200161094191906147a0565b6111ab82611b0c565b6111c75760405162461bcd60e51b8152600401610769906143ad565b6111d082611ebd565b6111ec5760405162461bcd60e51b8152600401610769906145e8565b80516111f88382611fa5565b6112145760405162461bcd60e51b815260040161076990614417565b61121e838361203c565b611227836121a3565b61123083611eb3565b7f5a28582ddb8790a81a3ab22a2cba2677acdba09bc6ee1385990f0f2bbabc26c38360405161125f91906147bb565b60405180910390a1505050565b60c95481565b63bc197c8160e01b95945050505050565b61128c81611b0c565b6112a85760405162461bcd60e51b8152600401610769906143ad565b6112b181611ebd565b156112ce5760405162461bcd60e51b8152600401610769906142fd565b6112d7816121a3565b6112e081611eb3565b7f53ab6823c4ae8c865033f94ee16313a21c6ade19520d884dc804d622a43bc6748160405161130f91906147bb565b60405180910390a150565b611322611b08565b6001600160a01b0316611333611180565b6001600160a01b03161461137c576040805162461bcd60e51b81526020600482018190526024820152600080516020614a4a833981519152604482015290519081900360640190fd5b6001600160a01b03918216600090815260cb6020526040902080546001600160a01b03191691909216179055565b60006113b46128ee565b8851519091506001600160e01b0319166355575f5d60e11b14156113ea5760405162461bcd60e51b8152600401610769906145b1565b60006113f6838561253f565b905060008061140e83604001518a85602001516128fc565b915091506040518061018001604052808c81526020018b815260200160405180606001604052806000815260200160006001600160e01b031916815260200160405180602001604052806000815250815250815260200161146d611b08565b6001600160a01b0316815260006020808301829052604080840187905260608401869052608084018d905260a084018c905260c084018390526001600160e01b03198b1660e0808601919091526101009094018a905288835260fa8252909120835180518051835463ffffffff1916951c949094178255838301518051929491938593849261150392600185019291019061358d565b5050506020918201516002919091015582810151805160038401805463ffffffff191660e09290921c9190911781558183015180519293919261154c926004870192019061358d565b50505060408281015180516005840190815560208083015160068601805463ffffffff191660e09290921c91909117905592820151805192939192611597926007870192019061358d565b50505060608201516008820180546001600160a01b039283166001600160a01b031991821617909155608084015160098401805491909316911617905560a0820151600a82015560c0820151600b82015560e080830151600c830155610100830151600d830155610120830151600e830155610140830151600f830180549190921c63ffffffff19909116179055610160820151805161164191601084019160209091019061358d565b509050506116758b611651611b08565b306000805160206149db83398151915260008051602061499b833981519152611b3b565b61167e8b61297a565b600084815260fa60205260409081902090517f07a67287239140d8856d06fe4df4b9dd251f8d86063139ffb4264504c33a2ce7916116be918791906147c4565b60405180910390a15050505050505050505050565b63f23a6e6160e01b95945050505050565b6116ec611b08565b6001600160a01b03166116fd611180565b6001600160a01b031614611746576040805162461bcd60e51b81526020600482018190526024820152600080516020614a4a833981519152604482015290519081900360640190fd5b6001600160a01b03811661178b5760405162461bcd60e51b81526004018080602001828103825260268152602001806149756026913960400191505060405180910390fd5b6065546040516001600160a01b038084169216907f8be0079c531659141344cd1fd0a4f28419497f9722a3daafe3b4186f6b6457e090600090a3606580546001600160a01b0319166001600160a01b0392909216919091179055565b60006117f230612bb4565b15905090565b603254610100900460ff168061181157506118116117e7565b8061181f575060325460ff16155b61185a5760405162461bcd60e51b815260040180806020018281038252602e8152602001806149fb602e913960400191505060405180910390fd5b603254610100900460ff16158015611885576032805460ff1961ff0019909116610100171660011790555b8015611897576032805461ff00191690555b50565b603254610100900460ff16806118b357506118b36117e7565b806118c1575060325460ff16155b6118fc5760405162461bcd60e51b815260040180806020018281038252602e8152602001806149fb602e913960400191505060405180910390fd5b603254610100900460ff16158015611927576032805460ff1961ff0019909116610100171660011790555b6000611931611b08565b606580546001600160a01b0319166001600160a01b038316908117909155604051919250906000907f8be0079c531659141344cd1fd0a4f28419497f9722a3daafe3b4186f6b6457e0908290a3508015611897576032805461ff001916905550565b60976020527f4532fa16f071d6234e30e1a1e69b9806f04095edf37a1ca7a25c8d6af7861cc080546001600160a01b039283166001600160a01b0319918216179091557f30a684095c937b5aa064dcf94f9903a7d808e3efb22d8389dbd43080ad4ed3d5805493909216928116831790915563025ceed960e61b6000527f4b5822151ea34b7c8d9e37c3e466bcecb631efe6a9f26a4a4054110a93dd316f80549091169091179055565b600160fb55565b603254610100900460ff1680611a5d5750611a5d6117e7565b80611a6b575060325460ff16155b611aa65760405162461bcd60e51b815260040180806020018281038252602e8152602001806149fb602e913960400191505060405180910390fd5b603254610100900460ff16158015611ad1576032805460ff1961ff0019909116610100171660011790555b60c983905560ca80546001600160a01b0319166001600160a01b0384161790558015611b03576032805461ff00191690555b505050565b3390565b600081815260fa60205260408120600801546001600160a01b0316611b33575060006104af565b5060016104af565b8451516001600160e01b0319166355575f5d60e11b1415611b74576020850151611b6f906001600160a01b03851690612bba565b611e7c565b8451516001600160e01b0319166322ba176160e21b1415611c52576000856000015160200151806020019051810190611bad9190613965565b6322ba176160e21b600052609760209081527f4532fa16f071d6234e30e1a1e69b9806f04095edf37a1ca7a25c8d6af7861cc0549088015160405163776062c360e01b81529293506001600160a01b039091169163776062c391611c1a9185918a918a91906004016142d3565b600060405180830381600087803b158015611c3457600080fd5b505af1158015611c48573d6000803e3d6000fd5b5050505050611e7c565b8451516001600160e01b0319166339d690a360e11b1415611d5257600080866000015160200151806020019051810190611c8c9190613981565b915091508660200151600114611cb45760405162461bcd60e51b8152600401610769906144b1565b6339d690a360e11b60005260976020527f30a684095c937b5aa064dcf94f9903a7d808e3efb22d8389dbd43080ad4ed3d554604051637b84dc8360e11b81526001600160a01b039091169063f709b90690611d199085908a908a9087906004016142d3565b600060405180830381600087803b158015611d3357600080fd5b505af1158015611d47573d6000803e3d6000fd5b505050505050611e7c565b8451516001600160e01b03191663025ceed960e61b1415611dfb57600080866000015160200151806020019051810190611d8c9190613981565b63025ceed960e61b600052609760209081527f4b5822151ea34b7c8d9e37c3e466bcecb631efe6a9f26a4a4054110a93dd316f54908a0151604051639c1c2ee960e01b81529395509193506001600160a01b031691639c1c2ee991611d199186918b918b918891600401614290565b8451516001600160e01b031916600090815260976020526040908190205490516354bc0cf160e01b81526001600160a01b03909116906354bc0cf190611e499088908890889060040161462f565b600060405180830381600087803b158015611e6357600080fd5b505af1158015611e77573d6000803e3d6000fd5b505050505b7fcae9d16f553e92058883de29cb3135dbc0c1e31fd7eace79fef1d80577fe482e858585858560405161091f959493929190614662565b60005260fa602052565b600081815260fa60209081526040808320601081018054835160026001831615610100026000190190921691909104601f8101869004860282018601909452838152429492938693611f6f939190830182828015611f5c5780601f10611f3157610100808354040283529160200191611f5c565b820191906000526020600020905b815481529060010190602001808311611f3f57829003601f168201915b50505050600f85015460e01b905061253f565b905080604001518310158015611f89575081600b01548311155b15611f9a57600193505050506104af565b506000949350505050565b600082815260fa60209081526040808320601081018054835160026001831615610100026000190190921691909104601f810186900486028201860190945283815291938593612017939291830182828015611f5c5780601f10611f3157610100808354040283529160200191611f5c565b90508381606001511161202f57600192505050612036565b6000925050505b92915050565b6000612046611b08565b600084815260fa602090815260409182902085518351808501855260038301805460e01b6001600160e01b0319168252600484018054875160026101006001841615026000190190921691909104601f8101889004880282018801909852878152979850939692956121379592949193858401939092919083018282801561210f5780601f106120e45761010080835404028352916020019161210f565b820191906000526020600020905b8154815290600101906020018083116120f257829003601f168201915b50505091909252505050600984015460058501546001600160a01b03909116908690856125bb565b83516005830190815560208086015160068501805463ffffffff191660e09290921c9190911790556040860151805187939261217a92600788019291019061358d565b5050505060090180546001600160a01b0319166001600160a01b03929092169190911790555050565b600081815260fa60205260409020600881015460098201546001600160a01b0391821691168015612433576000806121da86612c52565b60408051808201825260038901805460e01b6001600160e01b031916825260048a0180548451602060026101006001851615026000190190931692909204601f81018390048302820183019096528581529698509496506122d09592949193828601939283018282801561228f5780601f106122645761010080835404028352916020019161228f565b820191906000526020600020905b81548152906001019060200180831161227257829003601f168201915b5050505050815250503086856000805160206149bb8339815191527fa10bb5b2060a412d05113732875a5431ca23453eb93f797e0ffcb5b40e5f2c3e613139565b845460e01b6001600160e01b03191663025ceed960e61b14806123075750845460e01b6001600160e01b0319166322ba176160e21b145b1561231457600285018190555b60408051608081018252865460e01b6001600160e01b0319168183019081526001808901805485516020600261010095841615959095026000190190921693909304601f810182900482028401820190965285835261242c958b948694909386936060870193908301828280156123cc5780601f106123a1576101008083540402835291602001916123cc565b820191906000526020600020905b8154815290600101906020018083116123af57829003601f168201915b505050505081525050815260200160028201548152505030857fd73c487a8212ca762b5909ed7e9ebdfe996fac99399d80aa7cba14cdbfaee04b7fa10bb5b2060a412d05113732875a5431ca23453eb93f797e0ffcb5b40e5f2c3e611b3b565b5050612539565b60408051608081018252845460e01b6001600160e01b0319168183019081526001808701805485516020600261010095841615959095026000190190921693909304601f81018290048202840182019096528583526125399589948694909386936060870193908301828280156124eb5780601f106124c0576101008083540402835291602001916124eb565b820191906000526020600020905b8154815290600101906020018083116124ce57829003601f168201915b505050505081525050815260200160028201548152505030846000805160206149bb8339815191527f12755a21b06621963f5494677d2471a10330ef7ad5d571bc17b92582968032d0611b3b565b50505050565b612547613619565b6001600160e01b03198216632611a13360e11b141561203657828060200190518101906125749190613d93565b9392505050565b600081815260fa6020526040812060098101546001600160a01b03166125a75780600d015491506125b5565b600c81015460058201540191505b50919050565b6125c3613641565b6001600160a01b03851615612619576125dc8684613161565b90506126198130876000805160206149db8339815191527f12755a21b06621963f5494677d2471a10330ef7ad5d571bc17b92582968032d0611b3b565b6126238683613161565b8051519091506001600160e01b0319166355575f5d60e11b1415612664578134111561265f5761265f6001600160a01b03851634849003612bba565b6128e6565b8051516001600160e01b0319166322ba176160e21b1415612750576126a88185306000805160206149db83398151915260008051602061499b833981519152611b3b565b600086602001518060200190518101906126c29190613965565b60fd5460405163095ea7b360e01b81529192506001600160a01b038084169263095ea7b3926126f79216908790600401614244565b602060405180830381600087803b15801561271157600080fd5b505af1158015612725573d6000803e3d6000fd5b505050506040513d601f19601f820116820180604052508101906127499190613b5e565b50506128e6565b8051516001600160e01b03191663025ceed960e61b141561281d576127948185306000805160206149db83398151915260008051602061499b833981519152611b3b565b600086602001518060200190518101906127ae9190613981565b5060fc5460405163a22cb46560e01b81529192506001600160a01b038084169263a22cb465926127e5921690600190600401614229565b600060405180830381600087803b1580156127ff57600080fd5b505af1158015612813573d6000803e3d6000fd5b50505050506128e6565b8051516001600160e01b0319166339d690a360e11b14156128e6576128618185306000805160206149db83398151915260008051602061499b833981519152611b3b565b6000866020015180602001905181019061287b9190613981565b5060fc5460405163a22cb46560e01b81529192506001600160a01b038084169263a22cb465926128b2921690600190600401614229565b600060405180830381600087803b1580156128cc57600080fd5b505af11580156128e0573d6000803e3d6000fd5b50505050505b505050505050565b60fb80546001810190915590565b6000808461290c57429150612910565b8491505b8361295057610384831015801561292b57506305265c008311155b6129475760405162461bcd60e51b815260040161076990614521565b50808201612953565b50825b8181116129725760405162461bcd60e51b815260040161076990614376565b935093915050565b8051516001600160e01b0319166322ba176160e21b1415612a465760008160000151602001518060200190518101906129b39190613965565b60fd54602084015160405163095ea7b360e01b81529293506001600160a01b038085169363095ea7b3936129ed9392169190600401614244565b602060405180830381600087803b158015612a0757600080fd5b505af1158015612a1b573d6000803e3d6000fd5b505050506040513d601f19601f82011682018060405250810190612a3f9190613b5e565b5050611897565b8051516001600160e01b0319166339d690a360e11b1415612b1657600080826000015160200151806020019051810190612a809190613981565b915091508260200151600114612aa85760405162461bcd60e51b8152600401610769906144b1565b60fc5460405163a22cb46560e01b81526001600160a01b038481169263a22cb46592612add9290911690600190600401614229565b600060405180830381600087803b158015612af757600080fd5b505af1158015612b0b573d6000803e3d6000fd5b505050505050611897565b8051516001600160e01b03191663025ceed960e61b1415611897576000816000015160200151806020019051810190612b4f9190613981565b5060fc5460405163a22cb46560e01b81529192506001600160a01b038084169263a22cb46592612b86921690600190600401614229565b600060405180830381600087803b158015612ba057600080fd5b505af11580156128e6573d6000803e3d6000fd5b3b151590565b6040516000906001600160a01b0384169083908381818185875af1925050503d8060008114612c05576040519150601f19603f3d011682016040523d82523d6000602084013e612c0a565b606091505b5050905080611b03576040805162461bcd60e51b815260206004820152600f60248201526e1d1c985b9cd9995c8819985a5b1959608a1b604482015290519081900360640190fd5b600081815260fa60209081526040808320600881015460058201548351808501855260038401805460e01b6001600160e01b0319168252600485018054875160026101006001841615026000190190921691909104601f81018a90048a0282018a01909852878152899896976001600160a01b03909616969495612d4f958795869530959194909385840193919291830182828015612d325780601f10612d0757610100808354040283529160200191612d32565b820191906000526020600020905b815481529060010190602001808311612d1557829003601f168201915b5050505050815250506000805160206149db833981519152613174565b6002848101546010860180546040805160206001841615610100026000190190931695909504601f8101839004830286018301909152808552949950919750600093612dfa9392830182828015612de75780601f10612dbc57610100808354040283529160200191612de7565b820191906000526020600020905b815481529060010190602001808311612dca57829003601f168201915b50505050600f87015460e01b905061253f565b805160408051808201825260038801805460e01b6001600160e01b03191682526004890180548451602060026101006001851615026000190190931692909204601f81018390048302820183019096528581529697509495600095612ef1958186019391830182828015612eaf5780601f10612e8457610100808354040283529160200191612eaf565b820191906000526020600020905b815481529060010190602001808311612e9257829003601f168201915b505050505081525050898685306000805160206149bb8339815191527fb3c5c697ec0b511b76d12f6293e6ee827b1e1df79ac7c64d0466d945904893d761326f565b9098509050611388811115612f185760405162461bcd60e51b8152600401610769906143e2565b855460e01b6001600160e01b03191663025ceed960e61b1480612f4f5750855460e01b6001600160e01b0319166322ba176160e21b145b1561312e5760078601805460408051602060026001851615610100026000190190941693909304601f8101849004840282018401909252818152600093612ff89391929091830182828015612fe55780601f10612fba57610100808354040283529160200191612fe5565b820191906000526020600020905b815481529060010190602001808311612fc857829003601f168201915b5050505060068a015460e01b905061333d565b80516040805180820182528a5460e01b6001600160e01b03191681526001808c01805484516020600261010095841615959095026000190190921693909304601f810182900482028401820190955284835295965093946131049492938d9382860193929091908301828280156130b05780601f10613085576101008083540402835291602001916130b0565b820191906000526020600020905b81548152906001019060200180831161309357829003601f168201915b5050505050815250508a8b84307fd73c487a8212ca762b5909ed7e9ebdfe996fac99399d80aa7cba14cdbfaee04b7fb3c5c697ec0b511b76d12f6293e6ee827b1e1df79ac7c64d0466d945904893d761326f565b909950925061138883111561312b5760405162461bcd60e51b81526004016107699061457a565b50505b505050505050915091565b613141613641565b868152602081018490526131588187878686611b3b565b50505050505050565b613169613641565b918252602082015290565b60008060006131998888613194600260c95461337290919063ffffffff16565b6133cb565b909250905080156132645784516000906001600160e01b0319166322ba176160e21b14156131e05785602001518060200190518101906131d99190613965565b9050613219565b85516001600160e01b03191663025ceed960e61b141561321957600086602001518060200190518101906132149190613981565b509150505b6132626040518060400160405280888152602001848152508861323b846133ed565b887ff87e69cb514f255f3d32f9d90f25160a10d0cdefe6618a6406db334d4450595c611b3b565b505b509695505050505050565b856000805b8651811015613330576132b087828151811061328c57fe5b6020026020010151602001516001600160601b03168361342a90919063ffffffff16565b91506000806132e0858b8b86815181106132c657fe5b6020026020010151602001516001600160601b03166133cb565b909550859250905080156133265761332660405180604001604052808e815260200183815250898b868151811061331357fe5b6020026020010151600001518a8a611b3b565b5050600101613274565b5097509795505050505050565b613345613661565b6001600160e01b03198216632611a13360e11b141561203657828060200190518101906125749190613ea4565b60008261338157506000612036565b8282028284828161338e57fe5b04146125745760405162461bcd60e51b8152600401808060200182810382526021815260200180614a296021913960400191505060405180910390fd5b6000806133e1856133dc8686613484565b61349c565b91509150935093915050565b6001600160a01b03808216600090815260cb602052604081205490911680156134175790506104af565b505060ca546001600160a01b0316919050565b600082820183811015612574576040805162461bcd60e51b815260206004820152601b60248201527f536166654d6174683a206164646974696f6e206f766572666c6f770000000000604482015290519081900360640190fd5b60006125746127106134968585613372565b906134c9565b600080828411156134bb576134b18484613530565b91508290506134c2565b5060009050825b9250929050565b600080821161351f576040805162461bcd60e51b815260206004820152601a60248201527f536166654d6174683a206469766973696f6e206279207a65726f000000000000604482015290519081900360640190fd5b81838161352857fe5b049392505050565b600082821115613587576040805162461bcd60e51b815260206004820152601e60248201527f536166654d6174683a207375627472616374696f6e206f766572666c6f770000604482015290519081900360640190fd5b50900390565b828054600181600116156101000203166002900490600052602060002090601f0160209004810192826135c35760008555613609565b82601f106135dc57805160ff1916838001178555613609565b82800160010185558215613609579182015b828111156136095782518255916020019190600101906135ee565b50613615929150613674565b5090565b6040518060800160405280606081526020016000815260200160008152602001600081525090565b6040518060400160405280613654613689565b8152602001600081525090565b6040518060200160405280606081525090565b5b808211156136155760008155600101613675565b60408051808201909152600081526060602082015290565b600082601f8301126136b1578081fd5b813560206136c66136c18361490f565b6148ec565b828152818101908583016040808602880185018910156136e4578687fd5b865b868110156137485781838b0312156136fc578788fd5b81518281018181106001600160401b038211171561371657fe5b835283356137238161494a565b8152838701356137328161495f565b81880152855293850193918101916001016136e6565b509198975050505050505050565b600082601f830112613766578081fd5b815160206137766136c18361490f565b82815281810190858301604080860288018501891015613794578687fd5b865b868110156137485781838b0312156137ac578788fd5b81518281018181106001600160401b03821117156137c657fe5b835283516137d38161494a565b8152838701516137e28161495f565b8188015285529385019391810191600101613796565b600082601f830112613808578081fd5b813560206138186136c18361490f565b8281528181019085830183850287018401881015613834578586fd5b855b8581101561385257813584529284019290840190600101613836565b5090979650505050505050565b80356001600160e01b0319811681146104af57600080fd5b600082601f830112613887578081fd5b81356001600160401b0381111561389a57fe5b6138ad601f8201601f19166020016148ec565b8181528460208386010111156138c1578283fd5b816020850160208301379081016020019190915292915050565b6000604082840312156138ec578081fd5b604051604081016001600160401b03828210818311171561390957fe5b816040528293506139198561385f565b8352602085013591508082111561392f57600080fd5b5061393c85828601613877565b6020830152505092915050565b60006020828403121561395a578081fd5b81356125748161494a565b600060208284031215613976578081fd5b81516125748161494a565b60008060408385031215613993578081fd5b825161399e8161494a565b6020939093015192949293505050565b600080604083850312156139c0578182fd5b82356139cb8161494a565b915060208301356139db8161494a565b809150509250929050565b600080600080600060a086880312156139fd578081fd5b8535613a088161494a565b94506020860135613a188161494a565b935060408601356001600160401b0380821115613a33578283fd5b613a3f89838a016137f8565b94506060880135915080821115613a54578283fd5b613a6089838a016137f8565b93506080880135915080821115613a75578283fd5b50613a8288828901613877565b9150509295509295909350565b60008060008060808587031215613aa4578182fd5b8435613aaf8161494a565b93506020850135613abf8161494a565b92506040850135915060608501356001600160401b03811115613ae0578182fd5b613aec87828801613877565b91505092959194509250565b600080600080600060a08688031215613b0f578283fd5b8535613b1a8161494a565b94506020860135613b2a8161494a565b9350604086013592506060860135915060808601356001600160401b03811115613b52578182fd5b613a8288828901613877565b600060208284031215613b6f578081fd5b81518015158114612574578182fd5b600060208284031215613b8f578081fd5b6125748261385f565b60008060408385031215613baa578182fd5b6139cb8361385f565b60008060008060808587031215613bc8578182fd5b8435613bd38161494a565b93506020850135613be38161494a565b9250604085013591506060850135613bfa8161494a565b939692955090935050565b600080600080600080600060e0888a031215613c1f578485fd5b87356001600160401b0380821115613c35578687fd5b908901906040828c031215613c48578687fd5b604051604081018181108382111715613c5d57fe5b604052823582811115613c6e578889fd5b613c7a8d8286016138db565b825250602092830135838201529850908901359080821115613c9a578687fd5b613ca68b838c016138db565b975060408a0135965060608a0135955060808a01359450613cc960a08b0161385f565b935060c08a0135915080821115613cde578283fd5b50613ceb8a828b01613877565b91505092959891949750929550565b600060208284031215613d0b578081fd5b81356001600160401b0380821115613d21578283fd5b9083019060808286031215613d34578283fd5b604051608081018181108382111715613d4957fe5b604052823582811115613d5a578485fd5b613d66878286016136a1565b82525060208301356020820152604083013560408201526060830135606082015280935050505092915050565b600060208284031215613da4578081fd5b81516001600160401b0380821115613dba578283fd5b9083019060808286031215613dcd578283fd5b604051608081018181108382111715613de257fe5b604052825182811115613df3578485fd5b613dff87828601613756565b82525060208301516020820152604083015160408201526060830151606082015280935050505092915050565b600060208284031215613e3d578081fd5b81356001600160401b0380821115613e53578283fd5b9083019060208286031215613e66578283fd5b604051602081018181108382111715613e7b57fe5b604052823582811115613e8c578485fd5b613e98878286016136a1565b82525095945050505050565b600060208284031215613eb5578081fd5b81516001600160401b0380821115613ecb578283fd5b9083019060208286031215613ede578283fd5b604051602081018181108382111715613ef357fe5b604052825182811115613f04578485fd5b613e9887828601613756565b600060208284031215613f21578081fd5b5035919050565b60008060408385031215613f3a578182fd5b8235915060208301356001600160401b0380821115613f57578283fd5b9084019060608287031215613f6a578283fd5b604051606081018181108382111715613f7f57fe5b60405282358152613f926020840161385f565b6020820152604083013582811115613fa8578485fd5b613fb488828601613877565b6040830152508093505050509250929050565b6001600160a01b03169052565b6000815180845260208085019450808401835b8381101561402057815180516001600160a01b031688528301516001600160601b03168388015260409096019590820190600101613fe7565b509495945050505050565b6001600160e01b0319169052565b60008151808452815b8181101561405e57602081850181015186830182015201614042565b8181111561406f5782602083870101525b50601f01601f19169290920160200192915050565b600081546001808216600081146140a257600181146140c0576140fe565b60028304607f16865260ff19831660208701526040860193506140fe565b600283048087526140d08661492c565b60005b828110156140f45781546020828b01015284820191506020810190506140d3565b8801602001955050505b50505092915050565b600063ffffffff60e01b825116835260208201516040602085015261412f6040850182614039565b949350505050565b600063ffffffff60e01b825460e01b168352604060208401526125746040840160018401614084565b60008151604084526141756040850182614107565b602093840151949093019390935250919050565b60006040835261419c6040840183614137565b600283015460208501528091505092915050565b60008151835263ffffffff60e01b602083015116602084015260408201516060604085015261412f6060850182614039565b60008154835263ffffffff60e01b600183015460e01b166020840152606060408401526125746060840160028401614084565b6001600160a01b0391909116815260200190565b6001600160a01b039290921682521515602082015260400190565b6001600160a01b03929092168252602082015260400190565b901515815260200190565b6001600160e01b031991909116815260200190565b6000602082526125746020830184614039565b6001600160a01b03958616815293851660208501529190931660408301526060820192909252608081019190915260c060a0820181905260009082015260e00190565b6001600160a01b039485168152928416602084015292166040820152606081019190915260800190565b60208082526022908201527f63757272656e742074696d6520696e2061756374696f6e2074696d652072616e604082015261676560f01b606082015260800190565b6020808252601f908201527f616c7265616479206861766520616e206f75747374616e64696e672062696400604082015260600190565b6020808252601b908201527f6572726f7220696e2061756374696f6e2074696d652072616e67650000000000604082015260600190565b6020808252818101527f7468657265206973206e6f2061756374696f6e20776974682074686973206964604082015260600190565b6020808252818101527f41756374696f6e20666565732061726520746f6f206869676820283e35302529604082015260600190565b6020808252601d908201527f6e6f7420656e6f75676820666f72206275796f75742061756374696f6e000000604082015260600190565b6020808252601a908201527f61756374696f6e206f776e6572206e6f74206465746563746564000000000000604082015260600190565b60208082526012908201527162696420616d6f756e7420746f6f206c6f7760701b604082015260600190565b60208082526012908201527132b9319b9918903b30b63ab29032b93937b960711b604082015260600190565b60208082526024908201527f6269642063616e2774206265206c657373207468616e206d696e696d616c20706040820152637269636560e01b606082015260800190565b6020808252601690820152753bb937b7339030bab1ba34b7b710323ab930ba34b7b760511b604082015260600190565b6020808252600f908201526e30bab1ba34b7b71034b99037bb32b960891b604082015260600190565b6020808252601c908201527f42696420666565732061726520746f6f206869676820283e3530252900000000604082015260600190565b60208082526019908201527f63616e27742073656c6c20455448206f6e2061756374696f6e00000000000000604082015260600190565b60208082526027908201527f63757272656e742074696d65206f7574206f66202061756374696f6e2074696d604082015266652072616e676560c81b606082015260800190565b6000606082526146426060830186614160565b6001600160a01b0394851660208401529290931660409091015292915050565b600060a0825261467560a0830188614160565b6001600160a01b0396871660208401529490951660408201526001600160e01b03199283166060820152911660809091015292915050565b600061018082526146c261018083018f614160565b82810360208401526146d4818f614107565b905082810360408401526146e8818e6141b0565b6001600160a01b038d811660608601528c16608085015260a084018b905260c084018a905260e0840189905261010084018890526101208401879052905061473461014084018661402b565b8281036101608401526147478185614039565b9f9e505050505050505050505050505050565b60006020825282516080602084015261477660a0840182613fd4565b90506020840151604084015260408401516060840152606084015160808401528091505092915050565b600060208252825160208084015261412f6040840182613fd4565b90815260200190565b6000838252604060208301526101808060408401526147e76101c0840185614189565b603f19808583030160608601526148018260038801614137565b91508085830301608086015261481a82600588016141e2565b91506148296008870154614938565b61483660a0870182613fc7565b506148446009870154614938565b61485160c0870182613fc7565b50600a86015460e0860152600b860154610100860152600c860154610120860152600d860154610140860152600e860154610160860152614895600f870154614944565b6148a18487018261402b565b50848203016101a08501526148b98160108701614084565b9695505050505050565b6000848252606060208301526148dc60608301856141b0565b9050826040830152949350505050565b6040518181016001600160401b038111828210171561490757fe5b604052919050565b60006001600160401b0382111561492257fe5b5060209081020190565b60009081526020902090565b6001600160a01b031690565b60e01b90565b6001600160a01b038116811461189757600080fd5b6001600160601b038116811461189757600080fdfe4f776e61626c653a206e6577206f776e657220697320746865207a65726f2061646472657373fc530b24510b924664e4cc98bd27ba37fd804f8cb2b1743b1bc15525a944ae935a735e2bd379ffdaef126b56348f3853c7cd579726fb036c31f45b3b2a9d22c48e9742dda957f51c3e385ce6ed07f0b7acc2bf98484e3acc9bd1a8c7c2a918f3496e697469616c697a61626c653a20636f6e747261637420697320616c726561647920696e697469616c697a6564536166654d6174683a206d756c7469706c69636174696f6e206f766572666c6f774f776e61626c653a2063616c6c6572206973206e6f7420746865206f776e6572a26469706673582212208873c92be94700ad15767057afcd0e734e7fe2b4c426f42574b14cd71b9e346364736f6c63430007060033",
  "immutableReferences": {},
  "source": "// SPDX-License-Identifier: MIT\n\npragma solidity 0.7.6;\npragma abicoder v2;\n\nimport \"./AuctionHouseBase.sol\";\nimport \"@rarible/exchange-v2/contracts/lib/LibTransfer.sol\";\nimport \"@rarible/exchange-v2/contracts/TransferManagerHelper.sol\";\n\n//contract AuctionHouse is AuctionHouseBase, Initializable, TransferExecutor {\ncontract AuctionHouse is AuctionHouseBase, Initializable, TransferExecutor, TransferManagerHelper {\n    using LibTransfer for address;\n\n    mapping(uint => Auction) public auctions;   //save auctions here\n\n    uint256 private auctionId;          //unic. auction id\n    address private nftTransferProxy;\n    address private erc20TransferProxy;\n\n    uint256 private constant EXTENSION_DURATION = 15 minutes;\n    uint256 private constant MAX_DURATION = 1000 days;\n\n    function __AuctionHouse_init(\n        INftTransferProxy _transferProxy,\n        IERC20TransferProxy _erc20TransferProxy,\n        uint newProtocolFee,\n        address newDefaultFeeReceiver\n    ) external initializer {\n        __Context_init_unchained();\n        __Ownable_init_unchained();\n        __TransferExecutor_init_unchained(_transferProxy, _erc20TransferProxy);\n        _initializeAuctionId();\n        __TransferHelper_init_unchained(newProtocolFee, newDefaultFeeReceiver);\n        nftTransferProxy = address(_transferProxy);\n        erc20TransferProxy = address(_erc20TransferProxy);\n    }\n\n    //creates auction and locks assets to sell\n    function startAuction(\n        LibAsset.Asset memory _sellAsset,\n        LibAsset.AssetType memory _buyAsset,\n        uint endTime,\n        uint minimalStep,\n        uint minimalPrice,\n        bytes4 dataType,\n        bytes memory data\n    ) public {\n        uint currentAuctionId = getNextAndIncrementAuctionId();\n        require(_sellAsset.assetType.assetClass != LibAsset.ETH_ASSET_CLASS, \"can't sell ETH on auction\");\n        LibAucDataV1.DataV1 memory aucData = LibAucDataV1.parse(data, dataType);\n        (uint startTimeCalculate, uint endTimeCalculate) = setTimeRange(aucData.startTime, endTime, aucData.duration);\n        auctions[currentAuctionId] = Auction(\n            _sellAsset,\n            _buyAsset,\n            Bid(0, \"\", \"\"),\n            _msgSender(),\n            payable(address(0)),\n            startTimeCalculate,\n            endTimeCalculate,\n            minimalStep,\n            minimalPrice,\n            0,\n            dataType,\n            data\n        );\n        transfer(_sellAsset, _msgSender(), address(this), TO_LOCK, LOCK);\n        setApproveForTransferProxy(_sellAsset);\n        emit AuctionCreated(currentAuctionId, auctions[currentAuctionId]);\n    }\n\n    function setTimeRange(uint _startTime, uint _endTime, uint _duration) internal returns (uint startTime, uint endTime){\n        if (_startTime == 0) {\n            startTime = block.timestamp;\n        } else {\n            startTime = _startTime;\n        }\n        if (_endTime == 0) {\n            require(_duration >= EXTENSION_DURATION && _duration <= MAX_DURATION, \"wrong auction duration\");\n            endTime = startTime + _duration;\n        } else {\n            endTime = _endTime;\n        }\n        require(endTime > startTime, \"error in auction time range\");\n    }\n\n    function setApproveForTransferProxy(LibAsset.Asset memory _asset) internal {\n        if (_asset.assetType.assetClass == LibAsset.ERC20_ASSET_CLASS) {\n            (address token) = abi.decode(_asset.assetType.data, (address));\n            IERC20Upgradeable(token).approve(erc20TransferProxy, _asset.value);\n        } else if (_asset.assetType.assetClass == LibAsset.ERC721_ASSET_CLASS) {\n            (address token, uint tokenId) = abi.decode(_asset.assetType.data, (address, uint256));\n            require(_asset.value == 1, \"erc721 value error\");\n            IERC721Upgradeable(token).setApprovalForAll(nftTransferProxy, true);\n        } else if (_asset.assetType.assetClass == LibAsset.ERC1155_ASSET_CLASS) {\n            (address token,) = abi.decode(_asset.assetType.data, (address, uint256));\n            IERC1155Upgradeable(token).setApprovalForAll(nftTransferProxy, true);\n        }\n    }\n\n    function _initializeAuctionId() internal {\n        auctionId = 1;\n    }\n\n    function getNextAndIncrementAuctionId() internal returns (uint256) {\n        return auctionId++;\n    }\n\n    //put a bid and return locked assets for the last bid\n    function putBid(uint _auctionId, Bid memory bid) payable external {\n        require(checkAuctionExistence(_auctionId), \"there is no auction with this id\");\n        require(checkAuctionRangeTime(_auctionId), \"current time out of  auction time range\");\n\n        address payable newBuyer = _msgSender();\n        uint newAmount = bid.amount;\n        if (buyOutVerify(_auctionId, newAmount)) {\n            _buyOut(_auctionId, bid);\n            doTransfers(_auctionId);\n            deactivateAuction(_auctionId);\n            emit AuctionBuyOut(_auctionId);\n            return;\n        }\n        Auction storage currentAuction = auctions[_auctionId];\n        uint currentTime = block.timestamp;\n        LibAucDataV1.DataV1 memory aucData = LibAucDataV1.parse(currentAuction.data, currentAuction.dataType);\n\n        //start action if minimal price is met\n        if (currentAuction.buyer == address(0x0)) {//no bid at all\n            require(newAmount >= currentAuction.minimalPrice, \"bid can't be less than minimal price\");\n            currentAuction.endTime = currentTime + aucData.duration;\n        } else {//there is bid in auction\n            require(currentAuction.endTime >= currentTime, \"auction is over\");\n            require(currentAuction.buyer != newBuyer, \"already have an outstanding bid\");\n            uint256 minAmount = getMinimalNextBid(_auctionId);\n            require(newAmount >= minAmount, \"bid amount too low\");\n        }\n        reserveValue(currentAuction.buyAsset, currentAuction.buyer, newBuyer, currentAuction.lastBid.amount, newAmount);\n        currentAuction.lastBid = bid;\n        currentAuction.buyer = newBuyer;\n\n        if (currentAuction.endTime - currentTime < EXTENSION_DURATION) {\n            currentAuction.endTime = currentTime + EXTENSION_DURATION;\n        }\n        emit BidPlaced(_auctionId, bid, currentAuction.endTime);\n    }\n\n    function reserveValue(LibAsset.AssetType memory _buyAssetType, address oldBuyer, address newBuyer, uint oldAmount, uint newAmount) internal {\n        LibAsset.Asset memory transferAsset;\n        if (oldBuyer != address(0x0)) {//return oldAmount to oldBuyer\n            transferAsset = makeAsset(_buyAssetType, oldAmount);\n            transfer(transferAsset, address(this), oldBuyer, TO_LOCK, UNLOCK);\n        }\n        transferAsset = makeAsset(_buyAssetType, newAmount);\n        if (transferAsset.assetType.assetClass == LibAsset.ETH_ASSET_CLASS) {\n            if (msg.value > newAmount) {//more ETH than need\n                address(newBuyer).transferEth(msg.value - newAmount);\n            }\n        } else if (transferAsset.assetType.assetClass == LibAsset.ERC20_ASSET_CLASS) {\n            transfer(transferAsset, newBuyer, address(this), TO_LOCK, LOCK);\n            (address token) = abi.decode(_buyAssetType.data, (address));\n            IERC20Upgradeable(token).approve(erc20TransferProxy, newAmount);\n        } else if (transferAsset.assetType.assetClass == LibAsset.ERC1155_ASSET_CLASS) {\n            transfer(transferAsset, newBuyer, address(this), TO_LOCK, LOCK);\n            (address token,) = abi.decode(_buyAssetType.data, (address, uint256));\n            IERC1155Upgradeable(token).setApprovalForAll(nftTransferProxy, true);\n        } else if (transferAsset.assetType.assetClass == LibAsset.ERC721_ASSET_CLASS) {\n            transfer(transferAsset, newBuyer, address(this), TO_LOCK, LOCK);\n            (address token,) = abi.decode(_buyAssetType.data, (address, uint256));\n            IERC721Upgradeable(token).setApprovalForAll(nftTransferProxy, true);\n        }\n    }\n\n    function makeAsset(LibAsset.AssetType memory _assetType, uint amount) internal returns (LibAsset.Asset memory _asset) {\n        _asset.assetType = _assetType;\n        _asset.value = amount;\n        return _asset;\n    }\n\n    function getMinimalNextBid(uint _auctionId) internal view returns (uint minBid){\n        Auction storage currentAuction = auctions[_auctionId];\n        if (currentAuction.buyer == address(0x0)) {\n            minBid = currentAuction.minimalPrice;\n        } else {\n            minBid = currentAuction.lastBid.amount + currentAuction.minimalStep;\n        }\n    }\n\n    function checkAuctionExistence(uint _auctionId) internal view returns (bool){\n        if (auctions[_auctionId].seller == address(0)) {\n            return false;\n        } else {\n            return true;\n        }\n    }\n\n    function buyOutVerify(uint _auctionId, uint newAmount) internal returns (bool) {\n        Auction storage currentAuction = auctions[_auctionId];\n        LibAucDataV1.DataV1 memory aucData = LibAucDataV1.parse(currentAuction.data, currentAuction.dataType);\n        if (aucData.buyOutPrice <= newAmount) {\n            return true;\n        }\n        return false;\n    }\n\n    //finishAuction\n    function finishAuction(uint _auctionId) payable public {\n        require(checkAuctionExistence(_auctionId), \"there is no auction with this id\");\n        require(!checkAuctionRangeTime(_auctionId), \"current time in auction time range\");\n        doTransfers(_auctionId);\n        deactivateAuction(_auctionId);\n        emit AuctionFinished(_auctionId);\n    }\n\n    function doTransfers(uint _auctionId) internal {\n        Auction storage currentAuction = auctions[_auctionId];\n        address seller = currentAuction.seller;\n        address buyer = currentAuction.buyer;\n        if (buyer != address(0x0)) {//bid exists\n            (uint rest, uint restNft) = transferAllFees(_auctionId); //transfer fee\n            transferAmount(currentAuction.buyAsset, address(this), seller, rest, TO_SELLER, PAYOUT);\n            if (currentAuction.sellAsset.assetType.assetClass == LibAsset.ERC1155_ASSET_CLASS ||\n                currentAuction.sellAsset.assetType.assetClass == LibAsset.ERC20_ASSET_CLASS) {\n                currentAuction.sellAsset.value = restNft;\n            }\n            transfer(currentAuction.sellAsset, address(this), buyer, TO_BIDDER, PAYOUT);//nft to buyer\n        } else {\n            transfer(currentAuction.sellAsset, address(this), seller, TO_SELLER, UNLOCK); //nft back to seller\n        }\n    }\n\n    function transferAllFees(uint _auctionId) internal returns (uint rest, uint restNft) {\n        Auction storage currentAuction = auctions[_auctionId];\n        address seller = currentAuction.seller;\n        uint amount = currentAuction.lastBid.amount;\n        rest = transferProtocolFee(amount, amount, address(this), currentAuction.buyAsset, TO_LOCK);\n        restNft = currentAuction.sellAsset.value;\n        LibAucDataV1.DataV1 memory aucData = LibAucDataV1.parse(currentAuction.data, currentAuction.dataType);\n        LibPart.Part[] memory auctionFees = aucData.originFees;\n        uint totalFees;\n        (rest, totalFees) = transferFees(currentAuction.buyAsset, rest, amount, auctionFees, address(this), TO_SELLER, ROYALTY);\n        require(totalFees <= 5000, \"Auction fees are too high (>50%)\");\n        if (currentAuction.sellAsset.assetType.assetClass == LibAsset.ERC1155_ASSET_CLASS ||\n            currentAuction.sellAsset.assetType.assetClass == LibAsset.ERC20_ASSET_CLASS) {\n            LibBidDataV1.DataV1 memory bidData = LibBidDataV1.parse(currentAuction.lastBid.data, currentAuction.lastBid.dataType);\n            LibPart.Part[] memory bidFees = bidData.originFees;\n            (restNft, totalFees) = transferFees(currentAuction.sellAsset.assetType, restNft, restNft, bidFees, address(this), TO_BIDDER, ROYALTY);\n            require(totalFees <= 5000, \"Bid fees are too high (>50%)\");\n        }\n    }\n\n    function checkAuctionRangeTime(uint _auctionId) internal view returns (bool){\n        uint currentTime = block.timestamp;\n        Auction storage currentAuction = auctions[_auctionId];\n        LibAucDataV1.DataV1 memory aucData = LibAucDataV1.parse(currentAuction.data, currentAuction.dataType);\n        if ((currentTime >= aucData.startTime) && (currentTime <= currentAuction.endTime)) {\n            return true;\n        }\n        return false;\n    }\n\n    function deactivateAuction(uint _auctionId) internal {\n        auctions[_auctionId].seller == address(0);\n    }\n\n    function transferAmount(LibAsset.AssetType memory _assetType, address from, address to, uint amount, bytes4 _direction, bytes4 _type) internal {\n        LibAsset.Asset memory _asset;\n        _asset.assetType = _assetType;\n        _asset.value = amount;\n        transfer(_asset, from, to, _direction, _type);\n    }\n\n    //cancel auction without bid\n    function cancel(uint _auctionId) public {\n        require(checkAuctionExistence(_auctionId), \"there is no auction with this id\");\n        Auction storage currentAuction = auctions[_auctionId];\n        address seller = currentAuction.seller;\n        require(seller == _msgSender(), \"auction owner not detected\");\n        address buyer = currentAuction.buyer;\n        uint amount = currentAuction.lastBid.amount;\n        if (buyer == address(0x0)) {//no bid at all\n            transfer(currentAuction.sellAsset, address(this), seller, TO_SELLER, UNLOCK); //nft transfer back to seller\n            deactivateAuction(_auctionId);\n            emit AuctionCancelled(_auctionId);\n        }\n    }\n\n    //buyout\n    function buyOut(uint _auctionId, Bid memory bid) public payable {\n        require(checkAuctionExistence(_auctionId), \"there is no auction with this id\");\n        require(checkAuctionRangeTime(_auctionId), \"current time out of  auction time range\");\n        uint newAmount = bid.amount;\n        require(buyOutVerify(_auctionId, newAmount), \"not enough for buyout auction\");\n        _buyOut(_auctionId, bid);\n        doTransfers(_auctionId);\n        deactivateAuction(_auctionId);\n        emit AuctionBuyOut(_auctionId);\n    }\n\n    function _buyOut(uint _auctionId, Bid memory bid) internal {\n        address payable newBuyer = _msgSender();\n        Auction storage currentAuction = auctions[_auctionId];\n        uint newAmount = bid.amount;\n        reserveValue(currentAuction.buyAsset, currentAuction.buyer, newBuyer, currentAuction.lastBid.amount, newAmount);\n        currentAuction.lastBid = bid;\n        currentAuction.buyer = newBuyer;\n    }\n\n    uint256[50] private ______gap;\n}",
  "sourcePath": "/Users/sergey/Projects/rarible/protocol-contracts/auction/contracts/AuctionHouse.sol",
  "compiler": {
    "name": "solc",
    "version": "0.7.6+commit.7338295f.Emscripten.clang"
  },
  "schemaVersion": "3.4.0",
  "updatedAt": "2021-10-28T06:32:09.274Z",
  "devdoc": {
    "kind": "dev",
    "methods": {
      "onERC721Received(address,address,uint256,bytes)": {
        "details": "See {IERC721Receiver-onERC721Received}. Always returns `IERC721Receiver.onERC721Received.selector`."
      },
      "owner()": {
        "details": "Returns the address of the current owner."
      },
      "renounceOwnership()": {
        "details": "Leaves the contract without owner. It will not be possible to call `onlyOwner` functions anymore. Can only be called by the current owner. NOTE: Renouncing ownership will leave the contract without an owner, thereby removing any functionality that is only available to the owner."
      },
      "supportsInterface(bytes4)": {
        "details": "Returns true if this contract implements the interface defined by `interfaceId`. See the corresponding https://eips.ethereum.org/EIPS/eip-165#how-interfaces-are-identified[EIP section] to learn more about how these ids are created. This function call must use less than 30 000 gas."
      },
      "transferOwnership(address)": {
        "details": "Transfers ownership of the contract to a new account (`newOwner`). Can only be called by the current owner."
      }
    },
    "version": 1
  },
  "userdoc": {
    "kind": "user",
    "methods": {},
    "version": 1
  }
}