{
  "contractName": "ERC721SaleNonceHolder",
  "abi": [
    {
      "inputs": [
        {
          "internalType": "contract IERC721Sale",
          "name": "_previous",
          "type": "address"
        }
      ],
      "payable": false,
      "stateMutability": "nonpayable",
      "type": "constructor"
    },
    {
      "anonymous": false,
      "inputs": [
        {
          "indexed": true,
          "internalType": "address",
          "name": "account",
          "type": "address"
        }
      ],
      "name": "OperatorAdded",
      "type": "event"
    },
    {
      "anonymous": false,
      "inputs": [
        {
          "indexed": true,
          "internalType": "address",
          "name": "account",
          "type": "address"
        }
      ],
      "name": "OperatorRemoved",
      "type": "event"
    },
    {
      "anonymous": false,
      "inputs": [
        {
          "indexed": true,
          "internalType": "address",
          "name": "previousOwner",
          "type": "address"
        },
        {
          "indexed": true,
          "internalType": "address",
          "name": "newOwner",
          "type": "address"
        }
      ],
      "name": "OwnershipTransferred",
      "type": "event"
    },
    {
      "constant": false,
      "inputs": [
        {
          "internalType": "address",
          "name": "account",
          "type": "address"
        }
      ],
      "name": "addOperator",
      "outputs": [],
      "payable": false,
      "stateMutability": "nonpayable",
      "type": "function"
    },
    {
      "constant": true,
      "inputs": [
        {
          "internalType": "address",
          "name": "account",
          "type": "address"
        }
      ],
      "name": "isOperator",
      "outputs": [
        {
          "internalType": "bool",
          "name": "",
          "type": "bool"
        }
      ],
      "payable": false,
      "stateMutability": "view",
      "type": "function"
    },
    {
      "constant": true,
      "inputs": [],
      "name": "isOwner",
      "outputs": [
        {
          "internalType": "bool",
          "name": "",
          "type": "bool"
        }
      ],
      "payable": false,
      "stateMutability": "view",
      "type": "function"
    },
    {
      "constant": true,
      "inputs": [
        {
          "internalType": "bytes32",
          "name": "",
          "type": "bytes32"
        }
      ],
      "name": "nonces",
      "outputs": [
        {
          "internalType": "uint256",
          "name": "",
          "type": "uint256"
        }
      ],
      "payable": false,
      "stateMutability": "view",
      "type": "function"
    },
    {
      "constant": true,
      "inputs": [],
      "name": "owner",
      "outputs": [
        {
          "internalType": "address",
          "name": "",
          "type": "address"
        }
      ],
      "payable": false,
      "stateMutability": "view",
      "type": "function"
    },
    {
      "constant": true,
      "inputs": [],
      "name": "previous",
      "outputs": [
        {
          "internalType": "contract IERC721Sale",
          "name": "",
          "type": "address"
        }
      ],
      "payable": false,
      "stateMutability": "view",
      "type": "function"
    },
    {
      "constant": false,
      "inputs": [
        {
          "internalType": "address",
          "name": "account",
          "type": "address"
        }
      ],
      "name": "removeOperator",
      "outputs": [],
      "payable": false,
      "stateMutability": "nonpayable",
      "type": "function"
    },
    {
      "constant": false,
      "inputs": [],
      "name": "renounceOwnership",
      "outputs": [],
      "payable": false,
      "stateMutability": "nonpayable",
      "type": "function"
    },
    {
      "constant": false,
      "inputs": [
        {
          "internalType": "address",
          "name": "newOwner",
          "type": "address"
        }
      ],
      "name": "transferOwnership",
      "outputs": [],
      "payable": false,
      "stateMutability": "nonpayable",
      "type": "function"
    },
    {
      "constant": true,
      "inputs": [
        {
          "internalType": "contract IERC721",
          "name": "token",
          "type": "address"
        },
        {
          "internalType": "uint256",
          "name": "tokenId",
          "type": "uint256"
        }
      ],
      "name": "getNonce",
      "outputs": [
        {
          "internalType": "uint256",
          "name": "",
          "type": "uint256"
        }
      ],
      "payable": false,
      "stateMutability": "view",
      "type": "function"
    },
    {
      "constant": false,
      "inputs": [
        {
          "internalType": "contract IERC721",
          "name": "token",
          "type": "address"
        },
        {
          "internalType": "uint256",
          "name": "tokenId",
          "type": "uint256"
        },
        {
          "internalType": "uint256",
          "name": "nonce",
          "type": "uint256"
        }
      ],
      "name": "setNonce",
      "outputs": [],
      "payable": false,
      "stateMutability": "nonpayable",
      "type": "function"
    },
    {
      "constant": true,
      "inputs": [
        {
          "internalType": "contract IERC721",
          "name": "token",
          "type": "address"
        },
        {
          "internalType": "uint256",
          "name": "tokenId",
          "type": "uint256"
        }
      ],
      "name": "getPositionKey",
      "outputs": [
        {
          "internalType": "bytes32",
          "name": "",
          "type": "bytes32"
        }
      ],
      "payable": false,
      "stateMutability": "pure",
      "type": "function"
    }
  ],
  "bytecode": "0x608060405234801561001057600080fd5b50604051610a13380380610a138339818101604052602081101561003357600080fd5b505160006100486001600160e01b036100b716565b600080546001600160a01b0319166001600160a01b0383169081178255604051929350917f8be0079c531659141344cd1fd0a4f28419497f9722a3daafe3b4186f6b6457e0908290a350600380546001600160a01b0319166001600160a01b03929092169190911790556100bb565b3390565b610949806100ca6000396000f3fe608060405234801561001057600080fd5b50600436106100b45760003560e01c80639870d7fe116100715780639870d7fe1461016f5780639e317f1214610195578063ac8a584a146101b2578063dd68c1e2146101d8578063e330a93514610204578063f2fde38b14610236576100b4565b80636d70f7ae146100b9578063715018a6146100f35780637c2b2e71146100fd57806389535803146101215780638da5cb5b1461015f5780638f32d59b14610167575b600080fd5b6100df600480360360208110156100cf57600080fd5b50356001600160a01b031661025c565b604080519115158252519081900360200190f35b6100fb610275565b005b610105610306565b604080516001600160a01b039092168252519081900360200190f35b61014d6004803603604081101561013757600080fd5b506001600160a01b038135169060200135610315565b60408051918252519081900360200190f35b6101056103e8565b6100df6103f7565b6100fb6004803603602081101561018557600080fd5b50356001600160a01b031661041b565b61014d600480360360208110156101ab57600080fd5b503561046e565b6100fb600480360360208110156101c857600080fd5b50356001600160a01b0316610480565b61014d600480360360408110156101ee57600080fd5b506001600160a01b0381351690602001356104d0565b6100fb6004803603606081101561021a57600080fd5b506001600160a01b038135169060208101359060400135610514565b6100fb6004803603602081101561024c57600080fd5b50356001600160a01b0316610584565b600061026f60018363ffffffff6105d416565b92915050565b61027d6103f7565b6102bc576040805162461bcd60e51b815260206004820181905260248201526000805160206108d3833981519152604482015290519081900360640190fd5b600080546040516001600160a01b03909116907f8be0079c531659141344cd1fd0a4f28419497f9722a3daafe3b4186f6b6457e0908390a3600080546001600160a01b0319169055565b6003546001600160a01b031681565b6000806002600061032686866104d0565b81526020019081526020016000205490508060001461034657905061026f565b6003546001600160a01b031661036057600091505061026f565b60035460408051638953580360e01b81526001600160a01b03878116600483015260248201879052915191909216916389535803916044808301926020929190829003018186803b1580156103b457600080fd5b505afa1580156103c8573d6000803e3d6000fd5b505050506040513d60208110156103de57600080fd5b5051949350505050565b6000546001600160a01b031690565b600080546001600160a01b031661040c61063b565b6001600160a01b031614905090565b6104236103f7565b610462576040805162461bcd60e51b815260206004820181905260248201526000805160206108d3833981519152604482015290519081900360640190fd5b61046b8161063f565b50565b60026020526000908152604090205481565b6104886103f7565b6104c7576040805162461bcd60e51b815260206004820181905260248201526000805160206108d3833981519152604482015290519081900360640190fd5b61046b81610687565b6040805160609390931b6bffffffffffffffffffffffff19166020808501919091526034808501939093528151808503909301835260549093019052805191012090565b61052461051f61063b565b61025c565b61055f5760405162461bcd60e51b815260040180806020018281038252603481526020018061087e6034913960400191505060405180910390fd5b806002600061056e86866104d0565b8152602081019190915260400160002055505050565b61058c6103f7565b6105cb576040805162461bcd60e51b815260206004820181905260248201526000805160206108d3833981519152604482015290519081900360640190fd5b61046b816106cf565b60006001600160a01b03821661061b5760405162461bcd60e51b81526004018080602001828103825260228152602001806108f36022913960400191505060405180910390fd5b506001600160a01b03166000908152602091909152604090205460ff1690565b3390565b61065060018263ffffffff61076f16565b6040516001600160a01b038216907fac6fa858e9350a46cec16539926e0fde25b7629f84b5a72bffaae4df888ae86d90600090a250565b61069860018263ffffffff6107f016565b6040516001600160a01b038216907f80c0b871b97b595b16a7741c1b06fed0c6f6f558639f18ccbce50724325dc40d90600090a250565b6001600160a01b0381166107145760405162461bcd60e51b81526004018080602001828103825260268152602001806108586026913960400191505060405180910390fd5b600080546040516001600160a01b03808516939216917f8be0079c531659141344cd1fd0a4f28419497f9722a3daafe3b4186f6b6457e091a3600080546001600160a01b0319166001600160a01b0392909216919091179055565b61077982826105d4565b156107cb576040805162461bcd60e51b815260206004820152601f60248201527f526f6c65733a206163636f756e7420616c72656164792068617320726f6c6500604482015290519081900360640190fd5b6001600160a01b0316600090815260209190915260409020805460ff19166001179055565b6107fa82826105d4565b6108355760405162461bcd60e51b81526004018080602001828103825260218152602001806108b26021913960400191505060405180910390fd5b6001600160a01b0316600090815260209190915260409020805460ff1916905556fe4f776e61626c653a206e6577206f776e657220697320746865207a65726f20616464726573734f70657261746f72526f6c653a2063616c6c657220646f6573206e6f74206861766520746865204f70657261746f7220726f6c65526f6c65733a206163636f756e7420646f6573206e6f74206861766520726f6c654f776e61626c653a2063616c6c6572206973206e6f7420746865206f776e6572526f6c65733a206163636f756e7420697320746865207a65726f2061646472657373a265627a7a723158209a820932e0910954ca06909e6d5c974c38d83bb4ec62aff70d59fdb56fce07fa64736f6c63430005100032",
  "source": "pragma solidity ^0.5.0;\n\nimport \"./IERC721Sale.sol\";\nimport \"./roles/OwnableOperatorRole.sol\";\n\ncontract ERC721SaleNonceHolder is OwnableOperatorRole {\n    mapping(bytes32 => uint256) public nonces;\n    IERC721Sale public previous;\n\n    constructor(IERC721Sale _previous) public {\n        previous = _previous;\n    }\n\n    function getNonce(IERC721 token, uint256 tokenId) view public returns (uint256) {\n        uint256 newNonce = nonces[getPositionKey(token, tokenId)];\n        if (newNonce != 0) {\n            return newNonce;\n        }\n        if (address(previous) == address(0x0)) {\n            return 0;\n        }\n        return previous.getNonce(token, tokenId);\n    }\n\n    function setNonce(IERC721 token, uint256 tokenId, uint256 nonce) public onlyOperator {\n        nonces[getPositionKey(token, tokenId)] = nonce;\n    }\n\n    function getPositionKey(IERC721 token, uint256 tokenId) pure public returns (bytes32) {\n        return keccak256(abi.encodePacked(token, tokenId));\n    }\n}\n",
  "sourcePath": "/home/quadro/Projects/tokenplace/tokenplace-contracts/contracts/ERC721SaleNonceHolder.sol",
  "compiler": {
    "name": "solc",
    "version": "0.5.16+commit.9c3226ce.Emscripten.clang"
  },
  "schemaVersion": "3.0.6",
  "updatedAt": "2020-05-23T12:02:05.481Z",
  "devdoc": {
    "methods": {
      "isOwner()": {
        "details": "Returns true if the caller is the current owner."
      },
      "owner()": {
        "details": "Returns the address of the current owner."
      },
      "renounceOwnership()": {
        "details": "Leaves the contract without owner. It will not be possible to call `onlyOwner` functions anymore. Can only be called by the current owner.     * NOTE: Renouncing ownership will leave the contract without an owner, thereby removing any functionality that is only available to the owner."
      },
      "transferOwnership(address)": {
        "details": "Transfers ownership of the contract to a new account (`newOwner`). Can only be called by the current owner."
      }
    }
  },
  "userdoc": {
    "methods": {}
  }
}