{
  "contractName": "FakeCreatorERC721",
  "abi": [
    {
      "anonymous": false,
      "inputs": [
        {
          "indexed": true,
          "internalType": "address",
          "name": "owner",
          "type": "address"
        },
        {
          "indexed": true,
          "internalType": "address",
          "name": "approved",
          "type": "address"
        },
        {
          "indexed": true,
          "internalType": "uint256",
          "name": "tokenId",
          "type": "uint256"
        }
      ],
      "name": "Approval",
      "type": "event"
    },
    {
      "anonymous": false,
      "inputs": [
        {
          "indexed": true,
          "internalType": "address",
          "name": "owner",
          "type": "address"
        },
        {
          "indexed": true,
          "internalType": "address",
          "name": "operator",
          "type": "address"
        },
        {
          "indexed": false,
          "internalType": "bool",
          "name": "approved",
          "type": "bool"
        }
      ],
      "name": "ApprovalForAll",
      "type": "event"
    },
    {
      "anonymous": false,
      "inputs": [
        {
          "indexed": true,
          "internalType": "address",
          "name": "from",
          "type": "address"
        },
        {
          "indexed": true,
          "internalType": "address",
          "name": "to",
          "type": "address"
        },
        {
          "indexed": true,
          "internalType": "uint256",
          "name": "tokenId",
          "type": "uint256"
        }
      ],
      "name": "Transfer",
      "type": "event"
    },
    {
      "inputs": [
        {
          "internalType": "address",
          "name": "to",
          "type": "address"
        },
        {
          "internalType": "uint256",
          "name": "tokenId",
          "type": "uint256"
        }
      ],
      "name": "approve",
      "outputs": [],
      "stateMutability": "nonpayable",
      "type": "function"
    },
    {
      "inputs": [
        {
          "internalType": "address",
          "name": "owner",
          "type": "address"
        }
      ],
      "name": "balanceOf",
      "outputs": [
        {
          "internalType": "uint256",
          "name": "",
          "type": "uint256"
        }
      ],
      "stateMutability": "view",
      "type": "function"
    },
    {
      "inputs": [],
      "name": "baseURI",
      "outputs": [
        {
          "internalType": "string",
          "name": "",
          "type": "string"
        }
      ],
      "stateMutability": "view",
      "type": "function"
    },
    {
      "inputs": [
        {
          "internalType": "uint256",
          "name": "tokenId",
          "type": "uint256"
        }
      ],
      "name": "getApproved",
      "outputs": [
        {
          "internalType": "address",
          "name": "",
          "type": "address"
        }
      ],
      "stateMutability": "view",
      "type": "function"
    },
    {
      "inputs": [
        {
          "internalType": "address",
          "name": "owner",
          "type": "address"
        },
        {
          "internalType": "address",
          "name": "operator",
          "type": "address"
        }
      ],
      "name": "isApprovedForAll",
      "outputs": [
        {
          "internalType": "bool",
          "name": "",
          "type": "bool"
        }
      ],
      "stateMutability": "view",
      "type": "function"
    },
    {
      "inputs": [],
      "name": "name",
      "outputs": [
        {
          "internalType": "string",
          "name": "",
          "type": "string"
        }
      ],
      "stateMutability": "view",
      "type": "function"
    },
    {
      "inputs": [
        {
          "internalType": "uint256",
          "name": "tokenId",
          "type": "uint256"
        }
      ],
      "name": "ownerOf",
      "outputs": [
        {
          "internalType": "address",
          "name": "",
          "type": "address"
        }
      ],
      "stateMutability": "view",
      "type": "function"
    },
    {
      "inputs": [
        {
          "internalType": "address",
          "name": "from",
          "type": "address"
        },
        {
          "internalType": "address",
          "name": "to",
          "type": "address"
        },
        {
          "internalType": "uint256",
          "name": "tokenId",
          "type": "uint256"
        }
      ],
      "name": "safeTransferFrom",
      "outputs": [],
      "stateMutability": "nonpayable",
      "type": "function"
    },
    {
      "inputs": [
        {
          "internalType": "address",
          "name": "from",
          "type": "address"
        },
        {
          "internalType": "address",
          "name": "to",
          "type": "address"
        },
        {
          "internalType": "uint256",
          "name": "tokenId",
          "type": "uint256"
        },
        {
          "internalType": "bytes",
          "name": "_data",
          "type": "bytes"
        }
      ],
      "name": "safeTransferFrom",
      "outputs": [],
      "stateMutability": "nonpayable",
      "type": "function"
    },
    {
      "inputs": [
        {
          "internalType": "address",
          "name": "operator",
          "type": "address"
        },
        {
          "internalType": "bool",
          "name": "approved",
          "type": "bool"
        }
      ],
      "name": "setApprovalForAll",
      "outputs": [],
      "stateMutability": "nonpayable",
      "type": "function"
    },
    {
      "inputs": [
        {
          "internalType": "bytes4",
          "name": "interfaceId",
          "type": "bytes4"
        }
      ],
      "name": "supportsInterface",
      "outputs": [
        {
          "internalType": "bool",
          "name": "",
          "type": "bool"
        }
      ],
      "stateMutability": "view",
      "type": "function"
    },
    {
      "inputs": [],
      "name": "symbol",
      "outputs": [
        {
          "internalType": "string",
          "name": "",
          "type": "string"
        }
      ],
      "stateMutability": "view",
      "type": "function"
    },
    {
      "inputs": [
        {
          "internalType": "uint256",
          "name": "index",
          "type": "uint256"
        }
      ],
      "name": "tokenByIndex",
      "outputs": [
        {
          "internalType": "uint256",
          "name": "",
          "type": "uint256"
        }
      ],
      "stateMutability": "view",
      "type": "function"
    },
    {
      "inputs": [
        {
          "internalType": "address",
          "name": "owner",
          "type": "address"
        },
        {
          "internalType": "uint256",
          "name": "index",
          "type": "uint256"
        }
      ],
      "name": "tokenOfOwnerByIndex",
      "outputs": [
        {
          "internalType": "uint256",
          "name": "",
          "type": "uint256"
        }
      ],
      "stateMutability": "view",
      "type": "function"
    },
    {
      "inputs": [
        {
          "internalType": "uint256",
          "name": "tokenId",
          "type": "uint256"
        }
      ],
      "name": "tokenURI",
      "outputs": [
        {
          "internalType": "string",
          "name": "",
          "type": "string"
        }
      ],
      "stateMutability": "view",
      "type": "function"
    },
    {
      "inputs": [],
      "name": "totalSupply",
      "outputs": [
        {
          "internalType": "uint256",
          "name": "",
          "type": "uint256"
        }
      ],
      "stateMutability": "view",
      "type": "function"
    },
    {
      "inputs": [
        {
          "internalType": "address",
          "name": "from",
          "type": "address"
        },
        {
          "internalType": "address",
          "name": "to",
          "type": "address"
        },
        {
          "internalType": "uint256",
          "name": "tokenId",
          "type": "uint256"
        }
      ],
      "name": "transferFrom",
      "outputs": [],
      "stateMutability": "nonpayable",
      "type": "function"
    },
    {
      "inputs": [
        {
          "internalType": "address",
          "name": "to",
          "type": "address"
        },
        {
          "internalType": "uint256",
          "name": "tokenId",
          "type": "uint256"
        }
      ],
      "name": "mintDirect_without_CreatorsEvent",
      "outputs": [],
      "stateMutability": "nonpayable",
      "type": "function"
    }
  ],
  "bytecode": "0x608060405234801561001057600080fd5b50611ba3806100206000396000f3fe608060405234801561001057600080fd5b50600436106101165760003560e01c80636352211e116100a257806395d89b411161007157806395d89b4114610230578063a22cb46514610238578063b88d4fde1461024b578063c87b56dd1461025e578063e985e9c51461027157610116565b80636352211e146101ef5780636c0360eb1461020257806370a082311461020a5780637e3db41c1461021d57610116565b806318160ddd116100e957806318160ddd1461018e57806323b872dd146101a35780632f745c59146101b657806342842e0e146101c95780634f6ccce7146101dc57610116565b806301ffc9a71461011b57806306fdde0314610144578063081812fc14610159578063095ea7b314610179575b600080fd5b61012e61012936600461188b565b610284565b60405161013b91906118df565b60405180910390f35b61014c6102a7565b60405161013b91906118ea565b61016c6101673660046118b3565b61033d565b60405161013b91906118cb565b61018c610187366004611862565b61039f565b005b610196610475565b60405161013b919061193d565b61018c6101b136600461172d565b610486565b6101966101c4366004611862565b6104dd565b61018c6101d736600461172d565b610508565b6101966101ea3660046118b3565b610523565b61016c6101fd3660046118b3565b610539565b61014c610561565b6101966102183660046116e1565b6105c2565b61018c61022b366004611862565b61062a565b61014c610638565b61018c610246366004611828565b610699565b61018c610259366004611768565b61079e565b61014c61026c3660046118b3565b6107fc565b61012e61027f3660046116fb565b610a7d565b6001600160e01b0319811660009081526033602052604090205460ff165b919050565b606a8054604080516020601f60026000196101006001881615020190951694909404938401819004810282018101909252828152606093909290918301828280156103335780601f1061030857610100808354040283529160200191610333565b820191906000526020600020905b81548152906001019060200180831161031657829003601f168201915b5050505050905090565b600061034882610aab565b6103835760405162461bcd60e51b815260040180806020018281038252602c815260200180611a98602c913960400191505060405180910390fd5b506000908152606860205260409020546001600160a01b031690565b60006103aa82610539565b9050806001600160a01b0316836001600160a01b031614156103fd5760405162461bcd60e51b8152600401808060200182810382526021815260200180611b1c6021913960400191505060405180910390fd5b806001600160a01b031661040f610ab8565b6001600160a01b0316148061042b575061042b8161027f610ab8565b6104665760405162461bcd60e51b81526004018080602001828103825260388152602001806119eb6038913960400191505060405180910390fd5b6104708383610abc565b505050565b60006104816066610b2a565b905090565b610497610491610ab8565b82610b35565b6104d25760405162461bcd60e51b8152600401808060200182810382526031815260200180611b3d6031913960400191505060405180910390fd5b610470838383610bd9565b6001600160a01b03821660009081526065602052604081206104ff9083610d25565b90505b92915050565b6104708383836040518060200160405280600081525061079e565b600080610531606684610d31565b509392505050565b600061050282604051806060016040528060298152602001611a4d6029913960669190610d4d565b606d8054604080516020601f60026000196101006001881615020190951694909404938401819004810282018101909252828152606093909290918301828280156103335780601f1061030857610100808354040283529160200191610333565b60006001600160a01b0382166106095760405162461bcd60e51b815260040180806020018281038252602a815260200180611a23602a913960400191505060405180910390fd5b6001600160a01b038216600090815260656020526040902061050290610b2a565b6106348282610d64565b5050565b606b8054604080516020601f60026000196101006001881615020190951694909404938401819004810282018101909252828152606093909290918301828280156103335780601f1061030857610100808354040283529160200191610333565b6106a1610ab8565b6001600160a01b0316826001600160a01b03161415610707576040805162461bcd60e51b815260206004820152601960248201527f4552433732313a20617070726f766520746f2063616c6c657200000000000000604482015290519081900360640190fd5b8060696000610714610ab8565b6001600160a01b03908116825260208083019390935260409182016000908120918716808252919093529120805460ff191692151592909217909155610758610ab8565b6001600160a01b03167f17307eab39ab6107e8899845ad3d59bd9653f200f220920489ca2b5937696c318360405180821515815260200191505060405180910390a35050565b6107af6107a9610ab8565b83610b35565b6107ea5760405162461bcd60e51b8152600401808060200182810382526031815260200180611b3d6031913960400191505060405180910390fd5b6107f684848484610d7e565b50505050565b606061080782610aab565b6108425760405162461bcd60e51b815260040180806020018281038252602f815260200180611aed602f913960400191505060405180910390fd5b6000828152606c602090815260408083208054825160026001831615610100026000190190921691909104601f8101859004850282018501909352828152929091908301828280156108d55780601f106108aa576101008083540402835291602001916108d5565b820191906000526020600020905b8154815290600101906020018083116108b857829003601f168201915b5050505050905060006108e6610561565b90508051600014156108fa575090506102a2565b8151156109bb5780826040516020018083805190602001908083835b602083106109355780518252601f199092019160209182019101610916565b51815160209384036101000a600019018019909216911617905285519190930192850191508083835b6020831061097d5780518252601f19909201916020918201910161095e565b6001836020036101000a03801982511681845116808217855250505050505090500192505050604051602081830303815290604052925050506102a2565b806109c585610dd0565b6040516020018083805190602001908083835b602083106109f75780518252601f1990920191602091820191016109d8565b51815160209384036101000a600019018019909216911617905285519190930192850191508083835b60208310610a3f5780518252601f199092019160209182019101610a20565b6001836020036101000a0380198251168184511680821785525050505050509050019250505060405160208183030381529060405292505050919050565b6001600160a01b03918216600090815260696020908152604080832093909416825291909152205460ff1690565b6000610502606683610eab565b3390565b600081815260686020526040902080546001600160a01b0319166001600160a01b0384169081179091558190610af182610539565b6001600160a01b03167f8c5be1e5ebec7d5bd14f71427d1e84f3dd0314c0f7b2291e5b200ac8c7c3b92560405160405180910390a45050565b600061050282610eb7565b6000610b4082610aab565b610b7b5760405162461bcd60e51b815260040180806020018281038252602c8152602001806119bf602c913960400191505060405180910390fd5b6000610b8683610539565b9050806001600160a01b0316846001600160a01b03161480610bc15750836001600160a01b0316610bb68461033d565b6001600160a01b0316145b80610bd15750610bd18185610a7d565b949350505050565b826001600160a01b0316610bec82610539565b6001600160a01b031614610c315760405162461bcd60e51b8152600401808060200182810382526029815260200180611ac46029913960400191505060405180910390fd5b6001600160a01b038216610c765760405162461bcd60e51b815260040180806020018281038252602481526020018061199b6024913960400191505060405180910390fd5b610c81838383610470565b610c8c600082610abc565b6001600160a01b0383166000908152606560205260409020610cae9082610ebb565b506001600160a01b0382166000908152606560205260409020610cd19082610ec7565b50610cde60668284610ed3565b5080826001600160a01b0316846001600160a01b03167fddf252ad1be2c89b69c2b068fc378daa952ba7f163c4a11628f55a4df523b3ef60405160405180910390a4505050565b60006104ff8383610ee9565b6000808080610d408686610f4d565b9097909650945050505050565b6000610d5a848484610fc8565b90505b9392505050565b610634828260405180602001604052806000815250611092565b610d89848484610bd9565b610d95848484846110e4565b6107f65760405162461bcd60e51b81526004018080602001828103825260328152602001806119696032913960400191505060405180910390fd5b606081610df557506040805180820190915260018152600360fc1b60208201526102a2565b8160005b8115610e0d57600101600a82049150610df9565b60008167ffffffffffffffff81118015610e2657600080fd5b506040519080825280601f01601f191660200182016040528015610e51576020820181803683370190505b50859350905060001982015b8315610ea257600a840660300160f81b82828060019003935081518110610e8057fe5b60200101906001600160f81b031916908160001a905350600a84049350610e5d565b50949350505050565b60006104ff838361124c565b5490565b60006104ff8383611264565b60006104ff838361132a565b6000610d5a84846001600160a01b038516611374565b81546000908210610f2b5760405162461bcd60e51b81526004018080602001828103825260228152602001806119476022913960400191505060405180910390fd5b826000018281548110610f3a57fe5b9060005260206000200154905092915050565b815460009081908310610f915760405162461bcd60e51b8152600401808060200182810382526022815260200180611a766022913960400191505060405180910390fd5b6000846000018481548110610fa257fe5b906000526020600020906002020190508060000154816001015492509250509250929050565b600082815260018401602052604081205482816110635760405162461bcd60e51b81526004018080602001828103825283818151815260200191508051906020019080838360005b83811015611028578181015183820152602001611010565b50505050905090810190601f1680156110555780820380516001836020036101000a031916815260200191505b509250505060405180910390fd5b5084600001600182038154811061107657fe5b9060005260206000209060020201600101549150509392505050565b61109c838361140b565b6110a960008484846110e4565b6104705760405162461bcd60e51b81526004018080602001828103825260328152602001806119696032913960400191505060405180910390fd5b60006110f8846001600160a01b0316611539565b61110457506001610bd1565b6000611212630a85bd0160e11b611119610ab8565b88878760405160240180856001600160a01b03168152602001846001600160a01b0316815260200183815260200180602001828103825283818151815260200191508051906020019080838360005b83811015611180578181015183820152602001611168565b50505050905090810190601f1680156111ad5780820380516001836020036101000a031916815260200191505b5095505050505050604051602081830303815290604052906001600160e01b0319166020820180516001600160e01b038381831617835250505050604051806060016040528060328152602001611969603291396001600160a01b038816919061153f565b9050600081806020019051602081101561122b57600080fd5b50516001600160e01b031916630a85bd0160e11b1492505050949350505050565b60009081526001919091016020526040902054151590565b60008181526001830160205260408120548015611320578354600019808301919081019060009087908390811061129757fe5b90600052602060002001549050808760000184815481106112b457fe5b6000918252602080832090910192909255828152600189810190925260409020908401905586548790806112e457fe5b60019003818190600052602060002001600090559055866001016000878152602001908152602001600020600090556001945050505050610502565b6000915050610502565b6000611336838361124c565b61136c57508154600181810184556000848152602080822090930184905584548482528286019093526040902091909155610502565b506000610502565b6000828152600184016020526040812054806113d9575050604080518082018252838152602080820184815286546001818101895560008981528481209551600290930290950191825591519082015586548684528188019092529290912055610d5d565b828560000160018303815481106113ec57fe5b9060005260206000209060020201600101819055506000915050610d5d565b6001600160a01b038216611466576040805162461bcd60e51b815260206004820181905260248201527f4552433732313a206d696e7420746f20746865207a65726f2061646472657373604482015290519081900360640190fd5b61146f81610aab565b156114c1576040805162461bcd60e51b815260206004820152601c60248201527f4552433732313a20746f6b656e20616c7265616479206d696e74656400000000604482015290519081900360640190fd5b6114cd60008383610470565b6001600160a01b03821660009081526065602052604090206114ef9082610ec7565b506114fc60668284610ed3565b5060405181906001600160a01b038416906000907fddf252ad1be2c89b69c2b068fc378daa952ba7f163c4a11628f55a4df523b3ef908290a45050565b3b151590565b6060610d5a84846000858561155385611539565b6115a4576040805162461bcd60e51b815260206004820152601d60248201527f416464726573733a2063616c6c20746f206e6f6e2d636f6e7472616374000000604482015290519081900360640190fd5b600080866001600160a01b031685876040518082805190602001908083835b602083106115e25780518252601f1990920191602091820191016115c3565b6001836020036101000a03801982511681845116808217855250505050505090500191505060006040518083038185875af1925050503d8060008114611644576040519150601f19603f3d011682016040523d82523d6000602084013e611649565b606091505b5091509150611659828286611664565b979650505050505050565b60608315611673575081610d5d565b8251156116835782518084602001fd5b60405162461bcd60e51b8152602060048201818152845160248401528451859391928392604401919085019080838360008315611028578181015183820152602001611010565b80356001600160a01b03811681146102a257600080fd5b6000602082840312156116f2578081fd5b6104ff826116ca565b6000806040838503121561170d578081fd5b611716836116ca565b9150611724602084016116ca565b90509250929050565b600080600060608486031215611741578081fd5b61174a846116ca565b9250611758602085016116ca565b9150604084013590509250925092565b6000806000806080858703121561177d578081fd5b611786856116ca565b935060206117958187016116ca565b935060408601359250606086013567ffffffffffffffff808211156117b8578384fd5b818801915088601f8301126117cb578384fd5b8135818111156117d757fe5b604051601f8201601f19168101850183811182821017156117f457fe5b60405281815283820185018b101561180a578586fd5b81858501868301379081019093019390935250939692955090935050565b6000806040838503121561183a578182fd5b611843836116ca565b915060208301358015158114611857578182fd5b809150509250929050565b60008060408385031215611874578182fd5b61187d836116ca565b946020939093013593505050565b60006020828403121561189c578081fd5b81356001600160e01b031981168114610d5d578182fd5b6000602082840312156118c4578081fd5b5035919050565b6001600160a01b0391909116815260200190565b901515815260200190565b6000602080835283518082850152825b81811015611916578581018301518582016040015282016118fa565b818111156119275783604083870101525b50601f01601f1916929092016040019392505050565b9081526020019056fe456e756d657261626c655365743a20696e646578206f7574206f6620626f756e64734552433732313a207472616e7366657220746f206e6f6e20455243373231526563656976657220696d706c656d656e7465724552433732313a207472616e7366657220746f20746865207a65726f20616464726573734552433732313a206f70657261746f7220717565727920666f72206e6f6e6578697374656e7420746f6b656e4552433732313a20617070726f76652063616c6c6572206973206e6f74206f776e6572206e6f7220617070726f76656420666f7220616c6c4552433732313a2062616c616e636520717565727920666f7220746865207a65726f20616464726573734552433732313a206f776e657220717565727920666f72206e6f6e6578697374656e7420746f6b656e456e756d657261626c654d61703a20696e646578206f7574206f6620626f756e64734552433732313a20617070726f76656420717565727920666f72206e6f6e6578697374656e7420746f6b656e4552433732313a207472616e73666572206f6620746f6b656e2074686174206973206e6f74206f776e4552433732314d657461646174613a2055524920717565727920666f72206e6f6e6578697374656e7420746f6b656e4552433732313a20617070726f76616c20746f2063757272656e74206f776e65724552433732313a207472616e736665722063616c6c6572206973206e6f74206f776e6572206e6f7220617070726f766564a264697066735822122054fd6e4c37ffd76f944929ca9c13710e96829c58190d52eb94b5d09967b5548e64736f6c63430007060033",
  "immutableReferences": {},
  "source": "// SPDX-License-Identifier: MIT\n\npragma solidity 0.7.6;\npragma abicoder v2;\n\nimport \"@openzeppelin/contracts-upgradeable/token/ERC721/ERC721Upgradeable.sol\";\nimport \"@rarible/royalties/contracts/LibPart.sol\";\n\ncontract FakeCreatorERC721 is ERC721Upgradeable {\n\n    function mintDirect_without_CreatorsEvent(address to, uint tokenId) external {\n        _safeMint(to, tokenId);\n    }\n}\n",
  "sourcePath": "/Users/sergey.patrikeev/Documents/protocol-contracts/tokens/contracts/erc-721/FakeCreatorERC721.sol",
  "compiler": {
    "name": "solc",
    "version": "0.7.6+commit.7338295f.Emscripten.clang"
  },
  "schemaVersion": "3.4.3",
  "updatedAt": "2021-12-20T07:25:21.547Z",
  "devdoc": {
    "kind": "dev",
    "methods": {
      "approve(address,uint256)": {
        "details": "See {IERC721-approve}."
      },
      "balanceOf(address)": {
        "details": "See {IERC721-balanceOf}."
      },
      "baseURI()": {
        "details": "Returns the base URI set via {_setBaseURI}. This will be automatically added as a prefix in {tokenURI} to each token's URI, or to the token ID if no specific URI is set for that token ID."
      },
      "getApproved(uint256)": {
        "details": "See {IERC721-getApproved}."
      },
      "isApprovedForAll(address,address)": {
        "details": "See {IERC721-isApprovedForAll}."
      },
      "name()": {
        "details": "See {IERC721Metadata-name}."
      },
      "ownerOf(uint256)": {
        "details": "See {IERC721-ownerOf}."
      },
      "safeTransferFrom(address,address,uint256)": {
        "details": "See {IERC721-safeTransferFrom}."
      },
      "safeTransferFrom(address,address,uint256,bytes)": {
        "details": "See {IERC721-safeTransferFrom}."
      },
      "setApprovalForAll(address,bool)": {
        "details": "See {IERC721-setApprovalForAll}."
      },
      "supportsInterface(bytes4)": {
        "details": "See {IERC165-supportsInterface}. Time complexity O(1), guaranteed to always use less than 30 000 gas."
      },
      "symbol()": {
        "details": "See {IERC721Metadata-symbol}."
      },
      "tokenByIndex(uint256)": {
        "details": "See {IERC721Enumerable-tokenByIndex}."
      },
      "tokenOfOwnerByIndex(address,uint256)": {
        "details": "See {IERC721Enumerable-tokenOfOwnerByIndex}."
      },
      "tokenURI(uint256)": {
        "details": "See {IERC721Metadata-tokenURI}."
      },
      "totalSupply()": {
        "details": "See {IERC721Enumerable-totalSupply}."
      },
      "transferFrom(address,address,uint256)": {
        "details": "See {IERC721-transferFrom}."
      }
    },
    "version": 1
  },
  "userdoc": {
    "kind": "user",
    "methods": {},
    "version": 1
  }
}