{
  "contractName": "ExchangeV1",
  "abi": [
    {
      "inputs": [
        {
          "internalType": "contract TransferProxy",
          "name": "_transferProxy",
          "type": "address"
        },
        {
          "internalType": "contract TransferProxyForDeprecated",
          "name": "_transferProxyForDeprecated",
          "type": "address"
        },
        {
          "internalType": "contract ERC20TransferProxy",
          "name": "_erc20TransferProxy",
          "type": "address"
        },
        {
          "internalType": "contract ExchangeStateV1",
          "name": "_state",
          "type": "address"
        },
        {
          "internalType": "contract ExchangeOrdersHolderV1",
          "name": "_ordersHolder",
          "type": "address"
        },
        {
          "internalType": "address payable",
          "name": "_beneficiary",
          "type": "address"
        },
        {
          "internalType": "address",
          "name": "_buyerFeeSigner",
          "type": "address"
        }
      ],
      "payable": false,
      "stateMutability": "nonpayable",
      "type": "constructor"
    },
    {
      "anonymous": false,
      "inputs": [
        {
          "indexed": true,
          "internalType": "address",
          "name": "sellToken",
          "type": "address"
        },
        {
          "indexed": true,
          "internalType": "uint256",
          "name": "sellTokenId",
          "type": "uint256"
        },
        {
          "indexed": false,
          "internalType": "uint256",
          "name": "sellValue",
          "type": "uint256"
        },
        {
          "indexed": false,
          "internalType": "address",
          "name": "owner",
          "type": "address"
        },
        {
          "indexed": false,
          "internalType": "address",
          "name": "buyToken",
          "type": "address"
        },
        {
          "indexed": false,
          "internalType": "uint256",
          "name": "buyTokenId",
          "type": "uint256"
        },
        {
          "indexed": false,
          "internalType": "uint256",
          "name": "buyValue",
          "type": "uint256"
        },
        {
          "indexed": false,
          "internalType": "address",
          "name": "buyer",
          "type": "address"
        },
        {
          "indexed": false,
          "internalType": "uint256",
          "name": "amount",
          "type": "uint256"
        },
        {
          "indexed": false,
          "internalType": "uint256",
          "name": "salt",
          "type": "uint256"
        }
      ],
      "name": "Buy",
      "type": "event"
    },
    {
      "anonymous": false,
      "inputs": [
        {
          "indexed": true,
          "internalType": "address",
          "name": "sellToken",
          "type": "address"
        },
        {
          "indexed": true,
          "internalType": "uint256",
          "name": "sellTokenId",
          "type": "uint256"
        },
        {
          "indexed": false,
          "internalType": "address",
          "name": "owner",
          "type": "address"
        },
        {
          "indexed": false,
          "internalType": "address",
          "name": "buyToken",
          "type": "address"
        },
        {
          "indexed": false,
          "internalType": "uint256",
          "name": "buyTokenId",
          "type": "uint256"
        },
        {
          "indexed": false,
          "internalType": "uint256",
          "name": "salt",
          "type": "uint256"
        }
      ],
      "name": "Cancel",
      "type": "event"
    },
    {
      "anonymous": false,
      "inputs": [
        {
          "indexed": true,
          "internalType": "address",
          "name": "previousOwner",
          "type": "address"
        },
        {
          "indexed": true,
          "internalType": "address",
          "name": "newOwner",
          "type": "address"
        }
      ],
      "name": "OwnershipTransferred",
      "type": "event"
    },
    {
      "constant": true,
      "inputs": [],
      "name": "beneficiary",
      "outputs": [
        {
          "internalType": "address payable",
          "name": "",
          "type": "address"
        }
      ],
      "payable": false,
      "stateMutability": "view",
      "type": "function"
    },
    {
      "constant": true,
      "inputs": [],
      "name": "buyerFeeSigner",
      "outputs": [
        {
          "internalType": "address",
          "name": "",
          "type": "address"
        }
      ],
      "payable": false,
      "stateMutability": "view",
      "type": "function"
    },
    {
      "constant": true,
      "inputs": [],
      "name": "erc20TransferProxy",
      "outputs": [
        {
          "internalType": "contract ERC20TransferProxy",
          "name": "",
          "type": "address"
        }
      ],
      "payable": false,
      "stateMutability": "view",
      "type": "function"
    },
    {
      "constant": true,
      "inputs": [],
      "name": "isOwner",
      "outputs": [
        {
          "internalType": "bool",
          "name": "",
          "type": "bool"
        }
      ],
      "payable": false,
      "stateMutability": "view",
      "type": "function"
    },
    {
      "constant": true,
      "inputs": [],
      "name": "ordersHolder",
      "outputs": [
        {
          "internalType": "contract ExchangeOrdersHolderV1",
          "name": "",
          "type": "address"
        }
      ],
      "payable": false,
      "stateMutability": "view",
      "type": "function"
    },
    {
      "constant": true,
      "inputs": [],
      "name": "owner",
      "outputs": [
        {
          "internalType": "address",
          "name": "",
          "type": "address"
        }
      ],
      "payable": false,
      "stateMutability": "view",
      "type": "function"
    },
    {
      "constant": false,
      "inputs": [],
      "name": "renounceOwnership",
      "outputs": [],
      "payable": false,
      "stateMutability": "nonpayable",
      "type": "function"
    },
    {
      "constant": true,
      "inputs": [],
      "name": "state",
      "outputs": [
        {
          "internalType": "contract ExchangeStateV1",
          "name": "",
          "type": "address"
        }
      ],
      "payable": false,
      "stateMutability": "view",
      "type": "function"
    },
    {
      "constant": false,
      "inputs": [
        {
          "internalType": "address",
          "name": "newOwner",
          "type": "address"
        }
      ],
      "name": "transferOwnership",
      "outputs": [],
      "payable": false,
      "stateMutability": "nonpayable",
      "type": "function"
    },
    {
      "constant": true,
      "inputs": [],
      "name": "transferProxy",
      "outputs": [
        {
          "internalType": "contract TransferProxy",
          "name": "",
          "type": "address"
        }
      ],
      "payable": false,
      "stateMutability": "view",
      "type": "function"
    },
    {
      "constant": true,
      "inputs": [],
      "name": "transferProxyForDeprecated",
      "outputs": [
        {
          "internalType": "contract TransferProxyForDeprecated",
          "name": "",
          "type": "address"
        }
      ],
      "payable": false,
      "stateMutability": "view",
      "type": "function"
    },
    {
      "constant": false,
      "inputs": [
        {
          "internalType": "address payable",
          "name": "newBeneficiary",
          "type": "address"
        }
      ],
      "name": "setBeneficiary",
      "outputs": [],
      "payable": false,
      "stateMutability": "nonpayable",
      "type": "function"
    },
    {
      "constant": false,
      "inputs": [
        {
          "internalType": "address",
          "name": "newBuyerFeeSigner",
          "type": "address"
        }
      ],
      "name": "setBuyerFeeSigner",
      "outputs": [],
      "payable": false,
      "stateMutability": "nonpayable",
      "type": "function"
    },
    {
      "constant": false,
      "inputs": [
        {
          "components": [
            {
              "components": [
                {
                  "internalType": "address",
                  "name": "owner",
                  "type": "address"
                },
                {
                  "internalType": "uint256",
                  "name": "salt",
                  "type": "uint256"
                },
                {
                  "components": [
                    {
                      "internalType": "address",
                      "name": "token",
                      "type": "address"
                    },
                    {
                      "internalType": "uint256",
                      "name": "tokenId",
                      "type": "uint256"
                    },
                    {
                      "internalType": "enum ExchangeDomainV1.AssetType",
                      "name": "assetType",
                      "type": "uint8"
                    }
                  ],
                  "internalType": "struct ExchangeDomainV1.Asset",
                  "name": "sellAsset",
                  "type": "tuple"
                },
                {
                  "components": [
                    {
                      "internalType": "address",
                      "name": "token",
                      "type": "address"
                    },
                    {
                      "internalType": "uint256",
                      "name": "tokenId",
                      "type": "uint256"
                    },
                    {
                      "internalType": "enum ExchangeDomainV1.AssetType",
                      "name": "assetType",
                      "type": "uint8"
                    }
                  ],
                  "internalType": "struct ExchangeDomainV1.Asset",
                  "name": "buyAsset",
                  "type": "tuple"
                }
              ],
              "internalType": "struct ExchangeDomainV1.OrderKey",
              "name": "key",
              "type": "tuple"
            },
            {
              "internalType": "uint256",
              "name": "selling",
              "type": "uint256"
            },
            {
              "internalType": "uint256",
              "name": "buying",
              "type": "uint256"
            },
            {
              "internalType": "uint256",
              "name": "sellerFee",
              "type": "uint256"
            }
          ],
          "internalType": "struct ExchangeDomainV1.Order",
          "name": "order",
          "type": "tuple"
        },
        {
          "components": [
            {
              "internalType": "uint8",
              "name": "v",
              "type": "uint8"
            },
            {
              "internalType": "bytes32",
              "name": "r",
              "type": "bytes32"
            },
            {
              "internalType": "bytes32",
              "name": "s",
              "type": "bytes32"
            }
          ],
          "internalType": "struct ExchangeDomainV1.Sig",
          "name": "sig",
          "type": "tuple"
        },
        {
          "internalType": "uint256",
          "name": "buyerFee",
          "type": "uint256"
        },
        {
          "components": [
            {
              "internalType": "uint8",
              "name": "v",
              "type": "uint8"
            },
            {
              "internalType": "bytes32",
              "name": "r",
              "type": "bytes32"
            },
            {
              "internalType": "bytes32",
              "name": "s",
              "type": "bytes32"
            }
          ],
          "internalType": "struct ExchangeDomainV1.Sig",
          "name": "buyerFeeSig",
          "type": "tuple"
        },
        {
          "internalType": "uint256",
          "name": "amount",
          "type": "uint256"
        },
        {
          "internalType": "address",
          "name": "buyer",
          "type": "address"
        }
      ],
      "name": "exchange",
      "outputs": [],
      "payable": true,
      "stateMutability": "payable",
      "type": "function"
    },
    {
      "constant": false,
      "inputs": [
        {
          "components": [
            {
              "internalType": "address",
              "name": "owner",
              "type": "address"
            },
            {
              "internalType": "uint256",
              "name": "salt",
              "type": "uint256"
            },
            {
              "components": [
                {
                  "internalType": "address",
                  "name": "token",
                  "type": "address"
                },
                {
                  "internalType": "uint256",
                  "name": "tokenId",
                  "type": "uint256"
                },
                {
                  "internalType": "enum ExchangeDomainV1.AssetType",
                  "name": "assetType",
                  "type": "uint8"
                }
              ],
              "internalType": "struct ExchangeDomainV1.Asset",
              "name": "sellAsset",
              "type": "tuple"
            },
            {
              "components": [
                {
                  "internalType": "address",
                  "name": "token",
                  "type": "address"
                },
                {
                  "internalType": "uint256",
                  "name": "tokenId",
                  "type": "uint256"
                },
                {
                  "internalType": "enum ExchangeDomainV1.AssetType",
                  "name": "assetType",
                  "type": "uint8"
                }
              ],
              "internalType": "struct ExchangeDomainV1.Asset",
              "name": "buyAsset",
              "type": "tuple"
            }
          ],
          "internalType": "struct ExchangeDomainV1.OrderKey",
          "name": "key",
          "type": "tuple"
        }
      ],
      "name": "cancel",
      "outputs": [],
      "payable": false,
      "stateMutability": "nonpayable",
      "type": "function"
    },
    {
      "constant": true,
      "inputs": [
        {
          "components": [
            {
              "components": [
                {
                  "internalType": "address",
                  "name": "owner",
                  "type": "address"
                },
                {
                  "internalType": "uint256",
                  "name": "salt",
                  "type": "uint256"
                },
                {
                  "components": [
                    {
                      "internalType": "address",
                      "name": "token",
                      "type": "address"
                    },
                    {
                      "internalType": "uint256",
                      "name": "tokenId",
                      "type": "uint256"
                    },
                    {
                      "internalType": "enum ExchangeDomainV1.AssetType",
                      "name": "assetType",
                      "type": "uint8"
                    }
                  ],
                  "internalType": "struct ExchangeDomainV1.Asset",
                  "name": "sellAsset",
                  "type": "tuple"
                },
                {
                  "components": [
                    {
                      "internalType": "address",
                      "name": "token",
                      "type": "address"
                    },
                    {
                      "internalType": "uint256",
                      "name": "tokenId",
                      "type": "uint256"
                    },
                    {
                      "internalType": "enum ExchangeDomainV1.AssetType",
                      "name": "assetType",
                      "type": "uint8"
                    }
                  ],
                  "internalType": "struct ExchangeDomainV1.Asset",
                  "name": "buyAsset",
                  "type": "tuple"
                }
              ],
              "internalType": "struct ExchangeDomainV1.OrderKey",
              "name": "key",
              "type": "tuple"
            },
            {
              "internalType": "uint256",
              "name": "selling",
              "type": "uint256"
            },
            {
              "internalType": "uint256",
              "name": "buying",
              "type": "uint256"
            },
            {
              "internalType": "uint256",
              "name": "sellerFee",
              "type": "uint256"
            }
          ],
          "internalType": "struct ExchangeDomainV1.Order",
          "name": "order",
          "type": "tuple"
        },
        {
          "internalType": "uint256",
          "name": "fee",
          "type": "uint256"
        }
      ],
      "name": "prepareBuyerFeeMessage",
      "outputs": [
        {
          "internalType": "string",
          "name": "",
          "type": "string"
        }
      ],
      "payable": false,
      "stateMutability": "pure",
      "type": "function"
    },
    {
      "constant": true,
      "inputs": [
        {
          "components": [
            {
              "components": [
                {
                  "internalType": "address",
                  "name": "owner",
                  "type": "address"
                },
                {
                  "internalType": "uint256",
                  "name": "salt",
                  "type": "uint256"
                },
                {
                  "components": [
                    {
                      "internalType": "address",
                      "name": "token",
                      "type": "address"
                    },
                    {
                      "internalType": "uint256",
                      "name": "tokenId",
                      "type": "uint256"
                    },
                    {
                      "internalType": "enum ExchangeDomainV1.AssetType",
                      "name": "assetType",
                      "type": "uint8"
                    }
                  ],
                  "internalType": "struct ExchangeDomainV1.Asset",
                  "name": "sellAsset",
                  "type": "tuple"
                },
                {
                  "components": [
                    {
                      "internalType": "address",
                      "name": "token",
                      "type": "address"
                    },
                    {
                      "internalType": "uint256",
                      "name": "tokenId",
                      "type": "uint256"
                    },
                    {
                      "internalType": "enum ExchangeDomainV1.AssetType",
                      "name": "assetType",
                      "type": "uint8"
                    }
                  ],
                  "internalType": "struct ExchangeDomainV1.Asset",
                  "name": "buyAsset",
                  "type": "tuple"
                }
              ],
              "internalType": "struct ExchangeDomainV1.OrderKey",
              "name": "key",
              "type": "tuple"
            },
            {
              "internalType": "uint256",
              "name": "selling",
              "type": "uint256"
            },
            {
              "internalType": "uint256",
              "name": "buying",
              "type": "uint256"
            },
            {
              "internalType": "uint256",
              "name": "sellerFee",
              "type": "uint256"
            }
          ],
          "internalType": "struct ExchangeDomainV1.Order",
          "name": "order",
          "type": "tuple"
        }
      ],
      "name": "prepareMessage",
      "outputs": [
        {
          "internalType": "string",
          "name": "",
          "type": "string"
        }
      ],
      "payable": false,
      "stateMutability": "pure",
      "type": "function"
    }
  ],
  "bytecode": "0x60806040523480156200001157600080fd5b50604051620029d0380380620029d0833981016040819052620000349162000139565b6000620000496001600160e01b036200011516565b600080546001600160a01b0319166001600160a01b0383169081178255604051929350917f8be0079c531659141344cd1fd0a4f28419497f9722a3daafe3b4186f6b6457e0908290a350600380546001600160a01b03199081166001600160a01b03998a16179091556004805482169789169790971790965560058054871695881695909517909455600680548616938716939093179092556007805485169186169190911790556001805484169185169190911790556002805490921692169190911790556200022f565b3390565b805162000126816200020a565b92915050565b8051620001268162000224565b600080600080600080600060e0888a0312156200015557600080fd5b6000620001638a8a6200012c565b9750506020620001768a828b016200012c565b9650506040620001898a828b016200012c565b95505060606200019c8a828b016200012c565b9450506080620001af8a828b016200012c565b93505060a0620001c28a828b0162000119565b92505060c0620001d58a828b0162000119565b91505092959891949750929550565b60006200012682620001fe565b60006200012682620001e4565b6001600160a01b031690565b6200021581620001e4565b81146200022157600080fd5b50565b6200021581620001f1565b612791806200023f6000396000f3fe6080604052600436106100fe5760003560e01c8063715018a6116100955780639cec6392116100645780639cec63921461026a578063c19d93fb1461027d578063ca120b1f14610292578063f2fde38b146102b2578063fee03e9e146102d2576100fe565b8063715018a6146102095780638da5cb5b1461021e5780638f32d59b146102335780639704dc4414610255576100fe565b806338af3eed116100d157806338af3eed1461019d5780634df97bc5146101bf57806355d5d326146101d45780636e667db3146101f4576100fe565b806302329e1014610103578063049944b61461012e5780631b4c98741461015b5780631c31f7101461017b575b600080fd5b34801561010f57600080fd5b506101186102e7565b60405161012591906123a2565b60405180910390f35b34801561013a57600080fd5b5061014e610149366004611dc6565b6102f6565b6040516101259190612436565b34801561016757600080fd5b5061014e610176366004611de5565b61032f565b34801561018757600080fd5b5061019b610196366004611c11565b610350565b005b3480156101a957600080fd5b506101b261039f565b6040516101259190612328565b3480156101cb57600080fd5b506101b26103ae565b3480156101e057600080fd5b5061019b6101ef366004611c11565b6103bd565b34801561020057600080fd5b50610118610403565b34801561021557600080fd5b5061019b610412565b34801561022a57600080fd5b506101b2610480565b34801561023f57600080fd5b5061024861048f565b604051610125919061236b565b34801561026157600080fd5b506101186104b3565b61019b610278366004611d39565b6104c2565b34801561028957600080fd5b506101186106cd565b34801561029e57600080fd5b5061019b6102ad366004611cfb565b6106dc565b3480156102be57600080fd5b5061019b6102cd366004611c11565b6107ea565b3480156102de57600080fd5b5061011861081a565b6004546001600160a01b031681565b60606103278260405160200161030c9190612542565b60405160208183030381529060405280519060200120610829565b90505b919050565b6060610347838360405160200161030c929190612551565b90505b92915050565b61035861048f565b61037d5760405162461bcd60e51b8152600401610374906124b7565b60405180910390fd5b600180546001600160a01b0319166001600160a01b0392909216919091179055565b6001546001600160a01b031681565b6002546001600160a01b031681565b6103c561048f565b6103e15760405162461bcd60e51b8152600401610374906124b7565b600280546001600160a01b0319166001600160a01b0392909216919091179055565b6003546001600160a01b031681565b61041a61048f565b6104365760405162461bcd60e51b8152600401610374906124b7565b600080546040516001600160a01b03909116907f8be0079c531659141344cd1fd0a4f28419497f9722a3daafe3b4186f6b6457e0908390a3600080546001600160a01b0319169055565b6000546001600160a01b031690565b600080546001600160a01b03166104a461093c565b6001600160a01b031614905090565b6007546001600160a01b031681565b6104e86104d436889003880188611dc6565b6104e336889003880188611e21565b610940565b61050f6104fa36889003880188611dc6565b8561050a36879003870187611e21565b610a6d565b600061053b61010088013561052f6101208a01358663ffffffff610ac316565b9063ffffffff610afd16565b905061055b61054f36899003890189611d1a565b88610100013585610b3f565b600061056d60a0890160808a01611cbf565b600481111561057857fe5b14156105965760405162461bcd60e51b8152600401610374906124c7565b60006105a9610100890160e08a01611cbf565b60048111156105b457fe5b14156105c4576105c48186610c61565b60006105ef6105d960a08a0160808b01611cbf565b6105ea6101008b0160e08c01611cbf565b610c96565b90506001600160a01b038316610603573392505b610659610618368a90038a0160408b01611cdd565b8561062660208c018c611c11565b86600186600281111561063557fe5b148b8e61014001358f60000160a0018036036106549190810190611cdd565b610d25565b6106aa61066e368a90038a0160a08b01611cdd565b833361067d60208d018d611c11565b600286600281111561068b57fe5b148d61014001358c8f6000016040018036036106549190810190611cdd565b6106c36106bc368a90038a018a611dc6565b8585610d4a565b5050505050505050565b6006546001600160a01b031681565b336106ea6020830183611c11565b6001600160a01b0316146107105760405162461bcd60e51b8152600401610374906124d7565b600654604051631d03b74d60e11b81526001600160a01b0390911690633a076e9a9061074490849060001990600401612507565b600060405180830381600087803b15801561075e57600080fd5b505af1158015610772573d6000803e3d6000fd5b505050606082018035915061078a9060408401611c11565b6001600160a01b03167fbfe0e802e586c99960de1a111c80f598b281996d65080d74dbe29986f55b274a336107c560c0860160a08701611c11565b6040516107df92919060c088013590602089013590612336565b60405180910390a350565b6107f261048f565b61080e5760405162461bcd60e51b8152600401610374906124b7565b61081781610dc9565b50565b6005546001600160a01b031681565b604080518082018252601081526f181899199a1a9b1b9c1cb0b131b232b360811b60208201528151828152606081810184529283919060208201818038833901905050905060005b60208110156109345782600486836020811061088957fe5b1a60f81b6001600160f81b031916901c60f81c60ff16815181106108a957fe5b602001015160f81c60f81b8282600202815181106108c357fe5b60200101906001600160f81b031916908160001a905350828582602081106108e757fe5b825191901a600f169081106108f857fe5b602001015160f81c60f81b82826002026001018151811061091557fe5b60200101906001600160f81b031916908160001a905350600101610871565b509392505050565b3390565b805160ff1615801561095457506020810151155b801561096257506040810151155b15610a0857600754604051632aee7a3160e01b81526001600160a01b0390911690632aee7a3190610997908590600401612542565b60206040518083038186803b1580156109af57600080fd5b505afa1580156109c3573d6000803e3d6000fd5b505050506040513d601f19601f820116820180604052506109e79190810190611ca1565b610a035760405162461bcd60e51b815260040161037490612487565b610a69565b8160000151600001516001600160a01b0316610a43826000015183602001518460400151610a35876102f6565b92919063ffffffff610e4a16565b6001600160a01b031614610a695760405162461bcd60e51b815260040161037490612487565b5050565b6002548151602083015160408401516001600160a01b0390931692610a98929190610a35888861032f565b6001600160a01b031614610abe5760405162461bcd60e51b815260040161037490612497565b505050565b600082610ad25750600061034a565b82820282848281610adf57fe5b04146103475760405162461bcd60e51b8152600401610374906124a7565b600061034783836040518060400160405280601a81526020017f536166654d6174683a206469766973696f6e206279207a65726f000000000000815250610f27565b6006546040516303ec000360e61b81526000916001600160a01b03169063fb0000c090610b70908790600401612524565b60206040518083038186803b158015610b8857600080fd5b505afa158015610b9c573d6000803e3d6000fd5b505050506040513d601f19601f82011682018060405250610bc09190810190611e3f565b90506000610bd4828463ffffffff610f6016565b905083811115610bf65760405162461bcd60e51b815260040161037490612447565b600654604051631d03b74d60e11b81526001600160a01b0390911690633a076e9a90610c289088908590600401612533565b600060405180830381600087803b158015610c4257600080fd5b505af1158015610c56573d6000803e3d6000fd5b505050505050505050565b6000610c73838363ffffffff610f8516565b90508083013414610abe5760405162461bcd60e51b8152600401610374906124f7565b60006003836004811115610ca657fe5b1480610cbd57506004836004811115610cbb57fe5b145b8015610ce957506003826004811115610cd257fe5b1480610ce957506004826004811115610ce757fe5b145b15610cf65750600061034a565b816004811115610d0257fe5b836004811115610d0e57fe5b1115610d1c5750600261034a565b50600192915050565b83610d3b57610d3688888888610f9d565b6106c3565b6106c3888888888787876111f0565b825160408082015160208082015191518188015185516060870151805190850151878c01519590980151965195976001600160a01b03909416967fdddcdb07e460849cf04a4445b7af9faf01b7f5c7ba75deaf969ac5ed830312c396610dbc9694959394929392918b918d919061257c565b60405180910390a3505050565b6001600160a01b038116610def5760405162461bcd60e51b815260040161037490612467565b600080546040516001600160a01b03808516939216917f8be0079c531659141344cd1fd0a4f28419497f9722a3daafe3b4186f6b6457e091a3600080546001600160a01b0319166001600160a01b0392909216919091179055565b600060608590506060610ec36040518060400160405280601a81526020017f19457468657265756d205369676e6564204d6573736167653a0a000000000000815250610e9684516114f5565b604080516000808252602082018181528284018281526060840192835260808401909452889390916115b6565b90506001818051906020012087878760405160008152602001604052604051610eef9493929190612379565b6020604051602081039080840390855afa158015610f11573d6000803e3d6000fd5b5050604051601f19015198975050505050505050565b60008183610f485760405162461bcd60e51b81526004016103749190612436565b506000838581610f5457fe5b049150505b9392505050565b6000828201838110156103475760405162461bcd60e51b815260040161037490612477565b600061034761271061052f858563ffffffff610ac316565b600084604001516004811115610faf57fe5b1415610ff45760405181906001600160a01b0382169085156108fc029086906000818181858888f19350505050158015610fed573d6000803e3d6000fd5b50506111ea565b60018460400151600481111561100657fe5b141561109b5760208401511561102e5760405162461bcd60e51b8152600401610374906124e7565b600554845160405163776062c360e01b81526001600160a01b039092169163776062c3916110649186908690899060040161240e565b600060405180830381600087803b15801561107e57600080fd5b505af1158015611092573d6000803e3d6000fd5b505050506111ea565b6003846040015160048111156110ad57fe5b141561110e57826001146110d35760405162461bcd60e51b815260040161037490612457565b60035484516020860151604051637b84dc8360e11b81526001600160a01b039093169263f709b906926110649290918791879160040161240e565b60048460400151600481111561112057fe5b141561117f57826001146111465760405162461bcd60e51b815260040161037490612457565b60048054855160208701516040516321143af960e21b81526001600160a01b0390931693638450ebe4936110649392889288920161240e565b60035484516020860151604051639c1c2ee960e01b81526001600160a01b0390931692639c1c2ee9926111bc929091879187918a906004016123b0565b600060405180830381600087803b1580156111d657600080fd5b505af11580156106c3573d6000803e3d6000fd5b50505050565b60006111ff888789878761185c565b905060028260400151600481111561121357fe5b1480156112a1575081516040516301ffc9a760e01b81526001600160a01b03909116906301ffc9a79061125190632dde656160e21b90600401612394565b60206040518083038186803b15801561126957600080fd5b505afa15801561127d573d6000803e3d6000fd5b505050506040513d601f19601f820116820180604052506112a19190810190611ca1565b8061136157506003826040015160048111156112b957fe5b14806112d457506004826040015160048111156112d257fe5b145b8015611361575081516040516301ffc9a760e01b81526001600160a01b03909116906301ffc9a79061131190632dde656160e21b90600401612394565b60206040518083038186803b15801561132957600080fd5b505afa15801561133d573d6000803e3d6000fd5b505050506040513d601f19601f820116820180604052506113619190810190611ca1565b156114e8578151602083015160405163b9c4d9fb60e01b81526060916001600160a01b0384169163b9c4d9fb9161139a9160040161256e565b60006040518083038186803b1580156113b257600080fd5b505afa1580156113c6573d6000803e3d6000fd5b505050506040513d6000823e601f3d908101601f191682016040526113ee9190810190611c37565b90506060826001600160a01b0316630ebd4c7f86602001516040518263ffffffff1660e01b8152600401611422919061256e565b60006040518083038186803b15801561143a57600080fd5b505afa15801561144e573d6000803e3d6000fd5b505050506040513d6000823e601f3d908101601f191682016040526114769190810190611c6c565b9050815181511461148657600080fd5b60005b81518110156114e3576000806114b3878e8686815181106114a657fe5b60200260200101516118ca565b915091508196506114d98e828e8887815181106114cc57fe5b6020026020010151610f9d565b5050600101611489565b505050505b84610c5689838984610f9d565b60608161151a57506040805180820190915260018152600360fc1b602082015261032a565b8160005b811561153257600101600a8204915061151e565b6060816040519080825280601f01601f19166020018201604052801561155f576020820181803883390190505b50905060001982015b85156115ad57600a860660300160f81b8282806001900393508151811061158b57fe5b60200101906001600160f81b031916908160001a905350600a86049550611568565b50949350505050565b60608082518451865188518a518c518e510101010101016040519080825280601f01601f1916602001820160405280156115f7576020820181803883390190505b5090506000805b8a5181101561164f578a818151811061161357fe5b602001015160f81c60f81b83838060010194508151811061163057fe5b60200101906001600160f81b031916908160001a9053506001016115fe565b5060005b89518110156116a45789818151811061166857fe5b602001015160f81c60f81b83838060010194508151811061168557fe5b60200101906001600160f81b031916908160001a905350600101611653565b5060005b88518110156116f9578881815181106116bd57fe5b602001015160f81c60f81b8383806001019450815181106116da57fe5b60200101906001600160f81b031916908160001a9053506001016116a8565b5060005b875181101561174e5787818151811061171257fe5b602001015160f81c60f81b83838060010194508151811061172f57fe5b60200101906001600160f81b031916908160001a9053506001016116fd565b5060005b86518110156117a35786818151811061176757fe5b602001015160f81c60f81b83838060010194508151811061178457fe5b60200101906001600160f81b031916908160001a905350600101611752565b5060005b85518110156117f8578581815181106117bc57fe5b602001015160f81c60f81b8383806001019450815181106117d957fe5b60200101906001600160f81b031916908160001a9053506001016117a7565b5060005b845181101561184d5784818151811061181157fe5b602001015160f81c60f81b83838060010194508151811061182e57fe5b60200101906001600160f81b031916908160001a9053506001016117fc565b50909998505050505050505050565b600080600061186c8687876118ca565b90925090506000611883878663ffffffff610f8516565b90506000611897828463ffffffff610f6016565b905080156118ba576001546118ba908b9083908c906001600160a01b0316610f9d565b5091925050505b95945050505050565b6000806118e6856118e1868663ffffffff610f8516565b6118f2565b91509150935093915050565b600080828411156119085750508082038161190f565b5060009050825b9250929050565b803561034a81612712565b805161034a81612712565b600082601f83011261193d57600080fd5b815161195061194b8261261a565b6125f3565b9150818183526020840193506020810190508385602084028201111561197557600080fd5b60005b838110156119a1578161198b8882611921565b8452506020928301929190910190600101611978565b5050505092915050565b600082601f8301126119bc57600080fd5b81516119ca61194b8261261a565b915081818352602084019350602081019050838560208402820111156119ef57600080fd5b60005b838110156119a15781611a058882611bfb565b84525060209283019291909101906001016119f2565b805161034a81612726565b803561034a8161272f565b803561034a81612738565b600060608284031215611a4e57600080fd5b611a5860606125f3565b90506000611a668484611916565b8252506020611a7784848301611a26565b6020830152506040611a8b84828501611a31565b60408301525092915050565b60006101008284031215611aaa57600080fd5b50919050565b60006101008284031215611ac357600080fd5b611acd60806125f3565b90506000611adb8484611916565b8252506020611aec84848301611a26565b6020830152506040611b0084828501611a3c565b60408301525060a0611b1484828501611a3c565b60608301525092915050565b60006101608284031215611aaa57600080fd5b60006101608284031215611b4657600080fd5b611b5060806125f3565b90506000611b5e8484611ab0565b825250610100611b7084848301611a26565b602083015250610120611b8584828501611a26565b604083015250610140611b1484828501611a26565b600060608284031215611aaa57600080fd5b600060608284031215611bbe57600080fd5b611bc860606125f3565b90506000611bd68484611c06565b8252506020611be784848301611a26565b6020830152506040611a8b84828501611a26565b805161034a8161272f565b803561034a81612745565b600060208284031215611c2357600080fd5b6000611c2f8484611916565b949350505050565b600060208284031215611c4957600080fd5b815167ffffffffffffffff811115611c6057600080fd5b611c2f8482850161192c565b600060208284031215611c7e57600080fd5b815167ffffffffffffffff811115611c9557600080fd5b611c2f848285016119ab565b600060208284031215611cb357600080fd5b6000611c2f8484611a1b565b600060208284031215611cd157600080fd5b6000611c2f8484611a31565b600060608284031215611cef57600080fd5b6000611c2f8484611a3c565b60006101008284031215611d0e57600080fd5b6000611c2f8484611a97565b60006101008284031215611d2d57600080fd5b6000611c2f8484611ab0565b6000806000806000806102808789031215611d5357600080fd5b6000611d5f8989611b20565b965050610160611d7189828a01611b9a565b9550506101c0611d8389828a01611a26565b9450506101e0611d9589828a01611b9a565b935050610240611da789828a01611a26565b925050610260611db989828a01611916565b9150509295509295509295565b60006101608284031215611dd957600080fd5b6000611c2f8484611b33565b6000806101808385031215611df957600080fd5b6000611e058585611b33565b925050610160611e1785828601611a26565b9150509250929050565b600060608284031215611e3357600080fd5b6000611c2f8484611bac565b600060208284031215611e5157600080fd5b6000611c2f8484611bfb565b611e66816126b5565b82525050565b611e6681612679565b611e6681612684565b611e6681612689565b611e668161268c565b611e66816126bc565b611e66816126c7565b6000611ead8261263b565b611eb7818561263f565b9350611ec78185602086016126d2565b611ed0816126fe565b9093019392505050565b6000611ee760248361263f565b7f6e6f7420656e6f7567682073746f636b206f66206f7264657220666f7220627581526379696e6760e01b602082015260400192915050565b6000611f2d601d8361263f565b7f76616c75652073686f756c64206265203120666f72204552432d373231000000815260200192915050565b6000611f6660268361263f565b7f4f776e61626c653a206e6577206f776e657220697320746865207a65726f206181526564647265737360d01b602082015260400192915050565b6000611fae601b8361263f565b7f536166654d6174683a206164646974696f6e206f766572666c6f770000000000815260200192915050565b6000611fe760138361263f565b72696e636f7272656374207369676e617475726560681b815260200192915050565b6000612016601d8361263f565b7f696e636f727265637420627579657220666565207369676e6174757265000000815260200192915050565b600061204f60218361263f565b7f536166654d6174683a206d756c7469706c69636174696f6e206f766572666c6f8152607760f81b602082015260400192915050565b600061209260208361263f565b7f4f776e61626c653a2063616c6c6572206973206e6f7420746865206f776e6572815260200192915050565b60006120cb60218361263f565b7f455448206973206e6f7420737570706f72746564206f6e2073656c6c207369648152606560f81b602082015260400192915050565b600061034a60008361263f565b600061211b600c8361263f565b6b3737ba1030b71037bbb732b960a11b815260200192915050565b600061214360138361263f565b720746f6b656e49642073686f756c64206265203606c1b815260200192915050565b600061217260168361263f565b751b5cd9cb9d985b1d59481a5cc81a5b98dbdc9c9958dd60521b815260200192915050565b606082016121a58280612648565b6121af8482611e6c565b506121bd602083018361266a565b6121ca6020850182611e7e565b506121d86040830183612657565b6111ea6040850182611e99565b805160608301906121f68482611e6c565b5060208201516122096020850182611e7e565b5060408201516111ea6040850182611e99565b610100820161222b8280612648565b6122358482611e6c565b50612243602083018361266a565b6122506020850182611e7e565b5061225e6040830183612666565b61226b6040850182612197565b5061227960a0830183612666565b6111ea60a0850182612197565b80516101008301906122988482611e6c565b5060208201516122ab6020850182611e7e565b5060408201516122be60408501826121e5565b5060608201516111ea60a08501826121e5565b80516101608301906122e38482612286565b5060208201516122f7610100850182611e7e565b50604082015161230b610120850182611e7e565b5060608201516111ea610140850182611e7e565b611e66816126af565b6020810161034a8284611e6c565b608081016123448287611e5d565b6123516020830186611e6c565b61235e6040830185611e7e565b6118c16060830184611e7e565b6020810161034a8284611e75565b608081016123878287611e7e565b612351602083018661231f565b6020810161034a8284611e87565b6020810161034a8284611e90565b60c081016123be8288611e90565b6123cb6020830187611e6c565b6123d86040830186611e6c565b6123e56060830185611e7e565b6123f26080830184611e7e565b81810360a083015261240381612101565b979650505050505050565b6080810161241c8287611e90565b6124296020830186611e6c565b61235e6040830185611e6c565b602080825281016103478184611ea2565b6020808252810161032781611eda565b6020808252810161032781611f20565b6020808252810161032781611f59565b6020808252810161032781611fa1565b6020808252810161032781611fda565b6020808252810161032781612009565b6020808252810161032781612042565b6020808252810161032781612085565b60208082528101610327816120be565b602080825281016103278161210e565b6020808252810161032781612136565b6020808252810161032781612165565b6101208101612516828561221c565b610f59610100830184611e7e565b610100810161034a8284612286565b61012081016125168285612286565b610160810161034a82846122d1565b610180810161256082856122d1565b610f59610160830184611e7e565b6020810161034a8284611e7e565b610100810161258b828b611e7e565b612598602083018a611e6c565b6125a56040830189611e6c565b6125b26060830188611e7e565b6125bf6080830187611e7e565b6125cc60a0830186611e6c565b6125d960c0830185611e7e565b6125e660e0830184611e7e565b9998505050505050505050565b60405181810167ffffffffffffffff8111828210171561261257600080fd5b604052919050565b600067ffffffffffffffff82111561263157600080fd5b5060209081020190565b5190565b90815260200190565b60006103476020840184611916565b60006103476020840184611a31565b5090565b60006103476020840184611a26565b6000610327826126a3565b151590565b90565b6001600160e01b03191690565b8061032a81612708565b6001600160a01b031690565b60ff1690565b6000610327825b600061032782612679565b600061032782612699565b60005b838110156126ed5781810151838201526020016126d5565b838111156111ea5750506000910152565b601f01601f191690565b6005811061081757fe5b61271b81612679565b811461081757600080fd5b61271b81612684565b61271b81612689565b6005811061081757600080fd5b61271b816126af56fea365627a7a72315820fadda4b6bfa5c317215d22993c2e0058418de9cfb60b610d4f59ca71d73267906c6578706572696d656e74616cf564736f6c63430005110040",
  "source": "pragma solidity ^0.5.0;\r\npragma experimental ABIEncoderV2;\r\n\r\nimport \"openzeppelin-solidity/contracts/math/SafeMath.sol\";\r\nimport \"../../TransferProxy.sol\";\r\nimport \"../../TransferProxyForDeprecated.sol\";\r\nimport \"../../ERC20TransferProxy.sol\";\r\nimport \"../../utils/StringLibrary.sol\";\r\nimport \"../../utils/BytesLibrary.sol\";\r\nimport \"./ExchangeStateV1.sol\";\r\nimport \"./ExchangeOrdersHolderV1.sol\";\r\nimport \"../../interfaces/HasSecondarySaleFees.sol\";\r\n\r\ncontract ExchangeV1 is Ownable, ExchangeDomainV1 {\r\n    using SafeMath for uint;\r\n    using UintLibrary for uint;\r\n    using StringLibrary for string;\r\n    using BytesLibrary for bytes32;\r\n\r\n    enum FeeSide {NONE, SELL, BUY}\r\n\r\n    event Buy(\r\n        address indexed sellToken, uint256 indexed sellTokenId, uint256 sellValue,\r\n        address owner,\r\n        address buyToken, uint256 buyTokenId, uint256 buyValue,\r\n        address buyer,\r\n        uint256 amount,\r\n        uint256 salt\r\n    );\r\n\r\n    event Cancel(\r\n        address indexed sellToken, uint256 indexed sellTokenId,\r\n        address owner,\r\n        address buyToken, uint256 buyTokenId,\r\n        uint256 salt\r\n    );\r\n\r\n    bytes4 private constant _INTERFACE_ID_FEES = 0xb7799584;\r\n    uint256 private constant UINT256_MAX = 2 ** 256 - 1;\r\n\r\n    address payable public beneficiary;\r\n    address public buyerFeeSigner;\r\n\r\n    TransferProxy public transferProxy;\r\n    TransferProxyForDeprecated public transferProxyForDeprecated;\r\n    ERC20TransferProxy public erc20TransferProxy;\r\n    ExchangeStateV1 public state;\r\n    ExchangeOrdersHolderV1 public ordersHolder;\r\n\r\n    constructor(\r\n        TransferProxy _transferProxy, TransferProxyForDeprecated _transferProxyForDeprecated, ERC20TransferProxy _erc20TransferProxy, ExchangeStateV1 _state,\r\n        ExchangeOrdersHolderV1 _ordersHolder, address payable _beneficiary, address _buyerFeeSigner\r\n    ) public {\r\n        transferProxy = _transferProxy;\r\n        transferProxyForDeprecated = _transferProxyForDeprecated;\r\n        erc20TransferProxy = _erc20TransferProxy;\r\n        state = _state;\r\n        ordersHolder = _ordersHolder;\r\n        beneficiary = _beneficiary;\r\n        buyerFeeSigner = _buyerFeeSigner;\r\n    }\r\n\r\n    function setBeneficiary(address payable newBeneficiary) external onlyOwner {\r\n        beneficiary = newBeneficiary;\r\n    }\r\n\r\n    function setBuyerFeeSigner(address newBuyerFeeSigner) external onlyOwner {\r\n        buyerFeeSigner = newBuyerFeeSigner;\r\n    }\r\n\r\n    function exchange(\r\n        Order calldata order,\r\n        Sig calldata sig,\r\n        uint buyerFee,\r\n        Sig calldata buyerFeeSig,\r\n        uint amount,\r\n        address buyer\r\n    ) payable external {\r\n        validateOrderSig(order, sig);\r\n        validateBuyerFeeSig(order, buyerFee, buyerFeeSig);\r\n        uint paying = order.buying.mul(amount).div(order.selling);\r\n        verifyOpenAndModifyOrderState(order.key, order.selling, amount);\r\n        require(order.key.sellAsset.assetType != AssetType.ETH, \"ETH is not supported on sell side\");\r\n        if (order.key.buyAsset.assetType == AssetType.ETH) {\r\n            validateEthTransfer(paying, buyerFee);\r\n        }\r\n        FeeSide feeSide = getFeeSide(order.key.sellAsset.assetType, order.key.buyAsset.assetType);\r\n        if (buyer == address(0x0)) {\r\n            buyer = msg.sender;\r\n        }\r\n        transferWithFeesPossibility(order.key.sellAsset, amount, order.key.owner, buyer, feeSide == FeeSide.SELL, buyerFee, order.sellerFee, order.key.buyAsset);\r\n        transferWithFeesPossibility(order.key.buyAsset, paying, msg.sender, order.key.owner, feeSide == FeeSide.BUY, order.sellerFee, buyerFee, order.key.sellAsset);\r\n        emitBuy(order, amount, buyer);\r\n    }\r\n\r\n    function validateEthTransfer(uint value, uint buyerFee) internal view {\r\n        uint256 buyerFeeValue = value.bp(buyerFee);\r\n        require(msg.value == value + buyerFeeValue, \"msg.value is incorrect\");\r\n    }\r\n\r\n    function cancel(OrderKey calldata key) external {\r\n        require(key.owner == msg.sender, \"not an owner\");\r\n        state.setCompleted(key, UINT256_MAX);\r\n        emit Cancel(key.sellAsset.token, key.sellAsset.tokenId, msg.sender, key.buyAsset.token, key.buyAsset.tokenId, key.salt);\r\n    }\r\n\r\n    function validateOrderSig(\r\n        Order memory order,\r\n        Sig memory sig\r\n    ) internal view {\r\n        if (sig.v == 0 && sig.r == bytes32(0x0) && sig.s == bytes32(0x0)) {\r\n            require(ordersHolder.exists(order), \"incorrect signature\");\r\n        } else {\r\n            require(prepareMessage(order).recover(sig.v, sig.r, sig.s) == order.key.owner, \"incorrect signature\");\r\n        }\r\n    }\r\n\r\n    function validateBuyerFeeSig(\r\n        Order memory order,\r\n        uint buyerFee,\r\n        Sig memory sig\r\n    ) internal view {\r\n        require(prepareBuyerFeeMessage(order, buyerFee).recover(sig.v, sig.r, sig.s) == buyerFeeSigner, \"incorrect buyer fee signature\");\r\n    }\r\n\r\n    function prepareBuyerFeeMessage(Order memory order, uint fee) public pure returns (string memory) {\r\n        return keccak256(abi.encode(order, fee)).toString();\r\n    }\r\n\r\n    function prepareMessage(Order memory order) public pure returns (string memory) {\r\n        return keccak256(abi.encode(order)).toString();\r\n    }\r\n\r\n    function transferWithFeesPossibility(Asset memory firstType, uint value, address from, address to, bool hasFee, uint256 sellerFee, uint256 buyerFee, Asset memory secondType) internal {\r\n        if (!hasFee) {\r\n            transfer(firstType, value, from, to);\r\n        } else {\r\n            transferWithFees(firstType, value, from, to, sellerFee, buyerFee, secondType);\r\n        }\r\n    }\r\n\r\n    function transfer(Asset memory asset, uint value, address from, address to) internal {\r\n        if (asset.assetType == AssetType.ETH) {\r\n            address payable toPayable = address(uint160(to));\r\n            toPayable.transfer(value);\r\n        } else if (asset.assetType == AssetType.ERC20) {\r\n            require(asset.tokenId == 0, \"tokenId should be 0\");\r\n            erc20TransferProxy.erc20safeTransferFrom(IERC20(asset.token), from, to, value);\r\n        } else if (asset.assetType == AssetType.ERC721) {\r\n            require(value == 1, \"value should be 1 for ERC-721\");\r\n            transferProxy.erc721safeTransferFrom(IERC721(asset.token), from, to, asset.tokenId);\r\n        } else if (asset.assetType == AssetType.ERC721Deprecated) {\r\n            require(value == 1, \"value should be 1 for ERC-721\");\r\n            transferProxyForDeprecated.erc721TransferFrom(IERC721(asset.token), from, to, asset.tokenId);\r\n        } else {\r\n            transferProxy.erc1155safeTransferFrom(IERC1155(asset.token), from, to, asset.tokenId, value, \"\");\r\n        }\r\n    }\r\n\r\n    function transferWithFees(Asset memory firstType, uint value, address from, address to, uint256 sellerFee, uint256 buyerFee, Asset memory secondType) internal {\r\n        uint restValue = transferFeeToBeneficiary(firstType, from, value, sellerFee, buyerFee);\r\n        if (\r\n            secondType.assetType == AssetType.ERC1155 && IERC1155(secondType.token).supportsInterface(_INTERFACE_ID_FEES) ||\r\n            (secondType.assetType == AssetType.ERC721 || secondType.assetType == AssetType.ERC721Deprecated) && IERC721(secondType.token).supportsInterface(_INTERFACE_ID_FEES)\r\n        ) {\r\n            HasSecondarySaleFees withFees = HasSecondarySaleFees(secondType.token);\r\n            address payable[] memory recipients = withFees.getFeeRecipients(secondType.tokenId);\r\n            uint[] memory fees = withFees.getFeeBps(secondType.tokenId);\r\n            require(fees.length == recipients.length);\r\n            for (uint256 i = 0; i < fees.length; i++) {\r\n                (uint newRestValue, uint current) = subFeeInBp(restValue, value, fees[i]);\r\n                restValue = newRestValue;\r\n                transfer(firstType, current, from, recipients[i]);\r\n            }\r\n        }\r\n        address payable toPayable = address(uint160(to));\r\n        transfer(firstType, restValue, from, toPayable);\r\n    }\r\n\r\n    function transferFeeToBeneficiary(Asset memory asset, address from, uint total, uint sellerFee, uint buyerFee) internal returns (uint) {\r\n        (uint restValue, uint sellerFeeValue) = subFeeInBp(total, total, sellerFee);\r\n        uint buyerFeeValue = total.bp(buyerFee);\r\n        uint beneficiaryFee = buyerFeeValue.add(sellerFeeValue);\r\n        if (beneficiaryFee > 0) {\r\n            transfer(asset, beneficiaryFee, from, beneficiary);\r\n        }\r\n        return restValue;\r\n    }\r\n\r\n    function emitBuy(Order memory order, uint amount, address buyer) internal {\r\n        emit Buy(order.key.sellAsset.token, order.key.sellAsset.tokenId, order.selling,\r\n            order.key.owner,\r\n            order.key.buyAsset.token, order.key.buyAsset.tokenId, order.buying,\r\n            buyer,\r\n            amount,\r\n            order.key.salt\r\n        );\r\n    }\r\n\r\n    function subFeeInBp(uint value, uint total, uint feeInBp) internal pure returns (uint newValue, uint realFee) {\r\n        return subFee(value, total.bp(feeInBp));\r\n    }\r\n\r\n    function subFee(uint value, uint fee) internal pure returns (uint newValue, uint realFee) {\r\n        if (value > fee) {\r\n            newValue = value - fee;\r\n            realFee = fee;\r\n        } else {\r\n            newValue = 0;\r\n            realFee = value;\r\n        }\r\n    }\r\n\r\n    function verifyOpenAndModifyOrderState(OrderKey memory key, uint selling, uint amount) internal {\r\n        uint completed = state.getCompleted(key);\r\n        uint newCompleted = completed.add(amount);\r\n        require(newCompleted <= selling, \"not enough stock of order for buying\");\r\n        state.setCompleted(key, newCompleted);\r\n    }\r\n\r\n    function getFeeSide(AssetType sellType, AssetType buyType) internal pure returns (FeeSide) {\r\n        if ((sellType == AssetType.ERC721 || sellType == AssetType.ERC721Deprecated) &&\r\n            (buyType == AssetType.ERC721 || buyType == AssetType.ERC721Deprecated)) {\r\n            return FeeSide.NONE;\r\n        }\r\n        if (uint(sellType) > uint(buyType)) {\r\n            return FeeSide.BUY;\r\n        }\r\n        return FeeSide.SELL;\r\n    }\r\n}\r\n",
  "sourcePath": "C:\\pr\\contracts\\exchange\\contracts\\exchange\\v1\\ExchangeV1.sol",
  "compiler": {
    "name": "solc",
    "version": "0.5.17+commit.d19bba13.Emscripten.clang"
  },
  "schemaVersion": "3.2.3",
  "updatedAt": "2020-12-15T01:59:35.147Z",
  "devdoc": {
    "methods": {
      "isOwner()": {
        "details": "Returns true if the caller is the current owner."
      },
      "owner()": {
        "details": "Returns the address of the current owner."
      },
      "renounceOwnership()": {
        "details": "Leaves the contract without owner. It will not be possible to call `onlyOwner` functions anymore. Can only be called by the current owner.     * NOTE: Renouncing ownership will leave the contract without an owner, thereby removing any functionality that is only available to the owner."
      },
      "transferOwnership(address)": {
        "details": "Transfers ownership of the contract to a new account (`newOwner`). Can only be called by the current owner."
      }
    }
  },
  "userdoc": {
    "methods": {}
  }
}