{
  "contractName": "SimpleERC20",
  "abi": [
    {
      "anonymous": false,
      "inputs": [
        {
          "indexed": true,
          "internalType": "address",
          "name": "owner",
          "type": "address"
        },
        {
          "indexed": true,
          "internalType": "address",
          "name": "spender",
          "type": "address"
        },
        {
          "indexed": false,
          "internalType": "uint256",
          "name": "value",
          "type": "uint256"
        }
      ],
      "name": "Approval",
      "type": "event"
    },
    {
      "anonymous": false,
      "inputs": [
        {
          "indexed": true,
          "internalType": "address",
          "name": "account",
          "type": "address"
        }
      ],
      "name": "MinterAdded",
      "type": "event"
    },
    {
      "anonymous": false,
      "inputs": [
        {
          "indexed": true,
          "internalType": "address",
          "name": "account",
          "type": "address"
        }
      ],
      "name": "MinterRemoved",
      "type": "event"
    },
    {
      "anonymous": false,
      "inputs": [
        {
          "indexed": true,
          "internalType": "address",
          "name": "from",
          "type": "address"
        },
        {
          "indexed": true,
          "internalType": "address",
          "name": "to",
          "type": "address"
        },
        {
          "indexed": false,
          "internalType": "uint256",
          "name": "value",
          "type": "uint256"
        }
      ],
      "name": "Transfer",
      "type": "event"
    },
    {
      "constant": false,
      "inputs": [
        {
          "internalType": "address",
          "name": "account",
          "type": "address"
        }
      ],
      "name": "addMinter",
      "outputs": [],
      "payable": false,
      "stateMutability": "nonpayable",
      "type": "function"
    },
    {
      "constant": true,
      "inputs": [
        {
          "internalType": "address",
          "name": "owner",
          "type": "address"
        },
        {
          "internalType": "address",
          "name": "spender",
          "type": "address"
        }
      ],
      "name": "allowance",
      "outputs": [
        {
          "internalType": "uint256",
          "name": "",
          "type": "uint256"
        }
      ],
      "payable": false,
      "stateMutability": "view",
      "type": "function"
    },
    {
      "constant": false,
      "inputs": [
        {
          "internalType": "address",
          "name": "spender",
          "type": "address"
        },
        {
          "internalType": "uint256",
          "name": "amount",
          "type": "uint256"
        }
      ],
      "name": "approve",
      "outputs": [
        {
          "internalType": "bool",
          "name": "",
          "type": "bool"
        }
      ],
      "payable": false,
      "stateMutability": "nonpayable",
      "type": "function"
    },
    {
      "constant": true,
      "inputs": [
        {
          "internalType": "address",
          "name": "account",
          "type": "address"
        }
      ],
      "name": "balanceOf",
      "outputs": [
        {
          "internalType": "uint256",
          "name": "",
          "type": "uint256"
        }
      ],
      "payable": false,
      "stateMutability": "view",
      "type": "function"
    },
    {
      "constant": false,
      "inputs": [
        {
          "internalType": "address",
          "name": "spender",
          "type": "address"
        },
        {
          "internalType": "uint256",
          "name": "subtractedValue",
          "type": "uint256"
        }
      ],
      "name": "decreaseAllowance",
      "outputs": [
        {
          "internalType": "bool",
          "name": "",
          "type": "bool"
        }
      ],
      "payable": false,
      "stateMutability": "nonpayable",
      "type": "function"
    },
    {
      "constant": false,
      "inputs": [
        {
          "internalType": "address",
          "name": "spender",
          "type": "address"
        },
        {
          "internalType": "uint256",
          "name": "addedValue",
          "type": "uint256"
        }
      ],
      "name": "increaseAllowance",
      "outputs": [
        {
          "internalType": "bool",
          "name": "",
          "type": "bool"
        }
      ],
      "payable": false,
      "stateMutability": "nonpayable",
      "type": "function"
    },
    {
      "constant": true,
      "inputs": [
        {
          "internalType": "address",
          "name": "account",
          "type": "address"
        }
      ],
      "name": "isMinter",
      "outputs": [
        {
          "internalType": "bool",
          "name": "",
          "type": "bool"
        }
      ],
      "payable": false,
      "stateMutability": "view",
      "type": "function"
    },
    {
      "constant": false,
      "inputs": [],
      "name": "renounceMinter",
      "outputs": [],
      "payable": false,
      "stateMutability": "nonpayable",
      "type": "function"
    },
    {
      "constant": true,
      "inputs": [],
      "name": "totalSupply",
      "outputs": [
        {
          "internalType": "uint256",
          "name": "",
          "type": "uint256"
        }
      ],
      "payable": false,
      "stateMutability": "view",
      "type": "function"
    },
    {
      "constant": false,
      "inputs": [
        {
          "internalType": "address",
          "name": "recipient",
          "type": "address"
        },
        {
          "internalType": "uint256",
          "name": "amount",
          "type": "uint256"
        }
      ],
      "name": "transfer",
      "outputs": [
        {
          "internalType": "bool",
          "name": "",
          "type": "bool"
        }
      ],
      "payable": false,
      "stateMutability": "nonpayable",
      "type": "function"
    },
    {
      "constant": false,
      "inputs": [
        {
          "internalType": "address",
          "name": "tokenOwner",
          "type": "address"
        },
        {
          "internalType": "address",
          "name": "recipient",
          "type": "address"
        },
        {
          "internalType": "uint256",
          "name": "amount",
          "type": "uint256"
        }
      ],
      "name": "transferFrom",
      "outputs": [
        {
          "internalType": "bool",
          "name": "",
          "type": "bool"
        }
      ],
      "payable": false,
      "stateMutability": "nonpayable",
      "type": "function"
    },
    {
      "constant": false,
      "inputs": [
        {
          "internalType": "address",
          "name": "account",
          "type": "address"
        },
        {
          "internalType": "uint256",
          "name": "amount",
          "type": "uint256"
        }
      ],
      "name": "mint",
      "outputs": [
        {
          "internalType": "bool",
          "name": "",
          "type": "bool"
        }
      ],
      "payable": false,
      "stateMutability": "nonpayable",
      "type": "function"
    },
    {
      "constant": false,
      "inputs": [
        {
          "components": [
            {
              "internalType": "address",
              "name": "a",
              "type": "address"
            },
            {
              "internalType": "uint256",
              "name": "value",
              "type": "uint256"
            }
          ],
          "internalType": "struct SimpleERC20.Mint[]",
          "name": "mints",
          "type": "tuple[]"
        }
      ],
      "name": "mint",
      "outputs": [],
      "payable": false,
      "stateMutability": "nonpayable",
      "type": "function"
    }
  ],
  "bytecode": "0x60806040526200002a6200001b6001600160e01b036200003016565b6001600160e01b036200003416565b620001e8565b3390565b6200004f8160036200008660201b6200082a1790919060201c565b6040516001600160a01b038216907f6ae172837ea30b801fbfcdd4108aa1d5bf8ff775444fd70256b44e6bf3dfc3f690600090a250565b6200009b82826001600160e01b03620000e916565b15620000c45760405162461bcd60e51b8152600401620000bb90620001b5565b60405180910390fd5b6001600160a01b0316600090815260209190915260409020805460ff19166001179055565b60006001600160a01b038216620001145760405162461bcd60e51b8152600401620000bb90620001cd565b506001600160a01b03166000908152602091909152604090205460ff1690565b600062000143601f83620001df565b7f526f6c65733a206163636f756e7420616c72656164792068617320726f6c6500815260200192915050565b60006200017e602283620001df565b7f526f6c65733a206163636f756e7420697320746865207a65726f206164647265815261737360f01b602082015260400192915050565b60208082528101620001c78162000134565b92915050565b60208082528101620001c7816200016f565b90815260200190565b610f2c80620001f86000396000f3fe608060405234801561001057600080fd5b50600436106100cf5760003560e01c80637e0b42011161008c578063a457c2d711610066578063a457c2d71461018e578063a9059cbb146101a1578063aa271e1a146101b4578063dd62ed3e146101c7576100cf565b80637e0b42011461015e578063983b2d56146101735780639865027514610186576100cf565b8063095ea7b3146100d457806318160ddd146100fd57806323b872dd14610112578063395093511461012557806340c10f191461013857806370a082311461014b575b600080fd5b6100e76100e23660046109ca565b6101da565b6040516100f49190610d26565b60405180910390f35b6101056101f8565b6040516100f49190610de5565b6100e761012036600461097d565b6101fe565b6100e76101333660046109ca565b61028b565b6100e76101463660046109ca565b6102df565b61010561015936600461091d565b6102eb565b61017161016c3660046109fa565b610306565b005b61017161018136600461091d565b61035e565b61017161039a565b6100e761019c3660046109ca565b6103ac565b6100e76101af3660046109ca565b61041a565b6100e76101c236600461091d565b61042e565b6101056101d5366004610943565b610441565b60006101ee6101e761046c565b8484610470565b5060015b92915050565b60025490565b600061020b848484610524565b6102818461021761046c565b61027c85604051806060016040528060288152602001610e9d602891396001600160a01b038a1660009081526001602052604081209061025561046c565b6001600160a01b03168152602081019190915260400160002054919063ffffffff61063a16565b610470565b5060019392505050565b60006101ee61029861046c565b8461027c85600160006102a961046c565b6001600160a01b03908116825260208083019390935260409182016000908120918c16815292529020549063ffffffff61066616565b60006101ee8383610692565b6001600160a01b031660009081526020819052604090205490565b60005b818110156103595761035183838381811061032057fe5b610336926020604090920201908101915061091d565b84848481811061034257fe5b90506040020160200135610692565b600101610309565b505050565b6103696101c261046c565b61038e5760405162461bcd60e51b815260040161038590610d85565b60405180910390fd5b61039781610752565b50565b6103aa6103a561046c565b61079a565b565b60006101ee6103b961046c565b8461027c85604051806060016040528060258152602001610ec560259139600160006103e361046c565b6001600160a01b03908116825260208083019390935260409182016000908120918d1681529252902054919063ffffffff61063a16565b60006101ee61042761046c565b8484610524565b60006101f260038363ffffffff6107e216565b6001600160a01b03918216600090815260016020908152604080832093909416825291909152205490565b3390565b6001600160a01b0383166104965760405162461bcd60e51b815260040161038590610dc5565b6001600160a01b0382166104bc5760405162461bcd60e51b815260040161038590610d65565b6001600160a01b0380841660008181526001602090815260408083209487168084529490915290819020849055517f8c5be1e5ebec7d5bd14f71427d1e84f3dd0314c0f7b2291e5b200ac8c7c3b92590610517908590610de5565b60405180910390a3505050565b6001600160a01b03831661054a5760405162461bcd60e51b815260040161038590610db5565b6001600160a01b0382166105705760405162461bcd60e51b815260040161038590610d45565b6105b381604051806060016040528060268152602001610e77602691396001600160a01b038616600090815260208190526040902054919063ffffffff61063a16565b6001600160a01b0380851660009081526020819052604080822093909355908416815220546105e8908263ffffffff61066616565b6001600160a01b0380841660008181526020819052604090819020939093559151908516907fddf252ad1be2c89b69c2b068fc378daa952ba7f163c4a11628f55a4df523b3ef90610517908590610de5565b6000818484111561065e5760405162461bcd60e51b81526004016103859190610d34565b505050900390565b60008282018381101561068b5760405162461bcd60e51b815260040161038590610d75565b9392505050565b6001600160a01b0382166106b85760405162461bcd60e51b815260040161038590610dd5565b6002546106cb908263ffffffff61066616565b6002556001600160a01b0382166000908152602081905260409020546106f7908263ffffffff61066616565b6001600160a01b0383166000818152602081905260408082209390935591519091907fddf252ad1be2c89b69c2b068fc378daa952ba7f163c4a11628f55a4df523b3ef90610746908590610de5565b60405180910390a35050565b61076360038263ffffffff61082a16565b6040516001600160a01b038216907f6ae172837ea30b801fbfcdd4108aa1d5bf8ff775444fd70256b44e6bf3dfc3f690600090a250565b6107ab60038263ffffffff61087616565b6040516001600160a01b038216907fe94479a9f7e1952cc78f2d6baab678adc1b772d936c6583def489e524cb6669290600090a250565b60006001600160a01b03821661080a5760405162461bcd60e51b815260040161038590610da5565b506001600160a01b03166000908152602091909152604090205460ff1690565b61083482826107e2565b156108515760405162461bcd60e51b815260040161038590610d55565b6001600160a01b0316600090815260209190915260409020805460ff19166001179055565b61088082826107e2565b61089c5760405162461bcd60e51b815260040161038590610d95565b6001600160a01b0316600090815260209190915260409020805460ff19169055565b80356101f281610e59565b60008083601f8401126108db57600080fd5b50813567ffffffffffffffff8111156108f357600080fd5b60208301915083604082028301111561090b57600080fd5b9250929050565b80356101f281610e6d565b60006020828403121561092f57600080fd5b600061093b84846108be565b949350505050565b6000806040838503121561095657600080fd5b600061096285856108be565b9250506020610973858286016108be565b9150509250929050565b60008060006060848603121561099257600080fd5b600061099e86866108be565b93505060206109af868287016108be565b92505060406109c086828701610912565b9150509250925092565b600080604083850312156109dd57600080fd5b60006109e985856108be565b925050602061097385828601610912565b60008060208385031215610a0d57600080fd5b823567ffffffffffffffff811115610a2457600080fd5b610a30858286016108c9565b92509250509250929050565b610a4581610e0b565b82525050565b6000610a5682610df3565b610a608185610df7565b9350610a70818560208601610e1f565b610a7981610e4f565b9093019392505050565b6000610a90602383610df7565b7f45524332303a207472616e7366657220746f20746865207a65726f206164647281526265737360e81b602082015260400192915050565b6000610ad5601f83610df7565b7f526f6c65733a206163636f756e7420616c72656164792068617320726f6c6500815260200192915050565b6000610b0e602283610df7565b7f45524332303a20617070726f766520746f20746865207a65726f206164647265815261737360f01b602082015260400192915050565b6000610b52601b83610df7565b7f536166654d6174683a206164646974696f6e206f766572666c6f770000000000815260200192915050565b6000610b8b603083610df7565b7f4d696e746572526f6c653a2063616c6c657220646f6573206e6f74206861766581526f20746865204d696e74657220726f6c6560801b602082015260400192915050565b6000610bdd602183610df7565b7f526f6c65733a206163636f756e7420646f6573206e6f74206861766520726f6c8152606560f81b602082015260400192915050565b6000610c20602283610df7565b7f526f6c65733a206163636f756e7420697320746865207a65726f206164647265815261737360f01b602082015260400192915050565b6000610c64602583610df7565b7f45524332303a207472616e736665722066726f6d20746865207a65726f206164815264647265737360d81b602082015260400192915050565b6000610cab602483610df7565b7f45524332303a20617070726f76652066726f6d20746865207a65726f206164648152637265737360e01b602082015260400192915050565b6000610cf1601f83610df7565b7f45524332303a206d696e7420746f20746865207a65726f206164647265737300815260200192915050565b610a4581610e1c565b602081016101f28284610a3c565b6020808252810161068b8184610a4b565b602080825281016101f281610a83565b602080825281016101f281610ac8565b602080825281016101f281610b01565b602080825281016101f281610b45565b602080825281016101f281610b7e565b602080825281016101f281610bd0565b602080825281016101f281610c13565b602080825281016101f281610c57565b602080825281016101f281610c9e565b602080825281016101f281610ce4565b602081016101f28284610d1d565b5190565b90815260200190565b60006101f282610e10565b151590565b6001600160a01b031690565b90565b60005b83811015610e3a578181015183820152602001610e22565b83811115610e49576000848401525b50505050565b601f01601f191690565b610e6281610e00565b811461039757600080fd5b610e6281610e1c56fe45524332303a207472616e7366657220616d6f756e7420657863656564732062616c616e636545524332303a207472616e7366657220616d6f756e74206578636565647320616c6c6f77616e636545524332303a2064656372656173656420616c6c6f77616e63652062656c6f77207a65726fa365627a7a72315820f5bc6d866be98ec366a3e1739a00875dd3fd984c5853ab5c5f2ab738305223166c6578706572696d656e74616cf564736f6c63430005110040",
  "source": "pragma solidity ^0.5.0;\npragma experimental ABIEncoderV2;\n\nimport \"openzeppelin-solidity/contracts/token/ERC20/ERC20Mintable.sol\";\n\ncontract SimpleERC20 is ERC20Mintable {\n    struct Mint {\n        address a;\n        uint value;\n    }\n\n    function mint(address account, uint256 amount) public returns (bool) {\n        _mint(account, amount);\n        return true;\n    }\n\n    function mint(Mint[] calldata mints) external {\n        for (uint i = 0; i < mints.length; i++) {\n            _mint(mints[i].a, mints[i].value);\n        }\n    }\n}\n//0x6195472C27B8Fd914b2F989939b24Ba206874cAb",
  "sourcePath": "/home/quadro/Projects/tokenplace/contracts/contracts/SimpleERC20.sol",
  "compiler": {
    "name": "solc",
    "version": "0.5.17+commit.d19bba13.Emscripten.clang"
  },
  "schemaVersion": "3.2.3",
  "updatedAt": "2020-10-31T07:33:37.047Z",
  "devdoc": {
    "methods": {
      "allowance(address,address)": {
        "details": "See {IERC20-allowance}."
      },
      "approve(address,uint256)": {
        "details": "See {IERC20-approve}.     * Requirements:     * - `spender` cannot be the zero address."
      },
      "balanceOf(address)": {
        "details": "See {IERC20-balanceOf}."
      },
      "decreaseAllowance(address,uint256)": {
        "details": "Atomically decreases the allowance granted to `spender` by the caller.     * This is an alternative to {approve} that can be used as a mitigation for problems described in {IERC20-approve}.     * Emits an {Approval} event indicating the updated allowance.     * Requirements:     * - `spender` cannot be the zero address. - `spender` must have allowance for the caller of at least `subtractedValue`."
      },
      "increaseAllowance(address,uint256)": {
        "details": "Atomically increases the allowance granted to `spender` by the caller.     * This is an alternative to {approve} that can be used as a mitigation for problems described in {IERC20-approve}.     * Emits an {Approval} event indicating the updated allowance.     * Requirements:     * - `spender` cannot be the zero address."
      },
      "totalSupply()": {
        "details": "See {IERC20-totalSupply}."
      },
      "transfer(address,uint256)": {
        "details": "See {IERC20-transfer}.     * Requirements:     * - `recipient` cannot be the zero address. - the caller must have a balance of at least `amount`."
      },
      "transferFrom(address,address,uint256)": {
        "details": "See {IERC20-transferFrom}.     * Emits an {Approval} event indicating the updated allowance. This is not required by the EIP. See the note at the beginning of {ERC20};     * Requirements: - `sender` and `recipient` cannot be the zero address. - `sender` must have a balance of at least `amount`. - the caller must have allowance for `sender`'s tokens of at least `amount`."
      }
    }
  },
  "userdoc": {
    "methods": {}
  }
}