{
  "contractName": "ERC1155Sale",
  "abi": [
    {
      "inputs": [
        {
          "internalType": "contract TransferProxy",
          "name": "_transferProxy",
          "type": "address"
        },
        {
          "internalType": "contract ERC1155SaleNonceHolder",
          "name": "_nonceHolder",
          "type": "address"
        }
      ],
      "payable": false,
      "stateMutability": "nonpayable",
      "type": "constructor"
    },
    {
      "anonymous": false,
      "inputs": [
        {
          "indexed": true,
          "internalType": "address",
          "name": "token",
          "type": "address"
        },
        {
          "indexed": true,
          "internalType": "uint256",
          "name": "tokenId",
          "type": "uint256"
        },
        {
          "indexed": false,
          "internalType": "address",
          "name": "owner",
          "type": "address"
        },
        {
          "indexed": false,
          "internalType": "uint256",
          "name": "price",
          "type": "uint256"
        },
        {
          "indexed": false,
          "internalType": "address",
          "name": "buyer",
          "type": "address"
        },
        {
          "indexed": false,
          "internalType": "uint256",
          "name": "value",
          "type": "uint256"
        }
      ],
      "name": "Buy",
      "type": "event"
    },
    {
      "anonymous": false,
      "inputs": [
        {
          "indexed": true,
          "internalType": "address",
          "name": "token",
          "type": "address"
        },
        {
          "indexed": true,
          "internalType": "uint256",
          "name": "tokenId",
          "type": "uint256"
        },
        {
          "indexed": false,
          "internalType": "address",
          "name": "owner",
          "type": "address"
        },
        {
          "indexed": false,
          "internalType": "uint256",
          "name": "nonce",
          "type": "uint256"
        }
      ],
      "name": "CloseOrder",
      "type": "event"
    },
    {
      "anonymous": false,
      "inputs": [
        {
          "indexed": true,
          "internalType": "address",
          "name": "previousOwner",
          "type": "address"
        },
        {
          "indexed": true,
          "internalType": "address",
          "name": "newOwner",
          "type": "address"
        }
      ],
      "name": "OwnershipTransferred",
      "type": "event"
    },
    {
      "constant": true,
      "inputs": [],
      "name": "buyerFee",
      "outputs": [
        {
          "internalType": "uint256",
          "name": "",
          "type": "uint256"
        }
      ],
      "payable": false,
      "stateMutability": "view",
      "type": "function"
    },
    {
      "constant": true,
      "inputs": [],
      "name": "isOwner",
      "outputs": [
        {
          "internalType": "bool",
          "name": "",
          "type": "bool"
        }
      ],
      "payable": false,
      "stateMutability": "view",
      "type": "function"
    },
    {
      "constant": true,
      "inputs": [],
      "name": "nonceHolder",
      "outputs": [
        {
          "internalType": "contract ERC1155SaleNonceHolder",
          "name": "",
          "type": "address"
        }
      ],
      "payable": false,
      "stateMutability": "view",
      "type": "function"
    },
    {
      "constant": true,
      "inputs": [],
      "name": "owner",
      "outputs": [
        {
          "internalType": "address",
          "name": "",
          "type": "address"
        }
      ],
      "payable": false,
      "stateMutability": "view",
      "type": "function"
    },
    {
      "constant": false,
      "inputs": [],
      "name": "renounceOwnership",
      "outputs": [],
      "payable": false,
      "stateMutability": "nonpayable",
      "type": "function"
    },
    {
      "constant": false,
      "inputs": [
        {
          "internalType": "uint256",
          "name": "_buyerFee",
          "type": "uint256"
        }
      ],
      "name": "setBuyerFee",
      "outputs": [],
      "payable": false,
      "stateMutability": "nonpayable",
      "type": "function"
    },
    {
      "constant": false,
      "inputs": [
        {
          "internalType": "address payable",
          "name": "to",
          "type": "address"
        },
        {
          "internalType": "uint256",
          "name": "value",
          "type": "uint256"
        }
      ],
      "name": "transferEth",
      "outputs": [],
      "payable": false,
      "stateMutability": "nonpayable",
      "type": "function"
    },
    {
      "constant": false,
      "inputs": [
        {
          "internalType": "address",
          "name": "newOwner",
          "type": "address"
        }
      ],
      "name": "transferOwnership",
      "outputs": [],
      "payable": false,
      "stateMutability": "nonpayable",
      "type": "function"
    },
    {
      "constant": true,
      "inputs": [],
      "name": "transferProxy",
      "outputs": [
        {
          "internalType": "contract TransferProxy",
          "name": "",
          "type": "address"
        }
      ],
      "payable": false,
      "stateMutability": "view",
      "type": "function"
    },
    {
      "constant": false,
      "inputs": [
        {
          "internalType": "contract IERC1155",
          "name": "token",
          "type": "address"
        },
        {
          "internalType": "uint256",
          "name": "tokenId",
          "type": "uint256"
        },
        {
          "internalType": "address payable",
          "name": "owner",
          "type": "address"
        },
        {
          "internalType": "uint256",
          "name": "selling",
          "type": "uint256"
        },
        {
          "internalType": "uint256",
          "name": "buying",
          "type": "uint256"
        },
        {
          "internalType": "uint256",
          "name": "price",
          "type": "uint256"
        },
        {
          "internalType": "uint256",
          "name": "sellerFee",
          "type": "uint256"
        },
        {
          "components": [
            {
              "internalType": "uint8",
              "name": "v",
              "type": "uint8"
            },
            {
              "internalType": "bytes32",
              "name": "r",
              "type": "bytes32"
            },
            {
              "internalType": "bytes32",
              "name": "s",
              "type": "bytes32"
            }
          ],
          "internalType": "struct AbstractSale.Sig",
          "name": "signature",
          "type": "tuple"
        }
      ],
      "name": "buy",
      "outputs": [],
      "payable": true,
      "stateMutability": "payable",
      "type": "function"
    },
    {
      "constant": false,
      "inputs": [
        {
          "internalType": "address",
          "name": "token",
          "type": "address"
        },
        {
          "internalType": "uint256",
          "name": "tokenId",
          "type": "uint256"
        }
      ],
      "name": "cancel",
      "outputs": [],
      "payable": true,
      "stateMutability": "payable",
      "type": "function"
    }
  ],
  "bytecode": "0x608060405260006001553480156200001657600080fd5b5060405162002273380380620022738339810160408190526200003991620000e1565b60006200004e6001600160e01b03620000ca16565b600080546001600160a01b0319166001600160a01b0383169081178255604051929350917f8be0079c531659141344cd1fd0a4f28419497f9722a3daafe3b4186f6b6457e0908290a350600280546001600160a01b039384166001600160a01b0319918216179091556003805492909316911617905562000160565b3390565b8051620000db8162000146565b92915050565b60008060408385031215620000f557600080fd5b6000620001038585620000ce565b92505060206200011685828601620000ce565b9150509250929050565b6000620000db826200013a565b6000620000db8262000120565b6001600160a01b031690565b62000151816200012d565b81146200015d57600080fd5b50565b61210380620001706000396000f3fe60806040526004361061009c5760003560e01c80638f32d59b116100645780638f32d59b1461013c57806398590ef91461015e578063e9bb84c214610171578063f2fde38b14610191578063fa7da19d146101b1578063fd453a85146101d15761009c565b806341a259a6146100a15780635de6c42f146100cc5780636e667db3146100ee578063715018a6146101035780638da5cb5b1461011a575b600080fd5b3480156100ad57600080fd5b506100b66101e4565b6040516100c39190611ec4565b60405180910390f35b3480156100d857600080fd5b506100e16101f3565b6040516100c39190611fa3565b3480156100fa57600080fd5b506100b66101f9565b34801561010f57600080fd5b50610118610208565b005b34801561012657600080fd5b5061012f61027f565b6040516100c39190611daa565b34801561014857600080fd5b5061015161028e565b6040516100c39190611e80565b61011861016c366004611a21565b6102b2565b34801561017d57600080fd5b5061011861018c366004611a21565b6103ef565b34801561019d57600080fd5b506101186101ac366004611a03565b61044e565b3480156101bd57600080fd5b506101186101cc366004611b93565b61047e565b6101186101df366004611ae3565b6104a7565b6003546001600160a01b031681565b60015481565b6002546001600160a01b031681565b61021061028e565b6102355760405162461bcd60e51b815260040161022c90611f83565b60405180910390fd5b600080546040516001600160a01b03909116907f8be0079c531659141344cd1fd0a4f28419497f9722a3daafe3b4186f6b6457e0908390a3600080546001600160a01b0319169055565b6000546001600160a01b031690565b600080546001600160a01b03166102a3610669565b6001600160a01b031614905090565b60035460405163250adb3160e11b81526000916001600160a01b031690634a15b662906102e790869086903390600401611e08565b60206040518083038186803b1580156102ff57600080fd5b505afa158015610313573d6000803e3d6000fd5b505050506040513d601f19601f820116820180604052506103379190810190611bb1565b6003546040516308345fbf60e01b81529192506001600160a01b0316906308345fbf90610371908690869033906001880190600401611e30565b600060405180830381600087803b15801561038b57600080fd5b505af115801561039f573d6000803e3d6000fd5b5050505081836001600160a01b03167f1910cc041d39d8d4ddb31ea5990a0b170e2b585057bfac4853f3c2929b276ee233846001016040516103e2929190611db8565b60405180910390a3505050565b6103f761028e565b6104135760405162461bcd60e51b815260040161022c90611f83565b6040516001600160a01b0383169082156108fc029083906000818181858888f19350505050158015610449573d6000803e3d6000fd5b505050565b61045661028e565b6104725760405162461bcd60e51b815260040161022c90611f83565b61047b8161066d565b50565b61048661028e565b6104a25760405162461bcd60e51b815260040161022c90611f83565b600155565b60006104b8898989898888886106ee565b905060006104cc858763ffffffff6107de16565b905060006104f76127106104eb600154856107de90919063ffffffff16565b9063ffffffff61082116565b9050348183011461051a5760405162461bcd60e51b815260040161022c90611f93565b600061052a8c8c8c878d8d610863565b9050600260009054906101000a90046001600160a01b03166001600160a01b0316639c1c2ee98d8c338f8d604051806020016040528060008152506040518763ffffffff1660e01b815260040161058696959493929190611ed2565b600060405180830381600087803b1580156105a057600080fd5b505af11580156105b4573d6000803e3d6000fd5b505050506105c58c8c8c868a610a06565b8a8c6001600160a01b03167f710791c544fdcb0c8c5b17f5bfa5b6721dfff68224047778e2d64e426ded61c68c8a338d6040516106059493929190611dd3565b60405180910390a3801561065b578a8c6001600160a01b03167f1910cc041d39d8d4ddb31ea5990a0b170e2b585057bfac4853f3c2929b276ee28c87600101604051610652929190611db8565b60405180910390a35b505050505050505050505050565b3390565b6001600160a01b0381166106935760405162461bcd60e51b815260040161022c90611f43565b600080546040516001600160a01b03808516939216917f8be0079c531659141344cd1fd0a4f28419497f9722a3daafe3b4186f6b6457e091a3600080546001600160a01b0319166001600160a01b0392909216919091179055565b60035460405163250adb3160e11b81526000916001600160a01b031690634a15b66290610723908b908b908b90600401611e08565b60206040518083038186803b15801561073b57600080fd5b505afa15801561074f573d6000803e3d6000fd5b505050506040513d601f19601f820116820180604052506107739190810190611bb1565b9050856001600160a01b03166107ad83600001518460200151856040015161079f8d8d8b8d8c8b610cbb565b92919063ffffffff610d0516565b6001600160a01b0316146107d35760405162461bcd60e51b815260040161022c90611f63565b979650505050505050565b6000826107ed5750600061081b565b828202828482816107fa57fe5b04146108185760405162461bcd60e51b815260040161022c90611f73565b90505b92915050565b600061081883836040518060400160405280601a81526020017f536166654d6174683a206469766973696f6e206279207a65726f000000000000815250610de3565b600354604051637ad2ec8560e01b815260009182916109009185916001600160a01b0390911690637ad2ec85906108a4908d908d908d908d90600401611e30565b60206040518083038186803b1580156108bc57600080fd5b505afa1580156108d0573d6000803e3d6000fd5b505050506040513d601f19601f820116820180604052506108f49190810190611bb1565b9063ffffffff610e1c16565b90508381111561090f57600080fd5b600354604051634bd49ccb60e01b81526001600160a01b0390911690634bd49ccb90610947908b908b908b908b908890600401611e3e565b600060405180830381600087803b15801561096157600080fd5b505af1158015610975573d6000803e3d6000fd5b50505050838114156109f6576003546040516308345fbf60e01b81526001600160a01b03909116906308345fbf906109ba908b908b908b9060018c0190600401611e30565b600060405180830381600087803b1580156109d457600080fd5b505af11580156109e8573d6000803e3d6000fd5b5050505060019150506109fc565b60009150505b9695505050505050565b6040516301ffc9a760e01b815282906001600160a01b038716906301ffc9a790610a3b90632dde656160e21b90600401611eb6565b60206040518083038186803b158015610a5357600080fd5b505afa158015610a67573d6000803e3d6000fd5b505050506040513d601f19601f82011682018060405250610a8b9190810190611ac5565b15610c525760405163b9c4d9fb60e01b815286906060906001600160a01b0383169063b9c4d9fb90610ac1908a90600401611fa3565b60006040518083038186803b158015610ad957600080fd5b505afa158015610aed573d6000803e3d6000fd5b505050506040513d6000823e601f3d908101601f19168201604052610b159190810190611a5b565b90506060826001600160a01b0316630ebd4c7f896040518263ffffffff1660e01b8152600401610b459190611fa3565b60006040518083038186803b158015610b5d57600080fd5b505afa158015610b71573d6000803e3d6000fd5b505050506040513d6000823e601f3d908101601f19168201604052610b999190810190611a90565b90508151815114610ba957600080fd5b60005b8151811015610c4d576000610be36127106104eb858581518110610bcc57fe5b60200260200101518b6107de90919063ffffffff16565b9050838281518110610bf157fe5b60200260200101516001600160a01b03166108fc829081150290604051600060405180830381858888f19350505050158015610c31573d6000803e3d6000fd5b50610c42868263ffffffff610e4116565b955050600101610bac565b505050505b6000610c6a6127106104eb868663ffffffff6107de16565b90506001600160a01b0385166108fc610c89848463ffffffff610e4116565b6040518115909202916000818181858888f19350505050158015610cb1573d6000803e3d6000fd5b5050505050505050565b60606107d360405180604001604052806009815260200168017103b30b63ab29d160bd1b815250610ceb86610e83565b610cf88a8a8a8989610f46565b919063ffffffff61103c16565b600060608590506060610d7e6040518060400160405280601a81526020017f19457468657265756d205369676e6564204d6573736167653a0a000000000000815250610d518451610e83565b60408051600080825260208201818152828401828152606084019283526080840190945288939091611190565b90506001818051906020012087878760405160008152602001604052604051610daa9493929190611e8e565b6020604051602081039080840390855afa158015610dcc573d6000803e3d6000fd5b50505060206040510351925050505b949350505050565b60008183610e045760405162461bcd60e51b815260040161022c9190611f32565b506000838581610e1057fe5b049150505b9392505050565b6000828201838110156108185760405162461bcd60e51b815260040161022c90611f53565b600061081883836040518060400160405280601e81526020017f536166654d6174683a207375627472616374696f6e206f766572666c6f770000815250611436565b606081610ea857506040805180820190915260018152600360fc1b6020820152610f41565b8160005b8115610ec057600101600a82049150610eac565b6060816040519080825280601f01601f191660200182016040528015610eed576020820181803883390190505b50905060001982015b8515610f3b57600a860660300160f81b82828060019003935081518110610f1957fe5b60200101906001600160f81b031916908160001a905350600a86049550610ef6565b50925050505b919050565b606080610fe6610f5e886001600160a01b0316611462565b6040518060400160405280600b81526020016a017103a37b5b2b724b21d160ad1b815250610f8b89610e83565b6040518060400160405280600981526020016801710383934b1b29d160bd1b815250610fb68a610e83565b60405180604001604052806009815260200168017103737b731b29d160bd1b815250610fe18a610e83565b6115d5565b905083156110305761102860405180604001604052806007815260200166017103332b29d160cd1b81525061101a86610e83565b83919063ffffffff61103c16565b915050611033565b90505b95945050505050565b60608084905060608490506060849050606081518351855101016040519080825280601f01601f191660200182016040528015611080576020820181803883390190505b5090506000805b85518110156110d85785818151811061109c57fe5b602001015160f81c60f81b8383806001019450815181106110b957fe5b60200101906001600160f81b031916908160001a905350600101611087565b5060005b845181101561112d578481815181106110f157fe5b602001015160f81c60f81b83838060010194508151811061110e57fe5b60200101906001600160f81b031916908160001a9053506001016110dc565b5060005b83518110156111825783818151811061114657fe5b602001015160f81c60f81b83838060010194508151811061116357fe5b60200101906001600160f81b031916908160001a905350600101611131565b509098975050505050505050565b60608082518451865188518a518c518e510101010101016040519080825280601f01601f1916602001820160405280156111d1576020820181803883390190505b5090506000805b8a51811015611229578a81815181106111ed57fe5b602001015160f81c60f81b83838060010194508151811061120a57fe5b60200101906001600160f81b031916908160001a9053506001016111d8565b5060005b895181101561127e5789818151811061124257fe5b602001015160f81c60f81b83838060010194508151811061125f57fe5b60200101906001600160f81b031916908160001a90535060010161122d565b5060005b88518110156112d35788818151811061129757fe5b602001015160f81c60f81b8383806001019450815181106112b457fe5b60200101906001600160f81b031916908160001a905350600101611282565b5060005b8751811015611328578781815181106112ec57fe5b602001015160f81c60f81b83838060010194508151811061130957fe5b60200101906001600160f81b031916908160001a9053506001016112d7565b5060005b865181101561137d5786818151811061134157fe5b602001015160f81c60f81b83838060010194508151811061135e57fe5b60200101906001600160f81b031916908160001a90535060010161132c565b5060005b85518110156113d25785818151811061139657fe5b602001015160f81c60f81b8383806001019450815181106113b357fe5b60200101906001600160f81b031916908160001a905350600101611381565b5060005b8451811015611427578481815181106113eb57fe5b602001015160f81c60f81b83838060010194508151811061140857fe5b60200101906001600160f81b031916908160001a9053506001016113d6565b50909998505050505050505050565b6000818484111561145a5760405162461bcd60e51b815260040161022c9190611f32565b505050900390565b604080518082018252601081526f181899199a1a9b1b9c1cb0b131b232b360811b60208201528151602a80825260608281019094526001600160a01b03851692918491602082018180388339019050509050600360fc1b816000815181106114c657fe5b60200101906001600160f81b031916908160001a905350600f60fb1b816001815181106114ef57fe5b60200101906001600160f81b031916908160001a90535060005b6014811015610f3b578260048583600c016020811061152457fe5b1a60f81b6001600160f81b031916901c60f81c60ff168151811061154457fe5b602001015160f81c60f81b82826002026002018151811061156157fe5b60200101906001600160f81b031916908160001a905350828482600c016020811061158857fe5b825191901a600f1690811061159957fe5b602001015160f81c60f81b8282600202600301815181106115b657fe5b60200101906001600160f81b031916908160001a905350600101611509565b60608082518451865188518a518c518e510101010101016040519080825280601f01601f191660200182016040528015611616576020820181803883390190505b5090506000805b8a5181101561166e578a818151811061163257fe5b602001015160f81c60f81b83838060010194508151811061164f57fe5b60200101906001600160f81b031916908160001a90535060010161161d565b5060005b89518110156116c35789818151811061168757fe5b602001015160f81c60f81b8383806001019450815181106116a457fe5b60200101906001600160f81b031916908160001a905350600101611672565b5060005b8851811015611718578881815181106116dc57fe5b602001015160f81c60f81b8383806001019450815181106116f957fe5b60200101906001600160f81b031916908160001a9053506001016116c7565b5060005b875181101561176d5787818151811061173157fe5b602001015160f81c60f81b83838060010194508151811061174e57fe5b60200101906001600160f81b031916908160001a90535060010161171c565b5060005b86518110156117c25786818151811061178657fe5b602001015160f81c60f81b8383806001019450815181106117a357fe5b60200101906001600160f81b031916908160001a905350600101611771565b5060005b8551811015611817578581815181106117db57fe5b602001015160f81c60f81b8383806001019450815181106117f857fe5b60200101906001600160f81b031916908160001a9053506001016117c6565b5060005b84518110156114275784818151811061183057fe5b602001015160f81c60f81b83838060010194508151811061184d57fe5b60200101906001600160f81b031916908160001a90535060010161181b565b803561081b81612088565b805161081b81612088565b600082601f83011261189357600080fd5b81516118a66118a182611fd8565b611fb1565b915081818352602084019350602081019050838560208402820111156118cb57600080fd5b60005b838110156118f757816118e18882611877565b84525060209283019291909101906001016118ce565b5050505092915050565b600082601f83011261191257600080fd5b81516119206118a182611fd8565b9150818183526020840193506020810190508385602084028201111561194557600080fd5b60005b838110156118f7578161195b88826119ed565b8452506020928301929190910190600101611948565b805161081b8161209c565b803561081b816120a5565b803561081b816120ae565b6000606082840312156119a457600080fd5b6119ae6060611fb1565b905060006119bc84846119f8565b82525060206119cd8484830161197c565b60208301525060406119e18482850161197c565b60408301525092915050565b805161081b816120a5565b803561081b816120b7565b600060208284031215611a1557600080fd5b6000610ddb848461186c565b60008060408385031215611a3457600080fd5b6000611a40858561186c565b9250506020611a518582860161197c565b9150509250929050565b600060208284031215611a6d57600080fd5b815167ffffffffffffffff811115611a8457600080fd5b610ddb84828501611882565b600060208284031215611aa257600080fd5b815167ffffffffffffffff811115611ab957600080fd5b610ddb84828501611901565b600060208284031215611ad757600080fd5b6000610ddb8484611971565b600080600080600080600080610140898b031215611b0057600080fd5b6000611b0c8b8b611987565b9850506020611b1d8b828c0161197c565b9750506040611b2e8b828c0161186c565b9650506060611b3f8b828c0161197c565b9550506080611b508b828c0161197c565b94505060a0611b618b828c0161197c565b93505060c0611b728b828c0161197c565b92505060e0611b838b828c01611992565b9150509295985092959890939650565b600060208284031215611ba557600080fd5b6000610ddb848461197c565b600060208284031215611bc357600080fd5b6000610ddb84846119ed565b611bd881612043565b82525050565b611bd881612006565b611bd881612011565b611bd881612016565b611bd881612019565b6000611c0d82611ff9565b611c178185611ffd565b9350611c2781856020860161204e565b611c308161207e565b9093019392505050565b611bd881612026565b6000611c50602683611ffd565b7f4f776e61626c653a206e6577206f776e657220697320746865207a65726f206181526564647265737360d01b602082015260400192915050565b6000611c98601b83611ffd565b7f536166654d6174683a206164646974696f6e206f766572666c6f770000000000815260200192915050565b6000611cd1601383611ffd565b72696e636f7272656374207369676e617475726560681b815260200192915050565b6000611d00602183611ffd565b7f536166654d6174683a206d756c7469706c69636174696f6e206f766572666c6f8152607760f81b602082015260400192915050565b6000611d43602083611ffd565b7f4f776e61626c653a2063616c6c6572206973206e6f7420746865206f776e6572815260200192915050565b6000611d7c601683611ffd565b751b5cd9cb9d985b1d59481a5cc81a5b98dbdc9c9958dd60521b815260200192915050565b611bd88161203d565b6020810161081b8284611bde565b60408101611dc68285611bcf565b610e156020830184611bf0565b60808101611de18287611bcf565b611dee6020830186611bf0565b611dfb6040830185611bcf565b6110336060830184611bf0565b60608101611e168286611bde565b611e236020830185611bf0565b610ddb6040830184611bcf565b60808101611de18287611bde565b60a08101611e4c8288611bde565b611e596020830187611bf0565b611e666040830186611bcf565b611e736060830185611bf0565b6109fc6080830184611bf0565b6020810161081b8284611be7565b60808101611e9c8287611bf0565b611ea96020830186611da1565b611dfb6040830185611bf0565b6020810161081b8284611bf9565b6020810161081b8284611c3a565b60c08101611ee08289611c3a565b611eed6020830188611bcf565b611efa6040830187611bcf565b611f076060830186611bf0565b611f146080830185611bf0565b81810360a0830152611f268184611c02565b98975050505050505050565b602080825281016108188184611c02565b6020808252810161081b81611c43565b6020808252810161081b81611c8b565b6020808252810161081b81611cc4565b6020808252810161081b81611cf3565b6020808252810161081b81611d36565b6020808252810161081b81611d6f565b6020810161081b8284611bf0565b60405181810167ffffffffffffffff81118282101715611fd057600080fd5b604052919050565b600067ffffffffffffffff821115611fef57600080fd5b5060209081020190565b5190565b90815260200190565b600061081b82612031565b151590565b90565b6001600160e01b03191690565b600061081b82612006565b6001600160a01b031690565b60ff1690565b600061081b82612026565b60005b83811015612069578181015183820152602001612051565b83811115612078576000848401525b50505050565b601f01601f191690565b61209181612006565b811461047b57600080fd5b61209181612011565b61209181612016565b61209181612026565b6120918161203d56fea365627a7a723158208539622dda5a22a66c49736039ec9d612efafc17175aabd6e69ec651e7b77e606c6578706572696d656e74616cf564736f6c63430005110040",
  "source": "pragma solidity ^0.5.0;\npragma experimental ABIEncoderV2;\n\nimport \"./erc-1155/IERC1155.sol\";\nimport \"openzeppelin-solidity/contracts/math/SafeMath.sol\";\nimport \"./utils/StringLibrary.sol\";\nimport \"./utils/AddressLibrary.sol\";\nimport \"./utils/UintLibrary.sol\";\nimport \"./AbstractSale.sol\";\nimport \"./TransferProxy.sol\";\nimport \"./HasSecondarySaleFees.sol\";\nimport \"./ERC1155SaleNonceHolder.sol\";\n\ncontract ERC1155Sale is AbstractSale {\n    using SafeMath for uint256;\n    using StringLibrary for string;\n\n    event CloseOrder(address indexed token, uint256 indexed tokenId, address owner, uint256 nonce);\n    event Buy(address indexed token, uint256 indexed tokenId, address owner, uint256 price, address buyer, uint256 value);\n\n    bytes constant EMPTY = \"\";\n    bytes4 private constant _INTERFACE_ID_FEES = 0xb7799584;\n\n    TransferProxy public transferProxy;\n    ERC1155SaleNonceHolder public nonceHolder;\n\n    constructor(TransferProxy _transferProxy, ERC1155SaleNonceHolder _nonceHolder) public {\n        transferProxy = _transferProxy;\n        nonceHolder = _nonceHolder;\n    }\n\n    function buy(IERC1155 token, uint256 tokenId, address payable owner, uint256 selling, uint256 buying, uint256 price, uint256 sellerFee, Sig memory signature) public payable {\n        uint256 nonce = verifySignature(address(token), tokenId, owner, selling, price, sellerFee, signature);\n        uint256 total = price.mul(buying);\n        uint256 buyerFeeValue = total.mul(buyerFee).div(10000);\n        require(total + buyerFeeValue == msg.value, \"msg.value is incorrect\");\n        bool closed = verifyOpenAndModifyState(address(token), tokenId, owner, nonce, selling, buying);\n\n        transferProxy.erc1155safeTransferFrom(token, owner, msg.sender, tokenId, buying, EMPTY);\n\n        transferEther(token, tokenId, owner, total, sellerFee);\n        emit Buy(address(token), tokenId, owner, price, msg.sender, buying);\n        if (closed) {\n            emit CloseOrder(address(token), tokenId, owner, nonce + 1);\n        }\n    }\n\n    function transferEther(IERC1155 token, uint256 tokenId, address payable owner, uint256 total, uint256 sellerFee) internal {\n        uint256 value = total;\n        if (token.supportsInterface(_INTERFACE_ID_FEES)) {\n            HasSecondarySaleFees withFees = HasSecondarySaleFees(address(token));\n            address payable[] memory recipients = withFees.getFeeRecipients(tokenId);\n            uint[] memory fees = withFees.getFeeBps(tokenId);\n            require(fees.length == recipients.length);\n            for (uint256 i = 0; i < fees.length; i++) {\n                uint current = total.mul(fees[i]).div(10000);\n                recipients[i].transfer(current);\n                value = value.sub(current);\n            }\n        }\n        uint sellerFeeValue = total.mul(sellerFee).div(10000);\n        owner.transfer(value.sub(sellerFeeValue));\n    }\n\n    function cancel(address token, uint256 tokenId) public payable {\n        uint nonce = nonceHolder.getNonce(token, tokenId, msg.sender);\n        nonceHolder.setNonce(token, tokenId, msg.sender, nonce + 1);\n\n        emit CloseOrder(token, tokenId, msg.sender, nonce + 1);\n    }\n\n    function verifySignature(address token, uint256 tokenId, address payable owner, uint256 selling, uint256 price, uint256 sellerFee, Sig memory signature) view internal returns (uint256 nonce) {\n        nonce = nonceHolder.getNonce(token, tokenId, owner);\n        require(prepareMessage(token, tokenId, price, selling, sellerFee, nonce).recover(signature.v, signature.r, signature.s) == owner, \"incorrect signature\");\n    }\n\n    function verifyOpenAndModifyState(address token, uint256 tokenId, address payable owner, uint256 nonce, uint256 selling, uint256 buying) internal returns (bool) {\n        uint comp = nonceHolder.getCompleted(token, tokenId, owner, nonce).add(buying);\n        require(comp <= selling);\n        nonceHolder.setCompleted(token, tokenId, owner, nonce, comp);\n\n        if (comp == selling) {\n            nonceHolder.setNonce(token, tokenId, owner, nonce + 1);\n            return true;\n        }\n        return false;\n    }\n\n    function prepareMessage(address token, uint256 tokenId, uint256 price, uint256 value, uint256 fee, uint256 nonce) internal pure returns (string memory) {\n        return prepareMessage(token, tokenId, price, fee, nonce).append(\". value: \", value.toString());\n    }\n}\n",
  "sourcePath": "/home/quadro/Projects/tokenplace/tokenplace-contracts/contracts/ERC1155Sale.sol",
  "compiler": {
    "name": "solc",
    "version": "0.5.17+commit.d19bba13.Emscripten.clang"
  },
  "schemaVersion": "3.2.3",
  "updatedAt": "2020-08-21T12:36:38.438Z",
  "devdoc": {
    "methods": {
      "isOwner()": {
        "details": "Returns true if the caller is the current owner."
      },
      "owner()": {
        "details": "Returns the address of the current owner."
      },
      "renounceOwnership()": {
        "details": "Leaves the contract without owner. It will not be possible to call `onlyOwner` functions anymore. Can only be called by the current owner.     * NOTE: Renouncing ownership will leave the contract without an owner, thereby removing any functionality that is only available to the owner."
      },
      "transferOwnership(address)": {
        "details": "Transfers ownership of the contract to a new account (`newOwner`). Can only be called by the current owner."
      }
    }
  },
  "userdoc": {
    "methods": {}
  }
}