{
  "contractName": "ERC1155Sale",
  "abi": [
    {
      "inputs": [
        {
          "internalType": "contract TransferProxy",
          "name": "_transferProxy",
          "type": "address"
        },
        {
          "internalType": "contract ERC1155SaleNonceHolder",
          "name": "_nonceHolder",
          "type": "address"
        }
      ],
      "payable": false,
      "stateMutability": "nonpayable",
      "type": "constructor"
    },
    {
      "anonymous": false,
      "inputs": [
        {
          "indexed": true,
          "internalType": "address",
          "name": "token",
          "type": "address"
        },
        {
          "indexed": true,
          "internalType": "uint256",
          "name": "tokenId",
          "type": "uint256"
        },
        {
          "indexed": false,
          "internalType": "address",
          "name": "owner",
          "type": "address"
        },
        {
          "indexed": false,
          "internalType": "uint256",
          "name": "price",
          "type": "uint256"
        },
        {
          "indexed": false,
          "internalType": "address",
          "name": "buyer",
          "type": "address"
        },
        {
          "indexed": false,
          "internalType": "uint256",
          "name": "value",
          "type": "uint256"
        }
      ],
      "name": "Buy",
      "type": "event"
    },
    {
      "anonymous": false,
      "inputs": [
        {
          "indexed": true,
          "internalType": "address",
          "name": "token",
          "type": "address"
        },
        {
          "indexed": true,
          "internalType": "uint256",
          "name": "tokenId",
          "type": "uint256"
        },
        {
          "indexed": false,
          "internalType": "address",
          "name": "owner",
          "type": "address"
        },
        {
          "indexed": false,
          "internalType": "uint256",
          "name": "nonce",
          "type": "uint256"
        }
      ],
      "name": "CloseOrder",
      "type": "event"
    },
    {
      "constant": true,
      "inputs": [],
      "name": "nonceHolder",
      "outputs": [
        {
          "internalType": "contract ERC1155SaleNonceHolder",
          "name": "",
          "type": "address"
        }
      ],
      "payable": false,
      "stateMutability": "view",
      "type": "function"
    },
    {
      "constant": true,
      "inputs": [],
      "name": "transferProxy",
      "outputs": [
        {
          "internalType": "contract TransferProxy",
          "name": "",
          "type": "address"
        }
      ],
      "payable": false,
      "stateMutability": "view",
      "type": "function"
    },
    {
      "constant": false,
      "inputs": [
        {
          "internalType": "contract IERC1155",
          "name": "token",
          "type": "address"
        },
        {
          "internalType": "uint256",
          "name": "tokenId",
          "type": "uint256"
        },
        {
          "internalType": "address payable",
          "name": "owner",
          "type": "address"
        },
        {
          "internalType": "uint256",
          "name": "selling",
          "type": "uint256"
        },
        {
          "internalType": "uint256",
          "name": "buying",
          "type": "uint256"
        },
        {
          "internalType": "uint8",
          "name": "v",
          "type": "uint8"
        },
        {
          "internalType": "bytes32",
          "name": "r",
          "type": "bytes32"
        },
        {
          "internalType": "bytes32",
          "name": "s",
          "type": "bytes32"
        }
      ],
      "name": "buy",
      "outputs": [],
      "payable": true,
      "stateMutability": "payable",
      "type": "function"
    },
    {
      "constant": false,
      "inputs": [
        {
          "internalType": "address",
          "name": "token",
          "type": "address"
        },
        {
          "internalType": "uint256",
          "name": "tokenId",
          "type": "uint256"
        }
      ],
      "name": "cancel",
      "outputs": [],
      "payable": true,
      "stateMutability": "payable",
      "type": "function"
    }
  ],
  "bytecode": "0x608060405234801561001057600080fd5b506040516118fb3803806118fb8339818101604052604081101561003357600080fd5b508051602090910151600080546001600160a01b039384166001600160a01b031991821617909155600180549390921692169190911790556118818061007a6000396000f3fe60806040526004361061003f5760003560e01c806316df6f921461004457806341a259a61461009c5780636e667db3146100cd57806398590ef9146100e2575b600080fd5b61009a600480360361010081101561005b57600080fd5b506001600160a01b0381358116916020810135916040820135169060608101359060808101359060ff60a0820135169060c08101359060e0013561010e565b005b3480156100a857600080fd5b506100b16102f2565b604080516001600160a01b039092168252519081900360200190f35b3480156100d957600080fd5b506100b1610301565b61009a600480360360408110156100f857600080fd5b506001600160a01b038135169060200135610310565b6000610120348663ffffffff61046716565b905060006101348a8a8a8a868a8a8a6104b2565b90506101448a8a8a848b8b6105c8565b6000809054906101000a90046001600160a01b03166001600160a01b0316639c1c2ee98b8a338d8b604051806020016040528060008152506040518763ffffffff1660e01b815260040180876001600160a01b03166001600160a01b03168152602001866001600160a01b03166001600160a01b03168152602001856001600160a01b03166001600160a01b0316815260200184815260200183815260200180602001828103825283818151815260200191508051906020019080838360005b8381101561021c578181015183820152602001610204565b50505050905090810190601f1680156102495780820380516001836020036101000a031916815260200191505b50975050505050505050600060405180830381600087803b15801561026d57600080fd5b505af1158015610281573d6000803e3d6000fd5b505050506102908a8a8a6107db565b604080516001600160a01b038a811682526020820185905233828401526060820189905291518b928d16917f710791c544fdcb0c8c5b17f5bfa5b6721dfff68224047778e2d64e426ded61c6919081900360800190a350505050505050505050565b6001546001600160a01b031681565b6000546001600160a01b031681565b6001546040805163250adb3160e11b81526001600160a01b0385811660048301526024820185905233604483015291516000939290921691634a15b66291606480820192602092909190829003018186803b15801561036e57600080fd5b505afa158015610382573d6000803e3d6000fd5b505050506040513d602081101561039857600080fd5b505160018054604080516308345fbf60e01b81526001600160a01b03888116600483015260248201889052336044830152938501606482015290519394509116916308345fbf9160848082019260009290919082900301818387803b15801561040057600080fd5b505af1158015610414573d6000803e3d6000fd5b50506040805133815260018501602082015281518694506001600160a01b03881693507f1910cc041d39d8d4ddb31ea5990a0b170e2b585057bfac4853f3c2929b276ee2929181900390910190a3505050565b60006104a983836040518060400160405280601a81526020017f536166654d6174683a206469766973696f6e206279207a65726f000000000000815250610b83565b90505b92915050565b6001546040805163250adb3160e11b81526001600160a01b038b81166004830152602482018b9052898116604483015291516000939290921691634a15b66291606480820192602092909190829003018186803b15801561051257600080fd5b505afa158015610526573d6000803e3d6000fd5b505050506040513d602081101561053c57600080fd5b505190506001600160a01b03871661056b85858561055d8e8e8c8e8a610c25565b92919063ffffffff610c7816565b6001600160a01b0316146105bc576040805162461bcd60e51b8152602060048201526013602482015272696e636f7272656374207369676e617475726560681b604482015290519081900360640190fd5b98975050505050505050565b60015460408051637ad2ec8560e01b81526001600160a01b03898116600483015260248201899052878116604483015260648201879052915160009361066b938693911691637ad2ec8591608480820192602092909190829003018186803b15801561063357600080fd5b505afa158015610647573d6000803e3d6000fd5b505050506040513d602081101561065d57600080fd5b50519063ffffffff610d6d16565b90508281111561067a57600080fd5b60015460408051634bd49ccb60e01b81526001600160a01b038a81166004830152602482018a90528881166044830152606482018890526084820185905291519190921691634bd49ccb9160a480830192600092919082900301818387803b1580156106e557600080fd5b505af11580156106f9573d6000803e3d6000fd5b50505050828114156107d25760018054604080516308345fbf60e01b81526001600160a01b038b81166004830152602482018b905289811660448301529388016064820152905192909116916308345fbf9160848082019260009290919082900301818387803b15801561076c57600080fd5b505af1158015610780573d6000803e3d6000fd5b5050604080516001600160a01b03898116825260018901602083015282518b9550908c1693507f1910cc041d39d8d4ddb31ea5990a0b170e2b585057bfac4853f3c2929b276ee2929181900390910190a35b50505050505050565b604080516301ffc9a760e01b8152632dde656160e21b6004820152905134916001600160a01b038616916301ffc9a791602480820192602092909190829003018186803b15801561082b57600080fd5b505afa15801561083f573d6000803e3d6000fd5b505050506040513d602081101561085557600080fd5b505115610b465760008490506060816001600160a01b031663b9c4d9fb866040518263ffffffff1660e01b81526004018082815260200191505060006040518083038186803b1580156108a757600080fd5b505afa1580156108bb573d6000803e3d6000fd5b505050506040513d6000823e601f3d908101601f1916820160405260208110156108e457600080fd5b810190808051604051939291908464010000000082111561090457600080fd5b90830190602082018581111561091957600080fd5b825186602082028301116401000000008211171561093657600080fd5b82525081516020918201928201910280838360005b8381101561096357818101518382015260200161094b565b5050505090500160405250505090506060826001600160a01b0316630ebd4c7f876040518263ffffffff1660e01b81526004018082815260200191505060006040518083038186803b1580156109b857600080fd5b505afa1580156109cc573d6000803e3d6000fd5b505050506040513d6000823e601f3d908101601f1916820160405260208110156109f557600080fd5b8101908080516040519392919084640100000000821115610a1557600080fd5b908301906020820185811115610a2a57600080fd5b8251866020820283011164010000000082111715610a4757600080fd5b82525081516020918201928201910280838360005b83811015610a74578181015183820152602001610a5c565b5050505090500160405250505090508151815114610a9157600080fd5b60005b8151811015610b41576000610ad7612710610acb858581518110610ab457fe5b602002602001015134610dc790919063ffffffff16565b9063ffffffff61046716565b9050838281518110610ae557fe5b60200260200101516001600160a01b03166108fc829081150290604051600060405180830381858888f19350505050158015610b25573d6000803e3d6000fd5b50610b36868263ffffffff610e2016565b955050600101610a94565b505050505b6040516001600160a01b0383169082156108fc029083906000818181858888f19350505050158015610b7c573d6000803e3d6000fd5b5050505050565b60008183610c0f5760405162461bcd60e51b81526004018080602001828103825283818151815260200191508051906020019080838360005b83811015610bd4578181015183820152602001610bbc565b50505050905090810190601f168015610c015780820380516001836020036101000a031916815260200191505b509250505060405180910390fd5b506000838581610c1b57fe5b0495945050505050565b6060610c6e60405180604001604052806009815260200168017103b30b63ab29d160bd1b815250610c5585610e62565b610c6189898988610f25565b919063ffffffff610fcd16565b9695505050505050565b600060608590506060610cf16040518060400160405280601a81526020017f19457468657265756d205369676e6564204d6573736167653a0a000000000000815250610cc48451610e62565b60408051600080825260208201818152828401828152606084019283526080840190945288939091611121565b90506001818051906020012087878760405160008152602001604052604051808581526020018460ff1660ff1681526020018381526020018281526020019450505050506020604051602081039080840390855afa158015610d57573d6000803e3d6000fd5b5050604051601f19015198975050505050505050565b6000828201838110156104a9576040805162461bcd60e51b815260206004820152601b60248201527f536166654d6174683a206164646974696f6e206f766572666c6f770000000000604482015290519081900360640190fd5b600082610dd6575060006104ac565b82820282848281610de357fe5b04146104a95760405162461bcd60e51b815260040180806020018281038252602181526020018061182c6021913960400191505060405180910390fd5b60006104a983836040518060400160405280601e81526020017f536166654d6174683a207375627472616374696f6e206f766572666c6f7700008152506113c7565b606081610e8757506040805180820190915260018152600360fc1b6020820152610f20565b8160005b8115610e9f57600101600a82049150610e8b565b6060816040519080825280601f01601f191660200182016040528015610ecc576020820181803883390190505b50905060001982015b8515610f1a57600a860660300160f81b82828060019003935081518110610ef857fe5b60200101906001600160f81b031916908160001a905350600a86049550610ed5565b50925050505b919050565b6060610fc4610f3c866001600160a01b0316611421565b6040518060400160405280600b81526020016a017103a37b5b2b724b21d160ad1b815250610f6987610e62565b6040518060400160405280600981526020016801710383934b1b29d160bd1b815250610f9488610e62565b60405180604001604052806009815260200168017103737b731b29d160bd1b815250610fbf89610e62565b611594565b95945050505050565b60608084905060608490506060849050606081518351855101016040519080825280601f01601f191660200182016040528015611011576020820181803883390190505b5090506000805b85518110156110695785818151811061102d57fe5b602001015160f81c60f81b83838060010194508151811061104a57fe5b60200101906001600160f81b031916908160001a905350600101611018565b5060005b84518110156110be5784818151811061108257fe5b602001015160f81c60f81b83838060010194508151811061109f57fe5b60200101906001600160f81b031916908160001a90535060010161106d565b5060005b8351811015611113578381815181106110d757fe5b602001015160f81c60f81b8383806001019450815181106110f457fe5b60200101906001600160f81b031916908160001a9053506001016110c2565b509098975050505050505050565b60608082518451865188518a518c518e510101010101016040519080825280601f01601f191660200182016040528015611162576020820181803883390190505b5090506000805b8a518110156111ba578a818151811061117e57fe5b602001015160f81c60f81b83838060010194508151811061119b57fe5b60200101906001600160f81b031916908160001a905350600101611169565b5060005b895181101561120f578981815181106111d357fe5b602001015160f81c60f81b8383806001019450815181106111f057fe5b60200101906001600160f81b031916908160001a9053506001016111be565b5060005b88518110156112645788818151811061122857fe5b602001015160f81c60f81b83838060010194508151811061124557fe5b60200101906001600160f81b031916908160001a905350600101611213565b5060005b87518110156112b95787818151811061127d57fe5b602001015160f81c60f81b83838060010194508151811061129a57fe5b60200101906001600160f81b031916908160001a905350600101611268565b5060005b865181101561130e578681815181106112d257fe5b602001015160f81c60f81b8383806001019450815181106112ef57fe5b60200101906001600160f81b031916908160001a9053506001016112bd565b5060005b85518110156113635785818151811061132757fe5b602001015160f81c60f81b83838060010194508151811061134457fe5b60200101906001600160f81b031916908160001a905350600101611312565b5060005b84518110156113b85784818151811061137c57fe5b602001015160f81c60f81b83838060010194508151811061139957fe5b60200101906001600160f81b031916908160001a905350600101611367565b50909998505050505050505050565b600081848411156114195760405162461bcd60e51b8152602060048201818152835160248401528351909283926044909101919085019080838360008315610bd4578181015183820152602001610bbc565b505050900390565b604080518082018252601081526f181899199a1a9b1b9c1cb0b131b232b360811b60208201528151602a80825260608281019094526001600160a01b03851692918491602082018180388339019050509050600360fc1b8160008151811061148557fe5b60200101906001600160f81b031916908160001a905350600f60fb1b816001815181106114ae57fe5b60200101906001600160f81b031916908160001a90535060005b6014811015610f1a578260048583600c01602081106114e357fe5b1a60f81b6001600160f81b031916901c60f81c60ff168151811061150357fe5b602001015160f81c60f81b82826002026002018151811061152057fe5b60200101906001600160f81b031916908160001a905350828482600c016020811061154757fe5b825191901a600f1690811061155857fe5b602001015160f81c60f81b82826002026003018151811061157557fe5b60200101906001600160f81b031916908160001a9053506001016114c8565b60608082518451865188518a518c518e510101010101016040519080825280601f01601f1916602001820160405280156115d5576020820181803883390190505b5090506000805b8a5181101561162d578a81815181106115f157fe5b602001015160f81c60f81b83838060010194508151811061160e57fe5b60200101906001600160f81b031916908160001a9053506001016115dc565b5060005b89518110156116825789818151811061164657fe5b602001015160f81c60f81b83838060010194508151811061166357fe5b60200101906001600160f81b031916908160001a905350600101611631565b5060005b88518110156116d75788818151811061169b57fe5b602001015160f81c60f81b8383806001019450815181106116b857fe5b60200101906001600160f81b031916908160001a905350600101611686565b5060005b875181101561172c578781815181106116f057fe5b602001015160f81c60f81b83838060010194508151811061170d57fe5b60200101906001600160f81b031916908160001a9053506001016116db565b5060005b86518110156117815786818151811061174557fe5b602001015160f81c60f81b83838060010194508151811061176257fe5b60200101906001600160f81b031916908160001a905350600101611730565b5060005b85518110156117d65785818151811061179a57fe5b602001015160f81c60f81b8383806001019450815181106117b757fe5b60200101906001600160f81b031916908160001a905350600101611785565b5060005b84518110156113b8578481815181106117ef57fe5b602001015160f81c60f81b83838060010194508151811061180c57fe5b60200101906001600160f81b031916908160001a9053506001016117da56fe536166654d6174683a206d756c7469706c69636174696f6e206f766572666c6f77a265627a7a723158208c79b46b5a217f776766df9ed4f7c22afb6207d065816ed5b49fb8881bea196864736f6c63430005100032",
  "source": "pragma solidity ^0.5.0;\n\nimport \"./erc-1155/IERC1155.sol\";\nimport \"openzeppelin-solidity/contracts/math/SafeMath.sol\";\nimport \"./utils/StringLibrary.sol\";\nimport \"./utils/AddressLibrary.sol\";\nimport \"./utils/UintLibrary.sol\";\nimport \"./AbstractSale.sol\";\nimport \"./TransferProxy.sol\";\nimport \"./HasSecondarySaleFees.sol\";\nimport \"./ERC1155SaleNonceHolder.sol\";\n\ncontract ERC1155Sale is AbstractSale {\n    using SafeMath for uint256;\n    using StringLibrary for string;\n\n    event CloseOrder(address indexed token, uint256 indexed tokenId, address owner, uint256 nonce);\n    event Buy(address indexed token, uint256 indexed tokenId, address owner, uint256 price, address buyer, uint256 value);\n\n    bytes constant EMPTY = \"\";\n    bytes4 private constant _INTERFACE_ID_FEES = 0xb7799584;\n\n    TransferProxy public transferProxy;\n    ERC1155SaleNonceHolder public nonceHolder;\n\n    constructor(TransferProxy _transferProxy, ERC1155SaleNonceHolder _nonceHolder) public {\n        transferProxy = _transferProxy;\n        nonceHolder = _nonceHolder;\n    }\n\n    function buy(IERC1155 token, uint256 tokenId, address payable owner, uint256 selling, uint256 buying, uint8 v, bytes32 r, bytes32 s) public payable {\n        uint256 price = msg.value.div(buying);\n        uint256 nonce = verifySignature(address(token), tokenId, owner, selling, price, v, r, s);\n        verifyOpenAndModifyState(address(token), tokenId, owner, nonce, selling, buying);\n\n        transferProxy.erc1155safeTransferFrom(token, owner, msg.sender, tokenId, buying, EMPTY);\n\n        transferEther(token, tokenId, owner);\n        emit Buy(address(token), tokenId, owner, price, msg.sender, buying);\n    }\n\n    function transferEther(IERC1155 token, uint256 tokenId, address payable owner) internal {\n        uint256 value = msg.value;\n        if (token.supportsInterface(_INTERFACE_ID_FEES)) {\n            HasSecondarySaleFees withFees = HasSecondarySaleFees(address(token));\n            address payable[] memory recipients = withFees.getFeeRecipients(tokenId);\n            uint[] memory fees = withFees.getFeeBps(tokenId);\n            require(fees.length == recipients.length);\n            for (uint256 i = 0; i < fees.length; i++) {\n                uint current = msg.value.mul(fees[i]).div(10000);\n                recipients[i].transfer(current);\n                value = value.sub(current);\n            }\n        }\n        owner.transfer(value);\n    }\n\n    function cancel(address token, uint256 tokenId) public payable {\n        uint nonce = nonceHolder.getNonce(token, tokenId, msg.sender);\n        nonceHolder.setNonce(token, tokenId, msg.sender, nonce + 1);\n\n        emit CloseOrder(token, tokenId, msg.sender, nonce + 1);\n    }\n\n    function verifySignature(address token, uint256 tokenId, address payable owner, uint256 selling, uint256 price, uint8 v, bytes32 r, bytes32 s) view internal returns (uint256 nonce) {\n        nonce = nonceHolder.getNonce(token, tokenId, owner);\n        require(prepareMessage(token, tokenId, price, selling, nonce).recover(v, r, s) == owner, \"incorrect signature\");\n    }\n\n    function verifyOpenAndModifyState(address token, uint256 tokenId, address payable owner, uint256 nonce, uint256 selling, uint256 buying) internal {\n        uint comp = nonceHolder.getCompleted(token, tokenId, owner, nonce).add(buying);\n        require(comp <= selling);\n        nonceHolder.setCompleted(token, tokenId, owner, nonce, comp);\n\n        if (comp == selling) {\n            nonceHolder.setNonce(token, tokenId, owner, nonce + 1);\n            emit CloseOrder(token, tokenId, owner, nonce + 1);\n        }\n    }\n\n    function prepareMessage(address token, uint256 tokenId, uint256 price, uint256 value, uint256 nonce) internal pure returns (string memory) {\n        return prepareMessage(token, tokenId, price, nonce)\n        .append(\". value: \", value.toString());\n    }\n}\n",
  "sourcePath": "/home/quadro/Projects/tokenplace/tokenplace-contracts/contracts/ERC1155Sale.sol",
  "compiler": {
    "name": "solc",
    "version": "0.5.16+commit.9c3226ce.Emscripten.clang"
  },
  "schemaVersion": "3.0.6",
  "updatedAt": "2020-05-23T12:02:05.476Z",
  "devdoc": {
    "methods": {}
  },
  "userdoc": {
    "methods": {}
  }
}