{
  "contractName": "MintableOwnableToken",
  "abi": [
    {
      "inputs": [
        {
          "internalType": "string",
          "name": "name",
          "type": "string"
        },
        {
          "internalType": "string",
          "name": "symbol",
          "type": "string"
        },
        {
          "internalType": "string",
          "name": "contractURI",
          "type": "string"
        },
        {
          "internalType": "string",
          "name": "tokenURIPrefix",
          "type": "string"
        },
        {
          "internalType": "address",
          "name": "signer",
          "type": "address"
        }
      ],
      "payable": false,
      "stateMutability": "nonpayable",
      "type": "constructor"
    },
    {
      "anonymous": false,
      "inputs": [
        {
          "indexed": true,
          "internalType": "address",
          "name": "owner",
          "type": "address"
        },
        {
          "indexed": true,
          "internalType": "address",
          "name": "approved",
          "type": "address"
        },
        {
          "indexed": true,
          "internalType": "uint256",
          "name": "tokenId",
          "type": "uint256"
        }
      ],
      "name": "Approval",
      "type": "event"
    },
    {
      "anonymous": false,
      "inputs": [
        {
          "indexed": true,
          "internalType": "address",
          "name": "owner",
          "type": "address"
        },
        {
          "indexed": true,
          "internalType": "address",
          "name": "operator",
          "type": "address"
        },
        {
          "indexed": false,
          "internalType": "bool",
          "name": "approved",
          "type": "bool"
        }
      ],
      "name": "ApprovalForAll",
      "type": "event"
    },
    {
      "anonymous": false,
      "inputs": [
        {
          "indexed": true,
          "internalType": "address",
          "name": "creator",
          "type": "address"
        },
        {
          "indexed": false,
          "internalType": "string",
          "name": "name",
          "type": "string"
        },
        {
          "indexed": false,
          "internalType": "string",
          "name": "symbol",
          "type": "string"
        }
      ],
      "name": "CreateERC721_v4",
      "type": "event"
    },
    {
      "anonymous": false,
      "inputs": [
        {
          "indexed": true,
          "internalType": "address",
          "name": "previousOwner",
          "type": "address"
        },
        {
          "indexed": true,
          "internalType": "address",
          "name": "newOwner",
          "type": "address"
        }
      ],
      "name": "OwnershipTransferred",
      "type": "event"
    },
    {
      "anonymous": false,
      "inputs": [
        {
          "indexed": false,
          "internalType": "uint256",
          "name": "tokenId",
          "type": "uint256"
        },
        {
          "indexed": false,
          "internalType": "address[]",
          "name": "recipients",
          "type": "address[]"
        },
        {
          "indexed": false,
          "internalType": "uint256[]",
          "name": "bps",
          "type": "uint256[]"
        }
      ],
      "name": "SecondarySaleFees",
      "type": "event"
    },
    {
      "anonymous": false,
      "inputs": [
        {
          "indexed": true,
          "internalType": "address",
          "name": "account",
          "type": "address"
        }
      ],
      "name": "SignerAdded",
      "type": "event"
    },
    {
      "anonymous": false,
      "inputs": [
        {
          "indexed": true,
          "internalType": "address",
          "name": "account",
          "type": "address"
        }
      ],
      "name": "SignerRemoved",
      "type": "event"
    },
    {
      "anonymous": false,
      "inputs": [
        {
          "indexed": true,
          "internalType": "address",
          "name": "from",
          "type": "address"
        },
        {
          "indexed": true,
          "internalType": "address",
          "name": "to",
          "type": "address"
        },
        {
          "indexed": true,
          "internalType": "uint256",
          "name": "tokenId",
          "type": "uint256"
        }
      ],
      "name": "Transfer",
      "type": "event"
    },
    {
      "constant": false,
      "inputs": [
        {
          "internalType": "address",
          "name": "to",
          "type": "address"
        },
        {
          "internalType": "uint256",
          "name": "tokenId",
          "type": "uint256"
        }
      ],
      "name": "approve",
      "outputs": [],
      "payable": false,
      "stateMutability": "nonpayable",
      "type": "function"
    },
    {
      "constant": true,
      "inputs": [
        {
          "internalType": "address",
          "name": "owner",
          "type": "address"
        }
      ],
      "name": "balanceOf",
      "outputs": [
        {
          "internalType": "uint256",
          "name": "",
          "type": "uint256"
        }
      ],
      "payable": false,
      "stateMutability": "view",
      "type": "function"
    },
    {
      "constant": false,
      "inputs": [
        {
          "internalType": "uint256",
          "name": "tokenId",
          "type": "uint256"
        }
      ],
      "name": "burn",
      "outputs": [],
      "payable": false,
      "stateMutability": "nonpayable",
      "type": "function"
    },
    {
      "constant": true,
      "inputs": [],
      "name": "contractURI",
      "outputs": [
        {
          "internalType": "string",
          "name": "",
          "type": "string"
        }
      ],
      "payable": false,
      "stateMutability": "view",
      "type": "function"
    },
    {
      "constant": true,
      "inputs": [
        {
          "internalType": "uint256",
          "name": "",
          "type": "uint256"
        },
        {
          "internalType": "uint256",
          "name": "",
          "type": "uint256"
        }
      ],
      "name": "fees",
      "outputs": [
        {
          "internalType": "address payable",
          "name": "recipient",
          "type": "address"
        },
        {
          "internalType": "uint256",
          "name": "value",
          "type": "uint256"
        }
      ],
      "payable": false,
      "stateMutability": "view",
      "type": "function"
    },
    {
      "constant": true,
      "inputs": [
        {
          "internalType": "uint256",
          "name": "tokenId",
          "type": "uint256"
        }
      ],
      "name": "getApproved",
      "outputs": [
        {
          "internalType": "address",
          "name": "",
          "type": "address"
        }
      ],
      "payable": false,
      "stateMutability": "view",
      "type": "function"
    },
    {
      "constant": true,
      "inputs": [
        {
          "internalType": "uint256",
          "name": "id",
          "type": "uint256"
        }
      ],
      "name": "getFeeBps",
      "outputs": [
        {
          "internalType": "uint256[]",
          "name": "",
          "type": "uint256[]"
        }
      ],
      "payable": false,
      "stateMutability": "view",
      "type": "function"
    },
    {
      "constant": true,
      "inputs": [
        {
          "internalType": "uint256",
          "name": "id",
          "type": "uint256"
        }
      ],
      "name": "getFeeRecipients",
      "outputs": [
        {
          "internalType": "address payable[]",
          "name": "",
          "type": "address[]"
        }
      ],
      "payable": false,
      "stateMutability": "view",
      "type": "function"
    },
    {
      "constant": true,
      "inputs": [
        {
          "internalType": "address",
          "name": "owner",
          "type": "address"
        },
        {
          "internalType": "address",
          "name": "operator",
          "type": "address"
        }
      ],
      "name": "isApprovedForAll",
      "outputs": [
        {
          "internalType": "bool",
          "name": "",
          "type": "bool"
        }
      ],
      "payable": false,
      "stateMutability": "view",
      "type": "function"
    },
    {
      "constant": true,
      "inputs": [],
      "name": "isOwner",
      "outputs": [
        {
          "internalType": "bool",
          "name": "",
          "type": "bool"
        }
      ],
      "payable": false,
      "stateMutability": "view",
      "type": "function"
    },
    {
      "constant": true,
      "inputs": [
        {
          "internalType": "address",
          "name": "account",
          "type": "address"
        }
      ],
      "name": "isSigner",
      "outputs": [
        {
          "internalType": "bool",
          "name": "",
          "type": "bool"
        }
      ],
      "payable": false,
      "stateMutability": "view",
      "type": "function"
    },
    {
      "constant": true,
      "inputs": [],
      "name": "name",
      "outputs": [
        {
          "internalType": "string",
          "name": "",
          "type": "string"
        }
      ],
      "payable": false,
      "stateMutability": "view",
      "type": "function"
    },
    {
      "constant": true,
      "inputs": [],
      "name": "owner",
      "outputs": [
        {
          "internalType": "address",
          "name": "",
          "type": "address"
        }
      ],
      "payable": false,
      "stateMutability": "view",
      "type": "function"
    },
    {
      "constant": true,
      "inputs": [
        {
          "internalType": "uint256",
          "name": "tokenId",
          "type": "uint256"
        }
      ],
      "name": "ownerOf",
      "outputs": [
        {
          "internalType": "address",
          "name": "",
          "type": "address"
        }
      ],
      "payable": false,
      "stateMutability": "view",
      "type": "function"
    },
    {
      "constant": false,
      "inputs": [],
      "name": "renounceOwnership",
      "outputs": [],
      "payable": false,
      "stateMutability": "nonpayable",
      "type": "function"
    },
    {
      "constant": false,
      "inputs": [],
      "name": "renounceSigner",
      "outputs": [],
      "payable": false,
      "stateMutability": "nonpayable",
      "type": "function"
    },
    {
      "constant": false,
      "inputs": [
        {
          "internalType": "address",
          "name": "from",
          "type": "address"
        },
        {
          "internalType": "address",
          "name": "to",
          "type": "address"
        },
        {
          "internalType": "uint256",
          "name": "tokenId",
          "type": "uint256"
        }
      ],
      "name": "safeTransferFrom",
      "outputs": [],
      "payable": false,
      "stateMutability": "nonpayable",
      "type": "function"
    },
    {
      "constant": false,
      "inputs": [
        {
          "internalType": "address",
          "name": "from",
          "type": "address"
        },
        {
          "internalType": "address",
          "name": "to",
          "type": "address"
        },
        {
          "internalType": "uint256",
          "name": "tokenId",
          "type": "uint256"
        },
        {
          "internalType": "bytes",
          "name": "_data",
          "type": "bytes"
        }
      ],
      "name": "safeTransferFrom",
      "outputs": [],
      "payable": false,
      "stateMutability": "nonpayable",
      "type": "function"
    },
    {
      "constant": false,
      "inputs": [
        {
          "internalType": "address",
          "name": "to",
          "type": "address"
        },
        {
          "internalType": "bool",
          "name": "approved",
          "type": "bool"
        }
      ],
      "name": "setApprovalForAll",
      "outputs": [],
      "payable": false,
      "stateMutability": "nonpayable",
      "type": "function"
    },
    {
      "constant": true,
      "inputs": [
        {
          "internalType": "bytes4",
          "name": "interfaceId",
          "type": "bytes4"
        }
      ],
      "name": "supportsInterface",
      "outputs": [
        {
          "internalType": "bool",
          "name": "",
          "type": "bool"
        }
      ],
      "payable": false,
      "stateMutability": "view",
      "type": "function"
    },
    {
      "constant": true,
      "inputs": [],
      "name": "symbol",
      "outputs": [
        {
          "internalType": "string",
          "name": "",
          "type": "string"
        }
      ],
      "payable": false,
      "stateMutability": "view",
      "type": "function"
    },
    {
      "constant": true,
      "inputs": [
        {
          "internalType": "uint256",
          "name": "index",
          "type": "uint256"
        }
      ],
      "name": "tokenByIndex",
      "outputs": [
        {
          "internalType": "uint256",
          "name": "",
          "type": "uint256"
        }
      ],
      "payable": false,
      "stateMutability": "view",
      "type": "function"
    },
    {
      "constant": true,
      "inputs": [
        {
          "internalType": "address",
          "name": "owner",
          "type": "address"
        },
        {
          "internalType": "uint256",
          "name": "index",
          "type": "uint256"
        }
      ],
      "name": "tokenOfOwnerByIndex",
      "outputs": [
        {
          "internalType": "uint256",
          "name": "",
          "type": "uint256"
        }
      ],
      "payable": false,
      "stateMutability": "view",
      "type": "function"
    },
    {
      "constant": true,
      "inputs": [
        {
          "internalType": "uint256",
          "name": "tokenId",
          "type": "uint256"
        }
      ],
      "name": "tokenURI",
      "outputs": [
        {
          "internalType": "string",
          "name": "",
          "type": "string"
        }
      ],
      "payable": false,
      "stateMutability": "view",
      "type": "function"
    },
    {
      "constant": true,
      "inputs": [],
      "name": "tokenURIPrefix",
      "outputs": [
        {
          "internalType": "string",
          "name": "",
          "type": "string"
        }
      ],
      "payable": false,
      "stateMutability": "view",
      "type": "function"
    },
    {
      "constant": true,
      "inputs": [],
      "name": "totalSupply",
      "outputs": [
        {
          "internalType": "uint256",
          "name": "",
          "type": "uint256"
        }
      ],
      "payable": false,
      "stateMutability": "view",
      "type": "function"
    },
    {
      "constant": false,
      "inputs": [
        {
          "internalType": "address",
          "name": "from",
          "type": "address"
        },
        {
          "internalType": "address",
          "name": "to",
          "type": "address"
        },
        {
          "internalType": "uint256",
          "name": "tokenId",
          "type": "uint256"
        }
      ],
      "name": "transferFrom",
      "outputs": [],
      "payable": false,
      "stateMutability": "nonpayable",
      "type": "function"
    },
    {
      "constant": false,
      "inputs": [
        {
          "internalType": "address",
          "name": "newOwner",
          "type": "address"
        }
      ],
      "name": "transferOwnership",
      "outputs": [],
      "payable": false,
      "stateMutability": "nonpayable",
      "type": "function"
    },
    {
      "constant": false,
      "inputs": [
        {
          "internalType": "uint256",
          "name": "tokenId",
          "type": "uint256"
        },
        {
          "internalType": "uint8",
          "name": "v",
          "type": "uint8"
        },
        {
          "internalType": "bytes32",
          "name": "r",
          "type": "bytes32"
        },
        {
          "internalType": "bytes32",
          "name": "s",
          "type": "bytes32"
        },
        {
          "components": [
            {
              "internalType": "address payable",
              "name": "recipient",
              "type": "address"
            },
            {
              "internalType": "uint256",
              "name": "value",
              "type": "uint256"
            }
          ],
          "internalType": "struct ERC721Base.Fee[]",
          "name": "_fees",
          "type": "tuple[]"
        },
        {
          "internalType": "string",
          "name": "tokenURI",
          "type": "string"
        }
      ],
      "name": "mint",
      "outputs": [],
      "payable": false,
      "stateMutability": "nonpayable",
      "type": "function"
    },
    {
      "constant": false,
      "inputs": [
        {
          "internalType": "address",
          "name": "account",
          "type": "address"
        }
      ],
      "name": "addSigner",
      "outputs": [],
      "payable": false,
      "stateMutability": "nonpayable",
      "type": "function"
    },
    {
      "constant": false,
      "inputs": [
        {
          "internalType": "address",
          "name": "account",
          "type": "address"
        }
      ],
      "name": "removeSigner",
      "outputs": [],
      "payable": false,
      "stateMutability": "nonpayable",
      "type": "function"
    },
    {
      "constant": false,
      "inputs": [
        {
          "internalType": "string",
          "name": "tokenURIPrefix",
          "type": "string"
        }
      ],
      "name": "setTokenURIPrefix",
      "outputs": [],
      "payable": false,
      "stateMutability": "nonpayable",
      "type": "function"
    },
    {
      "constant": false,
      "inputs": [
        {
          "internalType": "string",
          "name": "contractURI",
          "type": "string"
        }
      ],
      "name": "setContractURI",
      "outputs": [],
      "payable": false,
      "stateMutability": "nonpayable",
      "type": "function"
    }
  ],
  "bytecode": "0x60806040523480156200001157600080fd5b5060405162003999380380620039998339810160408190526200003491620004b4565b84848484808260006200004f6001600160e01b036200024b16565b600080546001600160a01b0319166001600160a01b0383169081178255604051929350917f8be0079c531659141344cd1fd0a4f28419497f9722a3daafe3b4186f6b6457e0908290a350620000b46301ffc9a760e01b6001600160e01b036200025016565b620000cf632dde656160e21b6001600160e01b036200025016565b620000ea6380ac58cd60e01b6001600160e01b036200025016565b8051620000ff906006906020840190620003a9565b506200011b63e8a3d48560e01b6001600160e01b036200025016565b50805162000131906007906020840190620003a9565b506200014f905063780e9d6360e01b6001600160e01b036200025016565b83516200016490600d906020870190620003a9565b5082516200017a90600e906020860190620003a9565b5062000196635b5e139f60e01b6001600160e01b036200025016565b50505050620001bd620001ae6200024b60201b60201c565b6001600160e01b03620002ae16565b336001600160a01b03167f565f2552ba3b09c1a27ca36ec97f816d9f12f464c3f7f145c28b527057df0ac78686604051620001fa929190620006cb565b60405180910390a262000216816001600160e01b03620002ae16565b620002406040516200022890620006be565b6040519081900390206001600160e01b036200025016565b5050505050620007fc565b335b90565b6001600160e01b03198082161415620002865760405162461bcd60e51b81526004016200027d906200070e565b60405180910390fd5b6001600160e01b0319166000908152600160208190526040909120805460ff19169091179055565b620002c98160106200030060201b62001a521790919060201c565b6040516001600160a01b038216907f47d1c22a25bb3a5d4e481b9b1e6944c2eade3181a0a20b495ed61d35b5323f2490600090a250565b6200031582826001600160e01b036200035a16565b15620003355760405162461bcd60e51b81526004016200027d90620006fc565b6001600160a01b0316600090815260209190915260409020805460ff19166001179055565b60006001600160a01b038216620003855760405162461bcd60e51b81526004016200027d9062000720565b506001600160a01b03811660009081526020839052604090205460ff165b92915050565b828054600181600116156101000203166002900490600052602060002090601f016020900481019282601f10620003ec57805160ff19168380011785556200041c565b828001600101855582156200041c579182015b828111156200041c578251825591602001919060010190620003ff565b506200042a9291506200042e565b5090565b6200024d91905b808211156200042a576000815560010162000435565b8051620003a381620007e2565b600082601f8301126200046a57600080fd5b8151620004816200047b8262000759565b62000732565b915080825260208301602083018583830111156200049e57600080fd5b620004ab838284620007a5565b50505092915050565b600080600080600060a08688031215620004cd57600080fd5b85516001600160401b03811115620004e457600080fd5b620004f28882890162000458565b95505060208601516001600160401b038111156200050f57600080fd5b6200051d8882890162000458565b94505060408601516001600160401b038111156200053a57600080fd5b620005488882890162000458565b93505060608601516001600160401b038111156200056557600080fd5b620005738882890162000458565b925050608062000586888289016200044b565b9150509295509295909350565b6000620005a08262000781565b620005ac818562000785565b9350620005be818560208601620007a5565b620005c981620007d8565b9093019392505050565b6000620005e2601f8362000785565b7f526f6c65733a206163636f756e7420616c72656164792068617320726f6c6500815260200192915050565b60006200061d601c8362000785565b7f4552433136353a20696e76616c696420696e7465726661636520696400000000815260200192915050565b60006200065860228362000785565b7f526f6c65733a206163636f756e7420697320746865207a65726f206164647265815261737360f01b602082015260400192915050565b60006200069e6011836200078e565b704d494e545f574954485f4144445245535360781b815260110192915050565b6000620003a3826200068f565b60408082528101620006de818562000593565b90508181036020830152620006f4818462000593565b949350505050565b60208082528101620003a381620005d3565b60208082528101620003a3816200060e565b60208082528101620003a38162000649565b6040518181016001600160401b03811182821017156200075157600080fd5b604052919050565b60006001600160401b038211156200077057600080fd5b506020601f91909101601f19160190565b5190565b90815260200190565b919050565b60006001600160a01b038216620003a3565b60005b83811015620007c2578181015183820152602001620007a8565b83811115620007d2576000848401525b50505050565b601f01601f191690565b620007ed8162000793565b8114620007f957600080fd5b50565b61318d806200080c6000396000f3fe608060405234801561001057600080fd5b50600436106101fb5760003560e01c8063715018a61161011a578063b88d4fde116100ad578063e5c8b03d1161007c578063e5c8b03d1461042e578063e8a3d48514610436578063e985e9c51461043e578063eb12d61e14610451578063f2fde38b14610464576101fb565b8063b88d4fde146103e0578063b9c4d9fb146103f3578063c0ac998314610413578063c87b56dd1461041b576101fb565b8063938e3d7b116100e9578063938e3d7b1461039f57806395d89b41146103b257806399e0dd7c146103ba578063a22cb465146103cd576101fb565b8063715018a6146103745780637df73e271461037c5780638da5cb5b1461038f5780638f32d59b14610397576101fb565b80632f745c59116101925780636308f1cd116101615780636308f1cd1461031a5780636352211e1461033b578063672a94001461034e57806370a0823114610361576101fb565b80632f745c59146102ce57806342842e0e146102e157806342966c68146102f45780634f6ccce714610307576101fb565b80630e316ab7116101ce5780630e316ab7146102735780630ebd4c7f1461028657806318160ddd146102a657806323b872dd146102bb576101fb565b806301ffc9a71461020057806306fdde0314610229578063081812fc1461023e578063095ea7b31461025e575b600080fd5b61021361020e366004612243565b610477565b6040516102209190612da8565b60405180910390f35b610231610496565b6040516102209190612df4565b61025161024c3660046122b4565b610524565b6040516102209190612d19565b61027161026c366004612213565b610570565b005b6102716102813660046120c5565b610655565b6102996102943660046122b4565b610685565b6040516102209190612d97565b6102ae610778565b6040516102209190612fb5565b6102716102c936600461211d565b61077f565b6102ae6102dc366004612213565b6107bc565b6102716102ef36600461211d565b61081d565b6102716103023660046122b4565b610838565b6102ae6103153660046122b4565b610868565b61032d6103283660046122d2565b6108af565b604051610220929190612d6b565b6102516103493660046122b4565b6108f2565b61027161035c3660046122f1565b610927565b6102ae61036f3660046120c5565b610a03565b610271610a4c565b61021361038a3660046120c5565b610aba565b610251610acd565b610213610adc565b6102716103ad36600461227f565b610b00565b610231610b2d565b6102716103c836600461227f565b610b88565b6102716103db3660046121e3565b610bb5565b6102716103ee36600461216a565b610c83565b6104066104013660046122b4565b610cc2565b6040516102209190612d86565b610231610dba565b6102316104293660046122b4565b610e15565b610271610e45565b610231610e57565b61021361044c3660046120e3565b610eb2565b61027161045f3660046120c5565b610ee0565b6102716104723660046120c5565b610f0d565b6001600160e01b03191660009081526001602052604090205460ff1690565b600d805460408051602060026001851615610100026000190190941693909304601f8101849004840282018401909252818152929183018282801561051c5780601f106104f15761010080835404028352916020019161051c565b820191906000526020600020905b8154815290600101906020018083116104ff57829003601f168201915b505050505081565b600061052f82610f3a565b6105545760405162461bcd60e51b815260040161054b90612ee5565b60405180910390fd5b506000908152600360205260409020546001600160a01b031690565b600061057b826108f2565b9050806001600160a01b0316836001600160a01b031614156105af5760405162461bcd60e51b815260040161054b90612f45565b806001600160a01b03166105c1610f57565b6001600160a01b031614806105dd57506105dd8161044c610f57565b6105f95760405162461bcd60e51b815260040161054b90612e95565b60008281526003602052604080822080546001600160a01b0319166001600160a01b0387811691821790925591518593918516917f8c5be1e5ebec7d5bd14f71427d1e84f3dd0314c0f7b2291e5b200ac8c7c3b92591a4505050565b61065d610adc565b6106795760405162461bcd60e51b815260040161054b90612f05565b61068281610f5b565b50565b6000818152600f602090815260408083208054825181850281018501909352808352606094859484015b828210156106f7576000848152602090819020604080518082019091526002850290910180546001600160a01b031682526001908101548284015290835290920191016106af565b5050505090506060815160405190808252806020026020018201604052801561072a578160200160208202803883390190505b50905060005b82518110156107705782818151811061074557fe5b60200260200101516020015182828151811061075d57fe5b6020908102919091010152600101610730565b509392505050565b600b545b90565b61079061078a610f57565b82610fa3565b6107ac5760405162461bcd60e51b815260040161054b90612f55565b6107b7838383611028565b505050565b60006107c783610a03565b82106107e55760405162461bcd60e51b815260040161054b90612e25565b6001600160a01b038316600090815260096020526040902080548390811061080957fe5b906000526020600020015490505b92915050565b6107b783838360405180602001604052806000815250610c83565b61084361078a610f57565b61085f5760405162461bcd60e51b815260040161054b90612f95565b61068281611047565b6000610872610778565b82106108905760405162461bcd60e51b815260040161054b90612f65565b600b828154811061089d57fe5b90600052602060002001549050919050565b600f60205281600052604060002081815481106108c857fe5b6000918252602090912060029091020180546001909101546001600160a01b039091169250905082565b6000818152600260205260408120546001600160a01b0316806108175760405162461bcd60e51b815260040161054b90612eb5565b61092f610adc565b61094b5760405162461bcd60e51b815260040161054b90612f05565b6109ca60013088604051602001610963929190612cf3565b60405160208183030381529060405280519060200120878787604051600081526020016040526040516109999493929190612db6565b6020604051602081039080840390855afa1580156109bb573d6000803e3d6000fd5b50505060206040510351610aba565b6109e65760405162461bcd60e51b815260040161054b90612fa5565b6109f1338784611059565b6109fb868261127e565b505050505050565b60006001600160a01b038216610a2b5760405162461bcd60e51b815260040161054b90612ea5565b6001600160a01b0382166000908152600460205260409020610817906112b1565b610a54610adc565b610a705760405162461bcd60e51b815260040161054b90612f05565b600080546040516001600160a01b03909116907f8be0079c531659141344cd1fd0a4f28419497f9722a3daafe3b4186f6b6457e0908390a3600080546001600160a01b0319169055565b600061081760108363ffffffff6112b516565b6000546001600160a01b031690565b600080546001600160a01b0316610af1610f57565b6001600160a01b031614905090565b610b08610adc565b610b245760405162461bcd60e51b815260040161054b90612f05565b610682816112fd565b600e805460408051602060026001851615610100026000190190941693909304601f8101849004840282018401909252818152929183018282801561051c5780601f106104f15761010080835404028352916020019161051c565b610b90610adc565b610bac5760405162461bcd60e51b815260040161054b90612f05565b61068281611310565b610bbd610f57565b6001600160a01b0316826001600160a01b03161415610bee5760405162461bcd60e51b815260040161054b90612e75565b8060056000610bfb610f57565b6001600160a01b03908116825260208083019390935260409182016000908120918716808252919093529120805460ff191692151592909217909155610c3f610f57565b6001600160a01b03167f17307eab39ab6107e8899845ad3d59bd9653f200f220920489ca2b5937696c3183604051610c779190612da8565b60405180910390a35050565b610c94610c8e610f57565b83610fa3565b610cb05760405162461bcd60e51b815260040161054b90612f55565b610cbc84848484611323565b50505050565b6000818152600f602090815260408083208054825181850281018501909352808352606094859484015b82821015610d34576000848152602090819020604080518082019091526002850290910180546001600160a01b03168252600190810154828401529083529092019101610cec565b50505050905060608151604051908082528060200260200182016040528015610d67578160200160208202803883390190505b50905060005b825181101561077057828181518110610d8257fe5b602002602001015160000151828281518110610d9a57fe5b6001600160a01b0390921660209283029190910190910152600101610d6d565b6007805460408051602060026001851615610100026000190190941693909304601f8101849004840282018401909252818152929183018282801561051c5780601f106104f15761010080835404028352916020019161051c565b6060610e2082610f3a565b610e3c5760405162461bcd60e51b815260040161054b90612f35565b61081782611356565b610e55610e50610f57565b610f5b565b565b6006805460408051602060026001851615610100026000190190941693909304601f8101849004840282018401909252818152929183018282801561051c5780601f106104f15761010080835404028352916020019161051c565b6001600160a01b03918216600090815260056020908152604080832093909416825291909152205460ff1690565b610ee8610adc565b610f045760405162461bcd60e51b815260040161054b90612f05565b61068281611491565b610f15610adc565b610f315760405162461bcd60e51b815260040161054b90612f05565b610682816114d9565b6000908152600260205260409020546001600160a01b0316151590565b3390565b610f6c60108263ffffffff61155a16565b6040516001600160a01b038216907f3525e22824a8a7df2c9a6029941c824cf95b6447f1e13d5128fd3826d35afe8b90600090a250565b6000610fae82610f3a565b610fca5760405162461bcd60e51b815260040161054b90612e85565b6000610fd5836108f2565b9050806001600160a01b0316846001600160a01b031614806110105750836001600160a01b031661100584610524565b6001600160a01b0316145b8061102057506110208185610eb2565b949350505050565b6110338383836115a2565b61103d83826116a8565b6107b78282611796565b610682611053826108f2565b826117d4565b61106383836117e7565b60608151604051908082528060200260200182016040528015611090578160200160208202803883390190505b509050606082516040519080825280602002602001820160405280156110c0578160200160208202803883390190505b50905060005b83518110156112335760006001600160a01b03168482815181106110e657fe5b6020026020010151600001516001600160a01b031614156111195760405162461bcd60e51b815260040161054b90612f85565b83818151811061112557fe5b602002602001015160200151600014156111515760405162461bcd60e51b815260040161054b90612e05565b6000858152600f60205260409020845185908390811061116d57fe5b602090810291909101810151825460018082018555600094855293839020825160029092020180546001600160a01b0319166001600160a01b0390921691909117815591015191015583518490829081106111c457fe5b6020026020010151600001518382815181106111dc57fe5b60200260200101906001600160a01b031690816001600160a01b03168152505083818151811061120857fe5b60200260200101516020015182828151811061122057fe5b60209081029190910101526001016110c6565b50825115611277577f99aba1d63749cfd5ad1afda7c4663840924d54eb5f005bbbeadedc6ec13674b284838360405161126e93929190612fc3565b60405180910390a15b5050505050565b61128782610f3a565b6112a35760405162461bcd60e51b815260040161054b90612ef5565b6112ad8282611804565b5050565b5490565b60006001600160a01b0382166112dd5760405162461bcd60e51b815260040161054b90612f15565b506001600160a01b03166000908152602091909152604090205460ff1690565b80516112ad906006906020840190611e70565b80516112ad906007906020840190611e70565b61132e848484611028565b61133a84848484611823565b610cbc5760405162461bcd60e51b815260040161054b90612e35565b6000818152600860209081526040918290208054835160026001831615610100026000190190921691909104601f8101849004840282018401909452838152606093610817939192918301828280156113f05780601f106113c5576101008083540402835291602001916113f0565b820191906000526020600020905b8154815290600101906020018083116113d357829003601f168201915b505060078054604080516020601f600260001961010060018816150201909516949094049384018190048102820181019092528281529550919350915083018282801561147e5780601f106114535761010080835404028352916020019161147e565b820191906000526020600020905b81548152906001019060200180831161146157829003601f168201915b505050505061195d90919063ffffffff16565b6114a260108263ffffffff611a5216565b6040516001600160a01b038216907f47d1c22a25bb3a5d4e481b9b1e6944c2eade3181a0a20b495ed61d35b5323f2490600090a250565b6001600160a01b0381166114ff5760405162461bcd60e51b815260040161054b90612e45565b600080546040516001600160a01b03808516939216917f8be0079c531659141344cd1fd0a4f28419497f9722a3daafe3b4186f6b6457e091a3600080546001600160a01b0319166001600160a01b0392909216919091179055565b61156482826112b5565b6115805760405162461bcd60e51b815260040161054b90612ec5565b6001600160a01b0316600090815260209190915260409020805460ff19169055565b826001600160a01b03166115b5826108f2565b6001600160a01b0316146115db5760405162461bcd60e51b815260040161054b90612f25565b6001600160a01b0382166116015760405162461bcd60e51b815260040161054b90612e65565b61160a81611a9e565b6001600160a01b038316600090815260046020526040902061162b90611ad9565b6001600160a01b038216600090815260046020526040902061164c90611af0565b60008181526002602052604080822080546001600160a01b0319166001600160a01b0386811691821790925591518493918716917fddf252ad1be2c89b69c2b068fc378daa952ba7f163c4a11628f55a4df523b3ef91a4505050565b6001600160a01b0382166000908152600960205260408120546116d290600163ffffffff611af916565b6000838152600a602052604090205490915080821461176d576001600160a01b038416600090815260096020526040812080548490811061170f57fe5b906000526020600020015490508060096000876001600160a01b03166001600160a01b03168152602001908152602001600020838154811061174d57fe5b6000918252602080832090910192909255918252600a9052604090208190555b6001600160a01b0384166000908152600960205260409020805490611277906000198301611eee565b6001600160a01b0390911660009081526009602081815260408084208054868652600a84529185208290559282526001810183559183529091200155565b6117de8282611b42565b6112ad81611b6e565b6117f18282611bac565b6117fb8282611796565b6112ad81611c73565b600082815260086020908152604090912082516107b792840190611e70565b6000611837846001600160a01b0316611cb7565b61184357506001611020565b600060606001600160a01b038616630a85bd0160e11b611861610f57565b8988886040516024016118779493929190612d27565b60408051601f198184030181529181526020820180516001600160e01b03166001600160e01b03199094169390931790925290516118b59190612ce7565b6000604051808303816000865af19150503d80600081146118f2576040519150601f19603f3d011682016040523d82523d6000602084013e6118f7565b606091505b509150915081611929578051156119115780518082602001fd5b60405162461bcd60e51b815260040161054b90612e35565b60008180602001905161193f9190810190612261565b6001600160e01b031916630a85bd0160e11b14935061102092505050565b6060808390506060839050606081518351016040519080825280601f01601f191660200182016040528015611999576020820181803883390190505b5090506000805b84518110156119f1578481815181106119b557fe5b602001015160f81c60f81b8383806001019450815181106119d257fe5b60200101906001600160f81b031916908160001a9053506001016119a0565b5060005b8351811015611a4657838181518110611a0a57fe5b602001015160f81c60f81b838380600101945081518110611a2757fe5b60200101906001600160f81b031916908160001a9053506001016119f5565b50909695505050505050565b611a5c82826112b5565b15611a795760405162461bcd60e51b815260040161054b90612e15565b6001600160a01b0316600090815260209190915260409020805460ff19166001179055565b6000818152600360205260409020546001600160a01b03161561068257600090815260036020526040902080546001600160a01b0319169055565b8054611aec90600163ffffffff611af916565b9055565b80546001019055565b6000611b3b83836040518060400160405280601e81526020017f536166654d6174683a207375627472616374696f6e206f766572666c6f770000815250611cf0565b9392505050565b611b4c8282611d1c565b611b5682826116a8565b6000818152600a60205260408120556112ad81611dd4565b600081815260086020526040902054600260001961010060018416150201909116041561068257600081815260086020526040812061068291611f12565b6001600160a01b038216611bd25760405162461bcd60e51b815260040161054b90612ed5565b611bdb81610f3a565b15611bf85760405162461bcd60e51b815260040161054b90612e55565b600081815260026020908152604080832080546001600160a01b0319166001600160a01b038716908117909155835260049091529020611c3790611af0565b60405181906001600160a01b038416906000907fddf252ad1be2c89b69c2b068fc378daa952ba7f163c4a11628f55a4df523b3ef908290a45050565b600b80546000838152600c60205260408120829055600182018355919091527f0175b7a638427703f0dbe7bb9bbf987a2551717b34e79f33b5b1008d1fa01db90155565b6000813f7fc5d2460186f7233c927e7db2dcc703c0e500b653ca82273b7bfad8045d85a470818114801590611020575050151592915050565b60008184841115611d145760405162461bcd60e51b815260040161054b9190612df4565b505050900390565b816001600160a01b0316611d2f826108f2565b6001600160a01b031614611d555760405162461bcd60e51b815260040161054b90612f75565b611d5e81611a9e565b6001600160a01b0382166000908152600460205260409020611d7f90611ad9565b60008181526002602052604080822080546001600160a01b0319169055518291906001600160a01b038516907fddf252ad1be2c89b69c2b068fc378daa952ba7f163c4a11628f55a4df523b3ef908390a45050565b600b54600090611deb90600163ffffffff611af916565b6000838152600c6020526040812054600b8054939450909284908110611e0d57fe5b9060005260206000200154905080600b8381548110611e2857fe5b6000918252602080832090910192909255828152600c90915260409020829055600b805490611e5b906000198301611eee565b505050600091825250600c6020526040812055565b828054600181600116156101000203166002900490600052602060002090601f016020900481019282601f10611eb157805160ff1916838001178555611ede565b82800160010185558215611ede579182015b82811115611ede578251825591602001919060010190611ec3565b50611eea929150611f52565b5090565b8154818355818111156107b7576000838152602090206107b7918101908301611f52565b50805460018160011615610100020316600290046000825580601f10611f385750610682565b601f01602090049060005260206000209081019061068291905b61077c91905b80821115611eea5760008155600101611f58565b803561081781613112565b600082601f830112611f8857600080fd5b8135611f9b611f968261301e565b612ff7565b91508181835260208401935060208101905083856040840282011115611fc057600080fd5b60005b83811015611fee5781611fd68882612073565b84525060209092019160409190910190600101611fc3565b5050505092915050565b803561081781613126565b80356108178161312f565b803561081781613138565b805161081781613138565b600082601f83011261203557600080fd5b8135612043611f968261303f565b9150808252602083016020830185838301111561205f57600080fd5b61206a8382846130b9565b50505092915050565b60006040828403121561208557600080fd5b61208f6040612ff7565b9050600061209d8484611f6c565b82525060206120ae84848301612003565b60208301525092915050565b803561081781613141565b6000602082840312156120d757600080fd5b60006110208484611f6c565b600080604083850312156120f657600080fd5b60006121028585611f6c565b925050602061211385828601611f6c565b9150509250929050565b60008060006060848603121561213257600080fd5b600061213e8686611f6c565b935050602061214f86828701611f6c565b925050604061216086828701612003565b9150509250925092565b6000806000806080858703121561218057600080fd5b600061218c8787611f6c565b945050602061219d87828801611f6c565b93505060406121ae87828801612003565b925050606085013567ffffffffffffffff8111156121cb57600080fd5b6121d787828801612024565b91505092959194509250565b600080604083850312156121f657600080fd5b60006122028585611f6c565b925050602061211385828601611ff8565b6000806040838503121561222657600080fd5b60006122328585611f6c565b925050602061211385828601612003565b60006020828403121561225557600080fd5b6000611020848461200e565b60006020828403121561227357600080fd5b60006110208484612019565b60006020828403121561229157600080fd5b813567ffffffffffffffff8111156122a857600080fd5b61102084828501612024565b6000602082840312156122c657600080fd5b60006110208484612003565b600080604083850312156122e557600080fd5b60006122328585612003565b60008060008060008060c0878903121561230a57600080fd5b60006123168989612003565b965050602061232789828a016120ba565b955050604061233889828a01612003565b945050606061234989828a01612003565b935050608087013567ffffffffffffffff81111561236657600080fd5b61237289828a01611f77565b92505060a087013567ffffffffffffffff81111561238f57600080fd5b61239b89828a01612024565b9150509295509295509295565b60006123b483836123c8565b505060200190565b60006123b483836124d5565b6123d18161307f565b82525050565b60006123e28261306d565b6123ec8185613071565b93506123f783613067565b8060005b8381101561242557815161240f88826123a8565b975061241a83613067565b9250506001016123fb565b509495945050505050565b600061243b8261306d565b6124458185613071565b935061245083613067565b8060005b8381101561242557815161246888826123a8565b975061247383613067565b925050600101612454565b60006124898261306d565b6124938185613071565b935061249e83613067565b8060005b838110156124255781516124b688826123bc565b97506124c183613067565b9250506001016124a2565b6123d18161308a565b6123d18161077c565b60006124e98261306d565b6124f38185613071565b93506125038185602086016130c5565b61250c81613102565b9093019392505050565b60006125218261306d565b61252b818561307a565b935061253b8185602086016130c5565b9290920192915050565b6123d1612551826130ae565b6130f1565b6000612563601c83613071565b7f4665652076616c75652073686f756c6420626520706f73697469766500000000815260200192915050565b600061259c601f83613071565b7f526f6c65733a206163636f756e7420616c72656164792068617320726f6c6500815260200192915050565b60006125d5602b83613071565b7f455243373231456e756d657261626c653a206f776e657220696e646578206f7581526a74206f6620626f756e647360a81b602082015260400192915050565b6000612622603283613071565b7f4552433732313a207472616e7366657220746f206e6f6e20455243373231526581527131b2b4bb32b91034b6b83632b6b2b73a32b960711b602082015260400192915050565b6000612676602683613071565b7f4f776e61626c653a206e6577206f776e657220697320746865207a65726f206181526564647265737360d01b602082015260400192915050565b60006126be601c83613071565b7f4552433732313a20746f6b656e20616c7265616479206d696e74656400000000815260200192915050565b60006126f7602483613071565b7f4552433732313a207472616e7366657220746f20746865207a65726f206164648152637265737360e01b602082015260400192915050565b600061273d601983613071565b7f4552433732313a20617070726f766520746f2063616c6c657200000000000000815260200192915050565b6000612776602c83613071565b7f4552433732313a206f70657261746f7220717565727920666f72206e6f6e657881526b34b9ba32b73a103a37b5b2b760a11b602082015260400192915050565b60006127c4603883613071565b7f4552433732313a20617070726f76652063616c6c6572206973206e6f74206f7781527f6e6572206e6f7220617070726f76656420666f7220616c6c0000000000000000602082015260400192915050565b6000612823602a83613071565b7f4552433732313a2062616c616e636520717565727920666f7220746865207a65815269726f206164647265737360b01b602082015260400192915050565b600061286f602983613071565b7f4552433732313a206f776e657220717565727920666f72206e6f6e657869737481526832b73a103a37b5b2b760b91b602082015260400192915050565b60006128ba602183613071565b7f526f6c65733a206163636f756e7420646f6573206e6f74206861766520726f6c8152606560f81b602082015260400192915050565b60006128fd602083613071565b7f4552433732313a206d696e7420746f20746865207a65726f2061646472657373815260200192915050565b6000612936602c83613071565b7f4552433732313a20617070726f76656420717565727920666f72206e6f6e657881526b34b9ba32b73a103a37b5b2b760a11b602082015260400192915050565b6000612984602c83613071565b7f4552433732314d657461646174613a2055524920736574206f66206e6f6e657881526b34b9ba32b73a103a37b5b2b760a11b602082015260400192915050565b60006129d2602083613071565b7f4f776e61626c653a2063616c6c6572206973206e6f7420746865206f776e6572815260200192915050565b6000612a0b602283613071565b7f526f6c65733a206163636f756e7420697320746865207a65726f206164647265815261737360f01b602082015260400192915050565b6000612a4f602983613071565b7f4552433732313a207472616e73666572206f6620746f6b656e2074686174206981526839903737ba1037bbb760b91b602082015260400192915050565b6000612a9a602f83613071565b7f4552433732314d657461646174613a2055524920717565727920666f72206e6f81526e3732bc34b9ba32b73a103a37b5b2b760891b602082015260400192915050565b6000612aeb602183613071565b7f4552433732313a20617070726f76616c20746f2063757272656e74206f776e658152603960f91b602082015260400192915050565b6000612b2e603183613071565b7f4552433732313a207472616e736665722063616c6c6572206973206e6f74206f8152701ddb995c881b9bdc88185c1c1c9bdd9959607a1b602082015260400192915050565b6000612b81602c83613071565b7f455243373231456e756d657261626c653a20676c6f62616c20696e646578206f81526b7574206f6620626f756e647360a01b602082015260400192915050565b6000612bcf602583613071565b7f4552433732313a206275726e206f6620746f6b656e2074686174206973206e6f8152643a1037bbb760d91b602082015260400192915050565b6000612c16601b83613071565b7f526563697069656e742073686f756c642062652070726573656e740000000000815260200192915050565b6000612c4f603083613071565b7f4552433732314275726e61626c653a2063616c6c6572206973206e6f74206f7781526f1b995c881b9bdc88185c1c1c9bdd995960821b602082015260400192915050565b6000612ca1601a83613071565b7f7369676e65722073686f756c64207369676e20746f6b656e4964000000000000815260200192915050565b6123d1612cd98261077c565b61077c565b6123d1816130a8565b6000611b3b8284612516565b6000612cff8285612545565b601482019150612d0f8284612ccd565b5060200192915050565b6020810161081782846123c8565b60808101612d3582876123c8565b612d4260208301866123c8565b612d4f60408301856124d5565b8181036060830152612d6181846124de565b9695505050505050565b60408101612d7982856123c8565b611b3b60208301846124d5565b60208082528101611b3b8184612430565b60208082528101611b3b818461247e565b6020810161081782846124cc565b60808101612dc482876124d5565b612dd16020830186612cde565b612dde60408301856124d5565b612deb60608301846124d5565b95945050505050565b60208082528101611b3b81846124de565b6020808252810161081781612556565b602080825281016108178161258f565b60208082528101610817816125c8565b6020808252810161081781612615565b6020808252810161081781612669565b60208082528101610817816126b1565b60208082528101610817816126ea565b6020808252810161081781612730565b6020808252810161081781612769565b60208082528101610817816127b7565b6020808252810161081781612816565b6020808252810161081781612862565b60208082528101610817816128ad565b60208082528101610817816128f0565b6020808252810161081781612929565b6020808252810161081781612977565b60208082528101610817816129c5565b60208082528101610817816129fe565b6020808252810161081781612a42565b6020808252810161081781612a8d565b6020808252810161081781612ade565b6020808252810161081781612b21565b6020808252810161081781612b74565b6020808252810161081781612bc2565b6020808252810161081781612c09565b6020808252810161081781612c42565b6020808252810161081781612c94565b6020810161081782846124d5565b60608101612fd182866124d5565b8181036020830152612fe381856123d7565b90508181036040830152612deb818461247e565b60405181810167ffffffffffffffff8111828210171561301657600080fd5b604052919050565b600067ffffffffffffffff82111561303557600080fd5b5060209081020190565b600067ffffffffffffffff82111561305657600080fd5b506020601f91909101601f19160190565b60200190565b5190565b90815260200190565b919050565b60006108178261309c565b151590565b6001600160e01b03191690565b6001600160a01b031690565b60ff1690565b60006108178261307f565b82818337506000910152565b60005b838110156130e05781810151838201526020016130c8565b83811115610cbc5750506000910152565b60006108178260006108178261310c565b601f01601f191690565b60601b90565b61311b8161307f565b811461068257600080fd5b61311b8161308a565b61311b8161077c565b61311b8161308f565b61311b816130a856fea365627a7a72315820cbdb29bb11bc4baf42a2f6229355125f1baa73cc291341c017423c96123797b56c6578706572696d656e74616cf564736f6c63430005110040",
  "source": "pragma solidity ^0.5.0;\npragma experimental ABIEncoderV2;\n\nimport \"openzeppelin-solidity/contracts/ownership/Ownable.sol\";\nimport \"openzeppelin-solidity/contracts/access/roles/SignerRole.sol\";\nimport \"openzeppelin-solidity/contracts/token/ERC721/ERC721.sol\";\nimport \"openzeppelin-solidity/contracts/token/ERC721/IERC721Metadata.sol\";\nimport \"openzeppelin-solidity/contracts/token/ERC721/ERC721Burnable.sol\";\nimport \"./ERC721Base.sol\";\n\n/**\n * @title MintableOwnableToken\n * @dev only owner can mint token.\n */\ncontract MintableOwnableToken is Ownable, ERC721, IERC721Metadata, ERC721Burnable, ERC721Base, SignerRole {\n\n    event CreateERC721_v4(address indexed creator, string name, string symbol);\n\n    constructor (string memory name, string memory symbol, string memory contractURI, string memory tokenURIPrefix, address signer) public ERC721Base(name, symbol, contractURI, tokenURIPrefix) {\n        emit CreateERC721_v4(msg.sender, name, symbol);\n        _addSigner(signer);\n        _registerInterface(bytes4(keccak256('MINT_WITH_ADDRESS')));\n    }\n\n    function mint(uint256 tokenId, uint8 v, bytes32 r, bytes32 s, Fee[] memory _fees, string memory tokenURI) onlyOwner public {\n        require(isSigner(ecrecover(keccak256(abi.encodePacked(this, tokenId)), v, r, s)), \"signer should sign tokenId\");\n        _mint(msg.sender, tokenId, _fees);\n        _setTokenURI(tokenId, tokenURI);\n    }\n\n    function addSigner(address account) public onlyOwner {\n        _addSigner(account);\n    }\n\n    function removeSigner(address account) public onlyOwner {\n        _removeSigner(account);\n    }\n\n    function setTokenURIPrefix(string memory tokenURIPrefix) public onlyOwner {\n        _setTokenURIPrefix(tokenURIPrefix);\n    }\n\n    function setContractURI(string memory contractURI) public onlyOwner {\n        _setContractURI(contractURI);\n    }\n}\n",
  "sourcePath": "/home/quadro/Projects/tokenplace/tokenplace-contracts/contracts/MintableOwnableToken.sol",
  "compiler": {
    "name": "solc",
    "version": "0.5.17+commit.d19bba13.Emscripten.clang"
  },
  "schemaVersion": "3.0.6",
  "updatedAt": "2020-05-27T11:30:37.247Z",
  "devdoc": {
    "details": "only owner can mint token.",
    "methods": {
      "approve(address,uint256)": {
        "details": "Approves another address to transfer the given token ID The zero address indicates there is no approved address. There can only be one approved address per token at a given time. Can only be called by the token owner or an approved operator.",
        "params": {
          "to": "address to be approved for the given token ID",
          "tokenId": "uint256 ID of the token to be approved"
        }
      },
      "balanceOf(address)": {
        "details": "Gets the balance of the specified address.",
        "params": {
          "owner": "address to query the balance of"
        },
        "return": "uint256 representing the amount owned by the passed address"
      },
      "burn(uint256)": {
        "details": "Burns a specific ERC721 token.",
        "params": {
          "tokenId": "uint256 id of the ERC721 token to be burned."
        }
      },
      "getApproved(uint256)": {
        "details": "Gets the approved address for a token ID, or zero if no address set Reverts if the token ID does not exist.",
        "params": {
          "tokenId": "uint256 ID of the token to query the approval of"
        },
        "return": "address currently approved for the given token ID"
      },
      "isApprovedForAll(address,address)": {
        "details": "Tells whether an operator is approved by a given owner.",
        "params": {
          "operator": "operator address which you want to query the approval of",
          "owner": "owner address which you want to query the approval of"
        },
        "return": "bool whether the given operator is approved by the given owner"
      },
      "isOwner()": {
        "details": "Returns true if the caller is the current owner."
      },
      "owner()": {
        "details": "Returns the address of the current owner."
      },
      "ownerOf(uint256)": {
        "details": "Gets the owner of the specified token ID.",
        "params": {
          "tokenId": "uint256 ID of the token to query the owner of"
        },
        "return": "address currently marked as the owner of the given token ID"
      },
      "renounceOwnership()": {
        "details": "Leaves the contract without owner. It will not be possible to call `onlyOwner` functions anymore. Can only be called by the current owner.     * NOTE: Renouncing ownership will leave the contract without an owner, thereby removing any functionality that is only available to the owner."
      },
      "safeTransferFrom(address,address,uint256)": {
        "details": "Safely transfers the ownership of a given token ID to another address If the target address is a contract, it must implement {IERC721Receiver-onERC721Received}, which is called upon a safe transfer, and return the magic value `bytes4(keccak256(\"onERC721Received(address,address,uint256,bytes)\"))`; otherwise, the transfer is reverted. Requires the msg.sender to be the owner, approved, or operator",
        "params": {
          "from": "current owner of the token",
          "to": "address to receive the ownership of the given token ID",
          "tokenId": "uint256 ID of the token to be transferred"
        }
      },
      "safeTransferFrom(address,address,uint256,bytes)": {
        "details": "Safely transfers the ownership of a given token ID to another address If the target address is a contract, it must implement {IERC721Receiver-onERC721Received}, which is called upon a safe transfer, and return the magic value `bytes4(keccak256(\"onERC721Received(address,address,uint256,bytes)\"))`; otherwise, the transfer is reverted. Requires the _msgSender() to be the owner, approved, or operator",
        "params": {
          "_data": "bytes data to send along with a safe transfer check",
          "from": "current owner of the token",
          "to": "address to receive the ownership of the given token ID",
          "tokenId": "uint256 ID of the token to be transferred"
        }
      },
      "setApprovalForAll(address,bool)": {
        "details": "Sets or unsets the approval of a given operator An operator is allowed to transfer all tokens of the sender on their behalf.",
        "params": {
          "approved": "representing the status of the approval to be set",
          "to": "operator address to set the approval"
        }
      },
      "supportsInterface(bytes4)": {
        "details": "See {IERC165-supportsInterface}.     * Time complexity O(1), guaranteed to always use less than 30 000 gas."
      },
      "tokenByIndex(uint256)": {
        "details": "Gets the token ID at a given index of all the tokens in this contract Reverts if the index is greater or equal to the total number of tokens.",
        "params": {
          "index": "uint256 representing the index to be accessed of the tokens list"
        },
        "return": "uint256 token ID at the given index of the tokens list"
      },
      "tokenOfOwnerByIndex(address,uint256)": {
        "details": "Gets the token ID at a given index of the tokens list of the requested owner.",
        "params": {
          "index": "uint256 representing the index to be accessed of the requested tokens list",
          "owner": "address owning the tokens list to be accessed"
        },
        "return": "uint256 token ID at the given index of the tokens list owned by the requested address"
      },
      "tokenURI(uint256)": {
        "details": "Returns an URI for a given token ID. Throws if the token ID does not exist. May return an empty string.",
        "params": {
          "tokenId": "uint256 ID of the token to query"
        }
      },
      "totalSupply()": {
        "details": "Gets the total amount of tokens stored by the contract.",
        "return": "uint256 representing the total amount of tokens"
      },
      "transferFrom(address,address,uint256)": {
        "details": "Transfers the ownership of a given token ID to another address. Usage of this method is discouraged, use {safeTransferFrom} whenever possible. Requires the msg.sender to be the owner, approved, or operator.",
        "params": {
          "from": "current owner of the token",
          "to": "address to receive the ownership of the given token ID",
          "tokenId": "uint256 ID of the token to be transferred"
        }
      },
      "transferOwnership(address)": {
        "details": "Transfers ownership of the contract to a new account (`newOwner`). Can only be called by the current owner."
      }
    },
    "title": "MintableOwnableToken"
  },
  "userdoc": {
    "methods": {}
  }
}