{
  "contractName": "ERC721Sale",
  "abi": [
    {
      "inputs": [
        {
          "internalType": "contract TransferProxy",
          "name": "_transferProxy",
          "type": "address"
        },
        {
          "internalType": "contract ERC721SaleNonceHolder",
          "name": "_nonceHolder",
          "type": "address"
        }
      ],
      "payable": false,
      "stateMutability": "nonpayable",
      "type": "constructor"
    },
    {
      "anonymous": false,
      "inputs": [
        {
          "indexed": true,
          "internalType": "address",
          "name": "token",
          "type": "address"
        },
        {
          "indexed": true,
          "internalType": "uint256",
          "name": "tokenId",
          "type": "uint256"
        },
        {
          "indexed": false,
          "internalType": "address",
          "name": "seller",
          "type": "address"
        },
        {
          "indexed": false,
          "internalType": "address",
          "name": "buyer",
          "type": "address"
        },
        {
          "indexed": false,
          "internalType": "uint256",
          "name": "price",
          "type": "uint256"
        },
        {
          "indexed": false,
          "internalType": "uint256",
          "name": "nonce",
          "type": "uint256"
        }
      ],
      "name": "Buy",
      "type": "event"
    },
    {
      "anonymous": false,
      "inputs": [
        {
          "indexed": true,
          "internalType": "address",
          "name": "token",
          "type": "address"
        },
        {
          "indexed": true,
          "internalType": "uint256",
          "name": "tokenId",
          "type": "uint256"
        },
        {
          "indexed": false,
          "internalType": "address",
          "name": "owner",
          "type": "address"
        },
        {
          "indexed": false,
          "internalType": "uint256",
          "name": "nonce",
          "type": "uint256"
        }
      ],
      "name": "Cancel",
      "type": "event"
    },
    {
      "anonymous": false,
      "inputs": [
        {
          "indexed": true,
          "internalType": "address",
          "name": "previousOwner",
          "type": "address"
        },
        {
          "indexed": true,
          "internalType": "address",
          "name": "newOwner",
          "type": "address"
        }
      ],
      "name": "OwnershipTransferred",
      "type": "event"
    },
    {
      "constant": true,
      "inputs": [],
      "name": "buyerFee",
      "outputs": [
        {
          "internalType": "uint256",
          "name": "",
          "type": "uint256"
        }
      ],
      "payable": false,
      "stateMutability": "view",
      "type": "function"
    },
    {
      "constant": true,
      "inputs": [],
      "name": "isOwner",
      "outputs": [
        {
          "internalType": "bool",
          "name": "",
          "type": "bool"
        }
      ],
      "payable": false,
      "stateMutability": "view",
      "type": "function"
    },
    {
      "constant": true,
      "inputs": [],
      "name": "nonceHolder",
      "outputs": [
        {
          "internalType": "contract ERC721SaleNonceHolder",
          "name": "",
          "type": "address"
        }
      ],
      "payable": false,
      "stateMutability": "view",
      "type": "function"
    },
    {
      "constant": true,
      "inputs": [],
      "name": "owner",
      "outputs": [
        {
          "internalType": "address",
          "name": "",
          "type": "address"
        }
      ],
      "payable": false,
      "stateMutability": "view",
      "type": "function"
    },
    {
      "constant": false,
      "inputs": [],
      "name": "renounceOwnership",
      "outputs": [],
      "payable": false,
      "stateMutability": "nonpayable",
      "type": "function"
    },
    {
      "constant": false,
      "inputs": [
        {
          "internalType": "uint256",
          "name": "_buyerFee",
          "type": "uint256"
        }
      ],
      "name": "setBuyerFee",
      "outputs": [],
      "payable": false,
      "stateMutability": "nonpayable",
      "type": "function"
    },
    {
      "constant": false,
      "inputs": [
        {
          "internalType": "address payable",
          "name": "to",
          "type": "address"
        },
        {
          "internalType": "uint256",
          "name": "value",
          "type": "uint256"
        }
      ],
      "name": "transferEth",
      "outputs": [],
      "payable": false,
      "stateMutability": "nonpayable",
      "type": "function"
    },
    {
      "constant": false,
      "inputs": [
        {
          "internalType": "address",
          "name": "newOwner",
          "type": "address"
        }
      ],
      "name": "transferOwnership",
      "outputs": [],
      "payable": false,
      "stateMutability": "nonpayable",
      "type": "function"
    },
    {
      "constant": true,
      "inputs": [],
      "name": "transferProxy",
      "outputs": [
        {
          "internalType": "contract TransferProxy",
          "name": "",
          "type": "address"
        }
      ],
      "payable": false,
      "stateMutability": "view",
      "type": "function"
    },
    {
      "constant": false,
      "inputs": [
        {
          "internalType": "contract IERC721",
          "name": "token",
          "type": "address"
        },
        {
          "internalType": "uint256",
          "name": "tokenId",
          "type": "uint256"
        }
      ],
      "name": "cancel",
      "outputs": [],
      "payable": false,
      "stateMutability": "nonpayable",
      "type": "function"
    },
    {
      "constant": false,
      "inputs": [
        {
          "internalType": "contract IERC721",
          "name": "token",
          "type": "address"
        },
        {
          "internalType": "uint256",
          "name": "tokenId",
          "type": "uint256"
        },
        {
          "internalType": "uint256",
          "name": "price",
          "type": "uint256"
        },
        {
          "internalType": "uint256",
          "name": "sellerFee",
          "type": "uint256"
        },
        {
          "components": [
            {
              "internalType": "uint8",
              "name": "v",
              "type": "uint8"
            },
            {
              "internalType": "bytes32",
              "name": "r",
              "type": "bytes32"
            },
            {
              "internalType": "bytes32",
              "name": "s",
              "type": "bytes32"
            }
          ],
          "internalType": "struct AbstractSale.Sig",
          "name": "signature",
          "type": "tuple"
        }
      ],
      "name": "buy",
      "outputs": [],
      "payable": true,
      "stateMutability": "payable",
      "type": "function"
    },
    {
      "constant": false,
      "inputs": [
        {
          "internalType": "address",
          "name": "",
          "type": "address"
        },
        {
          "internalType": "address",
          "name": "",
          "type": "address"
        },
        {
          "internalType": "uint256",
          "name": "",
          "type": "uint256"
        },
        {
          "internalType": "bytes",
          "name": "",
          "type": "bytes"
        }
      ],
      "name": "onERC721Received",
      "outputs": [
        {
          "internalType": "bytes4",
          "name": "",
          "type": "bytes4"
        }
      ],
      "payable": false,
      "stateMutability": "nonpayable",
      "type": "function"
    }
  ],
  "bytecode": "0x608060405260006001553480156200001657600080fd5b5060405162002203380380620022038339810160408190526200003991620000e1565b60006200004e6001600160e01b03620000ca16565b600080546001600160a01b0319166001600160a01b0383169081178255604051929350917f8be0079c531659141344cd1fd0a4f28419497f9722a3daafe3b4186f6b6457e0908290a350600280546001600160a01b039384166001600160a01b0319918216179091556003805492909316911617905562000160565b3390565b8051620000db8162000146565b92915050565b60008060408385031215620000f557600080fd5b6000620001038585620000ce565b92505060206200011685828601620000ce565b9150509250929050565b6000620000db826200013a565b6000620000db8262000120565b6001600160a01b031690565b62000151816200012d565b81146200015d57600080fd5b50565b61209380620001706000396000f3fe6080604052600436106100a75760003560e01c80638f32d59b116100645780638f32d59b1461017457806398590ef914610196578063a4ddbaa6146101b6578063e9bb84c2146101c9578063f2fde38b146101e9578063fa7da19d14610209576100a7565b8063150b7a02146100ac57806341a259a6146100e25780635de6c42f146101045780636e667db314610126578063715018a61461013b5780638da5cb5b14610152575b600080fd5b3480156100b857600080fd5b506100cc6100c73660046119de565b610229565b6040516100d99190611e14565b60405180910390f35b3480156100ee57600080fd5b506100f761023a565b6040516100d99190611e22565b34801561011057600080fd5b50610119610249565b6040516100d99190611eff565b34801561013257600080fd5b506100f761024f565b34801561014757600080fd5b5061015061025e565b005b34801561015e57600080fd5b506101676102d5565b6040516100d99190611d8d565b34801561018057600080fd5b506101896102e4565b6040516100d99190611deb565b3480156101a257600080fd5b506101506101b1366004611adf565b610308565b6101506101c4366004611afe565b6104ea565b3480156101d557600080fd5b506101506101e43660046119a4565b6107cf565b3480156101f557600080fd5b50610150610204366004611968565b61082e565b34801561021557600080fd5b50610150610224366004611b73565b61085e565b630a85bd0160e11b5b949350505050565b6003546001600160a01b031681565b60015481565b6002546001600160a01b031681565b6102666102e4565b61028b5760405162461bcd60e51b815260040161028290611ecf565b60405180910390fd5b600080546040516001600160a01b03909116907f8be0079c531659141344cd1fd0a4f28419497f9722a3daafe3b4186f6b6457e0908390a3600080546001600160a01b0319169055565b6000546001600160a01b031690565b600080546001600160a01b03166102f9610887565b6001600160a01b031614905090565b6040516331a9108f60e11b81526000906001600160a01b03841690636352211e90610337908590600401611eff565b60206040518083038186803b15801561034f57600080fd5b505afa158015610363573d6000803e3d6000fd5b505050506040513d601f19601f820116820180604052506103879190810190611986565b90506001600160a01b03811633146103b15760405162461bcd60e51b815260040161028290611edf565b600354604051638953580360e01b81526000916001600160a01b0316906389535803906103e49087908790600401611e58565b60206040518083038186803b1580156103fc57600080fd5b505afa158015610410573d6000803e3d6000fd5b505050506040513d601f19601f820116820180604052506104349190810190611b91565b60035460405163e330a93560e01b815260019290920192506001600160a01b03169063e330a9359061046e90879087908690600401611e66565b600060405180830381600087803b15801561048857600080fd5b505af115801561049c573d6000803e3d6000fd5b5050505082846001600160a01b03167fb8b7c5e8b8890227e1f8844a1b6bf94a9061b5ff6f8c75ae7db63926b22be27a84846040516104dc929190611dd0565b60405180910390a350505050565b6040516331a9108f60e11b81526000906001600160a01b03871690636352211e90610519908890600401611eff565b60206040518083038186803b15801561053157600080fd5b505afa158015610545573d6000803e3d6000fd5b505050506040513d601f19601f820116820180604052506105699190810190611986565b600354604051638953580360e01b81529192506000916001600160a01b03909116906389535803906105a1908a908a90600401611e58565b60206040518083038186803b1580156105b957600080fd5b505afa1580156105cd573d6000803e3d6000fd5b505050506040513d601f19601f820116820180604052506105f19190810190611b91565b9050600061061c6127106106106001548961088b90919063ffffffff16565b9063ffffffff6108ce16565b9050808601341461063f5760405162461bcd60e51b815260040161028290611eef565b61066c84600001518560200151866040015161065e8c8c8c8c8a610910565b92919063ffffffff610a0616565b6001600160a01b0316836001600160a01b03161461069c5760405162461bcd60e51b815260040161028290611eaf565b600254604051637b84dc8360e11b81526001600160a01b039091169063f709b906906106d2908b90879033908d90600401611e30565b600060405180830381600087803b1580156106ec57600080fd5b505af1158015610700573d6000803e3d6000fd5b505050506107118888858989610ae3565b60035460405163e330a93560e01b81526001600160a01b039091169063e330a93590610748908b908b906001880190600401611e66565b600060405180830381600087803b15801561076257600080fd5b505af1158015610776573d6000803e3d6000fd5b5050505086886001600160a01b03167f7a212d757c7290587e1c8f7100a01a3d09466d58945058b6f22a179013475a9085338a876001016040516107bd9493929190611d9b565b60405180910390a35050505050505050565b6107d76102e4565b6107f35760405162461bcd60e51b815260040161028290611ecf565b6040516001600160a01b0383169082156108fc029083906000818181858888f19350505050158015610829573d6000803e3d6000fd5b505050565b6108366102e4565b6108525760405162461bcd60e51b815260040161028290611ecf565b61085b81610d98565b50565b6108666102e4565b6108825760405162461bcd60e51b815260040161028290611ecf565b600155565b3390565b60008261089a575060006108c8565b828202828482816108a757fe5b04146108c55760405162461bcd60e51b815260040161028290611ebf565b90505b92915050565b60006108c583836040518060400160405280601a81526020017f536166654d6174683a206469766973696f6e206279207a65726f000000000000815250610e19565b6060806109b0610928886001600160a01b0316610e52565b6040518060400160405280600b81526020016a017103a37b5b2b724b21d160ad1b81525061095589610fd0565b6040518060400160405280600981526020016801710383934b1b29d160bd1b8152506109808a610fd0565b60405180604001604052806009815260200168017103737b731b29d160bd1b8152506109ab8a610fd0565b611088565b905083156109fa576109f260405180604001604052806007815260200166017103332b29d160cd1b8152506109e486610fd0565b83919063ffffffff61132e16565b9150506109fd565b90505b95945050505050565b600060608590506060610a7f6040518060400160405280601a81526020017f19457468657265756d205369676e6564204d6573736167653a0a000000000000815250610a528451610fd0565b60408051600080825260208201818152828401828152606084019283526080840190945288939091611482565b90506001818051906020012087878760405160008152602001604052604051610aab9493929190611df9565b6020604051602081039080840390855afa158015610acd573d6000803e3d6000fd5b5050604051601f19015198975050505050505050565b6040516301ffc9a760e01b815282906001600160a01b038716906301ffc9a790610b1890632dde656160e21b90600401611e14565b60206040518083038186803b158015610b3057600080fd5b505afa158015610b44573d6000803e3d6000fd5b505050506040513d601f19601f82011682018060405250610b689190810190611ac1565b15610d2f5760405163b9c4d9fb60e01b815286906060906001600160a01b0383169063b9c4d9fb90610b9e908a90600401611eff565b60006040518083038186803b158015610bb657600080fd5b505afa158015610bca573d6000803e3d6000fd5b505050506040513d6000823e601f3d908101601f19168201604052610bf29190810190611a57565b90506060826001600160a01b0316630ebd4c7f896040518263ffffffff1660e01b8152600401610c229190611eff565b60006040518083038186803b158015610c3a57600080fd5b505afa158015610c4e573d6000803e3d6000fd5b505050506040513d6000823e601f3d908101601f19168201604052610c769190810190611a8c565b90508151815114610c8657600080fd5b60005b8151811015610d2a576000610cc0612710610610858581518110610ca957fe5b60200260200101518b61088b90919063ffffffff16565b9050838281518110610cce57fe5b60200260200101516001600160a01b03166108fc829081150290604051600060405180830381858888f19350505050158015610d0e573d6000803e3d6000fd5b50610d1f868263ffffffff61171916565b955050600101610c89565b505050505b6000610d47612710610610868663ffffffff61088b16565b90506001600160a01b0385166108fc610d66848463ffffffff61171916565b6040518115909202916000818181858888f19350505050158015610d8e573d6000803e3d6000fd5b5050505050505050565b6001600160a01b038116610dbe5760405162461bcd60e51b815260040161028290611e9f565b600080546040516001600160a01b03808516939216917f8be0079c531659141344cd1fd0a4f28419497f9722a3daafe3b4186f6b6457e091a3600080546001600160a01b0319166001600160a01b0392909216919091179055565b60008183610e3a5760405162461bcd60e51b81526004016102829190611e8e565b506000838581610e4657fe5b049150505b9392505050565b604080518082018252601081526f181899199a1a9b1b9c1cb0b131b232b360811b60208201528151602a80825260608281019094526001600160a01b03851692918491602082018180388339019050509050600360fc1b81600081518110610eb657fe5b60200101906001600160f81b031916908160001a905350600f60fb1b81600181518110610edf57fe5b60200101906001600160f81b031916908160001a90535060005b6014811015610fc5578260048583600c0160208110610f1457fe5b1a60f81b6001600160f81b031916901c60f81c60ff1681518110610f3457fe5b602001015160f81c60f81b828260020260020181518110610f5157fe5b60200101906001600160f81b031916908160001a905350828482600c0160208110610f7857fe5b825191901a600f16908110610f8957fe5b602001015160f81c60f81b828260020260030181518110610fa657fe5b60200101906001600160f81b031916908160001a905350600101610ef9565b50925050505b919050565b606081610ff557506040805180820190915260018152600360fc1b6020820152610fcb565b8160005b811561100d57600101600a82049150610ff9565b6060816040519080825280601f01601f19166020018201604052801561103a576020820181803883390190505b50905060001982015b8515610fc557600a860660300160f81b8282806001900393508151811061106657fe5b60200101906001600160f81b031916908160001a905350600a86049550611043565b60608082518451865188518a518c518e510101010101016040519080825280601f01601f1916602001820160405280156110c9576020820181803883390190505b5090506000805b8a51811015611121578a81815181106110e557fe5b602001015160f81c60f81b83838060010194508151811061110257fe5b60200101906001600160f81b031916908160001a9053506001016110d0565b5060005b89518110156111765789818151811061113a57fe5b602001015160f81c60f81b83838060010194508151811061115757fe5b60200101906001600160f81b031916908160001a905350600101611125565b5060005b88518110156111cb5788818151811061118f57fe5b602001015160f81c60f81b8383806001019450815181106111ac57fe5b60200101906001600160f81b031916908160001a90535060010161117a565b5060005b8751811015611220578781815181106111e457fe5b602001015160f81c60f81b83838060010194508151811061120157fe5b60200101906001600160f81b031916908160001a9053506001016111cf565b5060005b86518110156112755786818151811061123957fe5b602001015160f81c60f81b83838060010194508151811061125657fe5b60200101906001600160f81b031916908160001a905350600101611224565b5060005b85518110156112ca5785818151811061128e57fe5b602001015160f81c60f81b8383806001019450815181106112ab57fe5b60200101906001600160f81b031916908160001a905350600101611279565b5060005b845181101561131f578481815181106112e357fe5b602001015160f81c60f81b83838060010194508151811061130057fe5b60200101906001600160f81b031916908160001a9053506001016112ce565b50909998505050505050505050565b60608084905060608490506060849050606081518351855101016040519080825280601f01601f191660200182016040528015611372576020820181803883390190505b5090506000805b85518110156113ca5785818151811061138e57fe5b602001015160f81c60f81b8383806001019450815181106113ab57fe5b60200101906001600160f81b031916908160001a905350600101611379565b5060005b845181101561141f578481815181106113e357fe5b602001015160f81c60f81b83838060010194508151811061140057fe5b60200101906001600160f81b031916908160001a9053506001016113ce565b5060005b83518110156114745783818151811061143857fe5b602001015160f81c60f81b83838060010194508151811061145557fe5b60200101906001600160f81b031916908160001a905350600101611423565b509098975050505050505050565b60608082518451865188518a518c518e510101010101016040519080825280601f01601f1916602001820160405280156114c3576020820181803883390190505b5090506000805b8a5181101561151b578a81815181106114df57fe5b602001015160f81c60f81b8383806001019450815181106114fc57fe5b60200101906001600160f81b031916908160001a9053506001016114ca565b5060005b89518110156115705789818151811061153457fe5b602001015160f81c60f81b83838060010194508151811061155157fe5b60200101906001600160f81b031916908160001a90535060010161151f565b5060005b88518110156115c55788818151811061158957fe5b602001015160f81c60f81b8383806001019450815181106115a657fe5b60200101906001600160f81b031916908160001a905350600101611574565b5060005b875181101561161a578781815181106115de57fe5b602001015160f81c60f81b8383806001019450815181106115fb57fe5b60200101906001600160f81b031916908160001a9053506001016115c9565b5060005b865181101561166f5786818151811061163357fe5b602001015160f81c60f81b83838060010194508151811061165057fe5b60200101906001600160f81b031916908160001a90535060010161161e565b5060005b85518110156116c45785818151811061168857fe5b602001015160f81c60f81b8383806001019450815181106116a557fe5b60200101906001600160f81b031916908160001a905350600101611673565b5060005b845181101561131f578481815181106116dd57fe5b602001015160f81c60f81b8383806001019450815181106116fa57fe5b60200101906001600160f81b031916908160001a9053506001016116c8565b60006108c583836040518060400160405280601e81526020017f536166654d6174683a207375627472616374696f6e206f766572666c6f7700008152506000818484111561177a5760405162461bcd60e51b81526004016102829190611e8e565b505050900390565b80356108c881612018565b80516108c881612018565b600082601f8301126117a957600080fd5b81516117bc6117b782611f34565b611f0d565b915081818352602084019350602081019050838560208402820111156117e157600080fd5b60005b8381101561180d57816117f7888261178d565b84525060209283019291909101906001016117e4565b5050505092915050565b600082601f83011261182857600080fd5b81516118366117b782611f34565b9150818183526020840193506020810190508385602084028201111561185b57600080fd5b60005b8381101561180d57816118718882611952565b845250602092830192919091019060010161185e565b80516108c88161202c565b80356108c881612035565b600082601f8301126118ae57600080fd5b81356118bc6117b782611f55565b915080825260208301602083018583830111156118d857600080fd5b6118e3838284611fd2565b50505092915050565b80356108c88161203e565b60006060828403121561190957600080fd5b6119136060611f0d565b90506000611921848461195d565b825250602061193284848301611892565b602083015250604061194684828501611892565b60408301525092915050565b80516108c881612035565b80356108c881612047565b60006020828403121561197a57600080fd5b60006102328484611782565b60006020828403121561199857600080fd5b6000610232848461178d565b600080604083850312156119b757600080fd5b60006119c38585611782565b92505060206119d485828601611892565b9150509250929050565b600080600080608085870312156119f457600080fd5b6000611a008787611782565b9450506020611a1187828801611782565b9350506040611a2287828801611892565b925050606085013567ffffffffffffffff811115611a3f57600080fd5b611a4b8782880161189d565b91505092959194509250565b600060208284031215611a6957600080fd5b815167ffffffffffffffff811115611a8057600080fd5b61023284828501611798565b600060208284031215611a9e57600080fd5b815167ffffffffffffffff811115611ab557600080fd5b61023284828501611817565b600060208284031215611ad357600080fd5b60006102328484611887565b60008060408385031215611af257600080fd5b60006119c385856118ec565b600080600080600060e08688031215611b1657600080fd5b6000611b2288886118ec565b9550506020611b3388828901611892565b9450506040611b4488828901611892565b9350506060611b5588828901611892565b9250506080611b66888289016118f7565b9150509295509295909350565b600060208284031215611b8557600080fd5b60006102328484611892565b600060208284031215611ba357600080fd5b60006102328484611952565b611bb881611fc7565b82525050565b611bb881611f8a565b611bb881611f95565b611bb881611f9a565b611bb881611f9d565b611bb881611faa565b6000611bf682611f7d565b611c008185611f81565b9350611c10818560208601611fde565b611c198161200e565b9093019392505050565b6000611c30602683611f81565b7f4f776e61626c653a206e6577206f776e657220697320746865207a65726f206181526564647265737360d01b602082015260400192915050565b6000611c78602183611f81565b7f6f776e65722073686f756c64207369676e20636f7272656374206d65737361678152606560f81b602082015260400192915050565b6000611cbb602183611f81565b7f536166654d6174683a206d756c7469706c69636174696f6e206f766572666c6f8152607760f81b602082015260400192915050565b6000611cfe602083611f81565b7f4f776e61626c653a2063616c6c6572206973206e6f7420746865206f776e6572815260200192915050565b6000611d37600c83611f81565b6b3737ba1030b71037bbb732b960a11b815260200192915050565b6000611d5f601683611f81565b751b5cd9cb9d985b1d59481a5cc81a5b98dbdc9c9958dd60521b815260200192915050565b611bb881611fc1565b602081016108c88284611bbe565b60808101611da98287611baf565b611db66020830186611baf565b611dc36040830185611bd0565b6109fd6060830184611bd0565b60408101611dde8285611bbe565b610e4b6020830184611bd0565b602081016108c88284611bc7565b60808101611e078287611bd0565b611db66020830186611d84565b602081016108c88284611bd9565b602081016108c88284611be2565b60808101611e3e8287611be2565b611e4b6020830186611baf565b611dc36040830185611baf565b60408101611dde8285611be2565b60608101611e748286611be2565b611e816020830185611bd0565b6102326040830184611bd0565b602080825281016108c58184611beb565b602080825281016108c881611c23565b602080825281016108c881611c6b565b602080825281016108c881611cae565b602080825281016108c881611cf1565b602080825281016108c881611d2a565b602080825281016108c881611d52565b602081016108c88284611bd0565b60405181810167ffffffffffffffff81118282101715611f2c57600080fd5b604052919050565b600067ffffffffffffffff821115611f4b57600080fd5b5060209081020190565b600067ffffffffffffffff821115611f6c57600080fd5b506020601f91909101601f19160190565b5190565b90815260200190565b60006108c882611fb5565b151590565b90565b6001600160e01b03191690565b60006108c882611f8a565b6001600160a01b031690565b60ff1690565b60006108c882611faa565b82818337506000910152565b60005b83811015611ff9578181015183820152602001611fe1565b83811115612008576000848401525b50505050565b601f01601f191690565b61202181611f8a565b811461085b57600080fd5b61202181611f95565b61202181611f9a565b61202181611faa565b61202181611fc156fea365627a7a723158205fe9b27972ba5dcfc178fbdf5e7c902c6b116ee1b94de78236b3724631d489246c6578706572696d656e74616cf564736f6c63430005110040",
  "source": "pragma solidity ^0.5.0;\npragma experimental ABIEncoderV2;\n\nimport \"openzeppelin-solidity/contracts/token/ERC721/IERC721.sol\";\nimport \"openzeppelin-solidity/contracts/token/ERC721/IERC721Receiver.sol\";\nimport \"./MintableToken.sol\";\nimport \"./utils/AddressLibrary.sol\";\nimport \"./utils/UintLibrary.sol\";\nimport \"./AbstractSale.sol\";\nimport \"./TransferProxy.sol\";\nimport \"./IERC721Sale.sol\";\nimport \"./ERC721SaleNonceHolder.sol\";\n\ncontract ERC721Sale is Ownable, IERC721Receiver, AbstractSale {\n    using AddressLibrary for address;\n    using UintLibrary for uint256;\n    using StringLibrary for string;\n    using SafeMath for uint256;\n\n    event Cancel(address indexed token, uint256 indexed tokenId, address owner, uint256 nonce);\n    event Buy(address indexed token, uint256 indexed tokenId, address seller, address buyer, uint256 price, uint256 nonce);\n\n    bytes4 private constant _INTERFACE_ID_FEES = 0xb7799584;\n\n    TransferProxy public transferProxy;\n    ERC721SaleNonceHolder public nonceHolder;\n\n    constructor(TransferProxy _transferProxy, ERC721SaleNonceHolder _nonceHolder) public {\n        transferProxy = _transferProxy;\n        nonceHolder = _nonceHolder;\n    }\n\n    function cancel(IERC721 token, uint256 tokenId) public {\n        address owner = token.ownerOf(tokenId);\n        require(owner == msg.sender, \"not an owner\");\n        uint256 nonce = nonceHolder.getNonce(token, tokenId) + 1;\n        nonceHolder.setNonce(token, tokenId, nonce);\n        emit Cancel(address(token), tokenId, owner, nonce);\n    }\n\n    function buy(IERC721 token, uint256 tokenId, uint256 price, uint256 sellerFee, Sig memory signature) public payable {\n        address payable owner = address(uint160(token.ownerOf(tokenId)));\n        uint256 nonce = nonceHolder.getNonce(token, tokenId);\n        uint256 buyerFeeValue = price.mul(buyerFee).div(10000);\n        require(msg.value == price + buyerFeeValue, \"msg.value is incorrect\");\n        require(owner == prepareMessage(address(token), tokenId, price, sellerFee, nonce).recover(signature.v, signature.r, signature.s), \"owner should sign correct message\");\n        transferProxy.erc721safeTransferFrom(token, owner, msg.sender, tokenId);\n        transferEther(token, tokenId, owner, price, sellerFee);\n        nonceHolder.setNonce(token, tokenId, nonce + 1);\n        emit Buy(address(token), tokenId, owner, msg.sender, price, nonce + 1);\n    }\n\n    function transferEther(IERC721 token, uint256 tokenId, address payable owner, uint256 price, uint256 sellerFee) internal {\n        uint256 value = price;\n        if (token.supportsInterface(_INTERFACE_ID_FEES)) {\n            HasSecondarySaleFees withFees = HasSecondarySaleFees(address(token));\n            address payable[] memory recipients = withFees.getFeeRecipients(tokenId);\n            uint[] memory fees = withFees.getFeeBps(tokenId);\n            require(fees.length == recipients.length);\n            for (uint256 i = 0; i < fees.length; i++) {\n                uint current = price.mul(fees[i]).div(10000);\n                recipients[i].transfer(current);\n                value = value.sub(current);\n            }\n        }\n        uint sellerFeeValue = price.mul(sellerFee).div(10000);\n        owner.transfer(value.sub(sellerFeeValue));\n    }\n\n    function onERC721Received(address, address, uint256, bytes memory) public returns (bytes4) {\n        return this.onERC721Received.selector;\n    }\n}\n",
  "sourcePath": "/home/quadro/Projects/tokenplace/tokenplace-contracts/contracts/ERC721Sale.sol",
  "compiler": {
    "name": "solc",
    "version": "0.5.17+commit.d19bba13.Emscripten.clang"
  },
  "schemaVersion": "3.2.3",
  "updatedAt": "2020-08-21T12:36:38.449Z",
  "devdoc": {
    "methods": {
      "isOwner()": {
        "details": "Returns true if the caller is the current owner."
      },
      "owner()": {
        "details": "Returns the address of the current owner."
      },
      "renounceOwnership()": {
        "details": "Leaves the contract without owner. It will not be possible to call `onlyOwner` functions anymore. Can only be called by the current owner.     * NOTE: Renouncing ownership will leave the contract without an owner, thereby removing any functionality that is only available to the owner."
      },
      "transferOwnership(address)": {
        "details": "Transfers ownership of the contract to a new account (`newOwner`). Can only be called by the current owner."
      }
    }
  },
  "userdoc": {
    "methods": {}
  }
}