{
  "contractName": "TokenSale",
  "abi": [
    {
      "anonymous": false,
      "inputs": [
        {
          "indexed": true,
          "internalType": "address",
          "name": "token",
          "type": "address"
        },
        {
          "indexed": true,
          "internalType": "uint256",
          "name": "tokenId",
          "type": "uint256"
        },
        {
          "indexed": false,
          "internalType": "address",
          "name": "seller",
          "type": "address"
        },
        {
          "indexed": false,
          "internalType": "address",
          "name": "buyer",
          "type": "address"
        },
        {
          "indexed": false,
          "internalType": "uint256",
          "name": "price",
          "type": "uint256"
        },
        {
          "indexed": false,
          "internalType": "uint256",
          "name": "nonce",
          "type": "uint256"
        }
      ],
      "name": "Buy",
      "type": "event"
    },
    {
      "anonymous": false,
      "inputs": [
        {
          "indexed": true,
          "internalType": "address",
          "name": "token",
          "type": "address"
        },
        {
          "indexed": true,
          "internalType": "uint256",
          "name": "tokenId",
          "type": "uint256"
        },
        {
          "indexed": false,
          "internalType": "address",
          "name": "owner",
          "type": "address"
        },
        {
          "indexed": false,
          "internalType": "uint256",
          "name": "nonce",
          "type": "uint256"
        }
      ],
      "name": "Cancel",
      "type": "event"
    },
    {
      "constant": true,
      "inputs": [
        {
          "internalType": "bytes32",
          "name": "",
          "type": "bytes32"
        }
      ],
      "name": "nonces",
      "outputs": [
        {
          "internalType": "uint256",
          "name": "",
          "type": "uint256"
        }
      ],
      "payable": false,
      "stateMutability": "view",
      "type": "function"
    },
    {
      "constant": false,
      "inputs": [
        {
          "internalType": "contract IERC721",
          "name": "token",
          "type": "address"
        },
        {
          "internalType": "uint256",
          "name": "tokenId",
          "type": "uint256"
        }
      ],
      "name": "cancel",
      "outputs": [],
      "payable": false,
      "stateMutability": "nonpayable",
      "type": "function"
    },
    {
      "constant": false,
      "inputs": [
        {
          "internalType": "contract IERC721",
          "name": "token",
          "type": "address"
        },
        {
          "internalType": "uint256",
          "name": "tokenId",
          "type": "uint256"
        },
        {
          "internalType": "uint8",
          "name": "v",
          "type": "uint8"
        },
        {
          "internalType": "bytes32",
          "name": "r",
          "type": "bytes32"
        },
        {
          "internalType": "bytes32",
          "name": "s",
          "type": "bytes32"
        }
      ],
      "name": "buy",
      "outputs": [],
      "payable": true,
      "stateMutability": "payable",
      "type": "function"
    },
    {
      "constant": true,
      "inputs": [
        {
          "internalType": "contract IERC721",
          "name": "token",
          "type": "address"
        },
        {
          "internalType": "uint256",
          "name": "tokenId",
          "type": "uint256"
        }
      ],
      "name": "getNonce",
      "outputs": [
        {
          "internalType": "uint256",
          "name": "",
          "type": "uint256"
        }
      ],
      "payable": false,
      "stateMutability": "view",
      "type": "function"
    },
    {
      "constant": true,
      "inputs": [
        {
          "internalType": "contract IERC721",
          "name": "token",
          "type": "address"
        },
        {
          "internalType": "uint256",
          "name": "tokenId",
          "type": "uint256"
        }
      ],
      "name": "getPositionKey",
      "outputs": [
        {
          "internalType": "bytes32",
          "name": "",
          "type": "bytes32"
        }
      ],
      "payable": false,
      "stateMutability": "pure",
      "type": "function"
    },
    {
      "constant": false,
      "inputs": [
        {
          "internalType": "address",
          "name": "",
          "type": "address"
        },
        {
          "internalType": "address",
          "name": "",
          "type": "address"
        },
        {
          "internalType": "uint256",
          "name": "",
          "type": "uint256"
        },
        {
          "internalType": "bytes",
          "name": "",
          "type": "bytes"
        }
      ],
      "name": "onERC721Received",
      "outputs": [
        {
          "internalType": "bytes4",
          "name": "",
          "type": "bytes4"
        }
      ],
      "payable": false,
      "stateMutability": "nonpayable",
      "type": "function"
    }
  ],
  "bytecode": "0x608060405234801561001057600080fd5b5061128c806100206000396000f3fe6080604052600436106100555760003560e01c8063150b7a021461005a57806339b4d0b81461014a578063895358031461018d57806398590ef9146101d85780639e317f1214610211578063dd68c1e21461023b575b600080fd5b34801561006657600080fd5b5061012d6004803603608081101561007d57600080fd5b6001600160a01b038235811692602081013590911691604082013591908101906080810160608201356401000000008111156100b857600080fd5b8201836020820111156100ca57600080fd5b803590602001918460018302840111640100000000831117156100ec57600080fd5b91908080601f016020809104026020016040519081016040528093929190818152602001838380828437600092019190915250929550610274945050505050565b604080516001600160e01b03199092168252519081900360200190f35b61018b600480360360a081101561016057600080fd5b506001600160a01b038135169060208101359060ff6040820135169060608101359060800135610284565b005b34801561019957600080fd5b506101c6600480360360408110156101b057600080fd5b506001600160a01b038135169060200135610470565b60408051918252519081900360200190f35b3480156101e457600080fd5b5061018b600480360360408110156101fb57600080fd5b506001600160a01b038135169060200135610497565b34801561021d57600080fd5b506101c66004803603602081101561023457600080fd5b50356105cd565b34801561024757600080fd5b506101c66004803603604081101561025e57600080fd5b506001600160a01b0381351690602001356105df565b630a85bd0160e11b949350505050565b6000856001600160a01b0316636352211e866040518263ffffffff1660e01b81526004018082815260200191505060206040518083038186803b1580156102ca57600080fd5b505afa1580156102de573d6000803e3d6000fd5b505050506040513d60208110156102f457600080fd5b50519050600061030487876105df565b9050606061032688883460008087815260200190815260200160002054610623565b9050610334818787876106c2565b6001600160a01b0316836001600160a01b0316146103835760405162461bcd60e51b81526004018080602001828103825260218152602001806112166021913960400191505060405180910390fd5b60008281526020819052604080822080546001019081905581516323b872dd60e01b81526001600160a01b038781166004830152336024830152604482018c905292519193928c16926323b872dd9260648084019382900301818387803b1580156103ed57600080fd5b505af1158015610401573d6000803e3d6000fd5b505050506104108989866107b1565b604080516001600160a01b03868116825233602083015234828401526060820184905291518a928c16917f7a212d757c7290587e1c8f7100a01a3d09466d58945058b6f22a179013475a90919081900360800190a3505050505050505050565b600080600061047f85856105df565b81526020019081526020016000205490505b92915050565b6000826001600160a01b0316636352211e836040518263ffffffff1660e01b81526004018082815260200191505060206040518083038186803b1580156104dd57600080fd5b505afa1580156104f1573d6000803e3d6000fd5b505050506040513d602081101561050757600080fd5b505190506001600160a01b0381163314610557576040805162461bcd60e51b815260206004820152600c60248201526b3737ba1030b71037bbb732b960a11b604482015290519081900360640190fd5b600061056384846105df565b6000818152602081815260409182902080546001019081905582516001600160a01b038781168252928101829052835194955090938793928916927fb8b7c5e8b8890227e1f8844a1b6bf94a9061b5ff6f8c75ae7db63926b22be27a928290030190a35050505050565b60006020819052908152604090205481565b6040805160609390931b6bffffffffffffffffffffffff19166020808501919091526034808501939093528151808503909301835260549093019052805191012090565b60606106b961063186610b59565b6040518060400160405280600b81526020016a017103a37b5b2b724b21d160ad1b81525061065e87610cd7565b6040518060400160405280600981526020016801710383934b1b29d160bd1b81525061068988610cd7565b60405180604001604052806009815260200168017103737b731b29d160bd1b8152506106b489610cd7565b610d8f565b95945050505050565b600060606107366040518060400160405280601a81526020017f19457468657265756d205369676e6564204d6573736167653a0a0000000000008152506107098851610cd7565b6040805160008082526020820181815282840182815260608401928352608084019094528c939091610d8f565b90506001818051906020012086868660405160008152602001604052604051808581526020018460ff1660ff1681526020018381526020018281526020019450505050506020604051602081039080840390855afa15801561079c573d6000803e3d6000fd5b5050604051601f190151979650505050505050565b604080516301ffc9a760e01b8152632dde656160e21b6004820152905134916001600160a01b038616916301ffc9a791602480820192602092909190829003018186803b15801561080157600080fd5b505afa158015610815573d6000803e3d6000fd5b505050506040513d602081101561082b57600080fd5b505115610b1c5760008490506060816001600160a01b031663b9c4d9fb866040518263ffffffff1660e01b81526004018082815260200191505060006040518083038186803b15801561087d57600080fd5b505afa158015610891573d6000803e3d6000fd5b505050506040513d6000823e601f3d908101601f1916820160405260208110156108ba57600080fd5b81019080805160405193929190846401000000008211156108da57600080fd5b9083019060208201858111156108ef57600080fd5b825186602082028301116401000000008211171561090c57600080fd5b82525081516020918201928201910280838360005b83811015610939578181015183820152602001610921565b5050505090500160405250505090506060826001600160a01b0316630ebd4c7f876040518263ffffffff1660e01b81526004018082815260200191505060006040518083038186803b15801561098e57600080fd5b505afa1580156109a2573d6000803e3d6000fd5b505050506040513d6000823e601f3d908101601f1916820160405260208110156109cb57600080fd5b81019080805160405193929190846401000000008211156109eb57600080fd5b908301906020820185811115610a0057600080fd5b8251866020820283011164010000000082111715610a1d57600080fd5b82525081516020918201928201910280838360005b83811015610a4a578181015183820152602001610a32565b5050505090500160405250505090508151815114610a6757600080fd5b60005b8151811015610b17576000610aad612710610aa1858581518110610a8a57fe5b60200260200101513461103590919063ffffffff16565b9063ffffffff61109516565b9050838281518110610abb57fe5b60200260200101516001600160a01b03166108fc829081150290604051600060405180830381858888f19350505050158015610afb573d6000803e3d6000fd5b50610b0c868263ffffffff6110d716565b955050600101610a6a565b505050505b6040516001600160a01b0383169082156108fc029083906000818181858888f19350505050158015610b52573d6000803e3d6000fd5b5050505050565b604080518082018252601081526f181899199a1a9b1b9c1cb0b131b232b360811b60208201528151602a80825260608281019094526001600160a01b03851692918491602082018180388339019050509050600360fc1b81600081518110610bbd57fe5b60200101906001600160f81b031916908160001a905350600f60fb1b81600181518110610be657fe5b60200101906001600160f81b031916908160001a90535060005b6014811015610ccc578260048583600c0160208110610c1b57fe5b1a60f81b6001600160f81b031916901c60f81c60ff1681518110610c3b57fe5b602001015160f81c60f81b828260020260020181518110610c5857fe5b60200101906001600160f81b031916908160001a905350828482600c0160208110610c7f57fe5b825191901a600f16908110610c9057fe5b602001015160f81c60f81b828260020260030181518110610cad57fe5b60200101906001600160f81b031916908160001a905350600101610c00565b50925050505b919050565b606081610cfc57506040805180820190915260018152600360fc1b6020820152610cd2565b8160005b8115610d1457600101600a82049150610d00565b6060816040519080825280601f01601f191660200182016040528015610d41576020820181803883390190505b50905060001982015b8515610ccc57600a860660300160f81b82828060019003935081518110610d6d57fe5b60200101906001600160f81b031916908160001a905350600a86049550610d4a565b60608082518451865188518a518c518e510101010101016040519080825280601f01601f191660200182016040528015610dd0576020820181803883390190505b5090506000805b8a51811015610e28578a8181518110610dec57fe5b602001015160f81c60f81b838380600101945081518110610e0957fe5b60200101906001600160f81b031916908160001a905350600101610dd7565b5060005b8951811015610e7d57898181518110610e4157fe5b602001015160f81c60f81b838380600101945081518110610e5e57fe5b60200101906001600160f81b031916908160001a905350600101610e2c565b5060005b8851811015610ed257888181518110610e9657fe5b602001015160f81c60f81b838380600101945081518110610eb357fe5b60200101906001600160f81b031916908160001a905350600101610e81565b5060005b8751811015610f2757878181518110610eeb57fe5b602001015160f81c60f81b838380600101945081518110610f0857fe5b60200101906001600160f81b031916908160001a905350600101610ed6565b5060005b8651811015610f7c57868181518110610f4057fe5b602001015160f81c60f81b838380600101945081518110610f5d57fe5b60200101906001600160f81b031916908160001a905350600101610f2b565b5060005b8551811015610fd157858181518110610f9557fe5b602001015160f81c60f81b838380600101945081518110610fb257fe5b60200101906001600160f81b031916908160001a905350600101610f80565b5060005b845181101561102657848181518110610fea57fe5b602001015160f81c60f81b83838060010194508151811061100757fe5b60200101906001600160f81b031916908160001a905350600101610fd5565b50909998505050505050505050565b60008261104457506000610491565b8282028284828161105157fe5b041461108e5760405162461bcd60e51b81526004018080602001828103825260218152602001806112376021913960400191505060405180910390fd5b9392505050565b600061108e83836040518060400160405280601a81526020017f536166654d6174683a206469766973696f6e206279207a65726f000000000000815250611119565b600061108e83836040518060400160405280601e81526020017f536166654d6174683a207375627472616374696f6e206f766572666c6f7700008152506111bb565b600081836111a55760405162461bcd60e51b81526004018080602001828103825283818151815260200191508051906020019080838360005b8381101561116a578181015183820152602001611152565b50505050905090810190601f1680156111975780820380516001836020036101000a031916815260200191505b509250505060405180910390fd5b5060008385816111b157fe5b0495945050505050565b6000818484111561120d5760405162461bcd60e51b815260206004820181815283516024840152835190928392604490910191908501908083836000831561116a578181015183820152602001611152565b50505090039056fe6f776e65722073686f756c64207369676e20636f7272656374206d657373616765536166654d6174683a206d756c7469706c69636174696f6e206f766572666c6f77a265627a7a7231582034edb2871f7b4c213ad3f206aacb8826ef03917180a06a42830653903dbd719a64736f6c63430005100032",
  "source": "pragma solidity ^0.5.0;\n\nimport \"openzeppelin-solidity/contracts/token/ERC721/IERC721.sol\";\nimport \"openzeppelin-solidity/contracts/token/ERC721/IERC721Receiver.sol\";\nimport \"../HasSecondarySaleFees.sol\";\nimport \"openzeppelin-solidity/contracts/math/SafeMath.sol\";\n\ncontract TokenSale is IERC721Receiver {\n    using SafeMath for uint256;\n\n    bytes4 private constant _INTERFACE_ID_FEES = 0xb7799584;\n\n    mapping(bytes32 => uint256) public nonces;\n\n    event Cancel(address indexed token, uint256 indexed tokenId, address owner, uint256 nonce);\n    event Buy(address indexed token, uint256 indexed tokenId, address seller, address buyer, uint256 price, uint256 nonce);\n\n    function cancel(IERC721 token, uint256 tokenId) public {\n        address owner = token.ownerOf(tokenId);\n        require(owner == msg.sender, \"not an owner\");\n        bytes32 key = getPositionKey(token, tokenId);\n        uint256 nonce = nonces[key] + 1;\n        nonces[key] = nonce;\n        emit Cancel(address(token), tokenId, owner, nonce);\n    }\n\n    function buy(IERC721 token, uint256 tokenId, uint8 v, bytes32 r, bytes32 s) public payable {\n        address payable owner = address(uint160(token.ownerOf(tokenId)));\n        bytes32 key = getPositionKey(token, tokenId);\n        bytes memory message = prepare(address(token), tokenId, msg.value, nonces[key]);\n        require(owner == testRecovery(message, v, r, s), \"owner should sign correct message\");\n        uint256 nonce = nonces[key] + 1;\n        nonces[key] = nonce;\n        token.transferFrom(owner, msg.sender, tokenId);\n        transferEther(token, tokenId, owner);\n        emit Buy(address(token), tokenId, owner, msg.sender, msg.value, nonce);\n    }\n\n    function transferEther(IERC721 token, uint256 tokenId, address payable owner) internal {\n        uint256 value = msg.value;\n        if (token.supportsInterface(_INTERFACE_ID_FEES)) {\n            HasSecondarySaleFees withFees = HasSecondarySaleFees(address(token));\n            address payable[] memory recipients = withFees.getFeeRecipients(tokenId);\n            uint[] memory fees = withFees.getFeeBps(tokenId);\n            require(fees.length == recipients.length);\n            for (uint256 i = 0; i < fees.length; i++) {\n                uint current = msg.value.mul(fees[i]).div(10000);\n                recipients[i].transfer(current);\n                value = value.sub(current);\n            }\n        }\n        owner.transfer(value);\n    }\n\n    function testRecovery(bytes memory message, uint8 v, bytes32 r, bytes32 s) private pure returns (address) {\n        bytes memory fullMessage = strConcat(\n            bytes(\"\\x19Ethereum Signed Message:\\n\"),\n            toAsciiBytes(message.length),\n            message,\n            new bytes(0), new bytes(0), new bytes(0), new bytes(0)\n        );\n        return ecrecover(keccak256(fullMessage), v, r, s);\n    }\n\n    function prepare(address token, uint256 tokenId, uint256 price, uint256 nonce) private pure returns (bytes memory) {\n        return strConcat(\n            toAsciiBytes(token),\n            bytes(\". tokenId: \"),\n            toAsciiBytes(tokenId),\n            bytes(\". price: \"),\n            toAsciiBytes(price),\n            bytes(\". nonce: \"),\n            toAsciiBytes(nonce)\n        );\n    }\n\n    function strConcat(bytes memory _ba, bytes memory _bb, bytes memory _bc, bytes memory _bd, bytes memory _be, bytes memory _bf, bytes memory _bg) internal pure returns (bytes memory) {\n        bytes memory resultBytes = new bytes(_ba.length + _bb.length + _bc.length + _bd.length + _be.length + _bf.length + _bg.length);\n        uint k = 0;\n        for (uint i = 0; i < _ba.length; i++) resultBytes[k++] = _ba[i];\n        for (uint i = 0; i < _bb.length; i++) resultBytes[k++] = _bb[i];\n        for (uint i = 0; i < _bc.length; i++) resultBytes[k++] = _bc[i];\n        for (uint i = 0; i < _bd.length; i++) resultBytes[k++] = _bd[i];\n        for (uint i = 0; i < _be.length; i++) resultBytes[k++] = _be[i];\n        for (uint i = 0; i < _bf.length; i++) resultBytes[k++] = _bf[i];\n        for (uint i = 0; i < _bg.length; i++) resultBytes[k++] = _bg[i];\n        return resultBytes;\n    }\n\n    function toAsciiBytes(uint _i) internal pure returns (bytes memory) {\n        if (_i == 0) {\n            return \"0\";\n        }\n        uint j = _i;\n        uint len;\n        while (j != 0) {\n            len++;\n            j /= 10;\n        }\n        bytes memory bstr = new bytes(len);\n        uint k = len - 1;\n        while (_i != 0) {\n            bstr[k--] = byte(uint8(48 + _i % 10));\n            _i /= 10;\n        }\n        return bstr;\n    }\n\n    function toAsciiBytes(address _addr) internal pure returns(bytes memory) {\n        bytes32 value = bytes32(uint256(_addr));\n        bytes memory alphabet = \"0123456789abcdef\";\n        bytes memory str = new bytes(42);\n        str[0] = '0';\n        str[1] = 'x';\n        for (uint256 i = 0; i < 20; i++) {\n            str[2+i*2] = alphabet[uint8(value[i + 12] >> 4)];\n            str[3+i*2] = alphabet[uint8(value[i + 12] & 0x0f)];\n        }\n        return str;\n    }\n\n    function getNonce(IERC721 token, uint256 tokenId) view public returns (uint256) {\n        return nonces[getPositionKey(token, tokenId)];\n    }\n\n    function getPositionKey(IERC721 token, uint256 tokenId) pure public returns (bytes32) {\n        return keccak256(abi.encodePacked(token, tokenId));\n    }\n\n    function onERC721Received(address, address, uint256, bytes memory) public returns (bytes4) {\n        return this.onERC721Received.selector;\n    }\n}\n",
  "sourcePath": "/home/quadro/Projects/tokenplace/tokenplace-contracts/contracts/old/TokenSale.sol",
  "compiler": {
    "name": "solc",
    "version": "0.5.16+commit.9c3226ce.Emscripten.clang"
  },
  "schemaVersion": "3.0.6",
  "updatedAt": "2020-05-23T12:02:05.499Z",
  "devdoc": {
    "methods": {}
  },
  "userdoc": {
    "methods": {}
  }
}