{
  "contractName": "WyvernExchange",
  "abi": [
    {
      "constant": true,
      "inputs": [],
      "name": "name",
      "outputs": [
        {
          "name": "",
          "type": "string"
        }
      ],
      "payable": false,
      "stateMutability": "view",
      "type": "function"
    },
    {
      "constant": true,
      "inputs": [],
      "name": "tokenTransferProxy",
      "outputs": [
        {
          "name": "",
          "type": "address"
        }
      ],
      "payable": false,
      "stateMutability": "view",
      "type": "function"
    },
    {
      "constant": true,
      "inputs": [
        {
          "name": "target",
          "type": "address"
        },
        {
          "name": "calldata",
          "type": "bytes"
        },
        {
          "name": "extradata",
          "type": "bytes"
        }
      ],
      "name": "staticCall",
      "outputs": [
        {
          "name": "result",
          "type": "bool"
        }
      ],
      "payable": false,
      "stateMutability": "view",
      "type": "function"
    },
    {
      "constant": false,
      "inputs": [
        {
          "name": "newMinimumMakerProtocolFee",
          "type": "uint256"
        }
      ],
      "name": "changeMinimumMakerProtocolFee",
      "outputs": [],
      "payable": false,
      "stateMutability": "nonpayable",
      "type": "function"
    },
    {
      "constant": false,
      "inputs": [
        {
          "name": "newMinimumTakerProtocolFee",
          "type": "uint256"
        }
      ],
      "name": "changeMinimumTakerProtocolFee",
      "outputs": [],
      "payable": false,
      "stateMutability": "nonpayable",
      "type": "function"
    },
    {
      "constant": true,
      "inputs": [
        {
          "name": "array",
          "type": "bytes"
        },
        {
          "name": "desired",
          "type": "bytes"
        },
        {
          "name": "mask",
          "type": "bytes"
        }
      ],
      "name": "guardedArrayReplace",
      "outputs": [
        {
          "name": "",
          "type": "bytes"
        }
      ],
      "payable": false,
      "stateMutability": "pure",
      "type": "function"
    },
    {
      "constant": true,
      "inputs": [],
      "name": "minimumTakerProtocolFee",
      "outputs": [
        {
          "name": "",
          "type": "uint256"
        }
      ],
      "payable": false,
      "stateMutability": "view",
      "type": "function"
    },
    {
      "constant": true,
      "inputs": [],
      "name": "codename",
      "outputs": [
        {
          "name": "",
          "type": "string"
        }
      ],
      "payable": false,
      "stateMutability": "view",
      "type": "function"
    },
    {
      "constant": true,
      "inputs": [
        {
          "name": "addr",
          "type": "address"
        }
      ],
      "name": "testCopyAddress",
      "outputs": [
        {
          "name": "",
          "type": "bytes"
        }
      ],
      "payable": false,
      "stateMutability": "pure",
      "type": "function"
    },
    {
      "constant": true,
      "inputs": [
        {
          "name": "arrToCopy",
          "type": "bytes"
        }
      ],
      "name": "testCopy",
      "outputs": [
        {
          "name": "",
          "type": "bytes"
        }
      ],
      "payable": false,
      "stateMutability": "pure",
      "type": "function"
    },
    {
      "constant": true,
      "inputs": [
        {
          "name": "addrs",
          "type": "address[7]"
        },
        {
          "name": "uints",
          "type": "uint256[9]"
        },
        {
          "name": "feeMethod",
          "type": "uint8"
        },
        {
          "name": "side",
          "type": "uint8"
        },
        {
          "name": "saleKind",
          "type": "uint8"
        },
        {
          "name": "howToCall",
          "type": "uint8"
        },
        {
          "name": "calldata",
          "type": "bytes"
        },
        {
          "name": "replacementPattern",
          "type": "bytes"
        },
        {
          "name": "staticExtradata",
          "type": "bytes"
        }
      ],
      "name": "calculateCurrentPrice_",
      "outputs": [
        {
          "name": "",
          "type": "uint256"
        }
      ],
      "payable": false,
      "stateMutability": "view",
      "type": "function"
    },
    {
      "constant": false,
      "inputs": [
        {
          "name": "newProtocolFeeRecipient",
          "type": "address"
        }
      ],
      "name": "changeProtocolFeeRecipient",
      "outputs": [],
      "payable": false,
      "stateMutability": "nonpayable",
      "type": "function"
    },
    {
      "constant": true,
      "inputs": [],
      "name": "version",
      "outputs": [
        {
          "name": "",
          "type": "string"
        }
      ],
      "payable": false,
      "stateMutability": "view",
      "type": "function"
    },
    {
      "constant": true,
      "inputs": [
        {
          "name": "buyCalldata",
          "type": "bytes"
        },
        {
          "name": "buyReplacementPattern",
          "type": "bytes"
        },
        {
          "name": "sellCalldata",
          "type": "bytes"
        },
        {
          "name": "sellReplacementPattern",
          "type": "bytes"
        }
      ],
      "name": "orderCalldataCanMatch",
      "outputs": [
        {
          "name": "",
          "type": "bool"
        }
      ],
      "payable": false,
      "stateMutability": "pure",
      "type": "function"
    },
    {
      "constant": true,
      "inputs": [
        {
          "name": "addrs",
          "type": "address[7]"
        },
        {
          "name": "uints",
          "type": "uint256[9]"
        },
        {
          "name": "feeMethod",
          "type": "uint8"
        },
        {
          "name": "side",
          "type": "uint8"
        },
        {
          "name": "saleKind",
          "type": "uint8"
        },
        {
          "name": "howToCall",
          "type": "uint8"
        },
        {
          "name": "calldata",
          "type": "bytes"
        },
        {
          "name": "replacementPattern",
          "type": "bytes"
        },
        {
          "name": "staticExtradata",
          "type": "bytes"
        },
        {
          "name": "v",
          "type": "uint8"
        },
        {
          "name": "r",
          "type": "bytes32"
        },
        {
          "name": "s",
          "type": "bytes32"
        }
      ],
      "name": "validateOrder_",
      "outputs": [
        {
          "name": "",
          "type": "bool"
        }
      ],
      "payable": false,
      "stateMutability": "view",
      "type": "function"
    },
    {
      "constant": true,
      "inputs": [
        {
          "name": "side",
          "type": "uint8"
        },
        {
          "name": "saleKind",
          "type": "uint8"
        },
        {
          "name": "basePrice",
          "type": "uint256"
        },
        {
          "name": "extra",
          "type": "uint256"
        },
        {
          "name": "listingTime",
          "type": "uint256"
        },
        {
          "name": "expirationTime",
          "type": "uint256"
        }
      ],
      "name": "calculateFinalPrice",
      "outputs": [
        {
          "name": "",
          "type": "uint256"
        }
      ],
      "payable": false,
      "stateMutability": "view",
      "type": "function"
    },
    {
      "constant": true,
      "inputs": [],
      "name": "protocolFeeRecipient",
      "outputs": [
        {
          "name": "",
          "type": "address"
        }
      ],
      "payable": false,
      "stateMutability": "view",
      "type": "function"
    },
    {
      "constant": false,
      "inputs": [],
      "name": "renounceOwnership",
      "outputs": [],
      "payable": false,
      "stateMutability": "nonpayable",
      "type": "function"
    },
    {
      "constant": true,
      "inputs": [
        {
          "name": "addrs",
          "type": "address[7]"
        },
        {
          "name": "uints",
          "type": "uint256[9]"
        },
        {
          "name": "feeMethod",
          "type": "uint8"
        },
        {
          "name": "side",
          "type": "uint8"
        },
        {
          "name": "saleKind",
          "type": "uint8"
        },
        {
          "name": "howToCall",
          "type": "uint8"
        },
        {
          "name": "calldata",
          "type": "bytes"
        },
        {
          "name": "replacementPattern",
          "type": "bytes"
        },
        {
          "name": "staticExtradata",
          "type": "bytes"
        }
      ],
      "name": "hashOrder_",
      "outputs": [
        {
          "name": "",
          "type": "bytes32"
        }
      ],
      "payable": false,
      "stateMutability": "pure",
      "type": "function"
    },
    {
      "constant": true,
      "inputs": [
        {
          "name": "addrs",
          "type": "address[14]"
        },
        {
          "name": "uints",
          "type": "uint256[18]"
        },
        {
          "name": "feeMethodsSidesKindsHowToCalls",
          "type": "uint8[8]"
        },
        {
          "name": "calldataBuy",
          "type": "bytes"
        },
        {
          "name": "calldataSell",
          "type": "bytes"
        },
        {
          "name": "replacementPatternBuy",
          "type": "bytes"
        },
        {
          "name": "replacementPatternSell",
          "type": "bytes"
        },
        {
          "name": "staticExtradataBuy",
          "type": "bytes"
        },
        {
          "name": "staticExtradataSell",
          "type": "bytes"
        }
      ],
      "name": "ordersCanMatch_",
      "outputs": [
        {
          "name": "",
          "type": "bool"
        }
      ],
      "payable": false,
      "stateMutability": "view",
      "type": "function"
    },
    {
      "constant": false,
      "inputs": [
        {
          "name": "addrs",
          "type": "address[7]"
        },
        {
          "name": "uints",
          "type": "uint256[9]"
        },
        {
          "name": "feeMethod",
          "type": "uint8"
        },
        {
          "name": "side",
          "type": "uint8"
        },
        {
          "name": "saleKind",
          "type": "uint8"
        },
        {
          "name": "howToCall",
          "type": "uint8"
        },
        {
          "name": "calldata",
          "type": "bytes"
        },
        {
          "name": "replacementPattern",
          "type": "bytes"
        },
        {
          "name": "staticExtradata",
          "type": "bytes"
        },
        {
          "name": "orderbookInclusionDesired",
          "type": "bool"
        }
      ],
      "name": "approveOrder_",
      "outputs": [],
      "payable": false,
      "stateMutability": "nonpayable",
      "type": "function"
    },
    {
      "constant": true,
      "inputs": [],
      "name": "registry",
      "outputs": [
        {
          "name": "",
          "type": "address"
        }
      ],
      "payable": false,
      "stateMutability": "view",
      "type": "function"
    },
    {
      "constant": true,
      "inputs": [],
      "name": "minimumMakerProtocolFee",
      "outputs": [
        {
          "name": "",
          "type": "uint256"
        }
      ],
      "payable": false,
      "stateMutability": "view",
      "type": "function"
    },
    {
      "constant": true,
      "inputs": [
        {
          "name": "addrs",
          "type": "address[7]"
        },
        {
          "name": "uints",
          "type": "uint256[9]"
        },
        {
          "name": "feeMethod",
          "type": "uint8"
        },
        {
          "name": "side",
          "type": "uint8"
        },
        {
          "name": "saleKind",
          "type": "uint8"
        },
        {
          "name": "howToCall",
          "type": "uint8"
        },
        {
          "name": "calldata",
          "type": "bytes"
        },
        {
          "name": "replacementPattern",
          "type": "bytes"
        },
        {
          "name": "staticExtradata",
          "type": "bytes"
        }
      ],
      "name": "hashToSign_",
      "outputs": [
        {
          "name": "",
          "type": "bytes32"
        }
      ],
      "payable": false,
      "stateMutability": "pure",
      "type": "function"
    },
    {
      "constant": true,
      "inputs": [
        {
          "name": "",
          "type": "bytes32"
        }
      ],
      "name": "cancelledOrFinalized",
      "outputs": [
        {
          "name": "",
          "type": "bool"
        }
      ],
      "payable": false,
      "stateMutability": "view",
      "type": "function"
    },
    {
      "constant": true,
      "inputs": [],
      "name": "owner",
      "outputs": [
        {
          "name": "",
          "type": "address"
        }
      ],
      "payable": false,
      "stateMutability": "view",
      "type": "function"
    },
    {
      "constant": true,
      "inputs": [],
      "name": "exchangeToken",
      "outputs": [
        {
          "name": "",
          "type": "address"
        }
      ],
      "payable": false,
      "stateMutability": "view",
      "type": "function"
    },
    {
      "constant": false,
      "inputs": [
        {
          "name": "addrs",
          "type": "address[7]"
        },
        {
          "name": "uints",
          "type": "uint256[9]"
        },
        {
          "name": "feeMethod",
          "type": "uint8"
        },
        {
          "name": "side",
          "type": "uint8"
        },
        {
          "name": "saleKind",
          "type": "uint8"
        },
        {
          "name": "howToCall",
          "type": "uint8"
        },
        {
          "name": "calldata",
          "type": "bytes"
        },
        {
          "name": "replacementPattern",
          "type": "bytes"
        },
        {
          "name": "staticExtradata",
          "type": "bytes"
        },
        {
          "name": "v",
          "type": "uint8"
        },
        {
          "name": "r",
          "type": "bytes32"
        },
        {
          "name": "s",
          "type": "bytes32"
        }
      ],
      "name": "cancelOrder_",
      "outputs": [],
      "payable": false,
      "stateMutability": "nonpayable",
      "type": "function"
    },
    {
      "constant": false,
      "inputs": [
        {
          "name": "addrs",
          "type": "address[14]"
        },
        {
          "name": "uints",
          "type": "uint256[18]"
        },
        {
          "name": "feeMethodsSidesKindsHowToCalls",
          "type": "uint8[8]"
        },
        {
          "name": "calldataBuy",
          "type": "bytes"
        },
        {
          "name": "calldataSell",
          "type": "bytes"
        },
        {
          "name": "replacementPatternBuy",
          "type": "bytes"
        },
        {
          "name": "replacementPatternSell",
          "type": "bytes"
        },
        {
          "name": "staticExtradataBuy",
          "type": "bytes"
        },
        {
          "name": "staticExtradataSell",
          "type": "bytes"
        },
        {
          "name": "vs",
          "type": "uint8[2]"
        },
        {
          "name": "rssMetadata",
          "type": "bytes32[5]"
        }
      ],
      "name": "atomicMatch_",
      "outputs": [],
      "payable": true,
      "stateMutability": "payable",
      "type": "function"
    },
    {
      "constant": true,
      "inputs": [
        {
          "name": "addrs",
          "type": "address[7]"
        },
        {
          "name": "uints",
          "type": "uint256[9]"
        },
        {
          "name": "feeMethod",
          "type": "uint8"
        },
        {
          "name": "side",
          "type": "uint8"
        },
        {
          "name": "saleKind",
          "type": "uint8"
        },
        {
          "name": "howToCall",
          "type": "uint8"
        },
        {
          "name": "calldata",
          "type": "bytes"
        },
        {
          "name": "replacementPattern",
          "type": "bytes"
        },
        {
          "name": "staticExtradata",
          "type": "bytes"
        }
      ],
      "name": "validateOrderParameters_",
      "outputs": [
        {
          "name": "",
          "type": "bool"
        }
      ],
      "payable": false,
      "stateMutability": "view",
      "type": "function"
    },
    {
      "constant": true,
      "inputs": [],
      "name": "INVERSE_BASIS_POINT",
      "outputs": [
        {
          "name": "",
          "type": "uint256"
        }
      ],
      "payable": false,
      "stateMutability": "view",
      "type": "function"
    },
    {
      "constant": true,
      "inputs": [
        {
          "name": "addrs",
          "type": "address[14]"
        },
        {
          "name": "uints",
          "type": "uint256[18]"
        },
        {
          "name": "feeMethodsSidesKindsHowToCalls",
          "type": "uint8[8]"
        },
        {
          "name": "calldataBuy",
          "type": "bytes"
        },
        {
          "name": "calldataSell",
          "type": "bytes"
        },
        {
          "name": "replacementPatternBuy",
          "type": "bytes"
        },
        {
          "name": "replacementPatternSell",
          "type": "bytes"
        },
        {
          "name": "staticExtradataBuy",
          "type": "bytes"
        },
        {
          "name": "staticExtradataSell",
          "type": "bytes"
        }
      ],
      "name": "calculateMatchPrice_",
      "outputs": [
        {
          "name": "",
          "type": "uint256"
        }
      ],
      "payable": false,
      "stateMutability": "view",
      "type": "function"
    },
    {
      "constant": true,
      "inputs": [
        {
          "name": "",
          "type": "bytes32"
        }
      ],
      "name": "approvedOrders",
      "outputs": [
        {
          "name": "",
          "type": "bool"
        }
      ],
      "payable": false,
      "stateMutability": "view",
      "type": "function"
    },
    {
      "constant": false,
      "inputs": [
        {
          "name": "newOwner",
          "type": "address"
        }
      ],
      "name": "transferOwnership",
      "outputs": [],
      "payable": false,
      "stateMutability": "nonpayable",
      "type": "function"
    },
    {
      "inputs": [
        {
          "name": "registryAddress",
          "type": "address"
        },
        {
          "name": "tokenTransferProxyAddress",
          "type": "address"
        },
        {
          "name": "tokenAddress",
          "type": "address"
        },
        {
          "name": "protocolFeeAddress",
          "type": "address"
        }
      ],
      "payable": false,
      "stateMutability": "nonpayable",
      "type": "constructor"
    },
    {
      "anonymous": false,
      "inputs": [
        {
          "indexed": true,
          "name": "hash",
          "type": "bytes32"
        },
        {
          "indexed": false,
          "name": "exchange",
          "type": "address"
        },
        {
          "indexed": true,
          "name": "maker",
          "type": "address"
        },
        {
          "indexed": false,
          "name": "taker",
          "type": "address"
        },
        {
          "indexed": false,
          "name": "makerRelayerFee",
          "type": "uint256"
        },
        {
          "indexed": false,
          "name": "takerRelayerFee",
          "type": "uint256"
        },
        {
          "indexed": false,
          "name": "makerProtocolFee",
          "type": "uint256"
        },
        {
          "indexed": false,
          "name": "takerProtocolFee",
          "type": "uint256"
        },
        {
          "indexed": true,
          "name": "feeRecipient",
          "type": "address"
        },
        {
          "indexed": false,
          "name": "feeMethod",
          "type": "uint8"
        },
        {
          "indexed": false,
          "name": "side",
          "type": "uint8"
        },
        {
          "indexed": false,
          "name": "saleKind",
          "type": "uint8"
        },
        {
          "indexed": false,
          "name": "target",
          "type": "address"
        }
      ],
      "name": "OrderApprovedPartOne",
      "type": "event"
    },
    {
      "anonymous": false,
      "inputs": [
        {
          "indexed": true,
          "name": "hash",
          "type": "bytes32"
        },
        {
          "indexed": false,
          "name": "howToCall",
          "type": "uint8"
        },
        {
          "indexed": false,
          "name": "calldata",
          "type": "bytes"
        },
        {
          "indexed": false,
          "name": "replacementPattern",
          "type": "bytes"
        },
        {
          "indexed": false,
          "name": "staticTarget",
          "type": "address"
        },
        {
          "indexed": false,
          "name": "staticExtradata",
          "type": "bytes"
        },
        {
          "indexed": false,
          "name": "paymentToken",
          "type": "address"
        },
        {
          "indexed": false,
          "name": "basePrice",
          "type": "uint256"
        },
        {
          "indexed": false,
          "name": "extra",
          "type": "uint256"
        },
        {
          "indexed": false,
          "name": "listingTime",
          "type": "uint256"
        },
        {
          "indexed": false,
          "name": "expirationTime",
          "type": "uint256"
        },
        {
          "indexed": false,
          "name": "salt",
          "type": "uint256"
        },
        {
          "indexed": false,
          "name": "orderbookInclusionDesired",
          "type": "bool"
        }
      ],
      "name": "OrderApprovedPartTwo",
      "type": "event"
    },
    {
      "anonymous": false,
      "inputs": [
        {
          "indexed": true,
          "name": "hash",
          "type": "bytes32"
        }
      ],
      "name": "OrderCancelled",
      "type": "event"
    },
    {
      "anonymous": false,
      "inputs": [
        {
          "indexed": false,
          "name": "buyHash",
          "type": "bytes32"
        },
        {
          "indexed": false,
          "name": "sellHash",
          "type": "bytes32"
        },
        {
          "indexed": true,
          "name": "maker",
          "type": "address"
        },
        {
          "indexed": true,
          "name": "taker",
          "type": "address"
        },
        {
          "indexed": false,
          "name": "price",
          "type": "uint256"
        },
        {
          "indexed": true,
          "name": "metadata",
          "type": "bytes32"
        }
      ],
      "name": "OrdersMatched",
      "type": "event"
    },
    {
      "anonymous": false,
      "inputs": [
        {
          "indexed": true,
          "name": "previousOwner",
          "type": "address"
        }
      ],
      "name": "OwnershipRenounced",
      "type": "event"
    },
    {
      "anonymous": false,
      "inputs": [
        {
          "indexed": true,
          "name": "previousOwner",
          "type": "address"
        },
        {
          "indexed": true,
          "name": "newOwner",
          "type": "address"
        }
      ],
      "name": "OwnershipTransferred",
      "type": "event"
    }
  ],
  "bytecode": "0x60806040526000805460ff19168155600681905560075534801561002257600080fd5b5060405160808062005a4283398101604090815281516020830151918301516060909301516000805460028054600160a060020a03958616600160a060020a0319918216179091556003805496861696821696909617909555600180549685169686169690961790955560088054928416929094169190911790925533166101000261010060a860020a03199283168117909216909117905561597780620000cb6000396000f3006080604052600436106101925763ffffffff60e060020a60003504166306fdde0381146101975780630eefdbad1461022157806310796a471461025257806314350c241461030b5780631a6b13e214610325578063239e83df1461033d57806328a8ee681461041257806331e63199146104395780633464af6a1461044e5780633e1e292a1461046f5780633f67ee0d146104c8578063514f03301461060d57806354fd4d501461062e578063562b2ebc1461064357806360bef33a1461075657806363d36c0b146108aa57806364df049e146108d7578063715018a6146108ec57806371d02b381461090157806372593b4c14610a465780637966686814610c4d5780637b10399914610d965780637ccefc5214610dab5780637d76698114610dc05780638076f00514610f055780638da5cb5b14610f1d578063a25eb5d914610f32578063a8a41c7014610f47578063ab834bab1461109b578063ca595b9a146112de578063cae6047f14611423578063d537e13114611438578063e57d4adb1461163f578063f2fde38b14611657575b600080fd5b3480156101a357600080fd5b506101ac611678565b6040805160208082528351818301528351919283929083019185019080838360005b838110156101e65781810151838201526020016101ce565b50505050905090810190601f1680156102135780820380516001836020036101000a031916815260200191505b509250505060405180910390f35b34801561022d57600080fd5b506102366116af565b60408051600160a060020a039092168252519081900360200190f35b34801561025e57600080fd5b5060408051602060046024803582810135601f81018590048502860185019096528585526102f7958335600160a060020a031695369560449491939091019190819084018382808284375050604080516020601f89358b018035918201839004830284018301909452808352979a9998810197919650918201945092508291508401838280828437509497506116be9650505050505050565b604080519115158252519081900360200190f35b34801561031757600080fd5b5061032360043561172d565b005b34801561033157600080fd5b50610323600435611752565b34801561034957600080fd5b506040805160206004803580820135601f81018490048402850184019095528484526101ac94369492936024939284019190819084018382808284375050604080516020601f89358b018035918201839004830284018301909452808352979a99988101979196509182019450925082915084018382808284375050604080516020601f89358b018035918201839004830284018301909452808352979a9998810197919650918201945092508291508401838280828437509497506117779650505050505050565b34801561041e57600080fd5b5061042761178e565b60408051918252519081900360200190f35b34801561044557600080fd5b506101ac611794565b34801561045a57600080fd5b506101ac600160a060020a03600435166117cb565b34801561047b57600080fd5b506040805160206004803580820135601f81018490048402850184019095528484526101ac94369492936024939284019190819084018382808284375094975061180b9650505050505050565b3480156104d457600080fd5b506040805160e081810190925261042791369160049160e49190839060079083908390808284375050604080516101208181019092529497969581810195945092506009915083908390808284375050604080516020601f60808901358a0180359182018390048302840183018552818452979a60ff8a3581169b848c013582169b9687013582169a6060880135909216995091975090955060a090940193820191819084018382808284375050604080516020601f89358b018035918201839004830284018301909452808352979a99988101979196509182019450925082915084018382808284375050604080516020601f89358b018035918201839004830284018301909452808352979a9998810197919650918201945092508291508401838280828437509497506118519650505050505050565b34801561061957600080fd5b50610323600160a060020a036004351661199f565b34801561063a57600080fd5b506101ac6119ee565b34801561064f57600080fd5b506040805160206004803580820135601f81018490048402850184019095528484526102f794369492936024939284019190819084018382808284375050604080516020601f89358b018035918201839004830284018301909452808352979a99988101979196509182019450925082915084018382808284375050604080516020601f89358b018035918201839004830284018301909452808352979a99988101979196509182019450925082915084018382808284375050604080516020601f89358b018035918201839004830284018301909452808352979a999881019791965091820194509250829150840183828082843750949750611a259650505050505050565b34801561076257600080fd5b506040805160e08181019092526102f791369160049160e49190839060079083908390808284375050604080516101208181019092529497969581810195945092506009915083908390808284375050604080516020601f60808901358a0180359182018390048302840183018552818452979a60ff8a3581169b848c013582169b9687013582169a6060880135909216995091975090955060a090940193820191819084018382808284375050604080516020601f89358b018035918201839004830284018301909452808352979a99988101979196509182019450925082915084018382808284375050604080516020601f89358b018035918201839004830284018301909452808352979a9998810197919650918201945092508291508401838280828437509497505050833560ff1694505050602082013591604001359050611a63565b3480156108b657600080fd5b5061042760ff6004358116906024351660443560643560843560a435611c52565b3480156108e357600080fd5b50610236611c6d565b3480156108f857600080fd5b50610323611c7c565b34801561090d57600080fd5b506040805160e081810190925261042791369160049160e49190839060079083908390808284375050604080516101208181019092529497969581810195945092506009915083908390808284375050604080516020601f60808901358a0180359182018390048302840183018552818452979a60ff8a3581169b848c013582169b9687013582169a6060880135909216995091975090955060a090940193820191819084018382808284375050604080516020601f89358b018035918201839004830284018301909452808352979a99988101979196509182019450925082915084018382808284375050604080516020601f89358b018035918201839004830284018301909452808352979a999881019791965091820194509250829150840183828082843750949750611cf69650505050505050565b348015610a5257600080fd5b50604080516101c08181019092526102f79136916004916101c491908390600e9083908390808284375050604080516102408181019092529497969581810195945092506012915083908390808284375050604080516101008181019092529497969581810195945092506008915083908390808284375050604080516020601f88358a0180359182018390048302840183019094528083529699989781019691955091820193509150819084018382808284375050604080516020601f89358b018035918201839004830284018301909452808352979a99988101979196509182019450925082915084018382808284375050604080516020601f89358b018035918201839004830284018301909452808352979a99988101979196509182019450925082915084018382808284375050604080516020601f89358b018035918201839004830284018301909452808352979a99988101979196509182019450925082915084018382808284375050604080516020601f89358b018035918201839004830284018301909452808352979a99988101979196509182019450925082915084018382808284375050604080516020601f89358b018035918201839004830284018301909452808352979a999881019791965091820194509250829150840183828082843750949750611e369650505050505050565b348015610c5957600080fd5b506040805160e081810190925261032391369160049160e49190839060079083908390808284375050604080516101208181019092529497969581810195945092506009915083908390808284375050604080516020601f60808901358a0180359182018390048302840183018552818452979a60ff8a3581169b848c013582169b9687013582169a6060880135909216995091975090955060a090940193820191819084018382808284375050604080516020601f89358b018035918201839004830284018301909452808352979a99988101979196509182019450925082915084018382808284375050604080516020601f89358b018035918201839004830284018301909452808352979a999881019791965091820194509250829150840183828082843750949750505050913515159250612222915050565b348015610da257600080fd5b50610236612377565b348015610db757600080fd5b50610427612386565b348015610dcc57600080fd5b506040805160e081810190925261042791369160049160e49190839060079083908390808284375050604080516101208181019092529497969581810195945092506009915083908390808284375050604080516020601f60808901358a0180359182018390048302840183018552818452979a60ff8a3581169b848c013582169b9687013582169a6060880135909216995091975090955060a090940193820191819084018382808284375050604080516020601f89358b018035918201839004830284018301909452808352979a99988101979196509182019450925082915084018382808284375050604080516020601f89358b018035918201839004830284018301909452808352979a99988101979196509182019450925082915084018382808284375094975061238c9650505050505050565b348015610f1157600080fd5b506102f76004356124cc565b348015610f2957600080fd5b506102366124e1565b348015610f3e57600080fd5b506102366124f5565b348015610f5357600080fd5b506040805160e081810190925261032391369160049160e49190839060079083908390808284375050604080516101208181019092529497969581810195945092506009915083908390808284375050604080516020601f60808901358a0180359182018390048302840183018552818452979a60ff8a3581169b848c013582169b9687013582169a6060880135909216995091975090955060a090940193820191819084018382808284375050604080516020601f89358b018035918201839004830284018301909452808352979a99988101979196509182019450925082915084018382808284375050604080516020601f89358b018035918201839004830284018301909452808352979a9998810197919650918201945092508291508401838280828437509497505050833560ff1694505050602082013591604001359050612504565b604080516101c08181019092526103239136916004916101c491908390600e9083908390808284375050604080516102408181019092529497969581810195945092506012915083908390808284375050604080516101008181019092529497969581810195945092506008915083908390808284375050604080516020601f88358a0180359182018390048302840183019094528083529699989781019691955091820193509150819084018382808284375050604080516020601f89358b018035918201839004830284018301909452808352979a99988101979196509182019450925082915084018382808284375050604080516020601f89358b018035918201839004830284018301909452808352979a99988101979196509182019450925082915084018382808284375050604080516020601f89358b018035918201839004830284018301909452808352979a99988101979196509182019450925082915084018382808284375050604080516020601f89358b018035918201839004830284018301909452808352979a99988101979196509182019450925082915084018382808284375050604080516020601f89358b018035918201839004830284018301909452808352979a999881019791965091820194509250829150840183828082843750506040805180820182529598979681810196955093506002925084915083908082843750506040805160a0818101909252949796958181019594509250600591508390839080828437509396506126da95505050505050565b3480156112ea57600080fd5b506040805160e08181019092526102f791369160049160e49190839060079083908390808284375050604080516101208181019092529497969581810195945092506009915083908390808284375050604080516020601f60808901358a0180359182018390048302840183018552818452979a60ff8a3581169b848c013582169b9687013582169a6060880135909216995091975090955060a090940193820191819084018382808284375050604080516020601f89358b018035918201839004830284018301909452808352979a99988101979196509182019450925082915084018382808284375050604080516020601f89358b018035918201839004830284018301909452808352979a999881019791965091820194509250829150840183828082843750949750612af09650505050505050565b34801561142f57600080fd5b50610427612c48565b34801561144457600080fd5b50604080516101c08181019092526104279136916004916101c491908390600e9083908390808284375050604080516102408181019092529497969581810195945092506012915083908390808284375050604080516101008181019092529497969581810195945092506008915083908390808284375050604080516020601f88358a0180359182018390048302840183019094528083529699989781019691955091820193509150819084018382808284375050604080516020601f89358b018035918201839004830284018301909452808352979a99988101979196509182019450925082915084018382808284375050604080516020601f89358b018035918201839004830284018301909452808352979a99988101979196509182019450925082915084018382808284375050604080516020601f89358b018035918201839004830284018301909452808352979a99988101979196509182019450925082915084018382808284375050604080516020601f89358b018035918201839004830284018301909452808352979a99988101979196509182019450925082915084018382808284375050604080516020601f89358b018035918201839004830284018301909452808352979a999881019791965091820194509250829150840183828082843750949750612c4e9650505050505050565b34801561164b57600080fd5b506102f760043561302a565b34801561166357600080fd5b50610323600160a060020a036004351661303f565b60408051808201909152601781527f50726f6a6563742057797665726e2045786368616e6765000000000000000000602082015281565b600354600160a060020a031681565b60006060600083518551016040519080825280601f01601f1916602001820160405280156116f6578160200160208202803883390190505b509150506020810161170881856130e7565b905061171481866130e7565b506000604051835160208501895afa9695505050505050565b60005433600160a060020a03908116610100909204161461174d57600080fd5b600655565b60005433600160a060020a03908116610100909204161461177257600080fd5b600755565b606061178484848461312d565b50825b9392505050565b60075481565b60408051808201909152600c81527f4c616d62746f6e20576f726d0000000000000000000000000000000000000000602082015281565b60408051601480825281830190925260609182916000916020820161028080388339019050509150506020810161180281856132b4565b50909392505050565b606080600083516040519080825280601f01601f19166020018201604052801561183f578160200160208202803883390190505b509150506020810161180281856130e7565b604080516102e0810182528a51600160a060020a0390811682526020808d01518216818401528c8401518216838501528b51606080850191909152908c01516080840152928b015160a08301528a83015160c0830152918b015190911660e08201526000906119919061010081018a60018111156118cb57fe5b81526020018960018111156118dc57fe5b81526020018860018111156118ed57fe5b815260808d0151600160a060020a0316602082015260400187600181111561191157fe5b8152602081018790526040810186905260a0808e0151600160a060020a0316606083015260808201869052018c600660209081029190910151600160a060020a031682526080808e01519183019190915260a0808e0151604084015260c08e0151606084015260e08e0151918301919091526101008d01519101526132d4565b9a9950505050505050505050565b60005433600160a060020a0390811661010090920416146119bf57600080fd5b6008805473ffffffffffffffffffffffffffffffffffffffff1916600160a060020a0392909216919091179055565b60408051808201909152600381527f322e320000000000000000000000000000000000000000000000000000000000602082015281565b60008084511115611a3b57611a3b85848661312d565b600082511115611a5057611a5083868461312d565b611a5a858461330a565b95945050505050565b6000611a6d615887565b604080516102e08101909152808f600060209081029190910151600160a060020a03168252018f600160209081029190910151600160a060020a03168252018f600260209081029190910151600160a060020a03168252018e6000602090810291909101518252018e6001602090810291909101518252018e6002602090810291909101518252018e6003602090810291909101518252018f60036020020151600160a060020a031681526020018d6001811115611b2757fe5b81526020018c6001811115611b3857fe5b81526020018b6001811115611b4957fe5b81526020018f60046020020151600160a060020a031681526020018a6001811115611b7057fe5b8152602081018a9052604081018990526060018f60056020020151600160a060020a031681526020018781526020018f6006600781101515611bae57fe5b60209081029190910151600160a060020a03168252018e6004602090810291909101518252018e6005602090810291909101518252018e6006602090810291909101518252018e6007602090810291909101518252018e6008602002015190529050611c40611c1c8261336e565b6040805160608101825260ff891681526020810188905290810186905283906133b9565b9e9d5050505050505050505050505050565b6000611c62878787878787613584565b979650505050505050565b600854600160a060020a031681565b60005433600160a060020a039081166101009092041614611c9c57600080fd5b60008054604051610100909104600160a060020a0316917ff8df31144d9c2f0f6b59d69b8b98abd5459d07f2742c4df920b25aae33c6482091a26000805474ffffffffffffffffffffffffffffffffffffffff0019169055565b604080516102e0810182528a51600160a060020a0390811682526020808d01518216818401528c8401518216838501528b51606080850191909152908c01516080840152928b015160a08301528a83015160c0830152918b015190911660e08201526000906119919061010081018a6001811115611d7057fe5b8152602001896001811115611d8157fe5b8152602001886001811115611d9257fe5b815260808d0151600160a060020a03166020820152604001876001811115611db657fe5b8152602081018790526040810186905260a0808e0151600160a060020a0316606083015260808201869052018c600660209081029190910151600160a060020a031682526080808e01519183019190915260a0808e0151604084015260c08e0151606084015260e08e0151918301919091526101008d0151910152613617565b6000611e40615887565b611e48615887565b604080516102e08101909152808d600060209081029190910151600160a060020a03168252018d600160209081029190910151600160a060020a03168252018d600260209081029190910151600160a060020a03168252018c6000602090810291909101518252018c6001602090810291909101518252018c6002602090810291909101518252018c6003602090810291909101518252018d600360209081029190910151600160a060020a03168252018b6000602002015160ff166001811115611f0f57fe5b6001811115611f1a57fe5b81526020018b6001602002015160ff166001811115611f3557fe5b6001811115611f4057fe5b81526020018b6002602002015160ff166001811115611f5b57fe5b6001811115611f6657fe5b815260808e0151600160a060020a0316602082015260608c015160409091019060ff166001811115611f9457fe5b6001811115611f9f57fe5b8152602081018b90526040810189905260a0808f0151600160a060020a0316606083015260808201889052018d600660209081029190910151600160a060020a03168252018c6004602090810291909101518252018c6005602090810291909101518252018c6006602090810291909101518252018c6007602090810291909101518252018c600860200201519052604080516102e08101909152909250808d600760209081029190910151600160a060020a03168252018d600860209081029190910151600160a060020a03168252018d600960209081029190910151600160a060020a03168252018c6009602090810291909101518252018c600a602090810291909101518252018c600b602090810291909101518252018c600c602090810291909101518252018d600a60209081029190910151600160a060020a03168252018b6004602002015160ff1660018111156120f857fe5b600181111561210357fe5b81526020018b6005602002015160ff16600181111561211e57fe5b600181111561212957fe5b81526020018b6006602002015160ff16600181111561214457fe5b600181111561214f57fe5b81526101608e0151600160a060020a0316602082015260e08c015160409091019060ff16600181111561217e57fe5b600181111561218957fe5b8152602081018a9052604081018890526101808e0151600160a060020a031660608201526080810186905260a0018d600d60209081029190910151600160a060020a031682526101a08e0151908201526101c08d015160408201526101e08d015160608201526102008d015160808201526102208d015160a09091015290506122128282613806565b9c9b505050505050505050505050565b61222a615887565b604080516102e0810182528c51600160a060020a0390811682526020808f01518216818401528e8401518216838501528d51606080850191909152908e01516080840152928d015160a08301528c83015160c0830152918d015190911660e082015261010081018a600181111561229d57fe5b81526020018960018111156122ae57fe5b81526020018860018111156122bf57fe5b815260808d0151600160a060020a031660208201526040018760018111156122e357fe5b8152602081018790526040810186905260a0808e0151600160a060020a0316606083015260808201869052018c600660209081029190910151600160a060020a031682526080808e01519183019190915260a0808e0151604084015260c08e0151606084015260e08e0151918301919091526101008d0151910152905061236a8183613ece565b5050505050505050505050565b600254600160a060020a031681565b60065481565b604080516102e0810182528a51600160a060020a0390811682526020808d01518216818401528c8401518216838501528b51606080850191909152908c01516080840152928b015160a08301528a83015160c0830152918b015190911660e08201526000906119919061010081018a600181111561240657fe5b815260200189600181111561241757fe5b815260200188600181111561242857fe5b815260808d0151600160a060020a0316602082015260400187600181111561244c57fe5b8152602081018790526040810186905260a0808e0151600160a060020a0316606083015260808201869052018c600660209081029190910151600160a060020a031682526080808e01519183019190915260a0808e0151604084015260c08e0151606084015260e08e0151918301919091526101008d015191015261336e565b60046020526000908152604090205460ff1681565b6000546101009004600160a060020a031681565b600154600160a060020a031681565b604080516102e081019091526126cc90808e600060209081029190910151600160a060020a03168252018e600160209081029190910151600160a060020a03168252018e600260209081029190910151600160a060020a03168252018d6000602090810291909101518252018d6001602090810291909101518252018d6002602090810291909101518252018d6003602090810291909101518252018e60036020020151600160a060020a031681526020018c60018111156125c257fe5b81526020018b60018111156125d357fe5b81526020018a60018111156125e457fe5b815260808f0151600160a060020a0316602082015260400189600181111561260857fe5b815260208101899052604081018890526060018e60056020020151600160a060020a031681526020018681526020018e600660078110151561264657fe5b60209081029190910151600160a060020a03168252018d6004602090810291909101518252018d6005602090810291909101518252018d6006602090810291909101518252018d6007602090810291909101518252018d6008602090810291909101519091526040805160608101825260ff881681529182018690528101849052614332565b505050505050505050505050565b604080516102e0810182528c51600160a060020a0390811682526020808f01518216818401528e8401518216838501528d51606080850191909152908e01516080840152928d015160a08301528c83015160c0830152918d015190911660e0820152895161236a919061010082019060ff16600181111561275757fe5b600181111561276257fe5b81526020018b6001602002015160ff16600181111561277d57fe5b600181111561278857fe5b81526020018b6002602002015160ff1660018111156127a357fe5b60018111156127ae57fe5b815260808e0151600160a060020a0316602082015260608c015160409091019060ff1660018111156127dc57fe5b60018111156127e757fe5b8152602081018b90526040810189905260a0808f0151600160a060020a0316606083015260808201889052018d600660209081029190910151600160a060020a03168252018c6004602090810291909101518252018c6005602090810291909101518252018c6006602090810291909101518252018c6007602090810291909101518252018c6008602002015190526040805160608101909152808560006020908102919091015160ff168252018460006020908102919091015182520184600160200201519052604080516102e08101909152808f600760209081029190910151600160a060020a03168252018f600860209081029190910151600160a060020a03168252018f600960209081029190910151600160a060020a03168252018e6009602090810291909101518252018e600a602090810291909101518252018e600b602090810291909101518252018e600c602090810291909101518252018f600a60209081029190910151600160a060020a03168252018d6004602002015160ff16600181111561297657fe5b600181111561298157fe5b81526020018d6005602002015160ff16600181111561299c57fe5b60018111156129a757fe5b81526020018d6006602002015160ff1660018111156129c257fe5b60018111156129cd57fe5b81526020018f600b60209081029190910151600160a060020a03168252018d6007602002015160ff166001811115612a0157fe5b6001811115612a0c57fe5b8152602081018c9052604081018a90526060018f600c6020020151600160a060020a031681526020018781526020018f600d600e81101515612a4a57fe5b60209081029190910151600160a060020a03168252018e600d602090810291909101518252018e600e602090810291909101518252018e600f602090810291909101518252018e6010602090810291909101518252018e6011602002015190526040805160608101909152808760016020908102919091015160ff16825201866002602090810291909101518252018660036020020151905285600460200201516143f4565b6000612afa615887565b604080516102e0810182528c51600160a060020a0390811682526020808f01518216818401528e8401518216838501528d51606080850191909152908e01516080840152928d015160a08301528c83015160c0830152918d015190911660e082015261010081018a6001811115612b6d57fe5b8152602001896001811115612b7e57fe5b8152602001886001811115612b8f57fe5b815260808d0151600160a060020a03166020820152604001876001811115612bb357fe5b8152602081018790526040810186905260a0808e0151600160a060020a0316606083015260808201869052018c600660209081029190910151600160a060020a031682526080808e01519183019190915260a0808e0151604084015260c08e0151606084015260e08e0151918301919091526101008d01519101529050612c3981614cc2565b9b9a5050505050505050505050565b61271081565b6000612c58615887565b612c60615887565b604080516102e08101909152808d600060209081029190910151600160a060020a03168252018d600160209081029190910151600160a060020a03168252018d600260209081029190910151600160a060020a03168252018c6000602090810291909101518252018c6001602090810291909101518252018c6002602090810291909101518252018c6003602090810291909101518252018d600360209081029190910151600160a060020a03168252018b6000602002015160ff166001811115612d2757fe5b6001811115612d3257fe5b81526020018b6001602002015160ff166001811115612d4d57fe5b6001811115612d5857fe5b81526020018b6002602002015160ff166001811115612d7357fe5b6001811115612d7e57fe5b815260808e0151600160a060020a0316602082015260608c015160409091019060ff166001811115612dac57fe5b6001811115612db757fe5b8152602081018b90526040810189905260a0808f0151600160a060020a0316606083015260808201889052018d600660209081029190910151600160a060020a03168252018c6004602090810291909101518252018c6005602090810291909101518252018c6006602090810291909101518252018c6007602090810291909101518252018c600860200201519052604080516102e08101909152909250808d600760209081029190910151600160a060020a03168252018d600860209081029190910151600160a060020a03168252018d600960209081029190910151600160a060020a03168252018c6009602090810291909101518252018c600a602090810291909101518252018c600b602090810291909101518252018c600c602090810291909101518252018d600a60209081029190910151600160a060020a03168252018b6004602002015160ff166001811115612f1057fe5b6001811115612f1b57fe5b81526020018b6005602002015160ff166001811115612f3657fe5b6001811115612f4157fe5b81526020018b6006602002015160ff166001811115612f5c57fe5b6001811115612f6757fe5b81526101608e0151600160a060020a0316602082015260e08c015160409091019060ff166001811115612f9657fe5b6001811115612fa157fe5b8152602081018a9052604081018890526101808e0151600160a060020a031660608201526080810186905260a0018d600d60209081029190910151600160a060020a031682526101a08e0151908201526101c08d015160408201526101e08d015160608201526102008d015160808201526102208d015160a09091015290506122128282614d56565b60056020526000908152604090205460ff1681565b60005433600160a060020a03908116610100909204161461305f57600080fd5b600160a060020a038116151561307457600080fd5b60008054604051600160a060020a038085169361010090930416917f8be0079c531659141344cd1fd0a4f28419497f9722a3daafe3b4186f6b6457e091a360008054600160a060020a039092166101000274ffffffffffffffffffffffffffffffffffffffff0019909216919091179055565b6000808251111561312457815180602001830160208401855b6001838310141561311b578151815260209182019101613100565b50505092909201915b50815b92915050565b60008060008451865114151561314257600080fd5b835186511461315057600080fd5b855160209004925060208084029250839083041461316a57fe5b5060005b8281101561319a576001016020810284810151868201519188018051928216911990921617905261316e565b60008311156131ca57829050806001016020028085015181870151811682890151821916178289015250506132ac565b50805b85518110156132ac5784818151811015156131e457fe5b90602001015160f860020a900460f860020a02848281518110151561320557fe5b90602001015160f860020a900460f860020a0216868281518110151561322757fe5b90602001015160f860020a900460f860020a02858381518110151561324857fe5b90602001015160f860020a900460f860020a0260ff60f860020a02181617868281518110151561327457fe5b9060200101907effffffffffffffffffffffffffffffffffffffffffffffffffffffffffffff1916908160001a9053506001016131cd565b505050505050565b600160a060020a03166c0100000000000000000000000002815260140190565b6000613302826101200151836101400151846102400151856102600151866102800151876102a00151613584565b90505b919050565b8151815160009160019181148083146133265760009250613364565b600160208701838101602088015b60028483851001141561335f5780518351146133535760009650600093505b60209283019201613334565b505050505b5090949350505050565b600061337982613617565b604080517f19457468657265756d205369676e6564204d6573736167653a0a3332000000008152601c8101929092525190819003603c0190209050919050565b60006133c483614cc2565b151561341a576040805160e560020a62461bcd02815260206004820152601960248201527f696e56616c69646174654f72646572506172616d657465727300000000000000604482015290519081900360640190fd5b60008481526004602052604090205460ff1615613481576040805160e560020a62461bcd02815260206004820152601460248201527f63616e63656c6c65644f7246696e616c697a6564000000000000000000000000604482015290519081900360640190fd5b60008481526005602052604090205460ff16156134a057506001611787565b602080840151835184830151604080870151815160008082528188018085528c905260ff909516818401526060810193909352608083015251600160a060020a039093169360019360a0808401949293601f19830193908390039091019190865af1158015613513573d6000803e3d6000fd5b50505060206040510351600160a060020a0316141561353457506001611787565b6040805160e560020a62461bcd02815260206004820152600c60248201527f72657475726e2066616c73650000000000000000000000000000000000000000604482015290519081900360640190fd5b6000808087600181111561359457fe5b14156135a25785915061360c565b60018760018111156135b057fe5b141561360c576135db6135cc866135c74288614e31565b614e43565b6135d68587614e31565b614e6c565b905060018860018111156135eb57fe5b1415613602576135fb8682614e31565b915061360c565b6135fb8682614e81565b509695505050505050565b6000806060600061362785614e8e565b9250826040519080825280601f01601f191660200182016040528015613657578160200160208202803883390190505b50915060208201905061366e8186600001516132b4565b905061367e8186602001516132b4565b905061368e8186604001516132b4565b905061369e818660600151614eae565b90506136ae818660800151614eae565b90506136be818660a00151614eae565b90506136ce818660c00151614eae565b90506136de818660e001516132b4565b90506136fa8186610100015160018111156136f557fe5b614eb6565b90506137118186610120015160018111156136f557fe5b90506137288186610140015160018111156136f557fe5b9050613739818661016001516132b4565b90506137508186610180015160018111156136f557fe5b905061376181866101a001516130e7565b905061377281866101c001516130e7565b905061378381866101e001516132b4565b9050613794818661020001516130e7565b90506137a5818661022001516132b4565b90506137b681866102400151614eae565b90506137c781866102600151614eae565b90506137d881866102800151614eae565b90506137e981866102a00151614eae565b90506137fa81866102c00151614eae565b50506020012092915050565b600080836101200151600181111561381a57fe5b14801561383757506001826101200151600181111561383557fe5b145b151561388d576040805160e560020a62461bcd02815260206004820152600760248201527f6d61746368203100000000000000000000000000000000000000000000000000604482015290519081900360640190fd5b816101000151600181111561389e57fe5b83610100015160018111156138af57fe5b14613904576040805160e560020a62461bcd02815260206004820152600760248201527f6d61746368203200000000000000000000000000000000000000000000000000604482015290519081900360640190fd5b816102200151600160a060020a0316836102200151600160a060020a0316141515613979576040805160e560020a62461bcd02815260206004820152600760248201527f6d61746368203300000000000000000000000000000000000000000000000000604482015290519081900360640190fd5b6040820151600160a060020a031615806139ac57508260200151600160a060020a03168260400151600160a060020a0316145b1515613a02576040805160e560020a62461bcd02815260206004820152600760248201527f6d61746368203400000000000000000000000000000000000000000000000000604482015290519081900360640190fd5b6040830151600160a060020a03161580613a3557508160200151600160a060020a03168360400151600160a060020a0316145b1515613a8b576040805160e560020a62461bcd02815260206004820152600760248201527f6d61746368203500000000000000000000000000000000000000000000000000604482015290519081900360640190fd5b60e0820151600160a060020a0316158015613ab2575060e0830151600160a060020a031615155b80613adf575060e0820151600160a060020a031615801590613adf575060e0830151600160a060020a0316155b1515613b35576040805160e560020a62461bcd02815260206004820152600760248201527f6d61746368203600000000000000000000000000000000000000000000000000604482015290519081900360640190fd5b816101600151600160a060020a0316836101600151600160a060020a0316141515613baa576040805160e560020a62461bcd02815260206004820152600760248201527f6d61746368203700000000000000000000000000000000000000000000000000604482015290519081900360640190fd5b8161018001516001811115613bbb57fe5b8361018001516001811115613bcc57fe5b14613c21576040805160e560020a62461bcd02815260206004820152600760248201527f6d61746368203800000000000000000000000000000000000000000000000000604482015290519081900360640190fd5b613c35836102800151846102a00151614ec3565b1515613c8b576040805160e560020a62461bcd02815260206004820152600760248201527f6d61746368203900000000000000000000000000000000000000000000000000604482015290519081900360640190fd5b613c9f826102800151836102a00151614ec3565b1515613cf5576040805160e560020a62461bcd02815260206004820152600860248201527f6d61746368203130000000000000000000000000000000000000000000000000604482015290519081900360640190fd5b60008361012001516001811115613d0857fe5b148015613d25575060018261012001516001811115613d2357fe5b145b8015613d5057508161010001516001811115613d3d57fe5b8361010001516001811115613d4e57fe5b145b8015613d775750816102200151600160a060020a0316836102200151600160a060020a0316145b8015613db157506040820151600160a060020a03161580613db157508260200151600160a060020a03168260400151600160a060020a0316145b8015613deb57506040830151600160a060020a03161580613deb57508160200151600160a060020a03168360400151600160a060020a0316145b8015613e46575060e0820151600160a060020a0316158015613e19575060e0830151600160a060020a031615155b80613e46575060e0820151600160a060020a031615801590613e46575060e0830151600160a060020a0316155b8015613e6d5750816101600151600160a060020a0316836101600151600160a060020a0316145b8015613e9857508161018001516001811115613e8557fe5b8361018001516001811115613e9657fe5b145b8015613eb35750613eb3836102800151846102a00151614ec3565b80156117875750611787826102800151836102a00151614ec3565b60008260200151600160a060020a031633600160a060020a0316141515613f3f576040805160e560020a62461bcd02815260206004820152601660248201527f4572726f7220696e20617070726f76654f726465723100000000000000000000604482015290519081900360640190fd5b613f488361336e565b60008181526005602052604090205490915060ff1615613fb2576040805160e560020a62461bcd02815260206004820152601660248201527f4572726f7220696e20617070726f76654f726465723200000000000000000000604482015290519081900360640190fd5b600160056000836000191660001916815260200190815260200160002060006101000a81548160ff0219169083151502179055508260e00151600160a060020a03168360200151600160a060020a031682600019167f90c7f9f5b58c15f0f635bfb99f55d3d78fdbef3559e7d8abf5c81052a527662286600001518760400151886060015189608001518a60a001518b60c001518c61010001518d61012001518e61014001518f6101600151604051808b600160a060020a0316600160a060020a031681526020018a600160a060020a0316600160a060020a031681526020018981526020018881526020018781526020018681526020018560018111156140b657fe5b60ff1681526020018460018111156140ca57fe5b60ff1681526020018360018111156140de57fe5b60ff168152600160a060020a039092166020830152506040805191829003019950975050505050505050a480600019167fe55393c778364e440d958b39ac1debd99dcfae3775a8a04d1e79124adf6a2d08846101800151856101a00151866101c00151876101e001518861020001518961022001518a61024001518b61026001518c61028001518d6102a001518e6102c001518e604051808d600181111561418257fe5b60ff16815260200180602001806020018c600160a060020a0316600160a060020a03168152602001806020018b600160a060020a0316600160a060020a031681526020018a81526020018981526020018881526020018781526020018681526020018515151515815260200184810384528f818151815260200191508051906020019080838360005b8381101561422357818101518382015260200161420b565b50505050905090810190601f1680156142505780820380516001836020036101000a031916815260200191505b5084810383528e818151815260200191508051906020019080838360005b8381101561428657818101518382015260200161426e565b50505050905090810190601f1680156142b35780820380516001836020036101000a031916815260200191505b5084810382528c5181528c516020918201918e019080838360005b838110156142e65781810151838201526020016142ce565b50505050905090810190601f1680156143135780820380516001836020036101000a031916815260200191505b509f5050505050505050505050505050505060405180910390a2505050565b600061433e8383614edf565b90508260200151600160a060020a031633600160a060020a03161415156143af576040805160e560020a62461bcd02815260206004820152601460248201527f4572726f7220696e2063616e63656c4f72646572000000000000000000000000604482015290519081900360640190fd5b600081815260046020526040808220805460ff191660011790555182917f5152abf959f6564662358c2e52b702259b78bac5ee7842a0f01937e670efcc7d91a2505050565b6000805481908190819081908190819060ff161561441157600080fd5b6000805460ff1916600117905560208c0151600160a060020a039081163391909116141561449d576144428c614cc2565b1515614498576040805160e560020a62461bcd02815260206004820152601e60248201527f4572726f7220696e206578656375746546756e64735472616e73666572380000604482015290519081900360640190fd5b6144aa565b6144a78c8c614edf565b96505b33600160a060020a03168a60200151600160a060020a0316141561452c576144d18a614cc2565b1515614527576040805160e560020a62461bcd02815260206004820152601e60248201527f4572726f7220696e206578656375746546756e64735472616e73666572390000604482015290519081900360640190fd5b614539565b6145368a8a614edf565b95505b6145438c8b613806565b1515614599576040805160e560020a62461bcd02815260206004820152601f60248201527f4572726f7220696e206578656375746546756e64735472616e73666572313000604482015290519081900360640190fd5b6101608a0151803b95509350600085116145fd576040805160e560020a62461bcd02815260206004820152601f60248201527f4572726f7220696e206578656375746546756e64735472616e73666572313100604482015290519081900360640190fd5b60008c6101c00151511115614626576146268c6101a001518b6101a001518e6101c0015161312d565b60008a6101c0015151111561464f5761464f8a6101a001518d6101a001518c6101c0015161312d565b6146638c6101a001518b6101a0015161330a565b15156146b9576040805160e560020a62461bcd02815260206004820152601f60248201527f4572726f7220696e206578656375746546756e64735472616e73666572313200604482015290519081900360640190fd5b6002546020808c0151604080517fc4552791000000000000000000000000000000000000000000000000000000008152600160a060020a0392831660048201529051919093169263c45527919260248083019391928290030181600087803b15801561472457600080fd5b505af1158015614738573d6000803e3d6000fd5b505050506040513d602081101561474e57600080fd5b50519250600160a060020a03831615156147b2576040805160e560020a62461bcd02815260206004820152601f60248201527f4572726f7220696e206578656375746546756e64735472616e73666572313300604482015290519081900360640190fd5b600260009054906101000a9004600160a060020a0316600160a060020a03166397204d8e6040518163ffffffff1660e060020a028152600401602060405180830381600087803b15801561480557600080fd5b505af1158015614819573d6000803e3d6000fd5b505050506040513d602081101561482f57600080fd5b5051604080517f5c60da1b0000000000000000000000000000000000000000000000000000000081529051600160a060020a0392831692861691635c60da1b9160048083019260209291908290030181600087803b15801561489057600080fd5b505af11580156148a4573d6000803e3d6000fd5b505050506040513d60208110156148ba57600080fd5b5051600160a060020a03161461491a576040805160e560020a62461bcd02815260206004820152601f60248201527f4572726f7220696e206578656375746546756e64735472616e73666572313400604482015290519081900360640190fd5b8291508b60200151600160a060020a031633600160a060020a0316141515614956576000878152600460205260409020805460ff191660011790555b8960200151600160a060020a031633600160a060020a031614151561498f576000868152600460205260409020805460ff191660011790555b6149998c8b614f4e565b905081600160a060020a0316631b0f7ba98b61016001518c61018001518d6101a001516040518463ffffffff1660e060020a0281526004018084600160a060020a0316600160a060020a031681526020018360018111156149f657fe5b60ff16815260200180602001828103825283818151815260200191508051906020019080838360005b83811015614a37578181015183820152602001614a1f565b50505050905090810190601f168015614a645780820380516001836020036101000a031916815260200191505b50945050505050602060405180830381600087803b158015614a8557600080fd5b505af1158015614a99573d6000803e3d6000fd5b505050506040513d6020811015614aaf57600080fd5b50511515614b07576040805160e560020a62461bcd02815260206004820152601f60248201527f4572726f7220696e206578656375746546756e64735472616e73666572313500604482015290519081900360640190fd5b6101e08c0151600160a060020a031615614b8b57614b358c6101e001518b6101a001518e61020001516116be565b1515614b8b576040805160e560020a62461bcd02815260206004820152601f60248201527f4572726f7220696e206578656375746546756e64735472616e73666572313600604482015290519081900360640190fd5b6101e08a0151600160a060020a031615614c0f57614bb98a6101e001518b6101a001518c61020001516116be565b1515614c0f576040805160e560020a62461bcd02815260206004820152601f60248201527f4572726f7220696e206578656375746546756e64735472616e73666572313700604482015290519081900360640190fd5b60e08a01518890600160a060020a03161515614c2f578a60200151614c35565b8c602001515b60e08c0151600160a060020a0391821691161515614c57578d60200151614c5d565b8b602001515b604080518b8152602081018b90528082018690529051600160a060020a0392909216917fc4109843e0b7d514e4c093114b863f8e7d8d9a458c372cd51bfe526b588006c99181900360600190a450506000805460ff1916905550505050505050505050565b600030600160a060020a03168260000151600160a060020a0316141515614ceb57506000613305565b614cff826101400151836102a0015161573b565b1515614d0d57506000613305565b60018261010001516001811115614d2057fe5b148015614d4157506006548260a001511080614d4157506007548260c00151105b15614d4e57506000613305565b506001919050565b6000806000614d87846101200151856101400151866102400151876102600151886102800151896102a00151613584565b9150614db58561012001518661014001518761024001518861026001518961028001518a6102a00151613584565b905081811015614e0f576040805160e560020a62461bcd02815260206004820152601c60248201527f4572726f7220696e2063616c63756c6174654d61746368507269636500000000604482015290519081900360640190fd5b60e0840151600160a060020a03161515614e295780611a5a565b509392505050565b600082821115614e3d57fe5b50900390565b6000821515614e5457506000613127565b50818102818382811515614e6457fe5b041461312757fe5b60008183811515614e7957fe5b049392505050565b8181018281101561312757fe5b610200810151516101c0820151516101a08301515101016101b001919050565b815260200190565b6000818353505060010190565b6000428310801561178757508115806117875750504210919050565b600080614eeb8461336e565b9050614ef88185856133b9565b1515611787576040805160e560020a62461bcd02815260206004820152601a60248201527f4572726f7220696e207265717569726556616c69644f72646572000000000000604482015290519081900360640190fd5b600080600080600080600080600080600160a060020a03168a6102200151600160a060020a0316141515614fd2573415614fd2576040805160e560020a62461bcd02815260206004820152601e60248201527f4572726f7220696e206578656375746546756e64735472616e73666572310000604482015290519081900360640190fd5b614fdc8b8b614d56565b9750600088118015614ffb57506102208a0151600160a060020a031615155b15615019576150198a61022001518c602001518c602001518b61575a565b60e08a0151889750879650600160a060020a0316156153cb576080808c0151908b01511115615092576040805160e560020a62461bcd02815260206004820152601e60248201527f4572726f7220696e206578656375746546756e64735472616e73666572320000604482015290519081900360640190fd5b60018a610100015160018111156150a557fe5b14156153985760c0808c0151908b0151111561510b576040805160e560020a62461bcd02815260206004820152601e60248201527f4572726f7220696e206578656375746546756e64735472616e73666572330000604482015290519081900360640190fd5b60008a6060015111156151af576151316151298b606001518a614e43565b612710614e6c565b6102208b0151909550600160a060020a03161515615196576151538786614e31565b60e08b0151604051919850600160a060020a03169086156108fc029087906000818181858888f19350505050158015615190573d6000803e3d6000fd5b506151af565b6151af8a61022001518b602001518c60e001518861575a565b60008a60800151111561524b576151cd6151298b608001518a614e43565b6102208b0151909450600160a060020a03161515615232576151ef8685614e81565b60e08b0151604051919750600160a060020a03169085156108fc029086906000818181858888f1935050505015801561522c573d6000803e3d6000fd5b5061524b565b61524b8a61022001518c602001518c60e001518761575a565b60008a60a0015111156152ef576152696151298b60a001518a614e43565b6102208b0151909350600160a060020a031615156152cc5761528b8784614e31565b600854604051919850600160a060020a03169084156108fc029085906000818181858888f193505050501580156152c6573d6000803e3d6000fd5b506152ef565b6102208a015160208b01516008546152ef929190600160a060020a03168661575a565b60008a60c0015111156153935761530d6151298b60c001518a614e43565b6102208b0151909250600160a060020a031615156153705761532f8683614e81565b600854604051919750600160a060020a03169083156108fc029084906000818181858888f1935050505015801561536a573d6000803e3d6000fd5b50615393565b6102208a015160208c0151600854615393929190600160a060020a03168561575a565b6153c6565b6153af8a602001518b60e001518c6060015161586a565b6153c68b602001518b60e001518c6080015161586a565b61562d565b6080808b0151908c0151111561542b576040805160e560020a62461bcd02815260206004820152601e60248201527f4572726f7220696e206578656375746546756e64735472616e73666572340000604482015290519081900360640190fd5b60018a6101000151600181111561543e57fe5b14156155ff576102208a0151600160a060020a031615156154a9576040805160e560020a62461bcd02815260206004820152601e60248201527f4572726f7220696e206578656375746546756e64735472616e73666572350000604482015290519081900360640190fd5b60c0808b0151908c01511115615509576040805160e560020a62461bcd02815260206004820152601e60248201527f4572726f7220696e206578656375746546756e64735472616e73666572360000604482015290519081900360640190fd5b60008b606001511115615542576155276151298c606001518a614e43565b94506155428a61022001518c602001518d60e001518861575a565b60008b60800151111561557b576155606151298c608001518a614e43565b935061557b8a61022001518b602001518d60e001518761575a565b60008b60a0015111156155bd576155996151298c60a001518a614e43565b6102208b015160208d01516008549295506155bd92600160a060020a03168661575a565b60008b60c0015111156153c6576155db6151298c60c001518a614e43565b6102208b015160208c01516008549294506153c692600160a060020a03168561575a565b6156168b602001518c60e001518d6060015161586a565b61562d8a602001518c60e001518d6080015161586a565b6102208a0151600160a060020a0316151561572c573486111561569a576040805160e560020a62461bcd02815260206004820152601e60248201527f4572726f7220696e206578656375746546756e64735472616e73666572370000604482015290519081900360640190fd5b8960200151600160a060020a03166108fc889081150290604051600060405180830381858888f193505050501580156156d7573d6000803e3d6000fd5b506156e23487614e31565b9050600081111561572c578a60200151600160a060020a03166108fc829081150290604051600060405180830381858888f1935050505015801561572a573d6000803e3d6000fd5b505b50959998505050505050505050565b60008083600181111561574a57fe5b1480611787575050600010919050565b600081111561586457600354604080517f15dacbea000000000000000000000000000000000000000000000000000000008152600160a060020a0387811660048301528681166024830152858116604483015260648201859052915191909216916315dacbea9160848083019260209291908290030181600087803b1580156157e257600080fd5b505af11580156157f6573d6000803e3d6000fd5b505050506040513d602081101561580c57600080fd5b50511515615864576040805160e560020a62461bcd02815260206004820152601760248201527f4572726f7220696e207472616e73666572546f6b656e73000000000000000000604482015290519081900360640190fd5b50505050565b60015461588290600160a060020a031684848461575a565b505050565b604080516102e081018252600080825260208201819052918101829052606081018290526080810182905260a0810182905260c0810182905260e081018290529061010082019081526020016000815260200160008152600060208201819052604090910190815260200160608152602001606081526020016000600160a060020a03168152602001606081526020016000600160a060020a03168152602001600081526020016000815260200160008152602001600081526020016000815250905600a165627a7a7230582010dcc2d15a759b4ffdebc4e3c06ebe33ebd62b436b32f8e8dc011a335b4d56c40029",
  "source": "/*\n\n  << Project Wyvern Exchange >>\n\n*/\n\npragma solidity 0.4.23;\n\nimport \"./exchange/Exchange.sol\";\n\n/**\n * @title WyvernExchange\n * @author Project Wyvern Developers\n */\ncontract WyvernExchange is Exchange {\n\n    string public constant name = \"Project Wyvern Exchange\";\n\n    string public constant version = \"2.2\";\n\n    string public constant codename = \"Lambton Worm\";\n\n    /**\n     * @dev Initialize a WyvernExchange instance\n     * @param registryAddress Address of the registry instance which this Exchange instance will use\n     * @param tokenAddress Address of the token used for protocol fees\n     */\n    constructor (ProxyRegistry registryAddress, TokenTransferProxy tokenTransferProxyAddress, ERC20 tokenAddress, address protocolFeeAddress) public {\n        registry = registryAddress;\n        tokenTransferProxy = tokenTransferProxyAddress;\n        exchangeToken = tokenAddress;\n        protocolFeeRecipient = protocolFeeAddress;\n        owner = msg.sender;\n    }\n\n}\n",
  "sourcePath": "/Users/sergey/Projects/wyvern/wyvern-ethereum/contracts/WyvernExchange.sol",
  "compiler": {
    "name": "solc",
    "version": "0.4.23+commit.124ca40d.Emscripten.clang"
  },
  "schemaVersion": "2.0.0",
  "updatedAt": "2021-08-05T08:18:40.768Z"
}