{
  "contractName": "RoyaltiesV2TestImpl",
  "abi": [
    {
      "anonymous": false,
      "inputs": [
        {
          "indexed": false,
          "internalType": "uint256",
          "name": "tokenId",
          "type": "uint256"
        },
        {
          "components": [
            {
              "internalType": "address payable",
              "name": "account",
              "type": "address"
            },
            {
              "internalType": "uint96",
              "name": "value",
              "type": "uint96"
            }
          ],
          "indexed": false,
          "internalType": "struct LibPart.Part[]",
          "name": "royalties",
          "type": "tuple[]"
        }
      ],
      "name": "RoyaltiesSet",
      "type": "event"
    },
    {
      "inputs": [
        {
          "internalType": "uint256",
          "name": "id",
          "type": "uint256"
        }
      ],
      "name": "getRoyalties",
      "outputs": [
        {
          "components": [
            {
              "internalType": "address payable",
              "name": "account",
              "type": "address"
            },
            {
              "internalType": "uint96",
              "name": "value",
              "type": "uint96"
            }
          ],
          "internalType": "struct LibPart.Part[]",
          "name": "",
          "type": "tuple[]"
        }
      ],
      "stateMutability": "view",
      "type": "function"
    },
    {
      "inputs": [
        {
          "internalType": "uint256",
          "name": "",
          "type": "uint256"
        },
        {
          "internalType": "uint256",
          "name": "",
          "type": "uint256"
        }
      ],
      "name": "royalties",
      "outputs": [
        {
          "internalType": "address payable",
          "name": "account",
          "type": "address"
        },
        {
          "internalType": "uint96",
          "name": "value",
          "type": "uint96"
        }
      ],
      "stateMutability": "view",
      "type": "function"
    },
    {
      "inputs": [
        {
          "internalType": "uint256",
          "name": "_id",
          "type": "uint256"
        },
        {
          "components": [
            {
              "internalType": "address payable",
              "name": "account",
              "type": "address"
            },
            {
              "internalType": "uint96",
              "name": "value",
              "type": "uint96"
            }
          ],
          "internalType": "struct LibPart.Part[]",
          "name": "_royalties",
          "type": "tuple[]"
        }
      ],
      "name": "saveRoyalties",
      "outputs": [],
      "stateMutability": "nonpayable",
      "type": "function"
    },
    {
      "inputs": [
        {
          "internalType": "uint256",
          "name": "_id",
          "type": "uint256"
        },
        {
          "internalType": "address",
          "name": "_from",
          "type": "address"
        },
        {
          "internalType": "address",
          "name": "_to",
          "type": "address"
        }
      ],
      "name": "updateAccount",
      "outputs": [],
      "stateMutability": "nonpayable",
      "type": "function"
    }
  ],
  "bytecode": "0x608060405234801561001057600080fd5b50610b5e806100206000396000f3fe608060405234801561001057600080fd5b506004361061004c5760003560e01c80638924af7414610051578063a0f0c7b514610082578063bb3bafd61461009e578063e07f2319146100ce575b600080fd5b61006b60048036038101906100669190610827565b6100ea565b604051610079929190610953565b60405180910390f35b61009c600480360381019061009791906107d3565b61015f565b005b6100b860048036038101906100b3919061075b565b61016d565b6040516100c5919061097c565b60405180910390f35b6100e860048036038101906100e39190610784565b61026e565b005b6000602052816000526040600020818154811061010657600080fd5b90600052602060002001600091509150508060000160009054906101000a900473ffffffffffffffffffffffffffffffffffffffff16908060000160149054906101000a90046bffffffffffffffffffffffff16905082565b610169828261027e565b5050565b6060600080838152602001908152602001600020805480602002602001604051908101604052809291908181526020016000905b82821015610263578382906000526020600020016040518060400160405290816000820160009054906101000a900473ffffffffffffffffffffffffffffffffffffffff1673ffffffffffffffffffffffffffffffffffffffff1673ffffffffffffffffffffffffffffffffffffffff1681526020016000820160149054906101000a90046bffffffffffffffffffffffff166bffffffffffffffffffffffff166bffffffffffffffffffffffff1681525050815260200190600101906101a1565b505050509050919050565b6102798383836104c7565b505050565b60005b81518110156104b857600073ffffffffffffffffffffffffffffffffffffffff168282815181106102ae57fe5b60200260200101516000015173ffffffffffffffffffffffffffffffffffffffff161415610344576040517f08c379a000000000000000000000000000000000000000000000000000000000815260040180806020018281038252601b8152602001807f526563697069656e742073686f756c642062652070726573656e74000000000081525060200191505060405180910390fd5b600082828151811061035257fe5b6020026020010151602001516bffffffffffffffffffffffff1614156103e0576040517f08c379a00000000000000000000000000000000000000000000000000000000081526004018080602001828103825260208152602001807f526f79616c74792076616c75652073686f756c6420626520706f73697469766581525060200191505060405180910390fd5b6000808481526020019081526020016000208282815181106103fe57fe5b60200260200101519080600181540180825580915050600190039060005260206000200160009091909190915060008201518160000160006101000a81548173ffffffffffffffffffffffffffffffffffffffff021916908373ffffffffffffffffffffffffffffffffffffffff16021790555060208201518160000160146101000a8154816bffffffffffffffffffffffff02191690836bffffffffffffffffffffffff16021790555050508080600101915050610281565b506104c382826105e8565b5050565b600080600085815260200190815260200160002080549050905060005b818110156105e1578373ffffffffffffffffffffffffffffffffffffffff16600080878152602001908152602001600020828154811061052057fe5b9060005260206000200160000160009054906101000a900473ffffffffffffffffffffffffffffffffffffffff1673ffffffffffffffffffffffffffffffffffffffff1614156105d45782600080878152602001908152602001600020828154811061058857fe5b9060005260206000200160000160006101000a81548173ffffffffffffffffffffffffffffffffffffffff021916908373ffffffffffffffffffffffffffffffffffffffff1602179055505b80806001019150506104e4565b5050505050565b7f3fa96d7b6bcbfe71ef171666d84db3cf52fa2d1c8afdb1cc8e486177f208b7df828260405161061992919061099e565b60405180910390a15050565b6000610638610633846109ff565b6109ce565b9050808382526020820190508285604086028201111561065757600080fd5b60005b85811015610687578161066d88826106e5565b84526020840193506040830192505060018101905061065a565b5050509392505050565b6000813590506106a081610acc565b92915050565b6000813590506106b581610ae3565b92915050565b600082601f8301126106cc57600080fd5b81356106dc848260208601610625565b91505092915050565b6000604082840312156106f757600080fd5b61070160406109ce565b90506000610711848285016106a6565b600083015250602061072584828501610746565b60208301525092915050565b60008135905061074081610afa565b92915050565b60008135905061075581610b11565b92915050565b60006020828403121561076d57600080fd5b600061077b84828501610731565b91505092915050565b60008060006060848603121561079957600080fd5b60006107a786828701610731565b93505060206107b886828701610691565b92505060406107c986828701610691565b9150509250925092565b600080604083850312156107e657600080fd5b60006107f485828601610731565b925050602083013567ffffffffffffffff81111561081157600080fd5b61081d858286016106bb565b9150509250929050565b6000806040838503121561083a57600080fd5b600061084885828601610731565b925050602061085985828601610731565b9150509250929050565b600061086f83836108f7565b60408301905092915050565b61088481610a76565b82525050565b61089381610a76565b82525050565b60006108a482610a3b565b6108ae8185610a53565b93506108b983610a2b565b8060005b838110156108ea5781516108d18882610863565b97506108dc83610a46565b9250506001810190506108bd565b5085935050505092915050565b60408201600082015161090d600085018261087b565b5060208201516109206020850182610935565b50505050565b61092f81610aa8565b82525050565b61093e81610ab2565b82525050565b61094d81610ab2565b82525050565b6000604082019050610968600083018561088a565b6109756020830184610944565b9392505050565b600060208201905081810360008301526109968184610899565b905092915050565b60006040820190506109b36000830185610926565b81810360208301526109c58184610899565b90509392505050565b6000604051905081810181811067ffffffffffffffff821117156109f5576109f4610aca565b5b8060405250919050565b600067ffffffffffffffff821115610a1a57610a19610aca565b5b602082029050602081019050919050565b6000819050602082019050919050565b600081519050919050565b6000602082019050919050565b600082825260208201905092915050565b6000610a6f82610a88565b9050919050565b6000610a8182610a88565b9050919050565b600073ffffffffffffffffffffffffffffffffffffffff82169050919050565b6000819050919050565b60006bffffffffffffffffffffffff82169050919050565bfe5b610ad581610a64565b8114610ae057600080fd5b50565b610aec81610a76565b8114610af757600080fd5b50565b610b0381610aa8565b8114610b0e57600080fd5b50565b610b1a81610ab2565b8114610b2557600080fd5b5056fea2646970667358221220c9d2c1e1249541b67c4227b69c7a8ad6d0a33e35cc91c8260dfacc6af547544164736f6c63430007060033",
  "immutableReferences": {},
  "source": "// SPDX-License-Identifier: MIT\n\npragma solidity >=0.6.2 <0.8.0;\npragma abicoder v2;\n\nimport \"./impl/RoyaltiesV2Impl.sol\";\n\ncontract RoyaltiesV2TestImpl is RoyaltiesV2Impl {\n\n    function saveRoyalties(uint256 _id, LibPart.Part[] memory _royalties) external {\n        _saveRoyalties(_id, _royalties);\n    }\n\n    function updateAccount(uint256 _id, address _from, address _to) external {\n        _updateAccount(_id, _from, _to);\n    }\n}\n",
  "sourcePath": "/home/quadro/Projects/rarible/protocol-contracts/royalties/contracts/RoyaltiesV2TestImpl.sol",
  "compiler": {
    "name": "solc",
    "version": "0.7.6+commit.7338295f.Emscripten.clang"
  },
  "schemaVersion": "3.3.4",
  "updatedAt": "2021-04-26T17:55:30.928Z",
  "devdoc": {
    "kind": "dev",
    "methods": {},
    "version": 1
  },
  "userdoc": {
    "kind": "user",
    "methods": {},
    "version": 1
  }
}