{
  "contractName": "ERC1155SaleNonceHolder",
  "abi": [
    {
      "anonymous": false,
      "inputs": [
        {
          "indexed": true,
          "internalType": "address",
          "name": "account",
          "type": "address"
        }
      ],
      "name": "OperatorAdded",
      "type": "event"
    },
    {
      "anonymous": false,
      "inputs": [
        {
          "indexed": true,
          "internalType": "address",
          "name": "account",
          "type": "address"
        }
      ],
      "name": "OperatorRemoved",
      "type": "event"
    },
    {
      "anonymous": false,
      "inputs": [
        {
          "indexed": true,
          "internalType": "address",
          "name": "previousOwner",
          "type": "address"
        },
        {
          "indexed": true,
          "internalType": "address",
          "name": "newOwner",
          "type": "address"
        }
      ],
      "name": "OwnershipTransferred",
      "type": "event"
    },
    {
      "constant": false,
      "inputs": [
        {
          "internalType": "address",
          "name": "account",
          "type": "address"
        }
      ],
      "name": "addOperator",
      "outputs": [],
      "payable": false,
      "stateMutability": "nonpayable",
      "type": "function"
    },
    {
      "constant": true,
      "inputs": [
        {
          "internalType": "bytes32",
          "name": "",
          "type": "bytes32"
        }
      ],
      "name": "completed",
      "outputs": [
        {
          "internalType": "uint256",
          "name": "",
          "type": "uint256"
        }
      ],
      "payable": false,
      "stateMutability": "view",
      "type": "function"
    },
    {
      "constant": true,
      "inputs": [
        {
          "internalType": "address",
          "name": "account",
          "type": "address"
        }
      ],
      "name": "isOperator",
      "outputs": [
        {
          "internalType": "bool",
          "name": "",
          "type": "bool"
        }
      ],
      "payable": false,
      "stateMutability": "view",
      "type": "function"
    },
    {
      "constant": true,
      "inputs": [],
      "name": "isOwner",
      "outputs": [
        {
          "internalType": "bool",
          "name": "",
          "type": "bool"
        }
      ],
      "payable": false,
      "stateMutability": "view",
      "type": "function"
    },
    {
      "constant": true,
      "inputs": [
        {
          "internalType": "bytes32",
          "name": "",
          "type": "bytes32"
        }
      ],
      "name": "nonces",
      "outputs": [
        {
          "internalType": "uint256",
          "name": "",
          "type": "uint256"
        }
      ],
      "payable": false,
      "stateMutability": "view",
      "type": "function"
    },
    {
      "constant": true,
      "inputs": [],
      "name": "owner",
      "outputs": [
        {
          "internalType": "address",
          "name": "",
          "type": "address"
        }
      ],
      "payable": false,
      "stateMutability": "view",
      "type": "function"
    },
    {
      "constant": false,
      "inputs": [
        {
          "internalType": "address",
          "name": "account",
          "type": "address"
        }
      ],
      "name": "removeOperator",
      "outputs": [],
      "payable": false,
      "stateMutability": "nonpayable",
      "type": "function"
    },
    {
      "constant": false,
      "inputs": [],
      "name": "renounceOwnership",
      "outputs": [],
      "payable": false,
      "stateMutability": "nonpayable",
      "type": "function"
    },
    {
      "constant": false,
      "inputs": [
        {
          "internalType": "address",
          "name": "newOwner",
          "type": "address"
        }
      ],
      "name": "transferOwnership",
      "outputs": [],
      "payable": false,
      "stateMutability": "nonpayable",
      "type": "function"
    },
    {
      "constant": true,
      "inputs": [
        {
          "internalType": "address",
          "name": "token",
          "type": "address"
        },
        {
          "internalType": "uint256",
          "name": "tokenId",
          "type": "uint256"
        },
        {
          "internalType": "address",
          "name": "owner",
          "type": "address"
        }
      ],
      "name": "getNonce",
      "outputs": [
        {
          "internalType": "uint256",
          "name": "",
          "type": "uint256"
        }
      ],
      "payable": false,
      "stateMutability": "view",
      "type": "function"
    },
    {
      "constant": false,
      "inputs": [
        {
          "internalType": "address",
          "name": "token",
          "type": "address"
        },
        {
          "internalType": "uint256",
          "name": "tokenId",
          "type": "uint256"
        },
        {
          "internalType": "address",
          "name": "owner",
          "type": "address"
        },
        {
          "internalType": "uint256",
          "name": "nonce",
          "type": "uint256"
        }
      ],
      "name": "setNonce",
      "outputs": [],
      "payable": false,
      "stateMutability": "nonpayable",
      "type": "function"
    },
    {
      "constant": true,
      "inputs": [
        {
          "internalType": "address",
          "name": "token",
          "type": "address"
        },
        {
          "internalType": "uint256",
          "name": "tokenId",
          "type": "uint256"
        },
        {
          "internalType": "address",
          "name": "owner",
          "type": "address"
        }
      ],
      "name": "getNonceKey",
      "outputs": [
        {
          "internalType": "bytes32",
          "name": "",
          "type": "bytes32"
        }
      ],
      "payable": false,
      "stateMutability": "pure",
      "type": "function"
    },
    {
      "constant": true,
      "inputs": [
        {
          "internalType": "address",
          "name": "token",
          "type": "address"
        },
        {
          "internalType": "uint256",
          "name": "tokenId",
          "type": "uint256"
        },
        {
          "internalType": "address",
          "name": "owner",
          "type": "address"
        },
        {
          "internalType": "uint256",
          "name": "nonce",
          "type": "uint256"
        }
      ],
      "name": "getCompleted",
      "outputs": [
        {
          "internalType": "uint256",
          "name": "",
          "type": "uint256"
        }
      ],
      "payable": false,
      "stateMutability": "view",
      "type": "function"
    },
    {
      "constant": false,
      "inputs": [
        {
          "internalType": "address",
          "name": "token",
          "type": "address"
        },
        {
          "internalType": "uint256",
          "name": "tokenId",
          "type": "uint256"
        },
        {
          "internalType": "address",
          "name": "owner",
          "type": "address"
        },
        {
          "internalType": "uint256",
          "name": "nonce",
          "type": "uint256"
        },
        {
          "internalType": "uint256",
          "name": "_completed",
          "type": "uint256"
        }
      ],
      "name": "setCompleted",
      "outputs": [],
      "payable": false,
      "stateMutability": "nonpayable",
      "type": "function"
    },
    {
      "constant": true,
      "inputs": [
        {
          "internalType": "address",
          "name": "token",
          "type": "address"
        },
        {
          "internalType": "uint256",
          "name": "tokenId",
          "type": "uint256"
        },
        {
          "internalType": "address",
          "name": "owner",
          "type": "address"
        },
        {
          "internalType": "uint256",
          "name": "nonce",
          "type": "uint256"
        }
      ],
      "name": "getCompletedKey",
      "outputs": [
        {
          "internalType": "bytes32",
          "name": "",
          "type": "bytes32"
        }
      ],
      "payable": false,
      "stateMutability": "pure",
      "type": "function"
    }
  ],
  "bytecode": "0x608060405260006100176001600160e01b0361006616565b600080546001600160a01b0319166001600160a01b0383169081178255604051929350917f8be0079c531659141344cd1fd0a4f28419497f9722a3daafe3b4186f6b6457e0908290a35061006a565b3390565b610ac7806100796000396000f3fe608060405234801561001057600080fd5b50600436106100f55760003560e01c80638da5cb5b11610097578063ac8a584a11610066578063ac8a584a146102df578063e157b58c14610305578063f2fde38b1461033f578063f6419d9614610365576100f5565b80638da5cb5b146102705780638f32d59b146102945780639870d7fe1461029c5780639e317f12146102c2576100f5565b80634bd49ccb116100d35780634bd49ccb146101b45780636d70f7ae146101f4578063715018a61461022e5780637ad2ec8514610236576100f5565b806308345fbf146100fa5780631702c4bd146101365780634a15b6621461017e575b600080fd5b6101346004803603608081101561011057600080fd5b506001600160a01b0381358116916020810135916040820135169060600135610382565b005b61016c6004803603606081101561014c57600080fd5b506001600160a01b038135811691602081013591604090910135166103f4565b60408051918252519081900360200190f35b61016c6004803603606081101561019457600080fd5b506001600160a01b03813581169160208101359160409091013516610443565b610134600480360360a08110156101ca57600080fd5b506001600160a01b038135811691602081013591604082013516906060810135906080013561046c565b61021a6004803603602081101561020a57600080fd5b50356001600160a01b03166104db565b604080519115158252519081900360200190f35b6101346104f4565b61016c6004803603608081101561024c57600080fd5b506001600160a01b0381358116916020810135916040820135169060600135610585565b6102786105b0565b604080516001600160a01b039092168252519081900360200190f35b61021a6105bf565b610134600480360360208110156102b257600080fd5b50356001600160a01b03166105e3565b61016c600480360360208110156102d857600080fd5b5035610636565b610134600480360360208110156102f557600080fd5b50356001600160a01b0316610648565b61016c6004803603608081101561031b57600080fd5b506001600160a01b0381358116916020810135916040820135169060600135610698565b6101346004803603602081101561035557600080fd5b50356001600160a01b03166106f0565b61016c6004803603602081101561037b57600080fd5b5035610740565b61039261038d610752565b6104db565b6103cd5760405162461bcd60e51b81526004018080602001828103825260348152602001806109fc6034913960400191505060405180910390fd5b80600260006103dd8787876103f4565b815260208101919091526040016000205550505050565b604080516bffffffffffffffffffffffff19606095861b811660208084019190915260348301959095529290941b90911660548401528051604881850301815260689093019052815191012090565b6000600260006104548686866103f4565b81526020019081526020016000205490509392505050565b61047761038d610752565b6104b25760405162461bcd60e51b81526004018080602001828103825260348152602001806109fc6034913960400191505060405180910390fd5b80600360006104c388888888610698565b81526020810191909152604001600020555050505050565b60006104ee60018363ffffffff61075616565b92915050565b6104fc6105bf565b61053b576040805162461bcd60e51b81526020600482018190526024820152600080516020610a51833981519152604482015290519081900360640190fd5b600080546040516001600160a01b03909116907f8be0079c531659141344cd1fd0a4f28419497f9722a3daafe3b4186f6b6457e0908390a3600080546001600160a01b0319169055565b60006003600061059787878787610698565b8152602001908152602001600020549050949350505050565b6000546001600160a01b031690565b600080546001600160a01b03166105d4610752565b6001600160a01b031614905090565b6105eb6105bf565b61062a576040805162461bcd60e51b81526020600482018190526024820152600080516020610a51833981519152604482015290519081900360640190fd5b610633816107bd565b50565b60026020526000908152604090205481565b6106506105bf565b61068f576040805162461bcd60e51b81526020600482018190526024820152600080516020610a51833981519152604482015290519081900360640190fd5b61063381610805565b604080516bffffffffffffffffffffffff19606096871b811660208084019190915260348301969096529390951b90921660548501526068808501919091528151808503909101815260889093019052815191012090565b6106f86105bf565b610737576040805162461bcd60e51b81526020600482018190526024820152600080516020610a51833981519152604482015290519081900360640190fd5b6106338161084d565b60036020526000908152604090205481565b3390565b60006001600160a01b03821661079d5760405162461bcd60e51b8152600401808060200182810382526022815260200180610a716022913960400191505060405180910390fd5b506001600160a01b03166000908152602091909152604090205460ff1690565b6107ce60018263ffffffff6108ed16565b6040516001600160a01b038216907fac6fa858e9350a46cec16539926e0fde25b7629f84b5a72bffaae4df888ae86d90600090a250565b61081660018263ffffffff61096e16565b6040516001600160a01b038216907f80c0b871b97b595b16a7741c1b06fed0c6f6f558639f18ccbce50724325dc40d90600090a250565b6001600160a01b0381166108925760405162461bcd60e51b81526004018080602001828103825260268152602001806109d66026913960400191505060405180910390fd5b600080546040516001600160a01b03808516939216917f8be0079c531659141344cd1fd0a4f28419497f9722a3daafe3b4186f6b6457e091a3600080546001600160a01b0319166001600160a01b0392909216919091179055565b6108f78282610756565b15610949576040805162461bcd60e51b815260206004820152601f60248201527f526f6c65733a206163636f756e7420616c72656164792068617320726f6c6500604482015290519081900360640190fd5b6001600160a01b0316600090815260209190915260409020805460ff19166001179055565b6109788282610756565b6109b35760405162461bcd60e51b8152600401808060200182810382526021815260200180610a306021913960400191505060405180910390fd5b6001600160a01b0316600090815260209190915260409020805460ff1916905556fe4f776e61626c653a206e6577206f776e657220697320746865207a65726f20616464726573734f70657261746f72526f6c653a2063616c6c657220646f6573206e6f74206861766520746865204f70657261746f7220726f6c65526f6c65733a206163636f756e7420646f6573206e6f74206861766520726f6c654f776e61626c653a2063616c6c6572206973206e6f7420746865206f776e6572526f6c65733a206163636f756e7420697320746865207a65726f2061646472657373a265627a7a7231582031d349099372d015e152cf1373677caa8dee52fdc0e738164c6666e89f589aba64736f6c63430005100032",
  "source": "pragma solidity ^0.5.0;\n\nimport \"./roles/OwnableOperatorRole.sol\";\n\ncontract ERC1155SaleNonceHolder is OwnableOperatorRole {\n    // keccak256(token, owner, tokenId) => nonce\n    mapping(bytes32 => uint256) public nonces;\n\n    // keccak256(token, owner, tokenId, nonce) => completed amount\n    mapping(bytes32 => uint256) public completed;\n\n    function getNonce(address token, uint256 tokenId, address owner) view public returns (uint256) {\n        return nonces[getNonceKey(token, tokenId, owner)];\n    }\n\n    function setNonce(address token, uint256 tokenId, address owner, uint256 nonce) public onlyOperator {\n        nonces[getNonceKey(token, tokenId, owner)] = nonce;\n    }\n\n    function getNonceKey(address token, uint256 tokenId, address owner) pure public returns (bytes32) {\n        return keccak256(abi.encodePacked(token, tokenId, owner));\n    }\n\n    function getCompleted(address token, uint256 tokenId, address owner, uint256 nonce) view public returns (uint256) {\n        return completed[getCompletedKey(token, tokenId, owner, nonce)];\n    }\n\n    function setCompleted(address token, uint256 tokenId, address owner, uint256 nonce, uint256 _completed) public onlyOperator {\n        completed[getCompletedKey(token, tokenId, owner, nonce)] = _completed;\n    }\n\n    function getCompletedKey(address token, uint256 tokenId, address owner, uint256 nonce) pure public returns (bytes32) {\n        return keccak256(abi.encodePacked(token, tokenId, owner, nonce));\n    }\n}\n",
  "sourcePath": "/home/quadro/Projects/tokenplace/tokenplace-contracts/contracts/ERC1155SaleNonceHolder.sol",
  "compiler": {
    "name": "solc",
    "version": "0.5.16+commit.9c3226ce.Emscripten.clang"
  },
  "schemaVersion": "3.0.6",
  "updatedAt": "2020-05-23T12:02:05.478Z",
  "devdoc": {
    "methods": {
      "isOwner()": {
        "details": "Returns true if the caller is the current owner."
      },
      "owner()": {
        "details": "Returns the address of the current owner."
      },
      "renounceOwnership()": {
        "details": "Leaves the contract without owner. It will not be possible to call `onlyOwner` functions anymore. Can only be called by the current owner.     * NOTE: Renouncing ownership will leave the contract without an owner, thereby removing any functionality that is only available to the owner."
      },
      "transferOwnership(address)": {
        "details": "Transfers ownership of the contract to a new account (`newOwner`). Can only be called by the current owner."
      }
    }
  },
  "userdoc": {
    "methods": {}
  }
}