{
  "contractName": "RaribleUserToken",
  "abi": [
    {
      "inputs": [
        {
          "internalType": "string",
          "name": "name",
          "type": "string"
        },
        {
          "internalType": "string",
          "name": "symbol",
          "type": "string"
        },
        {
          "internalType": "string",
          "name": "contractURI",
          "type": "string"
        },
        {
          "internalType": "string",
          "name": "tokenURIPrefix",
          "type": "string"
        },
        {
          "internalType": "address",
          "name": "signer",
          "type": "address"
        }
      ],
      "payable": false,
      "stateMutability": "nonpayable",
      "type": "constructor"
    },
    {
      "anonymous": false,
      "inputs": [
        {
          "indexed": true,
          "internalType": "address",
          "name": "_owner",
          "type": "address"
        },
        {
          "indexed": true,
          "internalType": "address",
          "name": "_operator",
          "type": "address"
        },
        {
          "indexed": false,
          "internalType": "bool",
          "name": "_approved",
          "type": "bool"
        }
      ],
      "name": "ApprovalForAll",
      "type": "event"
    },
    {
      "anonymous": false,
      "inputs": [
        {
          "indexed": true,
          "internalType": "address",
          "name": "creator",
          "type": "address"
        },
        {
          "indexed": false,
          "internalType": "string",
          "name": "name",
          "type": "string"
        },
        {
          "indexed": false,
          "internalType": "string",
          "name": "symbol",
          "type": "string"
        }
      ],
      "name": "CreateERC1155_v1",
      "type": "event"
    },
    {
      "anonymous": false,
      "inputs": [
        {
          "indexed": true,
          "internalType": "address",
          "name": "previousOwner",
          "type": "address"
        },
        {
          "indexed": true,
          "internalType": "address",
          "name": "newOwner",
          "type": "address"
        }
      ],
      "name": "OwnershipTransferred",
      "type": "event"
    },
    {
      "anonymous": false,
      "inputs": [
        {
          "indexed": false,
          "internalType": "uint256",
          "name": "tokenId",
          "type": "uint256"
        },
        {
          "indexed": false,
          "internalType": "address[]",
          "name": "recipients",
          "type": "address[]"
        },
        {
          "indexed": false,
          "internalType": "uint256[]",
          "name": "bps",
          "type": "uint256[]"
        }
      ],
      "name": "SecondarySaleFees",
      "type": "event"
    },
    {
      "anonymous": false,
      "inputs": [
        {
          "indexed": true,
          "internalType": "address",
          "name": "account",
          "type": "address"
        }
      ],
      "name": "SignerAdded",
      "type": "event"
    },
    {
      "anonymous": false,
      "inputs": [
        {
          "indexed": true,
          "internalType": "address",
          "name": "account",
          "type": "address"
        }
      ],
      "name": "SignerRemoved",
      "type": "event"
    },
    {
      "anonymous": false,
      "inputs": [
        {
          "indexed": true,
          "internalType": "address",
          "name": "_operator",
          "type": "address"
        },
        {
          "indexed": true,
          "internalType": "address",
          "name": "_from",
          "type": "address"
        },
        {
          "indexed": true,
          "internalType": "address",
          "name": "_to",
          "type": "address"
        },
        {
          "indexed": false,
          "internalType": "uint256[]",
          "name": "_ids",
          "type": "uint256[]"
        },
        {
          "indexed": false,
          "internalType": "uint256[]",
          "name": "_values",
          "type": "uint256[]"
        }
      ],
      "name": "TransferBatch",
      "type": "event"
    },
    {
      "anonymous": false,
      "inputs": [
        {
          "indexed": true,
          "internalType": "address",
          "name": "_operator",
          "type": "address"
        },
        {
          "indexed": true,
          "internalType": "address",
          "name": "_from",
          "type": "address"
        },
        {
          "indexed": true,
          "internalType": "address",
          "name": "_to",
          "type": "address"
        },
        {
          "indexed": false,
          "internalType": "uint256",
          "name": "_id",
          "type": "uint256"
        },
        {
          "indexed": false,
          "internalType": "uint256",
          "name": "_value",
          "type": "uint256"
        }
      ],
      "name": "TransferSingle",
      "type": "event"
    },
    {
      "anonymous": false,
      "inputs": [
        {
          "indexed": false,
          "internalType": "string",
          "name": "_value",
          "type": "string"
        },
        {
          "indexed": true,
          "internalType": "uint256",
          "name": "_id",
          "type": "uint256"
        }
      ],
      "name": "URI",
      "type": "event"
    },
    {
      "constant": false,
      "inputs": [
        {
          "internalType": "address",
          "name": "account",
          "type": "address"
        }
      ],
      "name": "addSigner",
      "outputs": [],
      "payable": false,
      "stateMutability": "nonpayable",
      "type": "function"
    },
    {
      "constant": true,
      "inputs": [
        {
          "internalType": "address",
          "name": "_owner",
          "type": "address"
        },
        {
          "internalType": "uint256",
          "name": "_id",
          "type": "uint256"
        }
      ],
      "name": "balanceOf",
      "outputs": [
        {
          "internalType": "uint256",
          "name": "",
          "type": "uint256"
        }
      ],
      "payable": false,
      "stateMutability": "view",
      "type": "function"
    },
    {
      "constant": true,
      "inputs": [
        {
          "internalType": "address[]",
          "name": "_owners",
          "type": "address[]"
        },
        {
          "internalType": "uint256[]",
          "name": "_ids",
          "type": "uint256[]"
        }
      ],
      "name": "balanceOfBatch",
      "outputs": [
        {
          "internalType": "uint256[]",
          "name": "",
          "type": "uint256[]"
        }
      ],
      "payable": false,
      "stateMutability": "view",
      "type": "function"
    },
    {
      "constant": false,
      "inputs": [
        {
          "internalType": "address",
          "name": "_owner",
          "type": "address"
        },
        {
          "internalType": "uint256",
          "name": "_id",
          "type": "uint256"
        },
        {
          "internalType": "uint256",
          "name": "_value",
          "type": "uint256"
        }
      ],
      "name": "burn",
      "outputs": [],
      "payable": false,
      "stateMutability": "nonpayable",
      "type": "function"
    },
    {
      "constant": true,
      "inputs": [],
      "name": "contractURI",
      "outputs": [
        {
          "internalType": "string",
          "name": "",
          "type": "string"
        }
      ],
      "payable": false,
      "stateMutability": "view",
      "type": "function"
    },
    {
      "constant": true,
      "inputs": [
        {
          "internalType": "uint256",
          "name": "",
          "type": "uint256"
        }
      ],
      "name": "creators",
      "outputs": [
        {
          "internalType": "address",
          "name": "",
          "type": "address"
        }
      ],
      "payable": false,
      "stateMutability": "view",
      "type": "function"
    },
    {
      "constant": true,
      "inputs": [
        {
          "internalType": "uint256",
          "name": "",
          "type": "uint256"
        },
        {
          "internalType": "uint256",
          "name": "",
          "type": "uint256"
        }
      ],
      "name": "fees",
      "outputs": [
        {
          "internalType": "address payable",
          "name": "recipient",
          "type": "address"
        },
        {
          "internalType": "uint256",
          "name": "value",
          "type": "uint256"
        }
      ],
      "payable": false,
      "stateMutability": "view",
      "type": "function"
    },
    {
      "constant": true,
      "inputs": [
        {
          "internalType": "uint256",
          "name": "id",
          "type": "uint256"
        }
      ],
      "name": "getFeeBps",
      "outputs": [
        {
          "internalType": "uint256[]",
          "name": "",
          "type": "uint256[]"
        }
      ],
      "payable": false,
      "stateMutability": "view",
      "type": "function"
    },
    {
      "constant": true,
      "inputs": [
        {
          "internalType": "uint256",
          "name": "id",
          "type": "uint256"
        }
      ],
      "name": "getFeeRecipients",
      "outputs": [
        {
          "internalType": "address payable[]",
          "name": "",
          "type": "address[]"
        }
      ],
      "payable": false,
      "stateMutability": "view",
      "type": "function"
    },
    {
      "constant": true,
      "inputs": [
        {
          "internalType": "address",
          "name": "_owner",
          "type": "address"
        },
        {
          "internalType": "address",
          "name": "_operator",
          "type": "address"
        }
      ],
      "name": "isApprovedForAll",
      "outputs": [
        {
          "internalType": "bool",
          "name": "",
          "type": "bool"
        }
      ],
      "payable": false,
      "stateMutability": "view",
      "type": "function"
    },
    {
      "constant": true,
      "inputs": [],
      "name": "isOwner",
      "outputs": [
        {
          "internalType": "bool",
          "name": "",
          "type": "bool"
        }
      ],
      "payable": false,
      "stateMutability": "view",
      "type": "function"
    },
    {
      "constant": true,
      "inputs": [
        {
          "internalType": "address",
          "name": "account",
          "type": "address"
        }
      ],
      "name": "isSigner",
      "outputs": [
        {
          "internalType": "bool",
          "name": "",
          "type": "bool"
        }
      ],
      "payable": false,
      "stateMutability": "view",
      "type": "function"
    },
    {
      "constant": true,
      "inputs": [],
      "name": "name",
      "outputs": [
        {
          "internalType": "string",
          "name": "",
          "type": "string"
        }
      ],
      "payable": false,
      "stateMutability": "view",
      "type": "function"
    },
    {
      "constant": true,
      "inputs": [],
      "name": "owner",
      "outputs": [
        {
          "internalType": "address",
          "name": "",
          "type": "address"
        }
      ],
      "payable": false,
      "stateMutability": "view",
      "type": "function"
    },
    {
      "constant": false,
      "inputs": [
        {
          "internalType": "address",
          "name": "account",
          "type": "address"
        }
      ],
      "name": "removeSigner",
      "outputs": [],
      "payable": false,
      "stateMutability": "nonpayable",
      "type": "function"
    },
    {
      "constant": false,
      "inputs": [],
      "name": "renounceOwnership",
      "outputs": [],
      "payable": false,
      "stateMutability": "nonpayable",
      "type": "function"
    },
    {
      "constant": false,
      "inputs": [],
      "name": "renounceSigner",
      "outputs": [],
      "payable": false,
      "stateMutability": "nonpayable",
      "type": "function"
    },
    {
      "constant": false,
      "inputs": [
        {
          "internalType": "address",
          "name": "_from",
          "type": "address"
        },
        {
          "internalType": "address",
          "name": "_to",
          "type": "address"
        },
        {
          "internalType": "uint256[]",
          "name": "_ids",
          "type": "uint256[]"
        },
        {
          "internalType": "uint256[]",
          "name": "_values",
          "type": "uint256[]"
        },
        {
          "internalType": "bytes",
          "name": "_data",
          "type": "bytes"
        }
      ],
      "name": "safeBatchTransferFrom",
      "outputs": [],
      "payable": false,
      "stateMutability": "nonpayable",
      "type": "function"
    },
    {
      "constant": false,
      "inputs": [
        {
          "internalType": "address",
          "name": "_from",
          "type": "address"
        },
        {
          "internalType": "address",
          "name": "_to",
          "type": "address"
        },
        {
          "internalType": "uint256",
          "name": "_id",
          "type": "uint256"
        },
        {
          "internalType": "uint256",
          "name": "_value",
          "type": "uint256"
        },
        {
          "internalType": "bytes",
          "name": "_data",
          "type": "bytes"
        }
      ],
      "name": "safeTransferFrom",
      "outputs": [],
      "payable": false,
      "stateMutability": "nonpayable",
      "type": "function"
    },
    {
      "constant": false,
      "inputs": [
        {
          "internalType": "address",
          "name": "_operator",
          "type": "address"
        },
        {
          "internalType": "bool",
          "name": "_approved",
          "type": "bool"
        }
      ],
      "name": "setApprovalForAll",
      "outputs": [],
      "payable": false,
      "stateMutability": "nonpayable",
      "type": "function"
    },
    {
      "constant": false,
      "inputs": [
        {
          "internalType": "string",
          "name": "contractURI",
          "type": "string"
        }
      ],
      "name": "setContractURI",
      "outputs": [],
      "payable": false,
      "stateMutability": "nonpayable",
      "type": "function"
    },
    {
      "constant": false,
      "inputs": [
        {
          "internalType": "string",
          "name": "tokenURIPrefix",
          "type": "string"
        }
      ],
      "name": "setTokenURIPrefix",
      "outputs": [],
      "payable": false,
      "stateMutability": "nonpayable",
      "type": "function"
    },
    {
      "constant": true,
      "inputs": [
        {
          "internalType": "bytes4",
          "name": "interfaceId",
          "type": "bytes4"
        }
      ],
      "name": "supportsInterface",
      "outputs": [
        {
          "internalType": "bool",
          "name": "",
          "type": "bool"
        }
      ],
      "payable": false,
      "stateMutability": "view",
      "type": "function"
    },
    {
      "constant": true,
      "inputs": [],
      "name": "symbol",
      "outputs": [
        {
          "internalType": "string",
          "name": "",
          "type": "string"
        }
      ],
      "payable": false,
      "stateMutability": "view",
      "type": "function"
    },
    {
      "constant": true,
      "inputs": [],
      "name": "tokenURIPrefix",
      "outputs": [
        {
          "internalType": "string",
          "name": "",
          "type": "string"
        }
      ],
      "payable": false,
      "stateMutability": "view",
      "type": "function"
    },
    {
      "constant": false,
      "inputs": [
        {
          "internalType": "address",
          "name": "newOwner",
          "type": "address"
        }
      ],
      "name": "transferOwnership",
      "outputs": [],
      "payable": false,
      "stateMutability": "nonpayable",
      "type": "function"
    },
    {
      "constant": true,
      "inputs": [
        {
          "internalType": "uint256",
          "name": "_id",
          "type": "uint256"
        }
      ],
      "name": "uri",
      "outputs": [
        {
          "internalType": "string",
          "name": "",
          "type": "string"
        }
      ],
      "payable": false,
      "stateMutability": "view",
      "type": "function"
    },
    {
      "constant": false,
      "inputs": [
        {
          "internalType": "uint256",
          "name": "id",
          "type": "uint256"
        },
        {
          "internalType": "uint8",
          "name": "v",
          "type": "uint8"
        },
        {
          "internalType": "bytes32",
          "name": "r",
          "type": "bytes32"
        },
        {
          "internalType": "bytes32",
          "name": "s",
          "type": "bytes32"
        },
        {
          "components": [
            {
              "internalType": "address payable",
              "name": "recipient",
              "type": "address"
            },
            {
              "internalType": "uint256",
              "name": "value",
              "type": "uint256"
            }
          ],
          "internalType": "struct ERC1155Base.Fee[]",
          "name": "fees",
          "type": "tuple[]"
        },
        {
          "internalType": "uint256",
          "name": "supply",
          "type": "uint256"
        },
        {
          "internalType": "string",
          "name": "uri",
          "type": "string"
        }
      ],
      "name": "mint",
      "outputs": [],
      "payable": false,
      "stateMutability": "nonpayable",
      "type": "function"
    }
  ],
  "bytecode": "0x60806040523480156200001157600080fd5b506040516200359e3803806200359e833981016040819052620000349162000489565b84848285858181818180620000596301ffc9a760e01b6001600160e01b036200022316565b62000074632dde656160e21b6001600160e01b036200022316565b6000620000896001600160e01b036200027e16565b600180546001600160a01b0319166001600160a01b038316908117909155604051919250906000907f8be0079c531659141344cd1fd0a4f28419497f9722a3daafe3b4186f6b6457e0908290a350620000fd620000ee6001600160e01b036200027e16565b6001600160e01b036200028316565b8051620001129060039060208401906200037e565b505081516200012a915060059060208401906200037e565b506200014663e8a3d48560e01b6001600160e01b036200022316565b5062000162636cdb3d1360e11b6001600160e01b036200022316565b505084516200017990600a9060208801906200037e565b5083516200018f90600b9060208701906200037e565b50620001a4836001600160e01b036200028316565b620001ce604051620001b69062000693565b6040519081900390206001600160e01b036200022316565b5050505050336001600160a01b03167f658fd9a983a35f4a0bb697abb2c6971d688010d8bc264928a164ae391b87472c868660405162000210929190620006a0565b60405180910390a25050505050620007d1565b6001600160e01b03198082161415620002595760405162461bcd60e51b81526004016200025090620006e3565b60405180910390fd5b6001600160e01b0319166000908152602081905260409020805460ff19166001179055565b335b90565b6200029e816002620002d560201b62001ae61790919060201c565b6040516001600160a01b038216907f47d1c22a25bb3a5d4e481b9b1e6944c2eade3181a0a20b495ed61d35b5323f2490600090a250565b620002ea82826001600160e01b036200032f16565b156200030a5760405162461bcd60e51b81526004016200025090620006d1565b6001600160a01b0316600090815260209190915260409020805460ff19166001179055565b60006001600160a01b0382166200035a5760405162461bcd60e51b81526004016200025090620006f5565b506001600160a01b03811660009081526020839052604090205460ff165b92915050565b828054600181600116156101000203166002900490600052602060002090601f016020900481019282601f10620003c157805160ff1916838001178555620003f1565b82800160010185558215620003f1579182015b82811115620003f1578251825591602001919060010190620003d4565b50620003ff92915062000403565b5090565b6200028091905b80821115620003ff57600081556001016200040a565b80516200037881620007b7565b600082601f8301126200043f57600080fd5b81516200045662000450826200072e565b62000707565b915080825260208301602083018583830111156200047357600080fd5b620004808382846200077a565b50505092915050565b600080600080600060a08688031215620004a257600080fd5b85516001600160401b03811115620004b957600080fd5b620004c7888289016200042d565b95505060208601516001600160401b03811115620004e457600080fd5b620004f2888289016200042d565b94505060408601516001600160401b038111156200050f57600080fd5b6200051d888289016200042d565b93505060608601516001600160401b038111156200053a57600080fd5b62000548888289016200042d565b92505060806200055b8882890162000420565b9150509295509295909350565b6000620005758262000756565b6200058181856200075a565b9350620005938185602086016200077a565b6200059e81620007ad565b9093019392505050565b6000620005b7601f836200075a565b7f526f6c65733a206163636f756e7420616c72656164792068617320726f6c6500815260200192915050565b6000620005f2601c836200075a565b7f4552433136353a20696e76616c696420696e7465726661636520696400000000815260200192915050565b60006200062d6022836200075a565b7f526f6c65733a206163636f756e7420697320746865207a65726f206164647265815261737360f01b602082015260400192915050565b60006200067360118362000763565b704d494e545f574954485f4144445245535360781b815260110192915050565b6000620003788262000664565b60408082528101620006b3818562000568565b90508181036020830152620006c9818462000568565b949350505050565b602080825281016200037881620005a8565b602080825281016200037881620005e3565b6020808252810162000378816200061e565b6040518181016001600160401b03811182821017156200072657600080fd5b604052919050565b60006001600160401b038211156200074557600080fd5b506020601f91909101601f19160190565b5190565b90815260200190565b919050565b60006001600160a01b03821662000378565b60005b83811015620007975781810151838201526020016200077d565b83811115620007a7576000848401525b50505050565b601f01601f191690565b620007c28162000768565b8114620007ce57600080fd5b50565b612dbd80620007e16000396000f3fe608060405234801561001057600080fd5b50600436106101c35760003560e01c806395d89b41116100f9578063e5c8b03d11610097578063eb12d61e11610071578063eb12d61e1461039f578063f242432a146103b2578063f2fde38b146103c5578063f5298aca146103d8576101c3565b8063e5c8b03d1461037c578063e8a3d48514610384578063e985e9c51461038c576101c3565b8063b9c4d9fb116100d3578063b9c4d9fb1461032e578063c0ac99831461034e578063c6bf326214610356578063cd53d08e14610369576101c3565b806395d89b411461030057806399e0dd7c14610308578063a22cb4651461031b576101c3565b80634e1273f4116101665780637df73e27116101405780637df73e27146102bd5780638da5cb5b146102d05780638f32d59b146102e5578063938e3d7b146102ed576101c3565b80634e1273f4146102815780636308f1cd14610294578063715018a6146102b5576101c3565b80630e316ab7116101a25780630e316ab7146102265780630e89341c1461023b5780630ebd4c7f1461024e5780632eb2c2d61461026e576101c3565b8062fdd58e146101c857806301ffc9a7146101f157806306fdde0314610211575b600080fd5b6101db6101d6366004611fe7565b6103eb565b6040516101e89190612bdb565b60405180910390f35b6102046101ff3660046120d2565b610415565b6040516101e89190612a4e565b610219610434565b6040516101e89190612a9a565b610239610234366004611e09565b6104c2565b005b610219610249366004612142565b6104fb565b61026161025c366004612142565b610506565b6040516101e89190612a3d565b61023961027c366004611e61565b6105f9565b61026161028f366004612064565b6108ef565b6102a76102a2366004612160565b6109c9565b6040516101e8929190612932565b610239610a0c565b6102046102cb366004611e09565b610a7a565b6102d8610a8d565b6040516101e89190612924565b610204610a9d565b6102396102fb36600461210e565b610ac3565b610219610af0565b61023961031636600461210e565b610b4b565b610239610329366004611fb7565b610b78565b61034161033c366004612142565b610be7565b6040516101e891906129fb565b610219610cdf565b61023961036436600461217f565b610d3a565b6102d8610377366004612142565b610d76565b610239610d91565b610219610da3565b61020461039a366004611e27565b610dfe565b6102396103ad366004611e09565b610e2c565b6102396103c0366004611f28565b610e59565b6102396103d3366004611e09565b611013565b6102396103e6366004612017565b611040565b60008181526006602090815260408083206001600160a01b03861684529091529020545b92915050565b6001600160e01b03191660009081526020819052604090205460ff1690565b600a805460408051602060026001851615610100026000190190941693909304601f810184900484028201840190925281815292918301828280156104ba5780601f1061048f576101008083540402835291602001916104ba565b820191906000526020600020905b81548152906001019060200180831161049d57829003601f168201915b505050505081565b6104ca610a9d565b6104ef5760405162461bcd60e51b81526004016104e690612b3b565b60405180910390fd5b6104f881611138565b50565b606061040f82611180565b60008181526009602090815260408083208054825181850281018501909352808352606094859484015b82821015610578576000848152602090819020604080518082019091526002850290910180546001600160a01b03168252600190810154828401529083529092019101610530565b505050509050606081516040519080825280602002602001820160405280156105ab578160200160208202803883390190505b50905060005b82518110156105f1578281815181106105c657fe5b6020026020010151602001518282815181106105de57fe5b60209081029190910101526001016105b1565b509392505050565b6001600160a01b03871661061f5760405162461bcd60e51b81526004016104e690612aeb565b84831461063e5760405162461bcd60e51b81526004016104e690612b7b565b6001600160a01b03881633148061067d57506001600160a01b038816600090815260076020908152604080832033845290915290205460ff1615156001145b6106995760405162461bcd60e51b81526004016104e690612b1b565b60005b858110156107ce5760008787838181106106b257fe5b90506020020135905060008686848181106106c957fe5b90506020020135905061071b816006600085815260200190815260200160002060008e6001600160a01b03166001600160a01b03168152602001908152602001600020546112bb90919063ffffffff16565b6006600084815260200190815260200160002060008d6001600160a01b03166001600160a01b031681526020019081526020016000208190555061079e6006600084815260200190815260200160002060008c6001600160a01b03166001600160a01b0316815260200190815260200160002054826112cd90919063ffffffff16565b60009283526006602090815260408085206001600160a01b038e168652909152909220919091555060010161069c565b50866001600160a01b0316886001600160a01b0316336001600160a01b03167f4a39dc06d4c0dbc64b70af90fd698a233a518aa5d07e595d983b8c0526c8f7fb898989896040516108229493929190612a0c565b60405180910390a461083c876001600160a01b03166112da565b156108e5576108e533898989898080602002602001604051908101604052809392919081815260200183836020028082843760009201919091525050604080516020808d0282810182019093528c82529093508c92508b91829185019084908082843760009201919091525050604080516020601f8c018190048102820181019092528a815292508a915089908190840183828082843760009201919091525061131692505050565b5050505050505050565b60608382146108fd57600080fd5b604080518581526020808702820101909152606090858015610929578160200160208202803883390190505b50905060005b858110156109bf576006600086868481811061094757fe5b905060200201358152602001908152602001600020600088888481811061096a57fe5b905060200201602061097f9190810190611e09565b6001600160a01b03166001600160a01b03168152602001908152602001600020548282815181106109ac57fe5b602090810291909101015260010161092f565b5095945050505050565b600960205281600052604060002081815481106109e257fe5b6000918252602090912060029091020180546001909101546001600160a01b039091169250905082565b610a14610a9d565b610a305760405162461bcd60e51b81526004016104e690612b3b565b6001546040516000916001600160a01b0316907f8be0079c531659141344cd1fd0a4f28419497f9722a3daafe3b4186f6b6457e0908390a3600180546001600160a01b0319169055565b600061040f60028363ffffffff6113c516565b6001546001600160a01b03165b90565b6001546000906001600160a01b0316610ab461140d565b6001600160a01b031614905090565b610acb610a9d565b610ae75760405162461bcd60e51b81526004016104e690612b3b565b6104f881611411565b600b805460408051602060026001851615610100026000190190941693909304601f810184900484028201840190925281815292918301828280156104ba5780601f1061048f576101008083540402835291602001916104ba565b610b53610a9d565b610b6f5760405162461bcd60e51b81526004016104e690612b3b565b6104f881611428565b3360008181526007602090815260408083206001600160a01b038716808552925291829020805460ff191685151517905590519091907f17307eab39ab6107e8899845ad3d59bd9653f200f220920489ca2b5937696c3190610bdb908590612a4e565b60405180910390a35050565b60008181526009602090815260408083208054825181850281018501909352808352606094859484015b82821015610c59576000848152602090819020604080518082019091526002850290910180546001600160a01b03168252600190810154828401529083529092019101610c11565b50505050905060608151604051908082528060200260200182016040528015610c8c578160200160208202803883390190505b50905060005b82518110156105f157828181518110610ca757fe5b602002602001015160000151828281518110610cbf57fe5b6001600160a01b0390921660209283029190910190910152600101610c92565b6003805460408051602060026001851615610100026000190190941693909304601f810184900484028201840190925281815292918301828280156104ba5780601f1061048f576101008083540402835291602001916104ba565b610d42610a9d565b610d5e5760405162461bcd60e51b81526004016104e690612b3b565b610d6d8787878787878761143b565b50505050505050565b6008602052600090815260409020546001600160a01b031681565b610da1610d9c61140d565b611138565b565b6005805460408051602060026001851615610100026000190190941693909304601f810184900484028201840190925281815292918301828280156104ba5780601f1061048f576101008083540402835291602001916104ba565b6001600160a01b03918216600090815260076020908152604080832093909416825291909152205460ff1690565b610e34610a9d565b610e505760405162461bcd60e51b81526004016104e690612b3b565b6104f8816114e2565b6001600160a01b038516610e7f5760405162461bcd60e51b81526004016104e690612bab565b6001600160a01b038616331480610ebe57506001600160a01b038616600090815260076020908152604080832033845290915290205460ff1615156001145b610eda5760405162461bcd60e51b81526004016104e690612b1b565b60008481526006602090815260408083206001600160a01b038a168452909152902054610f0d908463ffffffff6112bb16565b60008581526006602090815260408083206001600160a01b038b81168552925280832093909355871681522054610f459084906112cd565b60008581526006602090815260408083206001600160a01b03808b168086529190935292819020939093559151909188169033907fc3d58168c5ae7397731d063d5bbf3d657854427343f4c083240f7aacaa2d0f6290610fa89089908990612c1d565b60405180910390a4610fc2856001600160a01b03166112da565b1561100b5761100b338787878787878080601f01602080910402602001604051908101604052809392919081815260200183838082843760009201919091525061152a92505050565b505050505050565b61101b610a9d565b6110375760405162461bcd60e51b81526004016104e690612b3b565b6104f8816115d9565b6001600160a01b03831633148061107f57506001600160a01b038316600090815260076020908152604080832033845290915290205460ff1615156001145b61109b5760405162461bcd60e51b81526004016104e690612b0b565b60008281526006602090815260408083206001600160a01b03871684529091529020546110ce908263ffffffff6112bb16565b60008381526006602090815260408083206001600160a01b038816808552925280832093909355915190919033907fc3d58168c5ae7397731d063d5bbf3d657854427343f4c083240f7aacaa2d0f629061112b9087908790612c1d565b60405180910390a4505050565b61114960028263ffffffff61165b16565b6040516001600160a01b038216907f3525e22824a8a7df2c9a6029941c824cf95b6447f1e13d5128fd3826d35afe8b90600090a250565b6000818152600460209081526040918290208054835160026001831615610100026000190190921691909104601f810184900484028201840190945283815260609361040f9391929183018282801561121a5780601f106111ef5761010080835404028352916020019161121a565b820191906000526020600020905b8154815290600101906020018083116111fd57829003601f168201915b505060038054604080516020601f60026000196101006001881615020190951694909404938401819004810282018101909252828152955091935091508301828280156112a85780601f1061127d576101008083540402835291602001916112a8565b820191906000526020600020905b81548152906001019060200180831161128b57829003601f168201915b50505050506116a390919063ffffffff16565b6000828211156112c757fe5b50900390565b8181018281101561040f57fe5b6000813f7fc5d2460186f7233c927e7db2dcc703c0e500b653ca82273b7bfad8045d85a47081811480159061130e57508115155b949350505050565b60405163bc197c8160e01b808252906001600160a01b0386169063bc197c819061134c908a908a90899089908990600401612954565b602060405180830381600087803b15801561136657600080fd5b505af115801561137a573d6000803e3d6000fd5b505050506040513d601f19601f8201168201806040525061139e91908101906120f0565b6001600160e01b0319161461100b5760405162461bcd60e51b81526004016104e690612b2b565b60006001600160a01b0382166113ed5760405162461bcd60e51b81526004016104e690612b4b565b506001600160a01b03166000908152602091909152604090205460ff1690565b3390565b8051611424906005906020840190611b8f565b5050565b8051611424906003906020840190611b8f565b6114ba600130896040516020016114539291906128fe565b60405160208183030381529060405280519060200120888888604051600081526020016040526040516114899493929190612a5c565b6020604051602081039080840390855afa1580156114ab573d6000803e3d6000fd5b50505060206040510351610a7a565b6114d65760405162461bcd60e51b81526004016104e690612bbb565b610d6d87848484611798565b6114f360028263ffffffff611ae616565b6040516001600160a01b038216907f47d1c22a25bb3a5d4e481b9b1e6944c2eade3181a0a20b495ed61d35b5323f2490600090a250565b60405163f23a6e6160e01b808252906001600160a01b0386169063f23a6e6190611560908a908a908990899089906004016129b4565b602060405180830381600087803b15801561157a57600080fd5b505af115801561158e573d6000803e3d6000fd5b505050506040513d601f19601f820116820180604052506115b291908101906120f0565b6001600160e01b0319161461100b5760405162461bcd60e51b81526004016104e690612b9b565b6001600160a01b0381166115ff5760405162461bcd60e51b81526004016104e690612acb565b6001546040516001600160a01b038084169216907f8be0079c531659141344cd1fd0a4f28419497f9722a3daafe3b4186f6b6457e090600090a3600180546001600160a01b0319166001600160a01b0392909216919091179055565b61166582826113c5565b6116815760405162461bcd60e51b81526004016104e690612afb565b6001600160a01b0316600090815260209190915260409020805460ff19169055565b6060808390506060839050606081518351016040519080825280601f01601f1916602001820160405280156116df576020820181803883390190505b5090506000805b8451811015611737578481815181106116fb57fe5b602001015160f81c60f81b83838060010194508151811061171857fe5b60200101906001600160f81b031916908160001a9053506001016116e6565b5060005b835181101561178c5783818151811061175057fe5b602001015160f81c60f81b83838060010194508151811061176d57fe5b60200101906001600160f81b031916908160001a90535060010161173b565b50909695505050505050565b6000848152600860205260409020546001600160a01b0316156117cd5760405162461bcd60e51b81526004016104e690612b5b565b816117ea5760405162461bcd60e51b81526004016104e690612b6b565b600081511161180b5760405162461bcd60e51b81526004016104e690612bcb565b60008481526008602090815260409182902080546001600160a01b031916331790558451825181815281830281019092019092526060918015611858578160200160208202803883390190505b50905060608451604051908082528060200260200182016040528015611888578160200160208202803883390190505b50905060005b85518110156119fb5760006001600160a01b03168682815181106118ae57fe5b6020026020010151600001516001600160a01b031614156118e15760405162461bcd60e51b81526004016104e690612b8b565b8581815181106118ed57fe5b602002602001015160200151600014156119195760405162461bcd60e51b81526004016104e690612aab565b6000878152600960205260409020865187908390811061193557fe5b602090810291909101810151825460018082018555600094855293839020825160029092020180546001600160a01b0319166001600160a01b03909216919091178155910151910155855186908290811061198c57fe5b6020026020010151600001518382815181106119a457fe5b60200260200101906001600160a01b031690816001600160a01b0316815250508581815181106119d057fe5b6020026020010151602001518282815181106119e857fe5b602090810291909101015260010161188e565b50845115611a3f577f99aba1d63749cfd5ad1afda7c4663840924d54eb5f005bbbeadedc6ec13674b2868383604051611a3693929190612be9565b60405180910390a15b60008681526006602090815260408083203384529091529020849055611a658684611b32565b604051339060009082907fc3d58168c5ae7397731d063d5bbf3d657854427343f4c083240f7aacaa2d0f6290611a9e908b908a90612c1d565b60405180910390a4857f6bb7ff708619ba0610cba295a58592e0451dee2622938c8755667688daf3529b84604051611ad69190612a9a565b60405180910390a2505050505050565b611af082826113c5565b15611b0d5760405162461bcd60e51b81526004016104e690612abb565b6001600160a01b0316600090815260209190915260409020805460ff19166001179055565b6000828152600860205260409020546001600160a01b0316611b665760405162461bcd60e51b81526004016104e690612adb565b611424828260008281526004602090815260409091208251611b8a92840190611b8f565b505050565b828054600181600116156101000203166002900490600052602060002090601f016020900481019282601f10611bd057805160ff1916838001178555611bfd565b82800160010185558215611bfd579182015b82811115611bfd578251825591602001919060010190611be2565b50611c09929150611c0d565b5090565b610a9a91905b80821115611c095760008155600101611c13565b803561040f81612d42565b60008083601f840112611c4457600080fd5b5081356001600160401b03811115611c5b57600080fd5b602083019150836020820283011115611c7357600080fd5b9250929050565b600082601f830112611c8b57600080fd5b8135611c9e611c9982612c51565b612c2b565b91508181835260208401935060208101905083856040840282011115611cc357600080fd5b60005b83811015611cf15781611cd98882611db7565b84525060209092019160409190910190600101611cc6565b5050505092915050565b803561040f81612d56565b803561040f81612d5f565b803561040f81612d68565b805161040f81612d68565b60008083601f840112611d3957600080fd5b5081356001600160401b03811115611d5057600080fd5b602083019150836001820283011115611c7357600080fd5b600082601f830112611d7957600080fd5b8135611d87611c9982612c71565b91508082526020830160208301858383011115611da357600080fd5b611dae838284612ce5565b50505092915050565b600060408284031215611dc957600080fd5b611dd36040612c2b565b90506000611de18484611c27565b8252506020611df284848301611d06565b60208301525092915050565b803561040f81612d71565b600060208284031215611e1b57600080fd5b600061130e8484611c27565b60008060408385031215611e3a57600080fd5b6000611e468585611c27565b9250506020611e5785828601611c27565b9150509250929050565b60008060008060008060008060a0898b031215611e7d57600080fd5b6000611e898b8b611c27565b9850506020611e9a8b828c01611c27565b97505060408901356001600160401b03811115611eb657600080fd5b611ec28b828c01611c32565b965096505060608901356001600160401b03811115611ee057600080fd5b611eec8b828c01611c32565b945094505060808901356001600160401b03811115611f0a57600080fd5b611f168b828c01611d27565b92509250509295985092959890939650565b60008060008060008060a08789031215611f4157600080fd5b6000611f4d8989611c27565b9650506020611f5e89828a01611c27565b9550506040611f6f89828a01611d06565b9450506060611f8089828a01611d06565b93505060808701356001600160401b03811115611f9c57600080fd5b611fa889828a01611d27565b92509250509295509295509295565b60008060408385031215611fca57600080fd5b6000611fd68585611c27565b9250506020611e5785828601611cfb565b60008060408385031215611ffa57600080fd5b60006120068585611c27565b9250506020611e5785828601611d06565b60008060006060848603121561202c57600080fd5b60006120388686611c27565b935050602061204986828701611d06565b925050604061205a86828701611d06565b9150509250925092565b6000806000806040858703121561207a57600080fd5b84356001600160401b0381111561209057600080fd5b61209c87828801611c32565b945094505060208501356001600160401b038111156120ba57600080fd5b6120c687828801611c32565b95989497509550505050565b6000602082840312156120e457600080fd5b600061130e8484611d11565b60006020828403121561210257600080fd5b600061130e8484611d1c565b60006020828403121561212057600080fd5b81356001600160401b0381111561213657600080fd5b61130e84828501611d68565b60006020828403121561215457600080fd5b600061130e8484611d06565b6000806040838503121561217357600080fd5b60006120068585611d06565b600080600080600080600060e0888a03121561219a57600080fd5b60006121a68a8a611d06565b97505060206121b78a828b01611dfe565b96505060406121c88a828b01611d06565b95505060606121d98a828b01611d06565b94505060808801356001600160401b038111156121f557600080fd5b6122018a828b01611c7a565b93505060a06122128a828b01611d06565b92505060c08801356001600160401b0381111561222e57600080fd5b61223a8a828b01611d68565b91505092959891949750929550565b60006122558383612269565b505060200190565b600061225583836123af565b61227281612cab565b82525050565b600061228382612c9e565b61228d8185612ca2565b935061229883612c98565b8060005b838110156122c65781516122b08882612249565b97506122bb83612c98565b92505060010161229c565b509495945050505050565b60006122dc82612c9e565b6122e68185612ca2565b93506122f183612c98565b8060005b838110156122c65781516123098882612249565b975061231483612c98565b9250506001016122f5565b600061232b8385612ca2565b93506001600160fb1b0383111561234157600080fd5b602083029250612352838584612ce5565b50500190565b600061236382612c9e565b61236d8185612ca2565b935061237883612c98565b8060005b838110156122c6578151612390888261225d565b975061239b83612c98565b92505060010161237c565b61227281612cb6565b61227281610a9a565b60006123c382612c9e565b6123cd8185612ca2565b93506123dd818560208601612cf1565b6123e681612d32565b9093019392505050565b6122726123fc82612cda565b612d21565b600061240e601c83612ca2565b7f4665652076616c75652073686f756c6420626520706f73697469766500000000815260200192915050565b6000612447601f83612ca2565b7f526f6c65733a206163636f756e7420616c72656164792068617320726f6c6500815260200192915050565b6000612480602683612ca2565b7f4f776e61626c653a206e6577206f776e657220697320746865207a65726f206181526564647265737360d01b602082015260400192915050565b60006124c8602083612ca2565b7f5f736574546f6b656e5552493a20546f6b656e2073686f756c64206578697374815260200192915050565b6000612501602583612ca2565b7f64657374696e6174696f6e2061646472657373206d757374206265206e6f6e2d8152643d32b9379760d91b602082015260400192915050565b6000612548602183612ca2565b7f526f6c65733a206163636f756e7420646f6573206e6f74206861766520726f6c8152606560f81b602082015260400192915050565b600061258b602b83612ca2565b7f4e656564206f70657261746f7220617070726f76616c20666f7220337264207081526a30b93a3c90313ab937399760a91b602082015260400192915050565b60006125d8602f83612ca2565b7f4e656564206f70657261746f7220617070726f76616c20666f7220337264207081526e30b93a3c903a3930b739b332b9399760891b602082015260400192915050565b6000612629603e83612ca2565b7f636f6e74726163742072657475726e656420616e20756e6b6e6f776e2076616c81527f75652066726f6d206f6e45524331313535426174636852656365697665640000602082015260400192915050565b6000612688602083612ca2565b7f4f776e61626c653a2063616c6c6572206973206e6f7420746865206f776e6572815260200192915050565b60006126c1602283612ca2565b7f526f6c65733a206163636f756e7420697320746865207a65726f206164647265815261737360f01b602082015260400192915050565b6000612705601783612ca2565b7f546f6b656e20697320616c7265616479206d696e746564000000000000000000815260200192915050565b600061273e601983612ca2565b7f537570706c792073686f756c6420626520706f73697469766500000000000000815260200192915050565b6000612777602983612ca2565b7f5f69647320616e64205f76616c756573206172726179206c656e676874206d7581526839ba1036b0ba31b41760b91b602082015260400192915050565b60006127c2601b83612ca2565b7f526563697069656e742073686f756c642062652070726573656e740000000000815260200192915050565b60006127fb603983612ca2565b7f636f6e74726163742072657475726e656420616e20756e6b6e6f776e2076616c81527f75652066726f6d206f6e45524331313535526563656976656400000000000000602082015260400192915050565b600061285a601583612ca2565b742fba379036bab9ba103132903737b716bd32b9379760591b815260200192915050565b600061288b601a83612ca2565b7f7369676e65722073686f756c64207369676e20746f6b656e4964000000000000815260200192915050565b60006128c4601183612ca2565b701d5c9a481cda1bdd5b19081899481cd95d607a1b815260200192915050565b6122726128f082610a9a565b610a9a565b61227281612cd4565b600061290a82856123f0565b60148201915061291a82846128e4565b5060200192915050565b6020810161040f8284612269565b604081016129408285612269565b61294d60208301846123af565b9392505050565b60a081016129628288612269565b61296f6020830187612269565b81810360408301526129818186612358565b905081810360608301526129958185612358565b905081810360808301526129a981846123b8565b979650505050505050565b60a081016129c28288612269565b6129cf6020830187612269565b6129dc60408301866123af565b6129e960608301856123af565b81810360808301526129a981846123b8565b6020808252810161294d81846122d1565b60408082528101612a1e81868861231f565b90508181036020830152612a3381848661231f565b9695505050505050565b6020808252810161294d8184612358565b6020810161040f82846123a6565b60808101612a6a82876123af565b612a7760208301866128f5565b612a8460408301856123af565b612a9160608301846123af565b95945050505050565b6020808252810161294d81846123b8565b6020808252810161040f81612401565b6020808252810161040f8161243a565b6020808252810161040f81612473565b6020808252810161040f816124bb565b6020808252810161040f816124f4565b6020808252810161040f8161253b565b6020808252810161040f8161257e565b6020808252810161040f816125cb565b6020808252810161040f8161261c565b6020808252810161040f8161267b565b6020808252810161040f816126b4565b6020808252810161040f816126f8565b6020808252810161040f81612731565b6020808252810161040f8161276a565b6020808252810161040f816127b5565b6020808252810161040f816127ee565b6020808252810161040f8161284d565b6020808252810161040f8161287e565b6020808252810161040f816128b7565b6020810161040f82846123af565b60608101612bf782866123af565b8181036020830152612c098185612278565b90508181036040830152612a918184612358565b6040810161294082856123af565b6040518181016001600160401b0381118282101715612c4957600080fd5b604052919050565b60006001600160401b03821115612c6757600080fd5b5060209081020190565b60006001600160401b03821115612c8757600080fd5b506020601f91909101601f19160190565b60200190565b5190565b90815260200190565b600061040f82612cc8565b151590565b6001600160e01b03191690565b6001600160a01b031690565b60ff1690565b600061040f82612cab565b82818337506000910152565b60005b83811015612d0c578181015183820152602001612cf4565b83811115612d1b576000848401525b50505050565b600061040f82600061040f82612d3c565b601f01601f191690565b60601b90565b612d4b81612cab565b81146104f857600080fd5b612d4b81612cb6565b612d4b81610a9a565b612d4b81612cbb565b612d4b81612cd456fea365627a7a723158207063bdda34a1ef9960513e4e549a839c15c117d62710a82a3de03d89bd2e16ca6c6578706572696d656e74616cf564736f6c63430005110040",
  "source": "pragma solidity ^0.5.0;\npragma experimental ABIEncoderV2;\n\nimport \"./RaribleToken.sol\";\n\ncontract RaribleUserToken is RaribleToken {\n    event CreateERC1155_v1(address indexed creator, string name, string symbol);\n\n    constructor(string memory name, string memory symbol, string memory contractURI, string memory tokenURIPrefix, address signer) RaribleToken(name, symbol, signer, contractURI, tokenURIPrefix) public {\n        emit CreateERC1155_v1(msg.sender, name, symbol);\n    }\n\n    function mint(uint256 id, uint8 v, bytes32 r, bytes32 s, Fee[] memory fees, uint256 supply, string memory uri) onlyOwner public {\n        super.mint(id, v, r, s, fees, supply, uri);\n    }\n}\n",
  "sourcePath": "/home/quadro/Projects/tokenplace/tokenplace-contracts/contracts/RaribleUserToken.sol",
  "compiler": {
    "name": "solc",
    "version": "0.5.17+commit.d19bba13.Emscripten.clang"
  },
  "schemaVersion": "3.0.6",
  "updatedAt": "2020-05-27T11:30:37.256Z",
  "devdoc": {
    "methods": {
      "balanceOf(address,uint256)": {
        "params": {
          "_id": "ID of the Token",
          "_owner": "The address of the token holder"
        },
        "return": "The _owner's balance of the Token type requested"
      },
      "balanceOfBatch(address[],uint256[])": {
        "params": {
          "_ids": "ID of the Tokens",
          "_owners": "The addresses of the token holders"
        },
        "return": "The _owner's balance of the Token types requested (i.e. balance for each (owner, id) pair)"
      },
      "isApprovedForAll(address,address)": {
        "params": {
          "_operator": "Address of authorized operator",
          "_owner": "The owner of the Tokens"
        },
        "return": "True if the operator is approved, false if not"
      },
      "isOwner()": {
        "details": "Returns true if the caller is the current owner."
      },
      "owner()": {
        "details": "Returns the address of the current owner."
      },
      "renounceOwnership()": {
        "details": "Leaves the contract without owner. It will not be possible to call `onlyOwner` functions anymore. Can only be called by the current owner.     * NOTE: Renouncing ownership will leave the contract without an owner, thereby removing any functionality that is only available to the owner."
      },
      "safeBatchTransferFrom(address,address,uint256[],uint256[],bytes)": {
        "details": "Caller must be approved to manage the tokens being transferred out of the `_from` account (see \"Approval\" section of the standard). MUST revert if `_to` is the zero address. MUST revert if length of `_ids` is not the same as length of `_values`. MUST revert if any of the balance(s) of the holder(s) for token(s) in `_ids` is lower than the respective amount(s) in `_values` sent to the recipient. MUST revert on any other error. MUST emit `TransferSingle` or `TransferBatch` event(s) such that all the balance changes are reflected (see \"Safe Transfer Rules\" section of the standard). Balance changes and events MUST follow the ordering of the arrays (_ids[0]/_values[0] before _ids[1]/_values[1], etc). After the above conditions for the transfer(s) in the batch are met, this function MUST check if `_to` is a smart contract (e.g. code size > 0). If so, it MUST call the relevant `ERC1155TokenReceiver` hook(s) on `_to` and act appropriately (see \"Safe Transfer Rules\" section of the standard).",
        "params": {
          "_data": "Additional data with no specified format, MUST be sent unaltered in call to the `ERC1155TokenReceiver` hook(s) on `_to`",
          "_from": "Source address",
          "_ids": "IDs of each token type (order and length must match _values array)",
          "_to": "Target address",
          "_values": "Transfer amounts per token type (order and length must match _ids array)"
        }
      },
      "safeTransferFrom(address,address,uint256,uint256,bytes)": {
        "details": "Caller must be approved to manage the tokens being transferred out of the `_from` account (see \"Approval\" section of the standard). MUST revert if `_to` is the zero address. MUST revert if balance of holder for token `_id` is lower than the `_value` sent. MUST revert on any other error. MUST emit the `TransferSingle` event to reflect the balance change (see \"Safe Transfer Rules\" section of the standard). After the above conditions are met, this function MUST check if `_to` is a smart contract (e.g. code size > 0). If so, it MUST call `onERC1155Received` on `_to` and act appropriately (see \"Safe Transfer Rules\" section of the standard).",
        "params": {
          "_data": "Additional data with no specified format, MUST be sent unaltered in call to `onERC1155Received` on `_to`",
          "_from": "Source address",
          "_id": "ID of the token type",
          "_to": "Target address",
          "_value": "Transfer amount"
        }
      },
      "setApprovalForAll(address,bool)": {
        "details": "MUST emit the ApprovalForAll event on success.",
        "params": {
          "_approved": "True if the operator is approved, false to revoke approval",
          "_operator": "Address to add to the set of authorized operators"
        }
      },
      "supportsInterface(bytes4)": {
        "details": "See {IERC165-supportsInterface}.     * Time complexity O(1), guaranteed to always use less than 30 000 gas."
      },
      "transferOwnership(address)": {
        "details": "Transfers ownership of the contract to a new account (`newOwner`). Can only be called by the current owner."
      }
    }
  },
  "userdoc": {
    "methods": {
      "balanceOf(address,uint256)": {
        "notice": "Get the balance of an account's Tokens."
      },
      "balanceOfBatch(address[],uint256[])": {
        "notice": "Get the balance of multiple account/token pairs"
      },
      "isApprovedForAll(address,address)": {
        "notice": "Queries the approval status of an operator for a given owner."
      },
      "safeBatchTransferFrom(address,address,uint256[],uint256[],bytes)": {
        "notice": "Transfers `_values` amount(s) of `_ids` from the `_from` address to the `_to` address specified (with safety call)."
      },
      "safeTransferFrom(address,address,uint256,uint256,bytes)": {
        "notice": "Transfers `_value` amount of an `_id` from the `_from` address to the `_to` address specified (with safety call)."
      },
      "setApprovalForAll(address,bool)": {
        "notice": "Enable or disable approval for a third party (\"operator\") to manage all of the caller's tokens."
      }
    }
  }
}