{
  "contractName": "RoyaltiesV1TestImpl",
  "abi": [
    {
      "anonymous": false,
      "inputs": [
        {
          "indexed": false,
          "internalType": "uint256",
          "name": "tokenId",
          "type": "uint256"
        },
        {
          "indexed": false,
          "internalType": "address[]",
          "name": "recipients",
          "type": "address[]"
        },
        {
          "indexed": false,
          "internalType": "uint256[]",
          "name": "bps",
          "type": "uint256[]"
        }
      ],
      "name": "SecondarySaleFees",
      "type": "event"
    },
    {
      "inputs": [
        {
          "internalType": "uint256",
          "name": "id",
          "type": "uint256"
        }
      ],
      "name": "getFeeBps",
      "outputs": [
        {
          "internalType": "uint256[]",
          "name": "",
          "type": "uint256[]"
        }
      ],
      "stateMutability": "view",
      "type": "function"
    },
    {
      "inputs": [
        {
          "internalType": "uint256",
          "name": "id",
          "type": "uint256"
        }
      ],
      "name": "getFeeRecipients",
      "outputs": [
        {
          "internalType": "address payable[]",
          "name": "",
          "type": "address[]"
        }
      ],
      "stateMutability": "view",
      "type": "function"
    },
    {
      "inputs": [
        {
          "internalType": "uint256",
          "name": "",
          "type": "uint256"
        },
        {
          "internalType": "uint256",
          "name": "",
          "type": "uint256"
        }
      ],
      "name": "royalties",
      "outputs": [
        {
          "internalType": "address payable",
          "name": "account",
          "type": "address"
        },
        {
          "internalType": "uint96",
          "name": "value",
          "type": "uint96"
        }
      ],
      "stateMutability": "view",
      "type": "function"
    },
    {
      "inputs": [
        {
          "internalType": "uint256",
          "name": "_id",
          "type": "uint256"
        },
        {
          "components": [
            {
              "internalType": "address payable",
              "name": "account",
              "type": "address"
            },
            {
              "internalType": "uint96",
              "name": "value",
              "type": "uint96"
            }
          ],
          "internalType": "struct LibPart.Part[]",
          "name": "_royalties",
          "type": "tuple[]"
        }
      ],
      "name": "saveRoyalties",
      "outputs": [],
      "stateMutability": "nonpayable",
      "type": "function"
    },
    {
      "inputs": [
        {
          "internalType": "uint256",
          "name": "_id",
          "type": "uint256"
        },
        {
          "internalType": "address",
          "name": "_from",
          "type": "address"
        },
        {
          "internalType": "address",
          "name": "_to",
          "type": "address"
        }
      ],
      "name": "updateAccount",
      "outputs": [],
      "stateMutability": "nonpayable",
      "type": "function"
    }
  ],
  "bytecode": "0x608060405234801561001057600080fd5b50611053806100206000396000f3fe608060405234801561001057600080fd5b50600436106100575760003560e01c80630ebd4c7f1461005c5780638924af741461008c578063a0f0c7b5146100bd578063b9c4d9fb146100d9578063e07f231914610109575b600080fd5b61007660048036038101906100719190610bed565b610125565b6040516100839190610e68565b60405180910390f35b6100a660048036038101906100a19190610cb9565b6102d1565b6040516100b4929190610e1d565b60405180910390f35b6100d760048036038101906100d29190610c65565b610346565b005b6100f360048036038101906100ee9190610bed565b610354565b6040516101009190610e46565b60405180910390f35b610123600480360381019061011e9190610c16565b610520565b005b60606000806000848152602001908152602001600020805480602002602001604051908101604052809291908181526020016000905b8282101561021d578382906000526020600020016040518060400160405290816000820160009054906101000a900473ffffffffffffffffffffffffffffffffffffffff1673ffffffffffffffffffffffffffffffffffffffff1673ffffffffffffffffffffffffffffffffffffffff1681526020016000820160149054906101000a90046bffffffffffffffffffffffff166bffffffffffffffffffffffff166bffffffffffffffffffffffff16815250508152602001906001019061015b565b5050505090506000815167ffffffffffffffff8111801561023d57600080fd5b5060405190808252806020026020018201604052801561026c5781602001602082028036833780820191505090505b50905060005b82518110156102c65782818151811061028757fe5b6020026020010151602001516bffffffffffffffffffffffff168282815181106102ad57fe5b6020026020010181815250508080600101915050610272565b508092505050919050565b600060205281600052604060002081815481106102ed57600080fd5b90600052602060002001600091509150508060000160009054906101000a900473ffffffffffffffffffffffffffffffffffffffff16908060000160149054906101000a90046bffffffffffffffffffffffff16905082565b6103508282610530565b5050565b60606000806000848152602001908152602001600020805480602002602001604051908101604052809291908181526020016000905b8282101561044c578382906000526020600020016040518060400160405290816000820160009054906101000a900473ffffffffffffffffffffffffffffffffffffffff1673ffffffffffffffffffffffffffffffffffffffff1673ffffffffffffffffffffffffffffffffffffffff1681526020016000820160149054906101000a90046bffffffffffffffffffffffff166bffffffffffffffffffffffff166bffffffffffffffffffffffff16815250508152602001906001019061038a565b5050505090506000815167ffffffffffffffff8111801561046c57600080fd5b5060405190808252806020026020018201604052801561049b5781602001602082028036833780820191505090505b50905060005b8251811015610515578281815181106104b657fe5b6020026020010151600001518282815181106104ce57fe5b602002602001019073ffffffffffffffffffffffffffffffffffffffff16908173ffffffffffffffffffffffffffffffffffffffff168152505080806001019150506104a1565b508092505050919050565b61052b838383610779565b505050565b60005b815181101561076a57600073ffffffffffffffffffffffffffffffffffffffff1682828151811061056057fe5b60200260200101516000015173ffffffffffffffffffffffffffffffffffffffff1614156105f6576040517f08c379a000000000000000000000000000000000000000000000000000000000815260040180806020018281038252601b8152602001807f526563697069656e742073686f756c642062652070726573656e74000000000081525060200191505060405180910390fd5b600082828151811061060457fe5b6020026020010151602001516bffffffffffffffffffffffff161415610692576040517f08c379a00000000000000000000000000000000000000000000000000000000081526004018080602001828103825260208152602001807f526f79616c74792076616c75652073686f756c6420626520706f73697469766581525060200191505060405180910390fd5b6000808481526020019081526020016000208282815181106106b057fe5b60200260200101519080600181540180825580915050600190039060005260206000200160009091909190915060008201518160000160006101000a81548173ffffffffffffffffffffffffffffffffffffffff021916908373ffffffffffffffffffffffffffffffffffffffff16021790555060208201518160000160146101000a8154816bffffffffffffffffffffffff02191690836bffffffffffffffffffffffff16021790555050508080600101915050610533565b50610775828261089a565b5050565b600080600085815260200190815260200160002080549050905060005b81811015610893578373ffffffffffffffffffffffffffffffffffffffff1660008087815260200190815260200160002082815481106107d257fe5b9060005260206000200160000160009054906101000a900473ffffffffffffffffffffffffffffffffffffffff1673ffffffffffffffffffffffffffffffffffffffff1614156108865782600080878152602001908152602001600020828154811061083a57fe5b9060005260206000200160000160006101000a81548173ffffffffffffffffffffffffffffffffffffffff021916908373ffffffffffffffffffffffffffffffffffffffff1602179055505b8080600101915050610796565b5050505050565b6000815167ffffffffffffffff811180156108b457600080fd5b506040519080825280602002602001820160405280156108e35781602001602082028036833780820191505090505b5090506000825167ffffffffffffffff8111801561090057600080fd5b5060405190808252806020026020018201604052801561092f5781602001602082028036833780820191505090505b50905060005b83518110156109e75783818151811061094a57fe5b60200260200101516000015183828151811061096257fe5b602002602001019073ffffffffffffffffffffffffffffffffffffffff16908173ffffffffffffffffffffffffffffffffffffffff16815250508381815181106109a857fe5b6020026020010151602001516bffffffffffffffffffffffff168282815181106109ce57fe5b6020026020010181815250508080600101915050610935565b507f99aba1d63749cfd5ad1afda7c4663840924d54eb5f005bbbeadedc6ec13674b2848383604051808481526020018060200180602001838103835285818151815260200191508051906020019060200280838360005b83811015610a59578082015181840152602081019050610a3e565b50505050905001838103825284818151815260200191508051906020019060200280838360005b83811015610a9b578082015181840152602081019050610a80565b505050509050019550505050505060405180910390a150505050565b6000610aca610ac584610ebb565b610e8a565b90508083825260208201905082856040860282011115610ae957600080fd5b60005b85811015610b195781610aff8882610b77565b845260208401935060408301925050600181019050610aec565b5050509392505050565b600081359050610b3281610fc1565b92915050565b600081359050610b4781610fd8565b92915050565b600082601f830112610b5e57600080fd5b8135610b6e848260208601610ab7565b91505092915050565b600060408284031215610b8957600080fd5b610b936040610e8a565b90506000610ba384828501610b38565b6000830152506020610bb784828501610bd8565b60208301525092915050565b600081359050610bd281610fef565b92915050565b600081359050610be781611006565b92915050565b600060208284031215610bff57600080fd5b6000610c0d84828501610bc3565b91505092915050565b600080600060608486031215610c2b57600080fd5b6000610c3986828701610bc3565b9350506020610c4a86828701610b23565b9250506040610c5b86828701610b23565b9150509250925092565b60008060408385031215610c7857600080fd5b6000610c8685828601610bc3565b925050602083013567ffffffffffffffff811115610ca357600080fd5b610caf85828601610b4d565b9150509250929050565b60008060408385031215610ccc57600080fd5b6000610cda85828601610bc3565b9250506020610ceb85828601610bc3565b9150509250929050565b6000610d018383610d25565b60208301905092915050565b6000610d198383610dff565b60208301905092915050565b610d2e81610f6b565b82525050565b610d3d81610f6b565b82525050565b6000610d4e82610f07565b610d588185610f37565b9350610d6383610ee7565b8060005b83811015610d94578151610d7b8882610cf5565b9750610d8683610f1d565b925050600181019050610d67565b5085935050505092915050565b6000610dac82610f12565b610db68185610f48565b9350610dc183610ef7565b8060005b83811015610df2578151610dd98882610d0d565b9750610de483610f2a565b925050600181019050610dc5565b5085935050505092915050565b610e0881610f9d565b82525050565b610e1781610fa7565b82525050565b6000604082019050610e326000830185610d34565b610e3f6020830184610e0e565b9392505050565b60006020820190508181036000830152610e608184610d43565b905092915050565b60006020820190508181036000830152610e828184610da1565b905092915050565b6000604051905081810181811067ffffffffffffffff82111715610eb157610eb0610fbf565b5b8060405250919050565b600067ffffffffffffffff821115610ed657610ed5610fbf565b5b602082029050602081019050919050565b6000819050602082019050919050565b6000819050602082019050919050565b600081519050919050565b600081519050919050565b6000602082019050919050565b6000602082019050919050565b600082825260208201905092915050565b600082825260208201905092915050565b6000610f6482610f7d565b9050919050565b6000610f7682610f7d565b9050919050565b600073ffffffffffffffffffffffffffffffffffffffff82169050919050565b6000819050919050565b60006bffffffffffffffffffffffff82169050919050565bfe5b610fca81610f59565b8114610fd557600080fd5b50565b610fe181610f6b565b8114610fec57600080fd5b50565b610ff881610f9d565b811461100357600080fd5b50565b61100f81610fa7565b811461101a57600080fd5b5056fea26469706673582212200131cdb28322830468682a592977b1cc63d51e6b88041d8f033d03e0e6cacb3964736f6c63430007060033",
  "immutableReferences": {},
  "source": "// SPDX-License-Identifier: MIT\n\npragma solidity >=0.6.2 <0.8.0;\npragma abicoder v2;\n\nimport \"./impl/RoyaltiesV1Impl.sol\";\n\ncontract RoyaltiesV1TestImpl is RoyaltiesV1Impl {\n    function saveRoyalties(uint256 _id, LibPart.Part[] memory _royalties) external {\n        _saveRoyalties(_id, _royalties);\n    }\n\n    function updateAccount(uint256 _id, address _from, address _to) external {\n        _updateAccount(_id, _from, _to);\n    }\n}\n",
  "sourcePath": "/Users/sergey/Projects/rarible/protocol-contracts/royalties/contracts/RoyaltiesV1TestImpl.sol",
  "compiler": {
    "name": "solc",
    "version": "0.7.6+commit.7338295f.Emscripten.clang"
  },
  "schemaVersion": "3.4.0",
  "updatedAt": "2021-04-26T16:37:37.216Z",
  "devdoc": {
    "kind": "dev",
    "methods": {},
    "version": 1
  },
  "userdoc": {
    "kind": "user",
    "methods": {},
    "version": 1
  }
}